{
	"erc20.sol": {
		"PHOINIX_Token": {
			"abi": [
				{
					"inputs": [],
					"stateMutability": "nonpayable",
					"type": "constructor"
				},
				{
					"anonymous": false,
					"inputs": [
						{
							"indexed": true,
							"internalType": "address",
							"name": "owner",
							"type": "address"
						},
						{
							"indexed": true,
							"internalType": "address",
							"name": "spender",
							"type": "address"
						},
						{
							"indexed": false,
							"internalType": "uint256",
							"name": "value",
							"type": "uint256"
						}
					],
					"name": "Approval",
					"type": "event"
				},
				{
					"anonymous": false,
					"inputs": [
						{
							"indexed": true,
							"internalType": "address",
							"name": "previousOwner",
							"type": "address"
						},
						{
							"indexed": true,
							"internalType": "address",
							"name": "newOwner",
							"type": "address"
						}
					],
					"name": "OwnershipTransferred",
					"type": "event"
				},
				{
					"anonymous": false,
					"inputs": [
						{
							"indexed": true,
							"internalType": "bytes32",
							"name": "role",
							"type": "bytes32"
						},
						{
							"indexed": true,
							"internalType": "bytes32",
							"name": "previousAdminRole",
							"type": "bytes32"
						},
						{
							"indexed": true,
							"internalType": "bytes32",
							"name": "newAdminRole",
							"type": "bytes32"
						}
					],
					"name": "RoleAdminChanged",
					"type": "event"
				},
				{
					"anonymous": false,
					"inputs": [
						{
							"indexed": true,
							"internalType": "bytes32",
							"name": "role",
							"type": "bytes32"
						},
						{
							"indexed": true,
							"internalType": "address",
							"name": "account",
							"type": "address"
						},
						{
							"indexed": true,
							"internalType": "address",
							"name": "sender",
							"type": "address"
						}
					],
					"name": "RoleGranted",
					"type": "event"
				},
				{
					"anonymous": false,
					"inputs": [
						{
							"indexed": true,
							"internalType": "bytes32",
							"name": "role",
							"type": "bytes32"
						},
						{
							"indexed": true,
							"internalType": "address",
							"name": "account",
							"type": "address"
						},
						{
							"indexed": true,
							"internalType": "address",
							"name": "sender",
							"type": "address"
						}
					],
					"name": "RoleRevoked",
					"type": "event"
				},
				{
					"anonymous": false,
					"inputs": [
						{
							"indexed": true,
							"internalType": "address",
							"name": "from",
							"type": "address"
						},
						{
							"indexed": true,
							"internalType": "address",
							"name": "to",
							"type": "address"
						},
						{
							"indexed": false,
							"internalType": "uint256",
							"name": "value",
							"type": "uint256"
						}
					],
					"name": "Transfer",
					"type": "event"
				},
				{
					"inputs": [],
					"name": "DEFAULT_ADMIN_ROLE",
					"outputs": [
						{
							"internalType": "bytes32",
							"name": "",
							"type": "bytes32"
						}
					],
					"stateMutability": "view",
					"type": "function"
				},
				{
					"inputs": [],
					"name": "MINTER_ROLE",
					"outputs": [
						{
							"internalType": "bytes32",
							"name": "",
							"type": "bytes32"
						}
					],
					"stateMutability": "view",
					"type": "function"
				},
				{
					"inputs": [
						{
							"internalType": "address",
							"name": "_user",
							"type": "address"
						}
					],
					"name": "addMinter",
					"outputs": [],
					"stateMutability": "nonpayable",
					"type": "function"
				},
				{
					"inputs": [
						{
							"internalType": "address",
							"name": "owner",
							"type": "address"
						},
						{
							"internalType": "address",
							"name": "spender",
							"type": "address"
						}
					],
					"name": "allowance",
					"outputs": [
						{
							"internalType": "uint256",
							"name": "",
							"type": "uint256"
						}
					],
					"stateMutability": "view",
					"type": "function"
				},
				{
					"inputs": [
						{
							"internalType": "address",
							"name": "spender",
							"type": "address"
						},
						{
							"internalType": "uint256",
							"name": "amount",
							"type": "uint256"
						}
					],
					"name": "approve",
					"outputs": [
						{
							"internalType": "bool",
							"name": "",
							"type": "bool"
						}
					],
					"stateMutability": "nonpayable",
					"type": "function"
				},
				{
					"inputs": [
						{
							"internalType": "address",
							"name": "account",
							"type": "address"
						}
					],
					"name": "balanceOf",
					"outputs": [
						{
							"internalType": "uint256",
							"name": "",
							"type": "uint256"
						}
					],
					"stateMutability": "view",
					"type": "function"
				},
				{
					"inputs": [
						{
							"internalType": "address",
							"name": "account",
							"type": "address"
						},
						{
							"internalType": "uint256",
							"name": "amount",
							"type": "uint256"
						}
					],
					"name": "burn",
					"outputs": [],
					"stateMutability": "nonpayable",
					"type": "function"
				},
				{
					"inputs": [],
					"name": "decimals",
					"outputs": [
						{
							"internalType": "uint8",
							"name": "",
							"type": "uint8"
						}
					],
					"stateMutability": "view",
					"type": "function"
				},
				{
					"inputs": [
						{
							"internalType": "address",
							"name": "spender",
							"type": "address"
						},
						{
							"internalType": "uint256",
							"name": "subtractedValue",
							"type": "uint256"
						}
					],
					"name": "decreaseAllowance",
					"outputs": [
						{
							"internalType": "bool",
							"name": "",
							"type": "bool"
						}
					],
					"stateMutability": "nonpayable",
					"type": "function"
				},
				{
					"inputs": [
						{
							"internalType": "bytes32",
							"name": "role",
							"type": "bytes32"
						}
					],
					"name": "getRoleAdmin",
					"outputs": [
						{
							"internalType": "bytes32",
							"name": "",
							"type": "bytes32"
						}
					],
					"stateMutability": "view",
					"type": "function"
				},
				{
					"inputs": [
						{
							"internalType": "bytes32",
							"name": "role",
							"type": "bytes32"
						},
						{
							"internalType": "address",
							"name": "account",
							"type": "address"
						}
					],
					"name": "grantRole",
					"outputs": [],
					"stateMutability": "nonpayable",
					"type": "function"
				},
				{
					"inputs": [
						{
							"internalType": "bytes32",
							"name": "role",
							"type": "bytes32"
						},
						{
							"internalType": "address",
							"name": "account",
							"type": "address"
						}
					],
					"name": "hasRole",
					"outputs": [
						{
							"internalType": "bool",
							"name": "",
							"type": "bool"
						}
					],
					"stateMutability": "view",
					"type": "function"
				},
				{
					"inputs": [
						{
							"internalType": "address",
							"name": "spender",
							"type": "address"
						},
						{
							"internalType": "uint256",
							"name": "addedValue",
							"type": "uint256"
						}
					],
					"name": "increaseAllowance",
					"outputs": [
						{
							"internalType": "bool",
							"name": "",
							"type": "bool"
						}
					],
					"stateMutability": "nonpayable",
					"type": "function"
				},
				{
					"inputs": [
						{
							"internalType": "address",
							"name": "account",
							"type": "address"
						},
						{
							"internalType": "uint256",
							"name": "amount",
							"type": "uint256"
						}
					],
					"name": "mint",
					"outputs": [],
					"stateMutability": "nonpayable",
					"type": "function"
				},
				{
					"inputs": [],
					"name": "name",
					"outputs": [
						{
							"internalType": "string",
							"name": "",
							"type": "string"
						}
					],
					"stateMutability": "view",
					"type": "function"
				},
				{
					"inputs": [],
					"name": "owner",
					"outputs": [
						{
							"internalType": "address",
							"name": "",
							"type": "address"
						}
					],
					"stateMutability": "view",
					"type": "function"
				},
				{
					"inputs": [],
					"name": "renounceOwnership",
					"outputs": [],
					"stateMutability": "nonpayable",
					"type": "function"
				},
				{
					"inputs": [
						{
							"internalType": "bytes32",
							"name": "role",
							"type": "bytes32"
						},
						{
							"internalType": "address",
							"name": "account",
							"type": "address"
						}
					],
					"name": "renounceRole",
					"outputs": [],
					"stateMutability": "nonpayable",
					"type": "function"
				},
				{
					"inputs": [
						{
							"internalType": "bytes32",
							"name": "role",
							"type": "bytes32"
						},
						{
							"internalType": "address",
							"name": "account",
							"type": "address"
						}
					],
					"name": "revokeRole",
					"outputs": [],
					"stateMutability": "nonpayable",
					"type": "function"
				},
				{
					"inputs": [
						{
							"internalType": "bytes4",
							"name": "interfaceId",
							"type": "bytes4"
						}
					],
					"name": "supportsInterface",
					"outputs": [
						{
							"internalType": "bool",
							"name": "",
							"type": "bool"
						}
					],
					"stateMutability": "view",
					"type": "function"
				},
				{
					"inputs": [],
					"name": "symbol",
					"outputs": [
						{
							"internalType": "string",
							"name": "",
							"type": "string"
						}
					],
					"stateMutability": "view",
					"type": "function"
				},
				{
					"inputs": [],
					"name": "totalSupply",
					"outputs": [
						{
							"internalType": "uint256",
							"name": "",
							"type": "uint256"
						}
					],
					"stateMutability": "view",
					"type": "function"
				},
				{
					"inputs": [
						{
							"internalType": "address",
							"name": "recipient",
							"type": "address"
						},
						{
							"internalType": "uint256",
							"name": "amount",
							"type": "uint256"
						}
					],
					"name": "transfer",
					"outputs": [
						{
							"internalType": "bool",
							"name": "",
							"type": "bool"
						}
					],
					"stateMutability": "nonpayable",
					"type": "function"
				},
				{
					"inputs": [
						{
							"internalType": "address",
							"name": "sender",
							"type": "address"
						},
						{
							"internalType": "address",
							"name": "recipient",
							"type": "address"
						},
						{
							"internalType": "uint256",
							"name": "amount",
							"type": "uint256"
						}
					],
					"name": "transferFrom",
					"outputs": [
						{
							"internalType": "bool",
							"name": "",
							"type": "bool"
						}
					],
					"stateMutability": "nonpayable",
					"type": "function"
				},
				{
					"inputs": [
						{
							"internalType": "address",
							"name": "newOwner",
							"type": "address"
						}
					],
					"name": "transferOwnership",
					"outputs": [],
					"stateMutability": "nonpayable",
					"type": "function"
				}
			],
			"devdoc": {
				"kind": "dev",
				"methods": {
					"allowance(address,address)": {
						"details": "See {IERC20-allowance}."
					},
					"approve(address,uint256)": {
						"details": "See {IERC20-approve}. Requirements: - `spender` cannot be the zero address."
					},
					"balanceOf(address)": {
						"details": "See {IERC20-balanceOf}."
					},
					"constructor": {
						"details": "Sets the values for {name} and {symbol}. The defaut value of {decimals} is 18. To select a different value for {decimals} you should overload it. All three of these values are immutable: they can only be set once during construction."
					},
					"decimals()": {
						"details": "Returns the number of decimals used to get its user representation. For example, if `decimals` equals `2`, a balance of `505` tokens should be displayed to a user as `5,05` (`505 / 10 ** 2`). Tokens usually opt for a value of 18, imitating the relationship between Ether and Wei. This is the value {ERC20} uses, unless this function is overloaded; NOTE: This information is only used for _display_ purposes: it in no way affects any of the arithmetic of the contract, including {IERC20-balanceOf} and {IERC20-transfer}."
					},
					"decreaseAllowance(address,uint256)": {
						"details": "Atomically decreases the allowance granted to `spender` by the caller. This is an alternative to {approve} that can be used as a mitigation for problems described in {IERC20-approve}. Emits an {Approval} event indicating the updated allowance. Requirements: - `spender` cannot be the zero address. - `spender` must have allowance for the caller of at least `subtractedValue`."
					},
					"getRoleAdmin(bytes32)": {
						"details": "Returns the admin role that controls `role`. See {grantRole} and {revokeRole}. To change a role's admin, use {_setRoleAdmin}."
					},
					"grantRole(bytes32,address)": {
						"details": "Grants `role` to `account`. If `account` had not been already granted `role`, emits a {RoleGranted} event. Requirements: - the caller must have ``role``'s admin role. May emit a {RoleGranted} event."
					},
					"hasRole(bytes32,address)": {
						"details": "Returns `true` if `account` has been granted `role`."
					},
					"increaseAllowance(address,uint256)": {
						"details": "Atomically increases the allowance granted to `spender` by the caller. This is an alternative to {approve} that can be used as a mitigation for problems described in {IERC20-approve}. Emits an {Approval} event indicating the updated allowance. Requirements: - `spender` cannot be the zero address."
					},
					"name()": {
						"details": "Returns the name of the token."
					},
					"owner()": {
						"details": "Returns the address of the current owner."
					},
					"renounceOwnership()": {
						"details": "Leaves the contract without owner. It will not be possible to call `onlyOwner` functions anymore. Can only be called by the current owner. NOTE: Renouncing ownership will leave the contract without an owner, thereby removing any functionality that is only available to the owner."
					},
					"renounceRole(bytes32,address)": {
						"details": "Revokes `role` from the calling account. Roles are often managed via {grantRole} and {revokeRole}: this function's purpose is to provide a mechanism for accounts to lose their privileges if they are compromised (such as when a trusted device is misplaced). If the calling account had been revoked `role`, emits a {RoleRevoked} event. Requirements: - the caller must be `account`. May emit a {RoleRevoked} event."
					},
					"revokeRole(bytes32,address)": {
						"details": "Revokes `role` from `account`. If `account` had been granted `role`, emits a {RoleRevoked} event. Requirements: - the caller must have ``role``'s admin role. May emit a {RoleRevoked} event."
					},
					"supportsInterface(bytes4)": {
						"details": "See {IERC165-supportsInterface}."
					},
					"symbol()": {
						"details": "Returns the symbol of the token, usually a shorter version of the name."
					},
					"totalSupply()": {
						"details": "See {IERC20-totalSupply}."
					},
					"transfer(address,uint256)": {
						"details": "See {IERC20-transfer}. Requirements: - `recipient` cannot be the zero address. - the caller must have a balance of at least `amount`."
					},
					"transferFrom(address,address,uint256)": {
						"details": "See {IERC20-transferFrom}. Emits an {Approval} event indicating the updated allowance. This is not required by the EIP. See the note at the beginning of {ERC20}. Requirements: - `sender` and `recipient` cannot be the zero address. - `sender` must have a balance of at least `amount`. - the caller must have allowance for ``sender``'s tokens of at least `amount`."
					},
					"transferOwnership(address)": {
						"details": "Transfers ownership of the contract to a new account (`newOwner`). Can only be called by the current owner."
					}
				},
				"version": 1
			},
			"evm": {
				"assembly": "    /* \"erc20.sol\":22860:33118  contract PHOINIX_Token is Context, IERC20, IERC20Metadata, Ownable, AccessControl {\r... */\n  mstore(0x40, 0x80)\n    /* \"erc20.sol\":23490:23728  constructor () {\r... */\n  callvalue\n  dup1\n  iszero\n  tag_1\n  jumpi\n  0x00\n  dup1\n  revert\ntag_1:\n  pop\n    /* \"erc20.sol\":5459:5476  address msgSender */\n  0x00\n    /* \"erc20.sol\":5479:5491  _msgSender() */\n  tag_5\n    /* \"erc20.sol\":5479:5489  _msgSender */\n  shl(0x20, tag_6)\n    /* \"erc20.sol\":5479:5491  _msgSender() */\n  0x20\n  shr\n  jump\t// in\ntag_5:\n    /* \"erc20.sol\":5459:5491  address msgSender = _msgSender() */\n  swap1\n  pop\n    /* \"erc20.sol\":5511:5520  msgSender */\n  dup1\n    /* \"erc20.sol\":5502:5508  _owner */\n  0x00\n  dup1\n    /* \"erc20.sol\":5502:5520  _owner = msgSender */\n  0x0100\n  exp\n  dup2\n  sload\n  dup2\n  0xffffffffffffffffffffffffffffffffffffffff\n  mul\n  not\n  and\n  swap1\n  dup4\n  0xffffffffffffffffffffffffffffffffffffffff\n  and\n  mul\n  or\n  swap1\n  sstore\n  pop\n    /* \"erc20.sol\":5569:5578  msgSender */\n  dup1\n    /* \"erc20.sol\":5536:5579  OwnershipTransferred(address(0), msgSender) */\n  0xffffffffffffffffffffffffffffffffffffffff\n  and\n    /* \"erc20.sol\":5565:5566  0 */\n  0x00\n    /* \"erc20.sol\":5536:5579  OwnershipTransferred(address(0), msgSender) */\n  0xffffffffffffffffffffffffffffffffffffffff\n  and\n  0x8be0079c531659141344cd1fd0a4f28419497f9722a3daafe3b4186f6b6457e0\n  mload(0x40)\n  mload(0x40)\n  dup1\n  swap2\n  sub\n  swap1\n  log3\n    /* \"erc20.sol\":5448:5587  {\r... */\n  pop\n    /* \"erc20.sol\":23516:23539  _name = \"PHOINIX_TOKEN\" */\n  mload(0x40)\n  dup1\n  0x40\n  add\n  0x40\n  mstore\n  dup1\n  0x0d\n  dup2\n  mstore\n  0x20\n  add\n  0x50484f494e49585f544f4b454e00000000000000000000000000000000000000\n  dup2\n  mstore\n  pop\n    /* \"erc20.sol\":23516:23521  _name */\n  0x05\n    /* \"erc20.sol\":23516:23539  _name = \"PHOINIX_TOKEN\" */\n  swap1\n  dup1\n  mload\n  swap1\n  0x20\n  add\n  swap1\n  tag_8\n  swap3\n  swap2\n  swap1\n  tag_9\n  jump\t// in\ntag_8:\n  pop\n    /* \"erc20.sol\":23550:23569  _symbol = \"PHOINIX\" */\n  mload(0x40)\n  dup1\n  0x40\n  add\n  0x40\n  mstore\n  dup1\n  0x07\n  dup2\n  mstore\n  0x20\n  add\n  0x50484f494e495800000000000000000000000000000000000000000000000000\n  dup2\n  mstore\n  pop\n    /* \"erc20.sol\":23550:23557  _symbol */\n  0x06\n    /* \"erc20.sol\":23550:23569  _symbol = \"PHOINIX\" */\n  swap1\n  dup1\n  mload\n  swap1\n  0x20\n  add\n  swap1\n  tag_10\n  swap3\n  swap2\n  swap1\n  tag_9\n  jump\t// in\ntag_10:\n  pop\n    /* \"erc20.sol\":23609:23619  decimals() */\n  tag_11\n    /* \"erc20.sol\":23609:23617  decimals */\n  shl(0x20, tag_12)\n    /* \"erc20.sol\":23609:23619  decimals() */\n  0x20\n  shr\n  jump\t// in\ntag_11:\n    /* \"erc20.sol\":23604:23606  10 */\n  0x0a\n    /* \"erc20.sol\":23604:23620  10**(decimals()) */\n  tag_13\n  swap2\n  swap1\n  tag_14\n  jump\t// in\ntag_13:\n    /* \"erc20.sol\":23595:23602  1000000 */\n  0x0f4240\n    /* \"erc20.sol\":23595:23620  1000000 *10**(decimals()) */\n  tag_15\n  swap2\n  swap1\n  tag_16\n  jump\t// in\ntag_15:\n    /* \"erc20.sol\":23580:23592  _totalSupply */\n  0x04\n    /* \"erc20.sol\":23580:23620  _totalSupply = 1000000 *10**(decimals()) */\n  dup2\n  swap1\n  sstore\n  pop\n    /* \"erc20.sol\":23657:23669  _totalSupply */\n  sload(0x04)\n    /* \"erc20.sol\":23631:23640  _balances */\n  0x02\n    /* \"erc20.sol\":23631:23654  _balances[_msgSender()] */\n  0x00\n    /* \"erc20.sol\":23641:23653  _msgSender() */\n  tag_17\n    /* \"erc20.sol\":23641:23651  _msgSender */\n  shl(0x20, tag_6)\n    /* \"erc20.sol\":23641:23653  _msgSender() */\n  0x20\n  shr\n  jump\t// in\ntag_17:\n    /* \"erc20.sol\":23631:23654  _balances[_msgSender()] */\n  0xffffffffffffffffffffffffffffffffffffffff\n  and\n  0xffffffffffffffffffffffffffffffffffffffff\n  and\n  dup2\n  mstore\n  0x20\n  add\n  swap1\n  dup2\n  mstore\n  0x20\n  add\n  0x00\n  keccak256\n    /* \"erc20.sol\":23631:23669  _balances[_msgSender()] = _totalSupply */\n  dup2\n  swap1\n  sstore\n  pop\n    /* \"erc20.sol\":23680:23714  _setupRole(MINTER_ROLE,msg.sender) */\n  tag_18\n    /* \"erc20.sol\":23774:23798  keccak256(\"MINTER_ROLE\") */\n  0x9f2df0fed2c77648de5860a4cc508cd0818c85b8b8a1ab4ceeef8d981c8956a6\n    /* \"erc20.sol\":23703:23713  msg.sender */\n  caller\n    /* \"erc20.sol\":23680:23690  _setupRole */\n  shl(0x20, tag_19)\n    /* \"erc20.sol\":23680:23714  _setupRole(MINTER_ROLE,msg.sender) */\n  0x20\n  shr\n  jump\t// in\ntag_18:\n    /* \"erc20.sol\":22860:33118  contract PHOINIX_Token is Context, IERC20, IERC20Metadata, Ownable, AccessControl {\r... */\n  jump(tag_20)\n    /* \"erc20.sol\":4314:4412  function _msgSender() internal view virtual returns (address) {\r... */\ntag_6:\n    /* \"erc20.sol\":4367:4374  address */\n  0x00\n    /* \"erc20.sol\":4394:4404  msg.sender */\n  caller\n    /* \"erc20.sol\":4387:4404  return msg.sender */\n  swap1\n  pop\n    /* \"erc20.sol\":4314:4412  function _msgSender() internal view virtual returns (address) {\r... */\n  swap1\n  jump\t// out\n    /* \"erc20.sol\":25110:25203  function decimals() public view virtual override returns (uint8) {\r... */\ntag_12:\n    /* \"erc20.sol\":25168:25173  uint8 */\n  0x00\n    /* \"erc20.sol\":25193:25195  18 */\n  0x12\n    /* \"erc20.sol\":25186:25195  return 18 */\n  swap1\n  pop\n    /* \"erc20.sol\":25110:25203  function decimals() public view virtual override returns (uint8) {\r... */\n  swap1\n  jump\t// out\n    /* \"erc20.sol\":21526:21638  function _setupRole(bytes32 role, address account) internal virtual {\r... */\ntag_19:\n    /* \"erc20.sol\":21605:21630  _grantRole(role, account) */\n  tag_24\n    /* \"erc20.sol\":21616:21620  role */\n  dup3\n    /* \"erc20.sol\":21622:21629  account */\n  dup3\n    /* \"erc20.sol\":21605:21615  _grantRole */\n  shl(0x20, tag_25)\n    /* \"erc20.sol\":21605:21630  _grantRole(role, account) */\n  0x20\n  shr\n  jump\t// in\ntag_24:\n    /* \"erc20.sol\":21526:21638  function _setupRole(bytes32 role, address account) internal virtual {\r... */\n  pop\n  pop\n  jump\t// out\n    /* \"erc20.sol\":22198:22436  function _grantRole(bytes32 role, address account) internal virtual {\r... */\ntag_25:\n    /* \"erc20.sol\":22282:22304  hasRole(role, account) */\n  tag_27\n    /* \"erc20.sol\":22290:22294  role */\n  dup3\n    /* \"erc20.sol\":22296:22303  account */\n  dup3\n    /* \"erc20.sol\":22282:22289  hasRole */\n  shl(0x20, tag_28)\n    /* \"erc20.sol\":22282:22304  hasRole(role, account) */\n  0x20\n  shr\n  jump\t// in\ntag_27:\n    /* \"erc20.sol\":22277:22429  if (!hasRole(role, account)) {\r... */\n  tag_29\n  jumpi\n    /* \"erc20.sol\":22353:22357  true */\n  0x01\n    /* \"erc20.sol\":22321:22327  _roles */\n  dup1\n    /* \"erc20.sol\":22321:22333  _roles[role] */\n  0x00\n    /* \"erc20.sol\":22328:22332  role */\n  dup5\n    /* \"erc20.sol\":22321:22333  _roles[role] */\n  dup2\n  mstore\n  0x20\n  add\n  swap1\n  dup2\n  mstore\n  0x20\n  add\n  0x00\n  keccak256\n    /* \"erc20.sol\":22321:22341  _roles[role].members */\n  0x00\n  add\n    /* \"erc20.sol\":22321:22350  _roles[role].members[account] */\n  0x00\n    /* \"erc20.sol\":22342:22349  account */\n  dup4\n    /* \"erc20.sol\":22321:22350  _roles[role].members[account] */\n  0xffffffffffffffffffffffffffffffffffffffff\n  and\n  0xffffffffffffffffffffffffffffffffffffffff\n  and\n  dup2\n  mstore\n  0x20\n  add\n  swap1\n  dup2\n  mstore\n  0x20\n  add\n  0x00\n  keccak256\n  0x00\n    /* \"erc20.sol\":22321:22357  _roles[role].members[account] = true */\n  0x0100\n  exp\n  dup2\n  sload\n  dup2\n  0xff\n  mul\n  not\n  and\n  swap1\n  dup4\n  iszero\n  iszero\n  mul\n  or\n  swap1\n  sstore\n  pop\n    /* \"erc20.sol\":22404:22416  _msgSender() */\n  tag_30\n    /* \"erc20.sol\":22404:22414  _msgSender */\n  shl(0x20, tag_6)\n    /* \"erc20.sol\":22404:22416  _msgSender() */\n  0x20\n  shr\n  jump\t// in\ntag_30:\n    /* \"erc20.sol\":22377:22417  RoleGranted(role, account, _msgSender()) */\n  0xffffffffffffffffffffffffffffffffffffffff\n  and\n    /* \"erc20.sol\":22395:22402  account */\n  dup2\n    /* \"erc20.sol\":22377:22417  RoleGranted(role, account, _msgSender()) */\n  0xffffffffffffffffffffffffffffffffffffffff\n  and\n    /* \"erc20.sol\":22389:22393  role */\n  dup4\n    /* \"erc20.sol\":22377:22417  RoleGranted(role, account, _msgSender()) */\n  0x2f8788117e7eff1d82e926ec794901d17c78024a50270940304540a733656f0d\n  mload(0x40)\n  mload(0x40)\n  dup1\n  swap2\n  sub\n  swap1\n  log4\n    /* \"erc20.sol\":22277:22429  if (!hasRole(role, account)) {\r... */\ntag_29:\n    /* \"erc20.sol\":22198:22436  function _grantRole(bytes32 role, address account) internal virtual {\r... */\n  pop\n  pop\n  jump\t// out\n    /* \"erc20.sol\":17489:17636  function hasRole(bytes32 role, address account) public view virtual override returns (bool) {\r... */\ntag_28:\n    /* \"erc20.sol\":17575:17579  bool */\n  0x00\n    /* \"erc20.sol\":17599:17605  _roles */\n  0x01\n    /* \"erc20.sol\":17599:17611  _roles[role] */\n  0x00\n    /* \"erc20.sol\":17606:17610  role */\n  dup5\n    /* \"erc20.sol\":17599:17611  _roles[role] */\n  dup2\n  mstore\n  0x20\n  add\n  swap1\n  dup2\n  mstore\n  0x20\n  add\n  0x00\n  keccak256\n    /* \"erc20.sol\":17599:17619  _roles[role].members */\n  0x00\n  add\n    /* \"erc20.sol\":17599:17628  _roles[role].members[account] */\n  0x00\n    /* \"erc20.sol\":17620:17627  account */\n  dup4\n    /* \"erc20.sol\":17599:17628  _roles[role].members[account] */\n  0xffffffffffffffffffffffffffffffffffffffff\n  and\n  0xffffffffffffffffffffffffffffffffffffffff\n  and\n  dup2\n  mstore\n  0x20\n  add\n  swap1\n  dup2\n  mstore\n  0x20\n  add\n  0x00\n  keccak256\n  0x00\n  swap1\n  sload\n  swap1\n  0x0100\n  exp\n  swap1\n  div\n  0xff\n  and\n    /* \"erc20.sol\":17592:17628  return _roles[role].members[account] */\n  swap1\n  pop\n    /* \"erc20.sol\":17489:17636  function hasRole(bytes32 role, address account) public view virtual override returns (bool) {\r... */\n  swap3\n  swap2\n  pop\n  pop\n  jump\t// out\n    /* \"erc20.sol\":22860:33118  contract PHOINIX_Token is Context, IERC20, IERC20Metadata, Ownable, AccessControl {\r... */\ntag_9:\n  dup3\n  dup1\n  sload\n  tag_32\n  swap1\n  tag_33\n  jump\t// in\ntag_32:\n  swap1\n  0x00\n  mstore\n  keccak256(0x00, 0x20)\n  swap1\n  0x1f\n  add\n  0x20\n  swap1\n  div\n  dup2\n  add\n  swap3\n  dup3\n  tag_35\n  jumpi\n  0x00\n  dup6\n  sstore\n  jump(tag_34)\ntag_35:\n  dup3\n  0x1f\n  lt\n  tag_36\n  jumpi\n  dup1\n  mload\n  not(0xff)\n  and\n  dup4\n  dup1\n  add\n  or\n  dup6\n  sstore\n  jump(tag_34)\ntag_36:\n  dup3\n  dup1\n  add\n  0x01\n  add\n  dup6\n  sstore\n  dup3\n  iszero\n  tag_34\n  jumpi\n  swap2\n  dup3\n  add\ntag_37:\n  dup3\n  dup2\n  gt\n  iszero\n  tag_38\n  jumpi\n  dup3\n  mload\n  dup3\n  sstore\n  swap2\n  0x20\n  add\n  swap2\n  swap1\n  0x01\n  add\n  swap1\n  jump(tag_37)\ntag_38:\ntag_34:\n  pop\n  swap1\n  pop\n  tag_39\n  swap2\n  swap1\n  tag_40\n  jump\t// in\ntag_39:\n  pop\n  swap1\n  jump\t// out\ntag_40:\ntag_41:\n  dup1\n  dup3\n  gt\n  iszero\n  tag_42\n  jumpi\n  0x00\n  dup2\n  0x00\n  swap1\n  sstore\n  pop\n  0x01\n  add\n  jump(tag_41)\ntag_42:\n  pop\n  swap1\n  jump\t// out\n    /* \"#utility.yul\":7:855   */\ntag_44:\n    /* \"#utility.yul\":68:73   */\n  0x00\n    /* \"#utility.yul\":75:79   */\n  dup1\n    /* \"#utility.yul\":99:105   */\n  dup3\n    /* \"#utility.yul\":90:105   */\n  swap2\n  pop\n    /* \"#utility.yul\":123:128   */\n  dup4\n    /* \"#utility.yul\":114:128   */\n  swap1\n  pop\n    /* \"#utility.yul\":137:849   */\ntag_46:\n    /* \"#utility.yul\":158:159   */\n  0x01\n    /* \"#utility.yul\":148:156   */\n  dup6\n    /* \"#utility.yul\":145:160   */\n  gt\n    /* \"#utility.yul\":137:849   */\n  iszero\n  tag_48\n  jumpi\n    /* \"#utility.yul\":253:257   */\n  dup1\n    /* \"#utility.yul\":248:251   */\n  dup7\n    /* \"#utility.yul\":244:258   */\n  div\n    /* \"#utility.yul\":238:242   */\n  dup2\n    /* \"#utility.yul\":235:259   */\n  gt\n    /* \"#utility.yul\":232:282   */\n  iszero\n  tag_49\n  jumpi\n    /* \"#utility.yul\":262:280   */\n  tag_50\n  tag_51\n  jump\t// in\ntag_50:\n    /* \"#utility.yul\":232:282   */\ntag_49:\n    /* \"#utility.yul\":312:313   */\n  0x01\n    /* \"#utility.yul\":302:310   */\n  dup6\n    /* \"#utility.yul\":298:314   */\n  and\n    /* \"#utility.yul\":295:746   */\n  iszero\n  tag_52\n  jumpi\n    /* \"#utility.yul\":727:731   */\n  dup1\n    /* \"#utility.yul\":720:725   */\n  dup3\n    /* \"#utility.yul\":716:732   */\n  mul\n    /* \"#utility.yul\":707:732   */\n  swap2\n  pop\n    /* \"#utility.yul\":295:746   */\ntag_52:\n    /* \"#utility.yul\":777:781   */\n  dup1\n    /* \"#utility.yul\":771:775   */\n  dup2\n    /* \"#utility.yul\":767:782   */\n  mul\n    /* \"#utility.yul\":759:782   */\n  swap1\n  pop\n    /* \"#utility.yul\":807:839   */\n  tag_53\n    /* \"#utility.yul\":830:838   */\n  dup6\n    /* \"#utility.yul\":807:839   */\n  tag_54\n  jump\t// in\ntag_53:\n    /* \"#utility.yul\":795:839   */\n  swap5\n  pop\n    /* \"#utility.yul\":137:849   */\n  jump(tag_46)\ntag_48:\n    /* \"#utility.yul\":7:855   */\n  swap5\n  pop\n  swap5\n  swap3\n  pop\n  pop\n  pop\n  jump\t// out\n    /* \"#utility.yul\":861:1142   */\ntag_14:\n    /* \"#utility.yul\":919:924   */\n  0x00\n    /* \"#utility.yul\":943:966   */\n  tag_56\n    /* \"#utility.yul\":961:965   */\n  dup3\n    /* \"#utility.yul\":943:966   */\n  tag_57\n  jump\t// in\ntag_56:\n    /* \"#utility.yul\":935:966   */\n  swap2\n  pop\n    /* \"#utility.yul\":987:1012   */\n  tag_58\n    /* \"#utility.yul\":1003:1011   */\n  dup4\n    /* \"#utility.yul\":987:1012   */\n  tag_59\n  jump\t// in\ntag_58:\n    /* \"#utility.yul\":975:1012   */\n  swap3\n  pop\n    /* \"#utility.yul\":1031:1135   */\n  tag_60\n    /* \"#utility.yul\":1068:1134   */\n  0xffffffffffffffffffffffffffffffffffffffffffffffffffffffffffffffff\n    /* \"#utility.yul\":1058:1066   */\n  dup5\n    /* \"#utility.yul\":1052:1056   */\n  dup5\n    /* \"#utility.yul\":1031:1135   */\n  tag_61\n  jump\t// in\ntag_60:\n    /* \"#utility.yul\":1022:1135   */\n  swap1\n  pop\n    /* \"#utility.yul\":861:1142   */\n  swap3\n  swap2\n  pop\n  pop\n  jump\t// out\n    /* \"#utility.yul\":1148:2221   */\ntag_61:\n    /* \"#utility.yul\":1202:1207   */\n  0x00\n    /* \"#utility.yul\":1393:1401   */\n  dup3\n    /* \"#utility.yul\":1383:1423   */\n  tag_63\n  jumpi\n    /* \"#utility.yul\":1414:1415   */\n  0x01\n    /* \"#utility.yul\":1405:1415   */\n  swap1\n  pop\n    /* \"#utility.yul\":1416:1421   */\n  jump(tag_62)\n    /* \"#utility.yul\":1383:1423   */\ntag_63:\n    /* \"#utility.yul\":1442:1446   */\n  dup2\n    /* \"#utility.yul\":1432:1468   */\n  tag_64\n  jumpi\n    /* \"#utility.yul\":1459:1460   */\n  0x00\n    /* \"#utility.yul\":1450:1460   */\n  swap1\n  pop\n    /* \"#utility.yul\":1461:1466   */\n  jump(tag_62)\n    /* \"#utility.yul\":1432:1468   */\ntag_64:\n    /* \"#utility.yul\":1528:1532   */\n  dup2\n    /* \"#utility.yul\":1576:1577   */\n  0x01\n    /* \"#utility.yul\":1571:1598   */\n  dup2\n  eq\n  tag_66\n  jumpi\n    /* \"#utility.yul\":1612:1613   */\n  0x02\n    /* \"#utility.yul\":1607:1798   */\n  dup2\n  eq\n  tag_67\n  jumpi\n    /* \"#utility.yul\":1521:1798   */\n  jump(tag_65)\n    /* \"#utility.yul\":1571:1598   */\ntag_66:\n    /* \"#utility.yul\":1589:1590   */\n  0x01\n    /* \"#utility.yul\":1580:1590   */\n  swap2\n  pop\n    /* \"#utility.yul\":1591:1596   */\n  pop\n  jump(tag_62)\n    /* \"#utility.yul\":1607:1798   */\ntag_67:\n    /* \"#utility.yul\":1652:1655   */\n  0xff\n    /* \"#utility.yul\":1642:1650   */\n  dup5\n    /* \"#utility.yul\":1639:1656   */\n  gt\n    /* \"#utility.yul\":1636:1679   */\n  iszero\n  tag_68\n  jumpi\n    /* \"#utility.yul\":1659:1677   */\n  tag_69\n  tag_51\n  jump\t// in\ntag_69:\n    /* \"#utility.yul\":1636:1679   */\ntag_68:\n    /* \"#utility.yul\":1708:1716   */\n  dup4\n    /* \"#utility.yul\":1705:1706   */\n  0x02\n    /* \"#utility.yul\":1701:1717   */\n  exp\n    /* \"#utility.yul\":1692:1717   */\n  swap2\n  pop\n    /* \"#utility.yul\":1743:1746   */\n  dup5\n    /* \"#utility.yul\":1736:1741   */\n  dup3\n    /* \"#utility.yul\":1733:1747   */\n  gt\n    /* \"#utility.yul\":1730:1770   */\n  iszero\n  tag_70\n  jumpi\n    /* \"#utility.yul\":1750:1768   */\n  tag_71\n  tag_51\n  jump\t// in\ntag_71:\n    /* \"#utility.yul\":1730:1770   */\ntag_70:\n    /* \"#utility.yul\":1783:1788   */\n  pop\n  jump(tag_62)\n    /* \"#utility.yul\":1521:1798   */\ntag_65:\n  pop\n    /* \"#utility.yul\":1907:1909   */\n  0x20\n    /* \"#utility.yul\":1897:1905   */\n  dup4\n    /* \"#utility.yul\":1894:1910   */\n  lt\n    /* \"#utility.yul\":1888:1891   */\n  0x0133\n    /* \"#utility.yul\":1882:1886   */\n  dup4\n    /* \"#utility.yul\":1879:1892   */\n  lt\n    /* \"#utility.yul\":1875:1911   */\n  and\n    /* \"#utility.yul\":1857:1859   */\n  0x4e\n    /* \"#utility.yul\":1847:1855   */\n  dup5\n    /* \"#utility.yul\":1844:1860   */\n  lt\n    /* \"#utility.yul\":1839:1841   */\n  0x0b\n    /* \"#utility.yul\":1833:1837   */\n  dup5\n    /* \"#utility.yul\":1830:1842   */\n  lt\n    /* \"#utility.yul\":1826:1861   */\n  and\n    /* \"#utility.yul\":1810:1921   */\n  or\n    /* \"#utility.yul\":1807:2053   */\n  iszero\n  tag_72\n  jumpi\n    /* \"#utility.yul\":1963:1971   */\n  dup3\n    /* \"#utility.yul\":1957:1961   */\n  dup3\n    /* \"#utility.yul\":1953:1972   */\n  exp\n    /* \"#utility.yul\":1944:1972   */\n  swap1\n  pop\n    /* \"#utility.yul\":1998:2001   */\n  dup4\n    /* \"#utility.yul\":1991:1996   */\n  dup2\n    /* \"#utility.yul\":1988:2002   */\n  gt\n    /* \"#utility.yul\":1985:2025   */\n  iszero\n  tag_73\n  jumpi\n    /* \"#utility.yul\":2005:2023   */\n  tag_74\n  tag_51\n  jump\t// in\ntag_74:\n    /* \"#utility.yul\":1985:2025   */\ntag_73:\n    /* \"#utility.yul\":2038:2043   */\n  jump(tag_62)\n    /* \"#utility.yul\":1807:2053   */\ntag_72:\n    /* \"#utility.yul\":2078:2120   */\n  tag_75\n    /* \"#utility.yul\":2116:2119   */\n  dup5\n    /* \"#utility.yul\":2106:2114   */\n  dup5\n    /* \"#utility.yul\":2100:2104   */\n  dup5\n    /* \"#utility.yul\":2097:2098   */\n  0x01\n    /* \"#utility.yul\":2078:2120   */\n  tag_44\n  jump\t// in\ntag_75:\n    /* \"#utility.yul\":2063:2120   */\n  swap3\n  pop\n  swap1\n  pop\n    /* \"#utility.yul\":2152:2156   */\n  dup2\n    /* \"#utility.yul\":2147:2150   */\n  dup5\n    /* \"#utility.yul\":2143:2157   */\n  div\n    /* \"#utility.yul\":2136:2141   */\n  dup2\n    /* \"#utility.yul\":2133:2158   */\n  gt\n    /* \"#utility.yul\":2130:2181   */\n  iszero\n  tag_76\n  jumpi\n    /* \"#utility.yul\":2161:2179   */\n  tag_77\n  tag_51\n  jump\t// in\ntag_77:\n    /* \"#utility.yul\":2130:2181   */\ntag_76:\n    /* \"#utility.yul\":2210:2214   */\n  dup2\n    /* \"#utility.yul\":2203:2208   */\n  dup2\n    /* \"#utility.yul\":2199:2215   */\n  mul\n    /* \"#utility.yul\":2190:2215   */\n  swap1\n  pop\n    /* \"#utility.yul\":1148:2221   */\ntag_62:\n  swap4\n  swap3\n  pop\n  pop\n  pop\n  jump\t// out\n    /* \"#utility.yul\":2227:2575   */\ntag_16:\n    /* \"#utility.yul\":2267:2274   */\n  0x00\n    /* \"#utility.yul\":2290:2310   */\n  tag_79\n    /* \"#utility.yul\":2308:2309   */\n  dup3\n    /* \"#utility.yul\":2290:2310   */\n  tag_57\n  jump\t// in\ntag_79:\n    /* \"#utility.yul\":2285:2310   */\n  swap2\n  pop\n    /* \"#utility.yul\":2324:2344   */\n  tag_80\n    /* \"#utility.yul\":2342:2343   */\n  dup4\n    /* \"#utility.yul\":2324:2344   */\n  tag_57\n  jump\t// in\ntag_80:\n    /* \"#utility.yul\":2319:2344   */\n  swap3\n  pop\n    /* \"#utility.yul\":2512:2513   */\n  dup2\n    /* \"#utility.yul\":2444:2510   */\n  0xffffffffffffffffffffffffffffffffffffffffffffffffffffffffffffffff\n    /* \"#utility.yul\":2440:2514   */\n  div\n    /* \"#utility.yul\":2437:2438   */\n  dup4\n    /* \"#utility.yul\":2434:2515   */\n  gt\n    /* \"#utility.yul\":2429:2430   */\n  dup3\n    /* \"#utility.yul\":2422:2431   */\n  iszero\n    /* \"#utility.yul\":2415:2432   */\n  iszero\n    /* \"#utility.yul\":2411:2516   */\n  and\n    /* \"#utility.yul\":2408:2539   */\n  iszero\n  tag_81\n  jumpi\n    /* \"#utility.yul\":2519:2537   */\n  tag_82\n  tag_51\n  jump\t// in\ntag_82:\n    /* \"#utility.yul\":2408:2539   */\ntag_81:\n    /* \"#utility.yul\":2567:2568   */\n  dup3\n    /* \"#utility.yul\":2564:2565   */\n  dup3\n    /* \"#utility.yul\":2560:2569   */\n  mul\n    /* \"#utility.yul\":2549:2569   */\n  swap1\n  pop\n    /* \"#utility.yul\":2227:2575   */\n  swap3\n  swap2\n  pop\n  pop\n  jump\t// out\n    /* \"#utility.yul\":2581:2658   */\ntag_57:\n    /* \"#utility.yul\":2618:2625   */\n  0x00\n    /* \"#utility.yul\":2647:2652   */\n  dup2\n    /* \"#utility.yul\":2636:2652   */\n  swap1\n  pop\n    /* \"#utility.yul\":2581:2658   */\n  swap2\n  swap1\n  pop\n  jump\t// out\n    /* \"#utility.yul\":2664:2750   */\ntag_59:\n    /* \"#utility.yul\":2699:2706   */\n  0x00\n    /* \"#utility.yul\":2739:2743   */\n  0xff\n    /* \"#utility.yul\":2732:2737   */\n  dup3\n    /* \"#utility.yul\":2728:2744   */\n  and\n    /* \"#utility.yul\":2717:2744   */\n  swap1\n  pop\n    /* \"#utility.yul\":2664:2750   */\n  swap2\n  swap1\n  pop\n  jump\t// out\n    /* \"#utility.yul\":2756:3076   */\ntag_33:\n    /* \"#utility.yul\":2800:2806   */\n  0x00\n    /* \"#utility.yul\":2837:2838   */\n  0x02\n    /* \"#utility.yul\":2831:2835   */\n  dup3\n    /* \"#utility.yul\":2827:2839   */\n  div\n    /* \"#utility.yul\":2817:2839   */\n  swap1\n  pop\n    /* \"#utility.yul\":2884:2885   */\n  0x01\n    /* \"#utility.yul\":2878:2882   */\n  dup3\n    /* \"#utility.yul\":2874:2886   */\n  and\n    /* \"#utility.yul\":2905:2923   */\n  dup1\n    /* \"#utility.yul\":2895:2976   */\n  tag_86\n  jumpi\n    /* \"#utility.yul\":2961:2965   */\n  0x7f\n    /* \"#utility.yul\":2953:2959   */\n  dup3\n    /* \"#utility.yul\":2949:2966   */\n  and\n    /* \"#utility.yul\":2939:2966   */\n  swap2\n  pop\n    /* \"#utility.yul\":2895:2976   */\ntag_86:\n    /* \"#utility.yul\":3023:3025   */\n  0x20\n    /* \"#utility.yul\":3015:3021   */\n  dup3\n    /* \"#utility.yul\":3012:3026   */\n  lt\n    /* \"#utility.yul\":2992:3010   */\n  dup2\n    /* \"#utility.yul\":2989:3027   */\n  eq\n    /* \"#utility.yul\":2986:3070   */\n  iszero\n  tag_87\n  jumpi\n    /* \"#utility.yul\":3042:3060   */\n  tag_88\n  tag_89\n  jump\t// in\ntag_88:\n    /* \"#utility.yul\":2986:3070   */\ntag_87:\n    /* \"#utility.yul\":2807:3076   */\n  pop\n    /* \"#utility.yul\":2756:3076   */\n  swap2\n  swap1\n  pop\n  jump\t// out\n    /* \"#utility.yul\":3082:3262   */\ntag_51:\n    /* \"#utility.yul\":3130:3207   */\n  0x4e487b7100000000000000000000000000000000000000000000000000000000\n    /* \"#utility.yul\":3127:3128   */\n  0x00\n    /* \"#utility.yul\":3120:3208   */\n  mstore\n    /* \"#utility.yul\":3227:3231   */\n  0x11\n    /* \"#utility.yul\":3224:3225   */\n  0x04\n    /* \"#utility.yul\":3217:3232   */\n  mstore\n    /* \"#utility.yul\":3251:3255   */\n  0x24\n    /* \"#utility.yul\":3248:3249   */\n  0x00\n    /* \"#utility.yul\":3241:3256   */\n  revert\n    /* \"#utility.yul\":3268:3448   */\ntag_89:\n    /* \"#utility.yul\":3316:3393   */\n  0x4e487b7100000000000000000000000000000000000000000000000000000000\n    /* \"#utility.yul\":3313:3314   */\n  0x00\n    /* \"#utility.yul\":3306:3394   */\n  mstore\n    /* \"#utility.yul\":3413:3417   */\n  0x22\n    /* \"#utility.yul\":3410:3411   */\n  0x04\n    /* \"#utility.yul\":3403:3418   */\n  mstore\n    /* \"#utility.yul\":3437:3441   */\n  0x24\n    /* \"#utility.yul\":3434:3435   */\n  0x00\n    /* \"#utility.yul\":3427:3442   */\n  revert\n    /* \"#utility.yul\":3454:3556   */\ntag_54:\n    /* \"#utility.yul\":3496:3504   */\n  0x00\n    /* \"#utility.yul\":3543:3548   */\n  dup2\n    /* \"#utility.yul\":3540:3541   */\n  0x01\n    /* \"#utility.yul\":3536:3549   */\n  shr\n    /* \"#utility.yul\":3515:3549   */\n  swap1\n  pop\n    /* \"#utility.yul\":3454:3556   */\n  swap2\n  swap1\n  pop\n  jump\t// out\n    /* \"erc20.sol\":22860:33118  contract PHOINIX_Token is Context, IERC20, IERC20Metadata, Ownable, AccessControl {\r... */\ntag_20:\n  dataSize(sub_0)\n  dup1\n  dataOffset(sub_0)\n  0x00\n  codecopy\n  0x00\n  return\nstop\n\nsub_0: assembly {\n        /* \"erc20.sol\":22860:33118  contract PHOINIX_Token is Context, IERC20, IERC20Metadata, Ownable, AccessControl {\r... */\n      mstore(0x40, 0x80)\n      callvalue\n      dup1\n      iszero\n      tag_1\n      jumpi\n      0x00\n      dup1\n      revert\n    tag_1:\n      pop\n      jumpi(tag_2, lt(calldatasize, 0x04))\n      shr(0xe0, calldataload(0x00))\n      dup1\n      0x715018a6\n      gt\n      tag_28\n      jumpi\n      dup1\n      0xa217fddf\n      gt\n      tag_29\n      jumpi\n      dup1\n      0xd5391393\n      gt\n      tag_30\n      jumpi\n      dup1\n      0xd5391393\n      eq\n      tag_24\n      jumpi\n      dup1\n      0xd547741f\n      eq\n      tag_25\n      jumpi\n      dup1\n      0xdd62ed3e\n      eq\n      tag_26\n      jumpi\n      dup1\n      0xf2fde38b\n      eq\n      tag_27\n      jumpi\n      jump(tag_2)\n    tag_30:\n      dup1\n      0xa217fddf\n      eq\n      tag_21\n      jumpi\n      dup1\n      0xa457c2d7\n      eq\n      tag_22\n      jumpi\n      dup1\n      0xa9059cbb\n      eq\n      tag_23\n      jumpi\n      jump(tag_2)\n    tag_29:\n      dup1\n      0x715018a6\n      eq\n      tag_15\n      jumpi\n      dup1\n      0x8da5cb5b\n      eq\n      tag_16\n      jumpi\n      dup1\n      0x91d14854\n      eq\n      tag_17\n      jumpi\n      dup1\n      0x95d89b41\n      eq\n      tag_18\n      jumpi\n      dup1\n      0x983b2d56\n      eq\n      tag_19\n      jumpi\n      dup1\n      0x9dc29fac\n      eq\n      tag_20\n      jumpi\n      jump(tag_2)\n    tag_28:\n      dup1\n      0x2f2ff15d\n      gt\n      tag_31\n      jumpi\n      dup1\n      0x2f2ff15d\n      eq\n      tag_9\n      jumpi\n      dup1\n      0x313ce567\n      eq\n      tag_10\n      jumpi\n      dup1\n      0x36568abe\n      eq\n      tag_11\n      jumpi\n      dup1\n      0x39509351\n      eq\n      tag_12\n      jumpi\n      dup1\n      0x40c10f19\n      eq\n      tag_13\n      jumpi\n      dup1\n      0x70a08231\n      eq\n      tag_14\n      jumpi\n      jump(tag_2)\n    tag_31:\n      dup1\n      0x01ffc9a7\n      eq\n      tag_3\n      jumpi\n      dup1\n      0x06fdde03\n      eq\n      tag_4\n      jumpi\n      dup1\n      0x095ea7b3\n      eq\n      tag_5\n      jumpi\n      dup1\n      0x18160ddd\n      eq\n      tag_6\n      jumpi\n      dup1\n      0x23b872dd\n      eq\n      tag_7\n      jumpi\n      dup1\n      0x248a9ca3\n      eq\n      tag_8\n      jumpi\n    tag_2:\n      0x00\n      dup1\n      revert\n        /* \"erc20.sol\":17193:17397  function supportsInterface(bytes4 interfaceId) public view virtual override returns (bool) {\r... */\n    tag_3:\n      tag_32\n      0x04\n      dup1\n      calldatasize\n      sub\n      dup2\n      add\n      swap1\n      tag_33\n      swap2\n      swap1\n      tag_34\n      jump\t// in\n    tag_33:\n      tag_35\n      jump\t// in\n    tag_32:\n      mload(0x40)\n      tag_36\n      swap2\n      swap1\n      tag_37\n      jump\t// in\n    tag_36:\n      mload(0x40)\n      dup1\n      swap2\n      sub\n      swap1\n      return\n        /* \"erc20.sol\":24148:24248  function name() public view virtual override returns (string memory) {\r... */\n    tag_4:\n      tag_38\n      tag_39\n      jump\t// in\n    tag_38:\n      mload(0x40)\n      tag_40\n      swap2\n      swap1\n      tag_41\n      jump\t// in\n    tag_40:\n      mload(0x40)\n      dup1\n      swap2\n      sub\n      swap1\n      return\n        /* \"erc20.sol\":26315:26484  function approve(address spender, uint256 amount) public virtual override returns (bool) {\r... */\n    tag_5:\n      tag_42\n      0x04\n      dup1\n      calldatasize\n      sub\n      dup2\n      add\n      swap1\n      tag_43\n      swap2\n      swap1\n      tag_44\n      jump\t// in\n    tag_43:\n      tag_45\n      jump\t// in\n    tag_42:\n      mload(0x40)\n      tag_46\n      swap2\n      swap1\n      tag_37\n      jump\t// in\n    tag_46:\n      mload(0x40)\n      dup1\n      swap2\n      sub\n      swap1\n      return\n        /* \"erc20.sol\":25268:25376  function totalSupply() public view virtual override returns (uint256) {\r... */\n    tag_6:\n      tag_47\n      tag_48\n      jump\t// in\n    tag_47:\n      mload(0x40)\n      tag_49\n      swap2\n      swap1\n      tag_50\n      jump\t// in\n    tag_49:\n      mload(0x40)\n      dup1\n      swap2\n      sub\n      swap1\n      return\n        /* \"erc20.sol\":26966:27388  function transferFrom(address sender, address recipient, uint256 amount) public virtual override returns (bool) {\r... */\n    tag_7:\n      tag_51\n      0x04\n      dup1\n      calldatasize\n      sub\n      dup2\n      add\n      swap1\n      tag_52\n      swap2\n      swap1\n      tag_53\n      jump\t// in\n    tag_52:\n      tag_54\n      jump\t// in\n    tag_51:\n      mload(0x40)\n      tag_55\n      swap2\n      swap1\n      tag_37\n      jump\t// in\n    tag_55:\n      mload(0x40)\n      dup1\n      swap2\n      sub\n      swap1\n      return\n        /* \"erc20.sol\":19016:19147  function getRoleAdmin(bytes32 role) public view virtual override returns (bytes32) {\r... */\n    tag_8:\n      tag_56\n      0x04\n      dup1\n      calldatasize\n      sub\n      dup2\n      add\n      swap1\n      tag_57\n      swap2\n      swap1\n      tag_58\n      jump\t// in\n    tag_57:\n      tag_59\n      jump\t// in\n    tag_56:\n      mload(0x40)\n      tag_60\n      swap2\n      swap1\n      tag_61\n      jump\t// in\n    tag_60:\n      mload(0x40)\n      dup1\n      swap2\n      sub\n      swap1\n      return\n        /* \"erc20.sol\":19457:19604  function grantRole(bytes32 role, address account) public virtual override onlyRole(getRoleAdmin(role)) {\r... */\n    tag_9:\n      tag_62\n      0x04\n      dup1\n      calldatasize\n      sub\n      dup2\n      add\n      swap1\n      tag_63\n      swap2\n      swap1\n      tag_64\n      jump\t// in\n    tag_63:\n      tag_65\n      jump\t// in\n    tag_62:\n      stop\n        /* \"erc20.sol\":25110:25203  function decimals() public view virtual override returns (uint8) {\r... */\n    tag_10:\n      tag_66\n      tag_67\n      jump\t// in\n    tag_66:\n      mload(0x40)\n      tag_68\n      swap2\n      swap1\n      tag_69\n      jump\t// in\n    tag_68:\n      mload(0x40)\n      dup1\n      swap2\n      sub\n      swap1\n      return\n        /* \"erc20.sol\":20601:20819  function renounceRole(bytes32 role, address account) public virtual override {\r... */\n    tag_11:\n      tag_70\n      0x04\n      dup1\n      calldatasize\n      sub\n      dup2\n      add\n      swap1\n      tag_71\n      swap2\n      swap1\n      tag_64\n      jump\t// in\n    tag_71:\n      tag_72\n      jump\t// in\n    tag_70:\n      stop\n        /* \"erc20.sol\":27797:28012  function increaseAllowance(address spender, uint256 addedValue) public virtual returns (bool) {\r... */\n    tag_12:\n      tag_73\n      0x04\n      dup1\n      calldatasize\n      sub\n      dup2\n      add\n      swap1\n      tag_74\n      swap2\n      swap1\n      tag_44\n      jump\t// in\n    tag_74:\n      tag_75\n      jump\t// in\n    tag_73:\n      mload(0x40)\n      tag_76\n      swap2\n      swap1\n      tag_37\n      jump\t// in\n    tag_76:\n      mload(0x40)\n      dup1\n      swap2\n      sub\n      swap1\n      return\n        /* \"erc20.sol\":30608:30704  function mint(address account, uint256 amount) public onlyMinter{\r... */\n    tag_13:\n      tag_77\n      0x04\n      dup1\n      calldatasize\n      sub\n      dup2\n      add\n      swap1\n      tag_78\n      swap2\n      swap1\n      tag_44\n      jump\t// in\n    tag_78:\n      tag_79\n      jump\t// in\n    tag_77:\n      stop\n        /* \"erc20.sol\":25439:25566  function balanceOf(address account) public view virtual override returns (uint256) {\r... */\n    tag_14:\n      tag_80\n      0x04\n      dup1\n      calldatasize\n      sub\n      dup2\n      add\n      swap1\n      tag_81\n      swap2\n      swap1\n      tag_82\n      jump\t// in\n    tag_81:\n      tag_83\n      jump\t// in\n    tag_80:\n      mload(0x40)\n      tag_84\n      swap2\n      swap1\n      tag_50\n      jump\t// in\n    tag_84:\n      mload(0x40)\n      dup1\n      swap2\n      sub\n      swap1\n      return\n        /* \"erc20.sol\":6327:6475  function renounceOwnership() public virtual onlyOwner {\r... */\n    tag_15:\n      tag_85\n      tag_86\n      jump\t// in\n    tag_85:\n      stop\n        /* \"erc20.sol\":5668:5755  function owner() public view virtual returns (address) {\r... */\n    tag_16:\n      tag_87\n      tag_88\n      jump\t// in\n    tag_87:\n      mload(0x40)\n      tag_89\n      swap2\n      swap1\n      tag_90\n      jump\t// in\n    tag_89:\n      mload(0x40)\n      dup1\n      swap2\n      sub\n      swap1\n      return\n        /* \"erc20.sol\":17489:17636  function hasRole(bytes32 role, address account) public view virtual override returns (bool) {\r... */\n    tag_17:\n      tag_91\n      0x04\n      dup1\n      calldatasize\n      sub\n      dup2\n      add\n      swap1\n      tag_92\n      swap2\n      swap1\n      tag_64\n      jump\t// in\n    tag_92:\n      tag_93\n      jump\t// in\n    tag_91:\n      mload(0x40)\n      tag_94\n      swap2\n      swap1\n      tag_37\n      jump\t// in\n    tag_94:\n      mload(0x40)\n      dup1\n      swap2\n      sub\n      swap1\n      return\n        /* \"erc20.sol\":24367:24471  function symbol() public view virtual override returns (string memory) {\r... */\n    tag_18:\n      tag_95\n      tag_96\n      jump\t// in\n    tag_95:\n      mload(0x40)\n      tag_97\n      swap2\n      swap1\n      tag_41\n      jump\t// in\n    tag_97:\n      mload(0x40)\n      dup1\n      swap2\n      sub\n      swap1\n      return\n        /* \"erc20.sol\":23982:24078  function addMinter(address _user) public onlyOwner{\r... */\n    tag_19:\n      tag_98\n      0x04\n      dup1\n      calldatasize\n      sub\n      dup2\n      add\n      swap1\n      tag_99\n      swap2\n      swap1\n      tag_82\n      jump\t// in\n    tag_99:\n      tag_100\n      jump\t// in\n    tag_98:\n      stop\n        /* \"erc20.sol\":31535:31638  function burn(address account, uint256 amount) public onlyOwner{\r... */\n    tag_20:\n      tag_101\n      0x04\n      dup1\n      calldatasize\n      sub\n      dup2\n      add\n      swap1\n      tag_102\n      swap2\n      swap1\n      tag_44\n      jump\t// in\n    tag_102:\n      tag_103\n      jump\t// in\n    tag_101:\n      stop\n        /* \"erc20.sol\":16594:16643  bytes32 public constant DEFAULT_ADMIN_ROLE = 0x00 */\n    tag_21:\n      tag_104\n      tag_105\n      jump\t// in\n    tag_104:\n      mload(0x40)\n      tag_106\n      swap2\n      swap1\n      tag_61\n      jump\t// in\n    tag_106:\n      mload(0x40)\n      dup1\n      swap2\n      sub\n      swap1\n      return\n        /* \"erc20.sol\":28515:28892  function decreaseAllowance(address spender, uint256 subtractedValue) public virtual returns (bool) {\r... */\n    tag_22:\n      tag_107\n      0x04\n      dup1\n      calldatasize\n      sub\n      dup2\n      add\n      swap1\n      tag_108\n      swap2\n      swap1\n      tag_44\n      jump\t// in\n    tag_108:\n      tag_109\n      jump\t// in\n    tag_107:\n      mload(0x40)\n      tag_110\n      swap2\n      swap1\n      tag_37\n      jump\t// in\n    tag_110:\n      mload(0x40)\n      dup1\n      swap2\n      sub\n      swap1\n      return\n        /* \"erc20.sol\":25779:25954  function transfer(address recipient, uint256 amount) public virtual override returns (bool) {\r... */\n    tag_23:\n      tag_111\n      0x04\n      dup1\n      calldatasize\n      sub\n      dup2\n      add\n      swap1\n      tag_112\n      swap2\n      swap1\n      tag_44\n      jump\t// in\n    tag_112:\n      tag_113\n      jump\t// in\n    tag_111:\n      mload(0x40)\n      tag_114\n      swap2\n      swap1\n      tag_37\n      jump\t// in\n    tag_114:\n      mload(0x40)\n      dup1\n      swap2\n      sub\n      swap1\n      return\n        /* \"erc20.sol\":23736:23798  bytes32 public constant MINTER_ROLE = keccak256(\"MINTER_ROLE\") */\n    tag_24:\n      tag_115\n      tag_116\n      jump\t// in\n    tag_115:\n      mload(0x40)\n      tag_117\n      swap2\n      swap1\n      tag_61\n      jump\t// in\n    tag_117:\n      mload(0x40)\n      dup1\n      swap2\n      sub\n      swap1\n      return\n        /* \"erc20.sol\":19897:20046  function revokeRole(bytes32 role, address account) public virtual override onlyRole(getRoleAdmin(role)) {\r... */\n    tag_25:\n      tag_118\n      0x04\n      dup1\n      calldatasize\n      sub\n      dup2\n      add\n      swap1\n      tag_119\n      swap2\n      swap1\n      tag_64\n      jump\t// in\n    tag_119:\n      tag_120\n      jump\t// in\n    tag_118:\n      stop\n        /* \"erc20.sol\":26017:26168  function allowance(address owner, address spender) public view virtual override returns (uint256) {\r... */\n    tag_26:\n      tag_121\n      0x04\n      dup1\n      calldatasize\n      sub\n      dup2\n      add\n      swap1\n      tag_122\n      swap2\n      swap1\n      tag_123\n      jump\t// in\n    tag_122:\n      tag_124\n      jump\t// in\n    tag_121:\n      mload(0x40)\n      tag_125\n      swap2\n      swap1\n      tag_50\n      jump\t// in\n    tag_125:\n      mload(0x40)\n      dup1\n      swap2\n      sub\n      swap1\n      return\n        /* \"erc20.sol\":6630:6874  function transferOwnership(address newOwner) public virtual onlyOwner {\r... */\n    tag_27:\n      tag_126\n      0x04\n      dup1\n      calldatasize\n      sub\n      dup2\n      add\n      swap1\n      tag_127\n      swap2\n      swap1\n      tag_82\n      jump\t// in\n    tag_127:\n      tag_128\n      jump\t// in\n    tag_126:\n      stop\n        /* \"erc20.sol\":17193:17397  function supportsInterface(bytes4 interfaceId) public view virtual override returns (bool) {\r... */\n    tag_35:\n        /* \"erc20.sol\":17278:17282  bool */\n      0x00\n        /* \"erc20.sol\":17317:17349  type(IAccessControl).interfaceId */\n      0x7965db0b00000000000000000000000000000000000000000000000000000000\n        /* \"erc20.sol\":17302:17349  interfaceId == type(IAccessControl).interfaceId */\n      not(0xffffffffffffffffffffffffffffffffffffffffffffffffffffffff)\n      and\n        /* \"erc20.sol\":17302:17313  interfaceId */\n      dup3\n        /* \"erc20.sol\":17302:17349  interfaceId == type(IAccessControl).interfaceId */\n      not(0xffffffffffffffffffffffffffffffffffffffffffffffffffffffff)\n      and\n      eq\n        /* \"erc20.sol\":17302:17389  interfaceId == type(IAccessControl).interfaceId || super.supportsInterface(interfaceId) */\n      dup1\n      tag_130\n      jumpi\n      pop\n        /* \"erc20.sol\":17353:17389  super.supportsInterface(interfaceId) */\n      tag_131\n        /* \"erc20.sol\":17377:17388  interfaceId */\n      dup3\n        /* \"erc20.sol\":17353:17376  super.supportsInterface */\n      tag_132\n        /* \"erc20.sol\":17353:17389  super.supportsInterface(interfaceId) */\n      jump\t// in\n    tag_131:\n        /* \"erc20.sol\":17302:17389  interfaceId == type(IAccessControl).interfaceId || super.supportsInterface(interfaceId) */\n    tag_130:\n        /* \"erc20.sol\":17295:17389  return interfaceId == type(IAccessControl).interfaceId || super.supportsInterface(interfaceId) */\n      swap1\n      pop\n        /* \"erc20.sol\":17193:17397  function supportsInterface(bytes4 interfaceId) public view virtual override returns (bool) {\r... */\n      swap2\n      swap1\n      pop\n      jump\t// out\n        /* \"erc20.sol\":24148:24248  function name() public view virtual override returns (string memory) {\r... */\n    tag_39:\n        /* \"erc20.sol\":24202:24215  string memory */\n      0x60\n        /* \"erc20.sol\":24235:24240  _name */\n      0x05\n        /* \"erc20.sol\":24228:24240  return _name */\n      dup1\n      sload\n      tag_134\n      swap1\n      tag_135\n      jump\t// in\n    tag_134:\n      dup1\n      0x1f\n      add\n      0x20\n      dup1\n      swap2\n      div\n      mul\n      0x20\n      add\n      mload(0x40)\n      swap1\n      dup2\n      add\n      0x40\n      mstore\n      dup1\n      swap3\n      swap2\n      swap1\n      dup2\n      dup2\n      mstore\n      0x20\n      add\n      dup3\n      dup1\n      sload\n      tag_136\n      swap1\n      tag_135\n      jump\t// in\n    tag_136:\n      dup1\n      iszero\n      tag_137\n      jumpi\n      dup1\n      0x1f\n      lt\n      tag_138\n      jumpi\n      0x0100\n      dup1\n      dup4\n      sload\n      div\n      mul\n      dup4\n      mstore\n      swap2\n      0x20\n      add\n      swap2\n      jump(tag_137)\n    tag_138:\n      dup3\n      add\n      swap2\n      swap1\n      0x00\n      mstore\n      keccak256(0x00, 0x20)\n      swap1\n    tag_139:\n      dup2\n      sload\n      dup2\n      mstore\n      swap1\n      0x01\n      add\n      swap1\n      0x20\n      add\n      dup1\n      dup4\n      gt\n      tag_139\n      jumpi\n      dup3\n      swap1\n      sub\n      0x1f\n      and\n      dup3\n      add\n      swap2\n    tag_137:\n      pop\n      pop\n      pop\n      pop\n      pop\n      swap1\n      pop\n        /* \"erc20.sol\":24148:24248  function name() public view virtual override returns (string memory) {\r... */\n      swap1\n      jump\t// out\n        /* \"erc20.sol\":26315:26484  function approve(address spender, uint256 amount) public virtual override returns (bool) {\r... */\n    tag_45:\n        /* \"erc20.sol\":26398:26402  bool */\n      0x00\n        /* \"erc20.sol\":26415:26454  _approve(_msgSender(), spender, amount) */\n      tag_141\n        /* \"erc20.sol\":26424:26436  _msgSender() */\n      tag_142\n        /* \"erc20.sol\":26424:26434  _msgSender */\n      tag_143\n        /* \"erc20.sol\":26424:26436  _msgSender() */\n      jump\t// in\n    tag_142:\n        /* \"erc20.sol\":26438:26445  spender */\n      dup5\n        /* \"erc20.sol\":26447:26453  amount */\n      dup5\n        /* \"erc20.sol\":26415:26423  _approve */\n      tag_144\n        /* \"erc20.sol\":26415:26454  _approve(_msgSender(), spender, amount) */\n      jump\t// in\n    tag_141:\n        /* \"erc20.sol\":26472:26476  true */\n      0x01\n        /* \"erc20.sol\":26465:26476  return true */\n      swap1\n      pop\n        /* \"erc20.sol\":26315:26484  function approve(address spender, uint256 amount) public virtual override returns (bool) {\r... */\n      swap3\n      swap2\n      pop\n      pop\n      jump\t// out\n        /* \"erc20.sol\":25268:25376  function totalSupply() public view virtual override returns (uint256) {\r... */\n    tag_48:\n        /* \"erc20.sol\":25329:25336  uint256 */\n      0x00\n        /* \"erc20.sol\":25356:25368  _totalSupply */\n      sload(0x04)\n        /* \"erc20.sol\":25349:25368  return _totalSupply */\n      swap1\n      pop\n        /* \"erc20.sol\":25268:25376  function totalSupply() public view virtual override returns (uint256) {\r... */\n      swap1\n      jump\t// out\n        /* \"erc20.sol\":26966:27388  function transferFrom(address sender, address recipient, uint256 amount) public virtual override returns (bool) {\r... */\n    tag_54:\n        /* \"erc20.sol\":27072:27076  bool */\n      0x00\n        /* \"erc20.sol\":27089:27125  _transfer(sender, recipient, amount) */\n      tag_147\n        /* \"erc20.sol\":27099:27105  sender */\n      dup5\n        /* \"erc20.sol\":27107:27116  recipient */\n      dup5\n        /* \"erc20.sol\":27118:27124  amount */\n      dup5\n        /* \"erc20.sol\":27089:27098  _transfer */\n      tag_148\n        /* \"erc20.sol\":27089:27125  _transfer(sender, recipient, amount) */\n      jump\t// in\n    tag_147:\n        /* \"erc20.sol\":27138:27162  uint256 currentAllowance */\n      0x00\n        /* \"erc20.sol\":27165:27176  _allowances */\n      0x03\n        /* \"erc20.sol\":27165:27184  _allowances[sender] */\n      0x00\n        /* \"erc20.sol\":27177:27183  sender */\n      dup7\n        /* \"erc20.sol\":27165:27184  _allowances[sender] */\n      0xffffffffffffffffffffffffffffffffffffffff\n      and\n      0xffffffffffffffffffffffffffffffffffffffff\n      and\n      dup2\n      mstore\n      0x20\n      add\n      swap1\n      dup2\n      mstore\n      0x20\n      add\n      0x00\n      keccak256\n        /* \"erc20.sol\":27165:27198  _allowances[sender][_msgSender()] */\n      0x00\n        /* \"erc20.sol\":27185:27197  _msgSender() */\n      tag_149\n        /* \"erc20.sol\":27185:27195  _msgSender */\n      tag_143\n        /* \"erc20.sol\":27185:27197  _msgSender() */\n      jump\t// in\n    tag_149:\n        /* \"erc20.sol\":27165:27198  _allowances[sender][_msgSender()] */\n      0xffffffffffffffffffffffffffffffffffffffff\n      and\n      0xffffffffffffffffffffffffffffffffffffffff\n      and\n      dup2\n      mstore\n      0x20\n      add\n      swap1\n      dup2\n      mstore\n      0x20\n      add\n      0x00\n      keccak256\n      sload\n        /* \"erc20.sol\":27138:27198  uint256 currentAllowance = _allowances[sender][_msgSender()] */\n      swap1\n      pop\n        /* \"erc20.sol\":27237:27243  amount */\n      dup3\n        /* \"erc20.sol\":27217:27233  currentAllowance */\n      dup2\n        /* \"erc20.sol\":27217:27243  currentAllowance >= amount */\n      lt\n      iszero\n        /* \"erc20.sol\":27209:27288  require(currentAllowance >= amount, \"ERC20: transfer amount exceeds allowance\") */\n      tag_150\n      jumpi\n      mload(0x40)\n      0x08c379a000000000000000000000000000000000000000000000000000000000\n      dup2\n      mstore\n      0x04\n      add\n      tag_151\n      swap1\n      tag_152\n      jump\t// in\n    tag_151:\n      mload(0x40)\n      dup1\n      swap2\n      sub\n      swap1\n      revert\n    tag_150:\n        /* \"erc20.sol\":27299:27356  _approve(sender, _msgSender(), currentAllowance - amount) */\n      tag_153\n        /* \"erc20.sol\":27308:27314  sender */\n      dup6\n        /* \"erc20.sol\":27316:27328  _msgSender() */\n      tag_154\n        /* \"erc20.sol\":27316:27326  _msgSender */\n      tag_143\n        /* \"erc20.sol\":27316:27328  _msgSender() */\n      jump\t// in\n    tag_154:\n        /* \"erc20.sol\":27349:27355  amount */\n      dup6\n        /* \"erc20.sol\":27330:27346  currentAllowance */\n      dup5\n        /* \"erc20.sol\":27330:27355  currentAllowance - amount */\n      tag_155\n      swap2\n      swap1\n      tag_156\n      jump\t// in\n    tag_155:\n        /* \"erc20.sol\":27299:27307  _approve */\n      tag_144\n        /* \"erc20.sol\":27299:27356  _approve(sender, _msgSender(), currentAllowance - amount) */\n      jump\t// in\n    tag_153:\n        /* \"erc20.sol\":27376:27380  true */\n      0x01\n        /* \"erc20.sol\":27369:27380  return true */\n      swap2\n      pop\n      pop\n        /* \"erc20.sol\":26966:27388  function transferFrom(address sender, address recipient, uint256 amount) public virtual override returns (bool) {\r... */\n      swap4\n      swap3\n      pop\n      pop\n      pop\n      jump\t// out\n        /* \"erc20.sol\":19016:19147  function getRoleAdmin(bytes32 role) public view virtual override returns (bytes32) {\r... */\n    tag_59:\n        /* \"erc20.sol\":19090:19097  bytes32 */\n      0x00\n        /* \"erc20.sol\":19117:19123  _roles */\n      0x01\n        /* \"erc20.sol\":19117:19129  _roles[role] */\n      0x00\n        /* \"erc20.sol\":19124:19128  role */\n      dup4\n        /* \"erc20.sol\":19117:19129  _roles[role] */\n      dup2\n      mstore\n      0x20\n      add\n      swap1\n      dup2\n      mstore\n      0x20\n      add\n      0x00\n      keccak256\n        /* \"erc20.sol\":19117:19139  _roles[role].adminRole */\n      0x01\n      add\n      sload\n        /* \"erc20.sol\":19110:19139  return _roles[role].adminRole */\n      swap1\n      pop\n        /* \"erc20.sol\":19016:19147  function getRoleAdmin(bytes32 role) public view virtual override returns (bytes32) {\r... */\n      swap2\n      swap1\n      pop\n      jump\t// out\n        /* \"erc20.sol\":19457:19604  function grantRole(bytes32 role, address account) public virtual override onlyRole(getRoleAdmin(role)) {\r... */\n    tag_65:\n        /* \"erc20.sol\":19540:19558  getRoleAdmin(role) */\n      tag_158\n        /* \"erc20.sol\":19553:19557  role */\n      dup3\n        /* \"erc20.sol\":19540:19552  getRoleAdmin */\n      tag_59\n        /* \"erc20.sol\":19540:19558  getRoleAdmin(role) */\n      jump\t// in\n    tag_158:\n        /* \"erc20.sol\":17085:17101  _checkRole(role) */\n      tag_160\n        /* \"erc20.sol\":17096:17100  role */\n      dup2\n        /* \"erc20.sol\":17085:17095  _checkRole */\n      tag_161\n        /* \"erc20.sol\":17085:17101  _checkRole(role) */\n      jump\t// in\n    tag_160:\n        /* \"erc20.sol\":19571:19596  _grantRole(role, account) */\n      tag_163\n        /* \"erc20.sol\":19582:19586  role */\n      dup4\n        /* \"erc20.sol\":19588:19595  account */\n      dup4\n        /* \"erc20.sol\":19571:19581  _grantRole */\n      tag_164\n        /* \"erc20.sol\":19571:19596  _grantRole(role, account) */\n      jump\t// in\n    tag_163:\n        /* \"erc20.sol\":19457:19604  function grantRole(bytes32 role, address account) public virtual override onlyRole(getRoleAdmin(role)) {\r... */\n      pop\n      pop\n      pop\n      jump\t// out\n        /* \"erc20.sol\":25110:25203  function decimals() public view virtual override returns (uint8) {\r... */\n    tag_67:\n        /* \"erc20.sol\":25168:25173  uint8 */\n      0x00\n        /* \"erc20.sol\":25193:25195  18 */\n      0x12\n        /* \"erc20.sol\":25186:25195  return 18 */\n      swap1\n      pop\n        /* \"erc20.sol\":25110:25203  function decimals() public view virtual override returns (uint8) {\r... */\n      swap1\n      jump\t// out\n        /* \"erc20.sol\":20601:20819  function renounceRole(bytes32 role, address account) public virtual override {\r... */\n    tag_72:\n        /* \"erc20.sol\":20708:20720  _msgSender() */\n      tag_167\n        /* \"erc20.sol\":20708:20718  _msgSender */\n      tag_143\n        /* \"erc20.sol\":20708:20720  _msgSender() */\n      jump\t// in\n    tag_167:\n        /* \"erc20.sol\":20697:20720  account == _msgSender() */\n      0xffffffffffffffffffffffffffffffffffffffff\n      and\n        /* \"erc20.sol\":20697:20704  account */\n      dup2\n        /* \"erc20.sol\":20697:20720  account == _msgSender() */\n      0xffffffffffffffffffffffffffffffffffffffff\n      and\n      eq\n        /* \"erc20.sol\":20689:20772  require(account == _msgSender(), \"AccessControl: can only renounce roles for self\") */\n      tag_168\n      jumpi\n      mload(0x40)\n      0x08c379a000000000000000000000000000000000000000000000000000000000\n      dup2\n      mstore\n      0x04\n      add\n      tag_169\n      swap1\n      tag_170\n      jump\t// in\n    tag_169:\n      mload(0x40)\n      dup1\n      swap2\n      sub\n      swap1\n      revert\n    tag_168:\n        /* \"erc20.sol\":20785:20811  _revokeRole(role, account) */\n      tag_171\n        /* \"erc20.sol\":20797:20801  role */\n      dup3\n        /* \"erc20.sol\":20803:20810  account */\n      dup3\n        /* \"erc20.sol\":20785:20796  _revokeRole */\n      tag_172\n        /* \"erc20.sol\":20785:20811  _revokeRole(role, account) */\n      jump\t// in\n    tag_171:\n        /* \"erc20.sol\":20601:20819  function renounceRole(bytes32 role, address account) public virtual override {\r... */\n      pop\n      pop\n      jump\t// out\n        /* \"erc20.sol\":27797:28012  function increaseAllowance(address spender, uint256 addedValue) public virtual returns (bool) {\r... */\n    tag_75:\n        /* \"erc20.sol\":27885:27889  bool */\n      0x00\n        /* \"erc20.sol\":27902:27982  _approve(_msgSender(), spender, _allowances[_msgSender()][spender] + addedValue) */\n      tag_174\n        /* \"erc20.sol\":27911:27923  _msgSender() */\n      tag_175\n        /* \"erc20.sol\":27911:27921  _msgSender */\n      tag_143\n        /* \"erc20.sol\":27911:27923  _msgSender() */\n      jump\t// in\n    tag_175:\n        /* \"erc20.sol\":27925:27932  spender */\n      dup5\n        /* \"erc20.sol\":27971:27981  addedValue */\n      dup5\n        /* \"erc20.sol\":27934:27945  _allowances */\n      0x03\n        /* \"erc20.sol\":27934:27959  _allowances[_msgSender()] */\n      0x00\n        /* \"erc20.sol\":27946:27958  _msgSender() */\n      tag_176\n        /* \"erc20.sol\":27946:27956  _msgSender */\n      tag_143\n        /* \"erc20.sol\":27946:27958  _msgSender() */\n      jump\t// in\n    tag_176:\n        /* \"erc20.sol\":27934:27959  _allowances[_msgSender()] */\n      0xffffffffffffffffffffffffffffffffffffffff\n      and\n      0xffffffffffffffffffffffffffffffffffffffff\n      and\n      dup2\n      mstore\n      0x20\n      add\n      swap1\n      dup2\n      mstore\n      0x20\n      add\n      0x00\n      keccak256\n        /* \"erc20.sol\":27934:27968  _allowances[_msgSender()][spender] */\n      0x00\n        /* \"erc20.sol\":27960:27967  spender */\n      dup9\n        /* \"erc20.sol\":27934:27968  _allowances[_msgSender()][spender] */\n      0xffffffffffffffffffffffffffffffffffffffff\n      and\n      0xffffffffffffffffffffffffffffffffffffffff\n      and\n      dup2\n      mstore\n      0x20\n      add\n      swap1\n      dup2\n      mstore\n      0x20\n      add\n      0x00\n      keccak256\n      sload\n        /* \"erc20.sol\":27934:27981  _allowances[_msgSender()][spender] + addedValue */\n      tag_177\n      swap2\n      swap1\n      tag_178\n      jump\t// in\n    tag_177:\n        /* \"erc20.sol\":27902:27910  _approve */\n      tag_144\n        /* \"erc20.sol\":27902:27982  _approve(_msgSender(), spender, _allowances[_msgSender()][spender] + addedValue) */\n      jump\t// in\n    tag_174:\n        /* \"erc20.sol\":28000:28004  true */\n      0x01\n        /* \"erc20.sol\":27993:28004  return true */\n      swap1\n      pop\n        /* \"erc20.sol\":27797:28012  function increaseAllowance(address spender, uint256 addedValue) public virtual returns (bool) {\r... */\n      swap3\n      swap2\n      pop\n      pop\n      jump\t// out\n        /* \"erc20.sol\":30608:30704  function mint(address account, uint256 amount) public onlyMinter{\r... */\n    tag_79:\n        /* \"erc20.sol\":23876:23910  hasRole(MINTER_ROLE, _msgSender()) */\n      tag_180\n        /* \"erc20.sol\":23774:23798  keccak256(\"MINTER_ROLE\") */\n      0x9f2df0fed2c77648de5860a4cc508cd0818c85b8b8a1ab4ceeef8d981c8956a6\n        /* \"erc20.sol\":23897:23909  _msgSender() */\n      tag_181\n        /* \"erc20.sol\":23897:23907  _msgSender */\n      tag_143\n        /* \"erc20.sol\":23897:23909  _msgSender() */\n      jump\t// in\n    tag_181:\n        /* \"erc20.sol\":23876:23883  hasRole */\n      tag_93\n        /* \"erc20.sol\":23876:23910  hasRole(MINTER_ROLE, _msgSender()) */\n      jump\t// in\n    tag_180:\n        /* \"erc20.sol\":23868:23955  require(hasRole(MINTER_ROLE, _msgSender()), \"Minter Role: Caller Supposed To Be Minet\") */\n      tag_182\n      jumpi\n      mload(0x40)\n      0x08c379a000000000000000000000000000000000000000000000000000000000\n      dup2\n      mstore\n      0x04\n      add\n      tag_183\n      swap1\n      tag_184\n      jump\t// in\n    tag_183:\n      mload(0x40)\n      dup1\n      swap2\n      sub\n      swap1\n      revert\n    tag_182:\n        /* \"erc20.sol\":30679:30700  _mint(account,amount) */\n      tag_186\n        /* \"erc20.sol\":30685:30692  account */\n      dup3\n        /* \"erc20.sol\":30693:30699  amount */\n      dup3\n        /* \"erc20.sol\":30679:30684  _mint */\n      tag_187\n        /* \"erc20.sol\":30679:30700  _mint(account,amount) */\n      jump\t// in\n    tag_186:\n        /* \"erc20.sol\":30608:30704  function mint(address account, uint256 amount) public onlyMinter{\r... */\n      pop\n      pop\n      jump\t// out\n        /* \"erc20.sol\":25439:25566  function balanceOf(address account) public view virtual override returns (uint256) {\r... */\n    tag_83:\n        /* \"erc20.sol\":25513:25520  uint256 */\n      0x00\n        /* \"erc20.sol\":25540:25549  _balances */\n      0x02\n        /* \"erc20.sol\":25540:25558  _balances[account] */\n      0x00\n        /* \"erc20.sol\":25550:25557  account */\n      dup4\n        /* \"erc20.sol\":25540:25558  _balances[account] */\n      0xffffffffffffffffffffffffffffffffffffffff\n      and\n      0xffffffffffffffffffffffffffffffffffffffff\n      and\n      dup2\n      mstore\n      0x20\n      add\n      swap1\n      dup2\n      mstore\n      0x20\n      add\n      0x00\n      keccak256\n      sload\n        /* \"erc20.sol\":25533:25558  return _balances[account] */\n      swap1\n      pop\n        /* \"erc20.sol\":25439:25566  function balanceOf(address account) public view virtual override returns (uint256) {\r... */\n      swap2\n      swap1\n      pop\n      jump\t// out\n        /* \"erc20.sol\":6327:6475  function renounceOwnership() public virtual onlyOwner {\r... */\n    tag_86:\n        /* \"erc20.sol\":5907:5919  _msgSender() */\n      tag_190\n        /* \"erc20.sol\":5907:5917  _msgSender */\n      tag_143\n        /* \"erc20.sol\":5907:5919  _msgSender() */\n      jump\t// in\n    tag_190:\n        /* \"erc20.sol\":5896:5919  owner() == _msgSender() */\n      0xffffffffffffffffffffffffffffffffffffffff\n      and\n        /* \"erc20.sol\":5896:5903  owner() */\n      tag_191\n        /* \"erc20.sol\":5896:5901  owner */\n      tag_88\n        /* \"erc20.sol\":5896:5903  owner() */\n      jump\t// in\n    tag_191:\n        /* \"erc20.sol\":5896:5919  owner() == _msgSender() */\n      0xffffffffffffffffffffffffffffffffffffffff\n      and\n      eq\n        /* \"erc20.sol\":5888:5956  require(owner() == _msgSender(), \"Ownable: caller is not the owner\") */\n      tag_192\n      jumpi\n      mload(0x40)\n      0x08c379a000000000000000000000000000000000000000000000000000000000\n      dup2\n      mstore\n      0x04\n      add\n      tag_193\n      swap1\n      tag_194\n      jump\t// in\n    tag_193:\n      mload(0x40)\n      dup1\n      swap2\n      sub\n      swap1\n      revert\n    tag_192:\n        /* \"erc20.sol\":6434:6435  0 */\n      0x00\n        /* \"erc20.sol\":6397:6437  OwnershipTransferred(_owner, address(0)) */\n      0xffffffffffffffffffffffffffffffffffffffff\n      and\n        /* \"erc20.sol\":6418:6424  _owner */\n      0x00\n      dup1\n      sload\n      swap1\n      0x0100\n      exp\n      swap1\n      div\n      0xffffffffffffffffffffffffffffffffffffffff\n      and\n        /* \"erc20.sol\":6397:6437  OwnershipTransferred(_owner, address(0)) */\n      0xffffffffffffffffffffffffffffffffffffffff\n      and\n      0x8be0079c531659141344cd1fd0a4f28419497f9722a3daafe3b4186f6b6457e0\n      mload(0x40)\n      mload(0x40)\n      dup1\n      swap2\n      sub\n      swap1\n      log3\n        /* \"erc20.sol\":6465:6466  0 */\n      0x00\n        /* \"erc20.sol\":6448:6454  _owner */\n      dup1\n      0x00\n        /* \"erc20.sol\":6448:6467  _owner = address(0) */\n      0x0100\n      exp\n      dup2\n      sload\n      dup2\n      0xffffffffffffffffffffffffffffffffffffffff\n      mul\n      not\n      and\n      swap1\n      dup4\n      0xffffffffffffffffffffffffffffffffffffffff\n      and\n      mul\n      or\n      swap1\n      sstore\n      pop\n        /* \"erc20.sol\":6327:6475  function renounceOwnership() public virtual onlyOwner {\r... */\n      jump\t// out\n        /* \"erc20.sol\":5668:5755  function owner() public view virtual returns (address) {\r... */\n    tag_88:\n        /* \"erc20.sol\":5714:5721  address */\n      0x00\n        /* \"erc20.sol\":5741:5747  _owner */\n      dup1\n      0x00\n      swap1\n      sload\n      swap1\n      0x0100\n      exp\n      swap1\n      div\n      0xffffffffffffffffffffffffffffffffffffffff\n      and\n        /* \"erc20.sol\":5734:5747  return _owner */\n      swap1\n      pop\n        /* \"erc20.sol\":5668:5755  function owner() public view virtual returns (address) {\r... */\n      swap1\n      jump\t// out\n        /* \"erc20.sol\":17489:17636  function hasRole(bytes32 role, address account) public view virtual override returns (bool) {\r... */\n    tag_93:\n        /* \"erc20.sol\":17575:17579  bool */\n      0x00\n        /* \"erc20.sol\":17599:17605  _roles */\n      0x01\n        /* \"erc20.sol\":17599:17611  _roles[role] */\n      0x00\n        /* \"erc20.sol\":17606:17610  role */\n      dup5\n        /* \"erc20.sol\":17599:17611  _roles[role] */\n      dup2\n      mstore\n      0x20\n      add\n      swap1\n      dup2\n      mstore\n      0x20\n      add\n      0x00\n      keccak256\n        /* \"erc20.sol\":17599:17619  _roles[role].members */\n      0x00\n      add\n        /* \"erc20.sol\":17599:17628  _roles[role].members[account] */\n      0x00\n        /* \"erc20.sol\":17620:17627  account */\n      dup4\n        /* \"erc20.sol\":17599:17628  _roles[role].members[account] */\n      0xffffffffffffffffffffffffffffffffffffffff\n      and\n      0xffffffffffffffffffffffffffffffffffffffff\n      and\n      dup2\n      mstore\n      0x20\n      add\n      swap1\n      dup2\n      mstore\n      0x20\n      add\n      0x00\n      keccak256\n      0x00\n      swap1\n      sload\n      swap1\n      0x0100\n      exp\n      swap1\n      div\n      0xff\n      and\n        /* \"erc20.sol\":17592:17628  return _roles[role].members[account] */\n      swap1\n      pop\n        /* \"erc20.sol\":17489:17636  function hasRole(bytes32 role, address account) public view virtual override returns (bool) {\r... */\n      swap3\n      swap2\n      pop\n      pop\n      jump\t// out\n        /* \"erc20.sol\":24367:24471  function symbol() public view virtual override returns (string memory) {\r... */\n    tag_96:\n        /* \"erc20.sol\":24423:24436  string memory */\n      0x60\n        /* \"erc20.sol\":24456:24463  _symbol */\n      0x06\n        /* \"erc20.sol\":24449:24463  return _symbol */\n      dup1\n      sload\n      tag_199\n      swap1\n      tag_135\n      jump\t// in\n    tag_199:\n      dup1\n      0x1f\n      add\n      0x20\n      dup1\n      swap2\n      div\n      mul\n      0x20\n      add\n      mload(0x40)\n      swap1\n      dup2\n      add\n      0x40\n      mstore\n      dup1\n      swap3\n      swap2\n      swap1\n      dup2\n      dup2\n      mstore\n      0x20\n      add\n      dup3\n      dup1\n      sload\n      tag_200\n      swap1\n      tag_135\n      jump\t// in\n    tag_200:\n      dup1\n      iszero\n      tag_201\n      jumpi\n      dup1\n      0x1f\n      lt\n      tag_202\n      jumpi\n      0x0100\n      dup1\n      dup4\n      sload\n      div\n      mul\n      dup4\n      mstore\n      swap2\n      0x20\n      add\n      swap2\n      jump(tag_201)\n    tag_202:\n      dup3\n      add\n      swap2\n      swap1\n      0x00\n      mstore\n      keccak256(0x00, 0x20)\n      swap1\n    tag_203:\n      dup2\n      sload\n      dup2\n      mstore\n      swap1\n      0x01\n      add\n      swap1\n      0x20\n      add\n      dup1\n      dup4\n      gt\n      tag_203\n      jumpi\n      dup3\n      swap1\n      sub\n      0x1f\n      and\n      dup3\n      add\n      swap2\n    tag_201:\n      pop\n      pop\n      pop\n      pop\n      pop\n      swap1\n      pop\n        /* \"erc20.sol\":24367:24471  function symbol() public view virtual override returns (string memory) {\r... */\n      swap1\n      jump\t// out\n        /* \"erc20.sol\":23982:24078  function addMinter(address _user) public onlyOwner{\r... */\n    tag_100:\n        /* \"erc20.sol\":5907:5919  _msgSender() */\n      tag_205\n        /* \"erc20.sol\":5907:5917  _msgSender */\n      tag_143\n        /* \"erc20.sol\":5907:5919  _msgSender() */\n      jump\t// in\n    tag_205:\n        /* \"erc20.sol\":5896:5919  owner() == _msgSender() */\n      0xffffffffffffffffffffffffffffffffffffffff\n      and\n        /* \"erc20.sol\":5896:5903  owner() */\n      tag_206\n        /* \"erc20.sol\":5896:5901  owner */\n      tag_88\n        /* \"erc20.sol\":5896:5903  owner() */\n      jump\t// in\n    tag_206:\n        /* \"erc20.sol\":5896:5919  owner() == _msgSender() */\n      0xffffffffffffffffffffffffffffffffffffffff\n      and\n      eq\n        /* \"erc20.sol\":5888:5956  require(owner() == _msgSender(), \"Ownable: caller is not the owner\") */\n      tag_207\n      jumpi\n      mload(0x40)\n      0x08c379a000000000000000000000000000000000000000000000000000000000\n      dup2\n      mstore\n      0x04\n      add\n      tag_208\n      swap1\n      tag_194\n      jump\t// in\n    tag_208:\n      mload(0x40)\n      dup1\n      swap2\n      sub\n      swap1\n      revert\n    tag_207:\n        /* \"erc20.sol\":24042:24071  _setupRole(MINTER_ROLE,_user) */\n      tag_210\n        /* \"erc20.sol\":23774:23798  keccak256(\"MINTER_ROLE\") */\n      0x9f2df0fed2c77648de5860a4cc508cd0818c85b8b8a1ab4ceeef8d981c8956a6\n        /* \"erc20.sol\":24065:24070  _user */\n      dup3\n        /* \"erc20.sol\":24042:24052  _setupRole */\n      tag_211\n        /* \"erc20.sol\":24042:24071  _setupRole(MINTER_ROLE,_user) */\n      jump\t// in\n    tag_210:\n        /* \"erc20.sol\":23982:24078  function addMinter(address _user) public onlyOwner{\r... */\n      pop\n      jump\t// out\n        /* \"erc20.sol\":31535:31638  function burn(address account, uint256 amount) public onlyOwner{\r... */\n    tag_103:\n        /* \"erc20.sol\":5907:5919  _msgSender() */\n      tag_213\n        /* \"erc20.sol\":5907:5917  _msgSender */\n      tag_143\n        /* \"erc20.sol\":5907:5919  _msgSender() */\n      jump\t// in\n    tag_213:\n        /* \"erc20.sol\":5896:5919  owner() == _msgSender() */\n      0xffffffffffffffffffffffffffffffffffffffff\n      and\n        /* \"erc20.sol\":5896:5903  owner() */\n      tag_214\n        /* \"erc20.sol\":5896:5901  owner */\n      tag_88\n        /* \"erc20.sol\":5896:5903  owner() */\n      jump\t// in\n    tag_214:\n        /* \"erc20.sol\":5896:5919  owner() == _msgSender() */\n      0xffffffffffffffffffffffffffffffffffffffff\n      and\n      eq\n        /* \"erc20.sol\":5888:5956  require(owner() == _msgSender(), \"Ownable: caller is not the owner\") */\n      tag_215\n      jumpi\n      mload(0x40)\n      0x08c379a000000000000000000000000000000000000000000000000000000000\n      dup2\n      mstore\n      0x04\n      add\n      tag_216\n      swap1\n      tag_194\n      jump\t// in\n    tag_216:\n      mload(0x40)\n      dup1\n      swap2\n      sub\n      swap1\n      revert\n    tag_215:\n        /* \"erc20.sol\":31609:31630  _burn(account,amount) */\n      tag_218\n        /* \"erc20.sol\":31615:31622  account */\n      dup3\n        /* \"erc20.sol\":31623:31629  amount */\n      dup3\n        /* \"erc20.sol\":31609:31614  _burn */\n      tag_219\n        /* \"erc20.sol\":31609:31630  _burn(account,amount) */\n      jump\t// in\n    tag_218:\n        /* \"erc20.sol\":31535:31638  function burn(address account, uint256 amount) public onlyOwner{\r... */\n      pop\n      pop\n      jump\t// out\n        /* \"erc20.sol\":16594:16643  bytes32 public constant DEFAULT_ADMIN_ROLE = 0x00 */\n    tag_105:\n        /* \"erc20.sol\":16639:16643  0x00 */\n      0x00\n        /* \"erc20.sol\":16594:16643  bytes32 public constant DEFAULT_ADMIN_ROLE = 0x00 */\n      dup1\n      shl\n      dup2\n      jump\t// out\n        /* \"erc20.sol\":28515:28892  function decreaseAllowance(address spender, uint256 subtractedValue) public virtual returns (bool) {\r... */\n    tag_109:\n        /* \"erc20.sol\":28608:28612  bool */\n      0x00\n        /* \"erc20.sol\":28625:28649  uint256 currentAllowance */\n      dup1\n        /* \"erc20.sol\":28652:28663  _allowances */\n      0x03\n        /* \"erc20.sol\":28652:28677  _allowances[_msgSender()] */\n      0x00\n        /* \"erc20.sol\":28664:28676  _msgSender() */\n      tag_221\n        /* \"erc20.sol\":28664:28674  _msgSender */\n      tag_143\n        /* \"erc20.sol\":28664:28676  _msgSender() */\n      jump\t// in\n    tag_221:\n        /* \"erc20.sol\":28652:28677  _allowances[_msgSender()] */\n      0xffffffffffffffffffffffffffffffffffffffff\n      and\n      0xffffffffffffffffffffffffffffffffffffffff\n      and\n      dup2\n      mstore\n      0x20\n      add\n      swap1\n      dup2\n      mstore\n      0x20\n      add\n      0x00\n      keccak256\n        /* \"erc20.sol\":28652:28686  _allowances[_msgSender()][spender] */\n      0x00\n        /* \"erc20.sol\":28678:28685  spender */\n      dup6\n        /* \"erc20.sol\":28652:28686  _allowances[_msgSender()][spender] */\n      0xffffffffffffffffffffffffffffffffffffffff\n      and\n      0xffffffffffffffffffffffffffffffffffffffff\n      and\n      dup2\n      mstore\n      0x20\n      add\n      swap1\n      dup2\n      mstore\n      0x20\n      add\n      0x00\n      keccak256\n      sload\n        /* \"erc20.sol\":28625:28686  uint256 currentAllowance = _allowances[_msgSender()][spender] */\n      swap1\n      pop\n        /* \"erc20.sol\":28725:28740  subtractedValue */\n      dup3\n        /* \"erc20.sol\":28705:28721  currentAllowance */\n      dup2\n        /* \"erc20.sol\":28705:28740  currentAllowance >= subtractedValue */\n      lt\n      iszero\n        /* \"erc20.sol\":28697:28782  require(currentAllowance >= subtractedValue, \"ERC20: decreased allowance below zero\") */\n      tag_222\n      jumpi\n      mload(0x40)\n      0x08c379a000000000000000000000000000000000000000000000000000000000\n      dup2\n      mstore\n      0x04\n      add\n      tag_223\n      swap1\n      tag_224\n      jump\t// in\n    tag_223:\n      mload(0x40)\n      dup1\n      swap2\n      sub\n      swap1\n      revert\n    tag_222:\n        /* \"erc20.sol\":28793:28860  _approve(_msgSender(), spender, currentAllowance - subtractedValue) */\n      tag_225\n        /* \"erc20.sol\":28802:28814  _msgSender() */\n      tag_226\n        /* \"erc20.sol\":28802:28812  _msgSender */\n      tag_143\n        /* \"erc20.sol\":28802:28814  _msgSender() */\n      jump\t// in\n    tag_226:\n        /* \"erc20.sol\":28816:28823  spender */\n      dup6\n        /* \"erc20.sol\":28844:28859  subtractedValue */\n      dup6\n        /* \"erc20.sol\":28825:28841  currentAllowance */\n      dup5\n        /* \"erc20.sol\":28825:28859  currentAllowance - subtractedValue */\n      tag_227\n      swap2\n      swap1\n      tag_156\n      jump\t// in\n    tag_227:\n        /* \"erc20.sol\":28793:28801  _approve */\n      tag_144\n        /* \"erc20.sol\":28793:28860  _approve(_msgSender(), spender, currentAllowance - subtractedValue) */\n      jump\t// in\n    tag_225:\n        /* \"erc20.sol\":28880:28884  true */\n      0x01\n        /* \"erc20.sol\":28873:28884  return true */\n      swap2\n      pop\n      pop\n        /* \"erc20.sol\":28515:28892  function decreaseAllowance(address spender, uint256 subtractedValue) public virtual returns (bool) {\r... */\n      swap3\n      swap2\n      pop\n      pop\n      jump\t// out\n        /* \"erc20.sol\":25779:25954  function transfer(address recipient, uint256 amount) public virtual override returns (bool) {\r... */\n    tag_113:\n        /* \"erc20.sol\":25865:25869  bool */\n      0x00\n        /* \"erc20.sol\":25882:25924  _transfer(_msgSender(), recipient, amount) */\n      tag_229\n        /* \"erc20.sol\":25892:25904  _msgSender() */\n      tag_230\n        /* \"erc20.sol\":25892:25902  _msgSender */\n      tag_143\n        /* \"erc20.sol\":25892:25904  _msgSender() */\n      jump\t// in\n    tag_230:\n        /* \"erc20.sol\":25906:25915  recipient */\n      dup5\n        /* \"erc20.sol\":25917:25923  amount */\n      dup5\n        /* \"erc20.sol\":25882:25891  _transfer */\n      tag_148\n        /* \"erc20.sol\":25882:25924  _transfer(_msgSender(), recipient, amount) */\n      jump\t// in\n    tag_229:\n        /* \"erc20.sol\":25942:25946  true */\n      0x01\n        /* \"erc20.sol\":25935:25946  return true */\n      swap1\n      pop\n        /* \"erc20.sol\":25779:25954  function transfer(address recipient, uint256 amount) public virtual override returns (bool) {\r... */\n      swap3\n      swap2\n      pop\n      pop\n      jump\t// out\n        /* \"erc20.sol\":23736:23798  bytes32 public constant MINTER_ROLE = keccak256(\"MINTER_ROLE\") */\n    tag_116:\n        /* \"erc20.sol\":23774:23798  keccak256(\"MINTER_ROLE\") */\n      0x9f2df0fed2c77648de5860a4cc508cd0818c85b8b8a1ab4ceeef8d981c8956a6\n        /* \"erc20.sol\":23736:23798  bytes32 public constant MINTER_ROLE = keccak256(\"MINTER_ROLE\") */\n      dup2\n      jump\t// out\n        /* \"erc20.sol\":19897:20046  function revokeRole(bytes32 role, address account) public virtual override onlyRole(getRoleAdmin(role)) {\r... */\n    tag_120:\n        /* \"erc20.sol\":19981:19999  getRoleAdmin(role) */\n      tag_231\n        /* \"erc20.sol\":19994:19998  role */\n      dup3\n        /* \"erc20.sol\":19981:19993  getRoleAdmin */\n      tag_59\n        /* \"erc20.sol\":19981:19999  getRoleAdmin(role) */\n      jump\t// in\n    tag_231:\n        /* \"erc20.sol\":17085:17101  _checkRole(role) */\n      tag_233\n        /* \"erc20.sol\":17096:17100  role */\n      dup2\n        /* \"erc20.sol\":17085:17095  _checkRole */\n      tag_161\n        /* \"erc20.sol\":17085:17101  _checkRole(role) */\n      jump\t// in\n    tag_233:\n        /* \"erc20.sol\":20012:20038  _revokeRole(role, account) */\n      tag_235\n        /* \"erc20.sol\":20024:20028  role */\n      dup4\n        /* \"erc20.sol\":20030:20037  account */\n      dup4\n        /* \"erc20.sol\":20012:20023  _revokeRole */\n      tag_172\n        /* \"erc20.sol\":20012:20038  _revokeRole(role, account) */\n      jump\t// in\n    tag_235:\n        /* \"erc20.sol\":19897:20046  function revokeRole(bytes32 role, address account) public virtual override onlyRole(getRoleAdmin(role)) {\r... */\n      pop\n      pop\n      pop\n      jump\t// out\n        /* \"erc20.sol\":26017:26168  function allowance(address owner, address spender) public view virtual override returns (uint256) {\r... */\n    tag_124:\n        /* \"erc20.sol\":26106:26113  uint256 */\n      0x00\n        /* \"erc20.sol\":26133:26144  _allowances */\n      0x03\n        /* \"erc20.sol\":26133:26151  _allowances[owner] */\n      0x00\n        /* \"erc20.sol\":26145:26150  owner */\n      dup5\n        /* \"erc20.sol\":26133:26151  _allowances[owner] */\n      0xffffffffffffffffffffffffffffffffffffffff\n      and\n      0xffffffffffffffffffffffffffffffffffffffff\n      and\n      dup2\n      mstore\n      0x20\n      add\n      swap1\n      dup2\n      mstore\n      0x20\n      add\n      0x00\n      keccak256\n        /* \"erc20.sol\":26133:26160  _allowances[owner][spender] */\n      0x00\n        /* \"erc20.sol\":26152:26159  spender */\n      dup4\n        /* \"erc20.sol\":26133:26160  _allowances[owner][spender] */\n      0xffffffffffffffffffffffffffffffffffffffff\n      and\n      0xffffffffffffffffffffffffffffffffffffffff\n      and\n      dup2\n      mstore\n      0x20\n      add\n      swap1\n      dup2\n      mstore\n      0x20\n      add\n      0x00\n      keccak256\n      sload\n        /* \"erc20.sol\":26126:26160  return _allowances[owner][spender] */\n      swap1\n      pop\n        /* \"erc20.sol\":26017:26168  function allowance(address owner, address spender) public view virtual override returns (uint256) {\r... */\n      swap3\n      swap2\n      pop\n      pop\n      jump\t// out\n        /* \"erc20.sol\":6630:6874  function transferOwnership(address newOwner) public virtual onlyOwner {\r... */\n    tag_128:\n        /* \"erc20.sol\":5907:5919  _msgSender() */\n      tag_238\n        /* \"erc20.sol\":5907:5917  _msgSender */\n      tag_143\n        /* \"erc20.sol\":5907:5919  _msgSender() */\n      jump\t// in\n    tag_238:\n        /* \"erc20.sol\":5896:5919  owner() == _msgSender() */\n      0xffffffffffffffffffffffffffffffffffffffff\n      and\n        /* \"erc20.sol\":5896:5903  owner() */\n      tag_239\n        /* \"erc20.sol\":5896:5901  owner */\n      tag_88\n        /* \"erc20.sol\":5896:5903  owner() */\n      jump\t// in\n    tag_239:\n        /* \"erc20.sol\":5896:5919  owner() == _msgSender() */\n      0xffffffffffffffffffffffffffffffffffffffff\n      and\n      eq\n        /* \"erc20.sol\":5888:5956  require(owner() == _msgSender(), \"Ownable: caller is not the owner\") */\n      tag_240\n      jumpi\n      mload(0x40)\n      0x08c379a000000000000000000000000000000000000000000000000000000000\n      dup2\n      mstore\n      0x04\n      add\n      tag_241\n      swap1\n      tag_194\n      jump\t// in\n    tag_241:\n      mload(0x40)\n      dup1\n      swap2\n      sub\n      swap1\n      revert\n    tag_240:\n        /* \"erc20.sol\":6739:6740  0 */\n      0x00\n        /* \"erc20.sol\":6719:6741  newOwner != address(0) */\n      0xffffffffffffffffffffffffffffffffffffffff\n      and\n        /* \"erc20.sol\":6719:6727  newOwner */\n      dup2\n        /* \"erc20.sol\":6719:6741  newOwner != address(0) */\n      0xffffffffffffffffffffffffffffffffffffffff\n      and\n      eq\n      iszero\n        /* \"erc20.sol\":6711:6784  require(newOwner != address(0), \"Ownable: new owner is the zero address\") */\n      tag_243\n      jumpi\n      mload(0x40)\n      0x08c379a000000000000000000000000000000000000000000000000000000000\n      dup2\n      mstore\n      0x04\n      add\n      tag_244\n      swap1\n      tag_245\n      jump\t// in\n    tag_244:\n      mload(0x40)\n      dup1\n      swap2\n      sub\n      swap1\n      revert\n    tag_243:\n        /* \"erc20.sol\":6829:6837  newOwner */\n      dup1\n        /* \"erc20.sol\":6800:6838  OwnershipTransferred(_owner, newOwner) */\n      0xffffffffffffffffffffffffffffffffffffffff\n      and\n        /* \"erc20.sol\":6821:6827  _owner */\n      0x00\n      dup1\n      sload\n      swap1\n      0x0100\n      exp\n      swap1\n      div\n      0xffffffffffffffffffffffffffffffffffffffff\n      and\n        /* \"erc20.sol\":6800:6838  OwnershipTransferred(_owner, newOwner) */\n      0xffffffffffffffffffffffffffffffffffffffff\n      and\n      0x8be0079c531659141344cd1fd0a4f28419497f9722a3daafe3b4186f6b6457e0\n      mload(0x40)\n      mload(0x40)\n      dup1\n      swap2\n      sub\n      swap1\n      log3\n        /* \"erc20.sol\":6858:6866  newOwner */\n      dup1\n        /* \"erc20.sol\":6849:6855  _owner */\n      0x00\n      dup1\n        /* \"erc20.sol\":6849:6866  _owner = newOwner */\n      0x0100\n      exp\n      dup2\n      sload\n      dup2\n      0xffffffffffffffffffffffffffffffffffffffff\n      mul\n      not\n      and\n      swap1\n      dup4\n      0xffffffffffffffffffffffffffffffffffffffff\n      and\n      mul\n      or\n      swap1\n      sstore\n      pop\n        /* \"erc20.sol\":6630:6874  function transferOwnership(address newOwner) public virtual onlyOwner {\r... */\n      pop\n      jump\t// out\n        /* \"erc20.sol\":14628:14785  function supportsInterface(bytes4 interfaceId) public view virtual override returns (bool) {\r... */\n    tag_132:\n        /* \"erc20.sol\":14713:14717  bool */\n      0x00\n        /* \"erc20.sol\":14752:14777  type(IERC165).interfaceId */\n      0x01ffc9a700000000000000000000000000000000000000000000000000000000\n        /* \"erc20.sol\":14737:14777  interfaceId == type(IERC165).interfaceId */\n      not(0xffffffffffffffffffffffffffffffffffffffffffffffffffffffff)\n      and\n        /* \"erc20.sol\":14737:14748  interfaceId */\n      dup3\n        /* \"erc20.sol\":14737:14777  interfaceId == type(IERC165).interfaceId */\n      not(0xffffffffffffffffffffffffffffffffffffffffffffffffffffffff)\n      and\n      eq\n        /* \"erc20.sol\":14730:14777  return interfaceId == type(IERC165).interfaceId */\n      swap1\n      pop\n        /* \"erc20.sol\":14628:14785  function supportsInterface(bytes4 interfaceId) public view virtual override returns (bool) {\r... */\n      swap2\n      swap1\n      pop\n      jump\t// out\n        /* \"erc20.sol\":4314:4412  function _msgSender() internal view virtual returns (address) {\r... */\n    tag_143:\n        /* \"erc20.sol\":4367:4374  address */\n      0x00\n        /* \"erc20.sol\":4394:4404  msg.sender */\n      caller\n        /* \"erc20.sol\":4387:4404  return msg.sender */\n      swap1\n      pop\n        /* \"erc20.sol\":4314:4412  function _msgSender() internal view virtual returns (address) {\r... */\n      swap1\n      jump\t// out\n        /* \"erc20.sol\":32074:32420  function _approve(address owner, address spender, uint256 amount) internal virtual {\r... */\n    tag_144:\n        /* \"erc20.sol\":32193:32194  0 */\n      0x00\n        /* \"erc20.sol\":32176:32195  owner != address(0) */\n      0xffffffffffffffffffffffffffffffffffffffff\n      and\n        /* \"erc20.sol\":32176:32181  owner */\n      dup4\n        /* \"erc20.sol\":32176:32195  owner != address(0) */\n      0xffffffffffffffffffffffffffffffffffffffff\n      and\n      eq\n      iszero\n        /* \"erc20.sol\":32168:32236  require(owner != address(0), \"ERC20: approve from the zero address\") */\n      tag_249\n      jumpi\n      mload(0x40)\n      0x08c379a000000000000000000000000000000000000000000000000000000000\n      dup2\n      mstore\n      0x04\n      add\n      tag_250\n      swap1\n      tag_251\n      jump\t// in\n    tag_250:\n      mload(0x40)\n      dup1\n      swap2\n      sub\n      swap1\n      revert\n    tag_249:\n        /* \"erc20.sol\":32274:32275  0 */\n      0x00\n        /* \"erc20.sol\":32255:32276  spender != address(0) */\n      0xffffffffffffffffffffffffffffffffffffffff\n      and\n        /* \"erc20.sol\":32255:32262  spender */\n      dup3\n        /* \"erc20.sol\":32255:32276  spender != address(0) */\n      0xffffffffffffffffffffffffffffffffffffffff\n      and\n      eq\n      iszero\n        /* \"erc20.sol\":32247:32315  require(spender != address(0), \"ERC20: approve to the zero address\") */\n      tag_252\n      jumpi\n      mload(0x40)\n      0x08c379a000000000000000000000000000000000000000000000000000000000\n      dup2\n      mstore\n      0x04\n      add\n      tag_253\n      swap1\n      tag_254\n      jump\t// in\n    tag_253:\n      mload(0x40)\n      dup1\n      swap2\n      sub\n      swap1\n      revert\n    tag_252:\n        /* \"erc20.sol\":32358:32364  amount */\n      dup1\n        /* \"erc20.sol\":32328:32339  _allowances */\n      0x03\n        /* \"erc20.sol\":32328:32346  _allowances[owner] */\n      0x00\n        /* \"erc20.sol\":32340:32345  owner */\n      dup6\n        /* \"erc20.sol\":32328:32346  _allowances[owner] */\n      0xffffffffffffffffffffffffffffffffffffffff\n      and\n      0xffffffffffffffffffffffffffffffffffffffff\n      and\n      dup2\n      mstore\n      0x20\n      add\n      swap1\n      dup2\n      mstore\n      0x20\n      add\n      0x00\n      keccak256\n        /* \"erc20.sol\":32328:32355  _allowances[owner][spender] */\n      0x00\n        /* \"erc20.sol\":32347:32354  spender */\n      dup5\n        /* \"erc20.sol\":32328:32355  _allowances[owner][spender] */\n      0xffffffffffffffffffffffffffffffffffffffff\n      and\n      0xffffffffffffffffffffffffffffffffffffffff\n      and\n      dup2\n      mstore\n      0x20\n      add\n      swap1\n      dup2\n      mstore\n      0x20\n      add\n      0x00\n      keccak256\n        /* \"erc20.sol\":32328:32364  _allowances[owner][spender] = amount */\n      dup2\n      swap1\n      sstore\n      pop\n        /* \"erc20.sol\":32396:32403  spender */\n      dup2\n        /* \"erc20.sol\":32380:32412  Approval(owner, spender, amount) */\n      0xffffffffffffffffffffffffffffffffffffffff\n      and\n        /* \"erc20.sol\":32389:32394  owner */\n      dup4\n        /* \"erc20.sol\":32380:32412  Approval(owner, spender, amount) */\n      0xffffffffffffffffffffffffffffffffffffffff\n      and\n      0x8c5be1e5ebec7d5bd14f71427d1e84f3dd0314c0f7b2291e5b200ac8c7c3b925\n        /* \"erc20.sol\":32405:32411  amount */\n      dup4\n        /* \"erc20.sol\":32380:32412  Approval(owner, spender, amount) */\n      mload(0x40)\n      tag_255\n      swap2\n      swap1\n      tag_50\n      jump\t// in\n    tag_255:\n      mload(0x40)\n      dup1\n      swap2\n      sub\n      swap1\n      log3\n        /* \"erc20.sol\":32074:32420  function _approve(address owner, address spender, uint256 amount) internal virtual {\r... */\n      pop\n      pop\n      pop\n      jump\t// out\n        /* \"erc20.sol\":29382:29986  function _transfer(address sender, address recipient, uint256 amount) internal virtual {\r... */\n    tag_148:\n        /* \"erc20.sol\":29506:29507  0 */\n      0x00\n        /* \"erc20.sol\":29488:29508  sender != address(0) */\n      0xffffffffffffffffffffffffffffffffffffffff\n      and\n        /* \"erc20.sol\":29488:29494  sender */\n      dup4\n        /* \"erc20.sol\":29488:29508  sender != address(0) */\n      0xffffffffffffffffffffffffffffffffffffffff\n      and\n      eq\n      iszero\n        /* \"erc20.sol\":29480:29550  require(sender != address(0), \"ERC20: transfer from the zero address\") */\n      tag_257\n      jumpi\n      mload(0x40)\n      0x08c379a000000000000000000000000000000000000000000000000000000000\n      dup2\n      mstore\n      0x04\n      add\n      tag_258\n      swap1\n      tag_259\n      jump\t// in\n    tag_258:\n      mload(0x40)\n      dup1\n      swap2\n      sub\n      swap1\n      revert\n    tag_257:\n        /* \"erc20.sol\":29590:29591  0 */\n      0x00\n        /* \"erc20.sol\":29569:29592  recipient != address(0) */\n      0xffffffffffffffffffffffffffffffffffffffff\n      and\n        /* \"erc20.sol\":29569:29578  recipient */\n      dup3\n        /* \"erc20.sol\":29569:29592  recipient != address(0) */\n      0xffffffffffffffffffffffffffffffffffffffff\n      and\n      eq\n      iszero\n        /* \"erc20.sol\":29561:29632  require(recipient != address(0), \"ERC20: transfer to the zero address\") */\n      tag_260\n      jumpi\n      mload(0x40)\n      0x08c379a000000000000000000000000000000000000000000000000000000000\n      dup2\n      mstore\n      0x04\n      add\n      tag_261\n      swap1\n      tag_262\n      jump\t// in\n    tag_261:\n      mload(0x40)\n      dup1\n      swap2\n      sub\n      swap1\n      revert\n    tag_260:\n        /* \"erc20.sol\":29645:29692  _beforeTokenTransfer(sender, recipient, amount) */\n      tag_263\n        /* \"erc20.sol\":29666:29672  sender */\n      dup4\n        /* \"erc20.sol\":29674:29683  recipient */\n      dup4\n        /* \"erc20.sol\":29685:29691  amount */\n      dup4\n        /* \"erc20.sol\":29645:29665  _beforeTokenTransfer */\n      tag_264\n        /* \"erc20.sol\":29645:29692  _beforeTokenTransfer(sender, recipient, amount) */\n      jump\t// in\n    tag_263:\n        /* \"erc20.sol\":29705:29726  uint256 senderBalance */\n      0x00\n        /* \"erc20.sol\":29729:29738  _balances */\n      0x02\n        /* \"erc20.sol\":29729:29746  _balances[sender] */\n      0x00\n        /* \"erc20.sol\":29739:29745  sender */\n      dup6\n        /* \"erc20.sol\":29729:29746  _balances[sender] */\n      0xffffffffffffffffffffffffffffffffffffffff\n      and\n      0xffffffffffffffffffffffffffffffffffffffff\n      and\n      dup2\n      mstore\n      0x20\n      add\n      swap1\n      dup2\n      mstore\n      0x20\n      add\n      0x00\n      keccak256\n      sload\n        /* \"erc20.sol\":29705:29746  uint256 senderBalance = _balances[sender] */\n      swap1\n      pop\n        /* \"erc20.sol\":29782:29788  amount */\n      dup2\n        /* \"erc20.sol\":29765:29778  senderBalance */\n      dup2\n        /* \"erc20.sol\":29765:29788  senderBalance >= amount */\n      lt\n      iszero\n        /* \"erc20.sol\":29757:29831  require(senderBalance >= amount, \"ERC20: transfer amount exceeds balance\") */\n      tag_265\n      jumpi\n      mload(0x40)\n      0x08c379a000000000000000000000000000000000000000000000000000000000\n      dup2\n      mstore\n      0x04\n      add\n      tag_266\n      swap1\n      tag_267\n      jump\t// in\n    tag_266:\n      mload(0x40)\n      dup1\n      swap2\n      sub\n      swap1\n      revert\n    tag_265:\n        /* \"erc20.sol\":29878:29884  amount */\n      dup2\n        /* \"erc20.sol\":29862:29875  senderBalance */\n      dup2\n        /* \"erc20.sol\":29862:29884  senderBalance - amount */\n      tag_268\n      swap2\n      swap1\n      tag_156\n      jump\t// in\n    tag_268:\n        /* \"erc20.sol\":29842:29851  _balances */\n      0x02\n        /* \"erc20.sol\":29842:29859  _balances[sender] */\n      0x00\n        /* \"erc20.sol\":29852:29858  sender */\n      dup7\n        /* \"erc20.sol\":29842:29859  _balances[sender] */\n      0xffffffffffffffffffffffffffffffffffffffff\n      and\n      0xffffffffffffffffffffffffffffffffffffffff\n      and\n      dup2\n      mstore\n      0x20\n      add\n      swap1\n      dup2\n      mstore\n      0x20\n      add\n      0x00\n      keccak256\n        /* \"erc20.sol\":29842:29884  _balances[sender] = senderBalance - amount */\n      dup2\n      swap1\n      sstore\n      pop\n        /* \"erc20.sol\":29919:29925  amount */\n      dup2\n        /* \"erc20.sol\":29895:29904  _balances */\n      0x02\n        /* \"erc20.sol\":29895:29915  _balances[recipient] */\n      0x00\n        /* \"erc20.sol\":29905:29914  recipient */\n      dup6\n        /* \"erc20.sol\":29895:29915  _balances[recipient] */\n      0xffffffffffffffffffffffffffffffffffffffff\n      and\n      0xffffffffffffffffffffffffffffffffffffffff\n      and\n      dup2\n      mstore\n      0x20\n      add\n      swap1\n      dup2\n      mstore\n      0x20\n      add\n      0x00\n      keccak256\n      0x00\n        /* \"erc20.sol\":29895:29925  _balances[recipient] += amount */\n      dup3\n      dup3\n      sload\n      tag_269\n      swap2\n      swap1\n      tag_178\n      jump\t// in\n    tag_269:\n      swap3\n      pop\n      pop\n      dup2\n      swap1\n      sstore\n      pop\n        /* \"erc20.sol\":29960:29969  recipient */\n      dup3\n        /* \"erc20.sol\":29943:29978  Transfer(sender, recipient, amount) */\n      0xffffffffffffffffffffffffffffffffffffffff\n      and\n        /* \"erc20.sol\":29952:29958  sender */\n      dup5\n        /* \"erc20.sol\":29943:29978  Transfer(sender, recipient, amount) */\n      0xffffffffffffffffffffffffffffffffffffffff\n      and\n      0xddf252ad1be2c89b69c2b068fc378daa952ba7f163c4a11628f55a4df523b3ef\n        /* \"erc20.sol\":29971:29977  amount */\n      dup5\n        /* \"erc20.sol\":29943:29978  Transfer(sender, recipient, amount) */\n      mload(0x40)\n      tag_270\n      swap2\n      swap1\n      tag_50\n      jump\t// in\n    tag_270:\n      mload(0x40)\n      dup1\n      swap2\n      sub\n      swap1\n      log3\n        /* \"erc20.sol\":29469:29986  {\r... */\n      pop\n        /* \"erc20.sol\":29382:29986  function _transfer(address sender, address recipient, uint256 amount) internal virtual {\r... */\n      pop\n      pop\n      pop\n      jump\t// out\n        /* \"erc20.sol\":17940:18045  function _checkRole(bytes32 role) internal view virtual {\r... */\n    tag_161:\n        /* \"erc20.sol\":18007:18037  _checkRole(role, _msgSender()) */\n      tag_272\n        /* \"erc20.sol\":18018:18022  role */\n      dup2\n        /* \"erc20.sol\":18024:18036  _msgSender() */\n      tag_273\n        /* \"erc20.sol\":18024:18034  _msgSender */\n      tag_143\n        /* \"erc20.sol\":18024:18036  _msgSender() */\n      jump\t// in\n    tag_273:\n        /* \"erc20.sol\":18007:18017  _checkRole */\n      tag_274\n        /* \"erc20.sol\":18007:18037  _checkRole(role, _msgSender()) */\n      jump\t// in\n    tag_272:\n        /* \"erc20.sol\":17940:18045  function _checkRole(bytes32 role) internal view virtual {\r... */\n      pop\n      jump\t// out\n        /* \"erc20.sol\":22198:22436  function _grantRole(bytes32 role, address account) internal virtual {\r... */\n    tag_164:\n        /* \"erc20.sol\":22282:22304  hasRole(role, account) */\n      tag_276\n        /* \"erc20.sol\":22290:22294  role */\n      dup3\n        /* \"erc20.sol\":22296:22303  account */\n      dup3\n        /* \"erc20.sol\":22282:22289  hasRole */\n      tag_93\n        /* \"erc20.sol\":22282:22304  hasRole(role, account) */\n      jump\t// in\n    tag_276:\n        /* \"erc20.sol\":22277:22429  if (!hasRole(role, account)) {\r... */\n      tag_277\n      jumpi\n        /* \"erc20.sol\":22353:22357  true */\n      0x01\n        /* \"erc20.sol\":22321:22327  _roles */\n      dup1\n        /* \"erc20.sol\":22321:22333  _roles[role] */\n      0x00\n        /* \"erc20.sol\":22328:22332  role */\n      dup5\n        /* \"erc20.sol\":22321:22333  _roles[role] */\n      dup2\n      mstore\n      0x20\n      add\n      swap1\n      dup2\n      mstore\n      0x20\n      add\n      0x00\n      keccak256\n        /* \"erc20.sol\":22321:22341  _roles[role].members */\n      0x00\n      add\n        /* \"erc20.sol\":22321:22350  _roles[role].members[account] */\n      0x00\n        /* \"erc20.sol\":22342:22349  account */\n      dup4\n        /* \"erc20.sol\":22321:22350  _roles[role].members[account] */\n      0xffffffffffffffffffffffffffffffffffffffff\n      and\n      0xffffffffffffffffffffffffffffffffffffffff\n      and\n      dup2\n      mstore\n      0x20\n      add\n      swap1\n      dup2\n      mstore\n      0x20\n      add\n      0x00\n      keccak256\n      0x00\n        /* \"erc20.sol\":22321:22357  _roles[role].members[account] = true */\n      0x0100\n      exp\n      dup2\n      sload\n      dup2\n      0xff\n      mul\n      not\n      and\n      swap1\n      dup4\n      iszero\n      iszero\n      mul\n      or\n      swap1\n      sstore\n      pop\n        /* \"erc20.sol\":22404:22416  _msgSender() */\n      tag_278\n        /* \"erc20.sol\":22404:22414  _msgSender */\n      tag_143\n        /* \"erc20.sol\":22404:22416  _msgSender() */\n      jump\t// in\n    tag_278:\n        /* \"erc20.sol\":22377:22417  RoleGranted(role, account, _msgSender()) */\n      0xffffffffffffffffffffffffffffffffffffffff\n      and\n        /* \"erc20.sol\":22395:22402  account */\n      dup2\n        /* \"erc20.sol\":22377:22417  RoleGranted(role, account, _msgSender()) */\n      0xffffffffffffffffffffffffffffffffffffffff\n      and\n        /* \"erc20.sol\":22389:22393  role */\n      dup4\n        /* \"erc20.sol\":22377:22417  RoleGranted(role, account, _msgSender()) */\n      0x2f8788117e7eff1d82e926ec794901d17c78024a50270940304540a733656f0d\n      mload(0x40)\n      mload(0x40)\n      dup1\n      swap2\n      sub\n      swap1\n      log4\n        /* \"erc20.sol\":22277:22429  if (!hasRole(role, account)) {\r... */\n    tag_277:\n        /* \"erc20.sol\":22198:22436  function _grantRole(bytes32 role, address account) internal virtual {\r... */\n      pop\n      pop\n      jump\t// out\n        /* \"erc20.sol\":22616:22855  function _revokeRole(bytes32 role, address account) internal virtual {\r... */\n    tag_172:\n        /* \"erc20.sol\":22700:22722  hasRole(role, account) */\n      tag_280\n        /* \"erc20.sol\":22708:22712  role */\n      dup3\n        /* \"erc20.sol\":22714:22721  account */\n      dup3\n        /* \"erc20.sol\":22700:22707  hasRole */\n      tag_93\n        /* \"erc20.sol\":22700:22722  hasRole(role, account) */\n      jump\t// in\n    tag_280:\n        /* \"erc20.sol\":22696:22848  if (hasRole(role, account)) {\r... */\n      iszero\n      tag_281\n      jumpi\n        /* \"erc20.sol\":22771:22776  false */\n      0x00\n        /* \"erc20.sol\":22739:22745  _roles */\n      0x01\n        /* \"erc20.sol\":22739:22751  _roles[role] */\n      0x00\n        /* \"erc20.sol\":22746:22750  role */\n      dup5\n        /* \"erc20.sol\":22739:22751  _roles[role] */\n      dup2\n      mstore\n      0x20\n      add\n      swap1\n      dup2\n      mstore\n      0x20\n      add\n      0x00\n      keccak256\n        /* \"erc20.sol\":22739:22759  _roles[role].members */\n      0x00\n      add\n        /* \"erc20.sol\":22739:22768  _roles[role].members[account] */\n      0x00\n        /* \"erc20.sol\":22760:22767  account */\n      dup4\n        /* \"erc20.sol\":22739:22768  _roles[role].members[account] */\n      0xffffffffffffffffffffffffffffffffffffffff\n      and\n      0xffffffffffffffffffffffffffffffffffffffff\n      and\n      dup2\n      mstore\n      0x20\n      add\n      swap1\n      dup2\n      mstore\n      0x20\n      add\n      0x00\n      keccak256\n      0x00\n        /* \"erc20.sol\":22739:22776  _roles[role].members[account] = false */\n      0x0100\n      exp\n      dup2\n      sload\n      dup2\n      0xff\n      mul\n      not\n      and\n      swap1\n      dup4\n      iszero\n      iszero\n      mul\n      or\n      swap1\n      sstore\n      pop\n        /* \"erc20.sol\":22823:22835  _msgSender() */\n      tag_282\n        /* \"erc20.sol\":22823:22833  _msgSender */\n      tag_143\n        /* \"erc20.sol\":22823:22835  _msgSender() */\n      jump\t// in\n    tag_282:\n        /* \"erc20.sol\":22796:22836  RoleRevoked(role, account, _msgSender()) */\n      0xffffffffffffffffffffffffffffffffffffffff\n      and\n        /* \"erc20.sol\":22814:22821  account */\n      dup2\n        /* \"erc20.sol\":22796:22836  RoleRevoked(role, account, _msgSender()) */\n      0xffffffffffffffffffffffffffffffffffffffff\n      and\n        /* \"erc20.sol\":22808:22812  role */\n      dup4\n        /* \"erc20.sol\":22796:22836  RoleRevoked(role, account, _msgSender()) */\n      0xf6391f5c32d9c69d2a47ea670b442974b53935d1edc7fd64eb21e047a839171b\n      mload(0x40)\n      mload(0x40)\n      dup1\n      swap2\n      sub\n      swap1\n      log4\n        /* \"erc20.sol\":22696:22848  if (hasRole(role, account)) {\r... */\n    tag_281:\n        /* \"erc20.sol\":22616:22855  function _revokeRole(bytes32 role, address account) internal virtual {\r... */\n      pop\n      pop\n      jump\t// out\n        /* \"erc20.sol\":30268:30606  function _mint(address account, uint256 amount) internal virtual {\r... */\n    tag_187:\n        /* \"erc20.sol\":30371:30372  0 */\n      0x00\n        /* \"erc20.sol\":30352:30373  account != address(0) */\n      0xffffffffffffffffffffffffffffffffffffffff\n      and\n        /* \"erc20.sol\":30352:30359  account */\n      dup3\n        /* \"erc20.sol\":30352:30373  account != address(0) */\n      0xffffffffffffffffffffffffffffffffffffffff\n      and\n      eq\n      iszero\n        /* \"erc20.sol\":30344:30409  require(account != address(0), \"ERC20: mint to the zero address\") */\n      tag_284\n      jumpi\n      mload(0x40)\n      0x08c379a000000000000000000000000000000000000000000000000000000000\n      dup2\n      mstore\n      0x04\n      add\n      tag_285\n      swap1\n      tag_286\n      jump\t// in\n    tag_285:\n      mload(0x40)\n      dup1\n      swap2\n      sub\n      swap1\n      revert\n    tag_284:\n        /* \"erc20.sol\":30422:30471  _beforeTokenTransfer(address(0), account, amount) */\n      tag_287\n        /* \"erc20.sol\":30451:30452  0 */\n      0x00\n        /* \"erc20.sol\":30455:30462  account */\n      dup4\n        /* \"erc20.sol\":30464:30470  amount */\n      dup4\n        /* \"erc20.sol\":30422:30442  _beforeTokenTransfer */\n      tag_264\n        /* \"erc20.sol\":30422:30471  _beforeTokenTransfer(address(0), account, amount) */\n      jump\t// in\n    tag_287:\n        /* \"erc20.sol\":30500:30506  amount */\n      dup1\n        /* \"erc20.sol\":30484:30496  _totalSupply */\n      0x04\n      0x00\n        /* \"erc20.sol\":30484:30506  _totalSupply += amount */\n      dup3\n      dup3\n      sload\n      tag_288\n      swap2\n      swap1\n      tag_178\n      jump\t// in\n    tag_288:\n      swap3\n      pop\n      pop\n      dup2\n      swap1\n      sstore\n      pop\n        /* \"erc20.sol\":30539:30545  amount */\n      dup1\n        /* \"erc20.sol\":30517:30526  _balances */\n      0x02\n        /* \"erc20.sol\":30517:30535  _balances[account] */\n      0x00\n        /* \"erc20.sol\":30527:30534  account */\n      dup5\n        /* \"erc20.sol\":30517:30535  _balances[account] */\n      0xffffffffffffffffffffffffffffffffffffffff\n      and\n      0xffffffffffffffffffffffffffffffffffffffff\n      and\n      dup2\n      mstore\n      0x20\n      add\n      swap1\n      dup2\n      mstore\n      0x20\n      add\n      0x00\n      keccak256\n      0x00\n        /* \"erc20.sol\":30517:30545  _balances[account] += amount */\n      dup3\n      dup3\n      sload\n      tag_289\n      swap2\n      swap1\n      tag_178\n      jump\t// in\n    tag_289:\n      swap3\n      pop\n      pop\n      dup2\n      swap1\n      sstore\n      pop\n        /* \"erc20.sol\":30582:30589  account */\n      dup2\n        /* \"erc20.sol\":30561:30598  Transfer(address(0), account, amount) */\n      0xffffffffffffffffffffffffffffffffffffffff\n      and\n        /* \"erc20.sol\":30578:30579  0 */\n      0x00\n        /* \"erc20.sol\":30561:30598  Transfer(address(0), account, amount) */\n      0xffffffffffffffffffffffffffffffffffffffff\n      and\n      0xddf252ad1be2c89b69c2b068fc378daa952ba7f163c4a11628f55a4df523b3ef\n        /* \"erc20.sol\":30591:30597  amount */\n      dup4\n        /* \"erc20.sol\":30561:30598  Transfer(address(0), account, amount) */\n      mload(0x40)\n      tag_290\n      swap2\n      swap1\n      tag_50\n      jump\t// in\n    tag_290:\n      mload(0x40)\n      dup1\n      swap2\n      sub\n      swap1\n      log3\n        /* \"erc20.sol\":30268:30606  function _mint(address account, uint256 amount) internal virtual {\r... */\n      pop\n      pop\n      jump\t// out\n        /* \"erc20.sol\":21526:21638  function _setupRole(bytes32 role, address account) internal virtual {\r... */\n    tag_211:\n        /* \"erc20.sol\":21605:21630  _grantRole(role, account) */\n      tag_292\n        /* \"erc20.sol\":21616:21620  role */\n      dup3\n        /* \"erc20.sol\":21622:21629  account */\n      dup3\n        /* \"erc20.sol\":21605:21615  _grantRole */\n      tag_164\n        /* \"erc20.sol\":21605:21630  _grantRole(role, account) */\n      jump\t// in\n    tag_292:\n        /* \"erc20.sol\":21526:21638  function _setupRole(bytes32 role, address account) internal virtual {\r... */\n      pop\n      pop\n      jump\t// out\n        /* \"erc20.sol\":31035:31529  function _burn(address account, uint256 amount) internal virtual {\r... */\n    tag_219:\n        /* \"erc20.sol\":31138:31139  0 */\n      0x00\n        /* \"erc20.sol\":31119:31140  account != address(0) */\n      0xffffffffffffffffffffffffffffffffffffffff\n      and\n        /* \"erc20.sol\":31119:31126  account */\n      dup3\n        /* \"erc20.sol\":31119:31140  account != address(0) */\n      0xffffffffffffffffffffffffffffffffffffffff\n      and\n      eq\n      iszero\n        /* \"erc20.sol\":31111:31178  require(account != address(0), \"ERC20: burn from the zero address\") */\n      tag_294\n      jumpi\n      mload(0x40)\n      0x08c379a000000000000000000000000000000000000000000000000000000000\n      dup2\n      mstore\n      0x04\n      add\n      tag_295\n      swap1\n      tag_296\n      jump\t// in\n    tag_295:\n      mload(0x40)\n      dup1\n      swap2\n      sub\n      swap1\n      revert\n    tag_294:\n        /* \"erc20.sol\":31191:31240  _beforeTokenTransfer(account, address(0), amount) */\n      tag_297\n        /* \"erc20.sol\":31212:31219  account */\n      dup3\n        /* \"erc20.sol\":31229:31230  0 */\n      0x00\n        /* \"erc20.sol\":31233:31239  amount */\n      dup4\n        /* \"erc20.sol\":31191:31211  _beforeTokenTransfer */\n      tag_264\n        /* \"erc20.sol\":31191:31240  _beforeTokenTransfer(account, address(0), amount) */\n      jump\t// in\n    tag_297:\n        /* \"erc20.sol\":31253:31275  uint256 accountBalance */\n      0x00\n        /* \"erc20.sol\":31278:31287  _balances */\n      0x02\n        /* \"erc20.sol\":31278:31296  _balances[account] */\n      0x00\n        /* \"erc20.sol\":31288:31295  account */\n      dup5\n        /* \"erc20.sol\":31278:31296  _balances[account] */\n      0xffffffffffffffffffffffffffffffffffffffff\n      and\n      0xffffffffffffffffffffffffffffffffffffffff\n      and\n      dup2\n      mstore\n      0x20\n      add\n      swap1\n      dup2\n      mstore\n      0x20\n      add\n      0x00\n      keccak256\n      sload\n        /* \"erc20.sol\":31253:31296  uint256 accountBalance = _balances[account] */\n      swap1\n      pop\n        /* \"erc20.sol\":31333:31339  amount */\n      dup2\n        /* \"erc20.sol\":31315:31329  accountBalance */\n      dup2\n        /* \"erc20.sol\":31315:31339  accountBalance >= amount */\n      lt\n      iszero\n        /* \"erc20.sol\":31307:31378  require(accountBalance >= amount, \"ERC20: burn amount exceeds balance\") */\n      tag_298\n      jumpi\n      mload(0x40)\n      0x08c379a000000000000000000000000000000000000000000000000000000000\n      dup2\n      mstore\n      0x04\n      add\n      tag_299\n      swap1\n      tag_300\n      jump\t// in\n    tag_299:\n      mload(0x40)\n      dup1\n      swap2\n      sub\n      swap1\n      revert\n    tag_298:\n        /* \"erc20.sol\":31427:31433  amount */\n      dup2\n        /* \"erc20.sol\":31410:31424  accountBalance */\n      dup2\n        /* \"erc20.sol\":31410:31433  accountBalance - amount */\n      tag_301\n      swap2\n      swap1\n      tag_156\n      jump\t// in\n    tag_301:\n        /* \"erc20.sol\":31389:31398  _balances */\n      0x02\n        /* \"erc20.sol\":31389:31407  _balances[account] */\n      0x00\n        /* \"erc20.sol\":31399:31406  account */\n      dup6\n        /* \"erc20.sol\":31389:31407  _balances[account] */\n      0xffffffffffffffffffffffffffffffffffffffff\n      and\n      0xffffffffffffffffffffffffffffffffffffffff\n      and\n      dup2\n      mstore\n      0x20\n      add\n      swap1\n      dup2\n      mstore\n      0x20\n      add\n      0x00\n      keccak256\n        /* \"erc20.sol\":31389:31433  _balances[account] = accountBalance - amount */\n      dup2\n      swap1\n      sstore\n      pop\n        /* \"erc20.sol\":31460:31466  amount */\n      dup2\n        /* \"erc20.sol\":31444:31456  _totalSupply */\n      0x04\n      0x00\n        /* \"erc20.sol\":31444:31466  _totalSupply -= amount */\n      dup3\n      dup3\n      sload\n      tag_302\n      swap2\n      swap1\n      tag_156\n      jump\t// in\n    tag_302:\n      swap3\n      pop\n      pop\n      dup2\n      swap1\n      sstore\n      pop\n        /* \"erc20.sol\":31510:31511  0 */\n      0x00\n        /* \"erc20.sol\":31484:31521  Transfer(account, address(0), amount) */\n      0xffffffffffffffffffffffffffffffffffffffff\n      and\n        /* \"erc20.sol\":31493:31500  account */\n      dup4\n        /* \"erc20.sol\":31484:31521  Transfer(account, address(0), amount) */\n      0xffffffffffffffffffffffffffffffffffffffff\n      and\n      0xddf252ad1be2c89b69c2b068fc378daa952ba7f163c4a11628f55a4df523b3ef\n        /* \"erc20.sol\":31514:31520  amount */\n      dup5\n        /* \"erc20.sol\":31484:31521  Transfer(account, address(0), amount) */\n      mload(0x40)\n      tag_303\n      swap2\n      swap1\n      tag_50\n      jump\t// in\n    tag_303:\n      mload(0x40)\n      dup1\n      swap2\n      sub\n      swap1\n      log3\n        /* \"erc20.sol\":31100:31529  {\r... */\n      pop\n        /* \"erc20.sol\":31035:31529  function _burn(address account, uint256 amount) internal virtual {\r... */\n      pop\n      pop\n      jump\t// out\n        /* \"erc20.sol\":33023:33115  function _beforeTokenTransfer(address from, address to, uint256 amount) internal virtual { } */\n    tag_264:\n      pop\n      pop\n      pop\n      jump\t// out\n        /* \"erc20.sol\":18335:18827  function _checkRole(bytes32 role, address account) internal view virtual {\r... */\n    tag_274:\n        /* \"erc20.sol\":18424:18446  hasRole(role, account) */\n      tag_306\n        /* \"erc20.sol\":18432:18436  role */\n      dup3\n        /* \"erc20.sol\":18438:18445  account */\n      dup3\n        /* \"erc20.sol\":18424:18431  hasRole */\n      tag_93\n        /* \"erc20.sol\":18424:18446  hasRole(role, account) */\n      jump\t// in\n    tag_306:\n        /* \"erc20.sol\":18419:18820  if (!hasRole(role, account)) {\r... */\n      tag_307\n      jumpi\n        /* \"erc20.sol\":18612:18640  Strings.toHexString(account) */\n      tag_308\n        /* \"erc20.sol\":18632:18639  account */\n      dup2\n        /* \"erc20.sol\":18612:18631  Strings.toHexString */\n      tag_309\n        /* \"erc20.sol\":18612:18640  Strings.toHexString(account) */\n      jump\t// in\n    tag_308:\n        /* \"erc20.sol\":18713:18751  Strings.toHexString(uint256(role), 32) */\n      tag_310\n        /* \"erc20.sol\":18741:18745  role */\n      dup4\n        /* \"erc20.sol\":18733:18746  uint256(role) */\n      0x00\n      shr\n        /* \"erc20.sol\":18748:18750  32 */\n      0x20\n        /* \"erc20.sol\":18713:18732  Strings.toHexString */\n      tag_311\n        /* \"erc20.sol\":18713:18751  Strings.toHexString(uint256(role), 32) */\n      jump\t// in\n    tag_310:\n        /* \"erc20.sol\":18517:18774  abi.encodePacked(\r... */\n      add(0x20, mload(0x40))\n      tag_312\n      swap3\n      swap2\n      swap1\n      tag_313\n      jump\t// in\n    tag_312:\n      mload(0x40)\n      0x20\n      dup2\n      dup4\n      sub\n      sub\n      dup2\n      mstore\n      swap1\n      0x40\n      mstore\n        /* \"erc20.sol\":18463:18808  revert(\r... */\n      mload(0x40)\n      0x08c379a000000000000000000000000000000000000000000000000000000000\n      dup2\n      mstore\n      0x04\n      add\n      tag_314\n      swap2\n      swap1\n      tag_41\n      jump\t// in\n    tag_314:\n      mload(0x40)\n      dup1\n      swap2\n      sub\n      swap1\n      revert\n        /* \"erc20.sol\":18419:18820  if (!hasRole(role, account)) {\r... */\n    tag_307:\n        /* \"erc20.sol\":18335:18827  function _checkRole(bytes32 role, address account) internal view virtual {\r... */\n      pop\n      pop\n      jump\t// out\n        /* \"erc20.sol\":12827:12978  function toHexString(address addr) internal pure returns (string memory) {\r... */\n    tag_309:\n        /* \"erc20.sol\":12885:12898  string memory */\n      0x60\n        /* \"erc20.sol\":12918:12970  toHexString(uint256(uint160(addr)), _ADDRESS_LENGTH) */\n      tag_316\n        /* \"erc20.sol\":12946:12950  addr */\n      dup3\n        /* \"erc20.sol\":12930:12952  uint256(uint160(addr)) */\n      0xffffffffffffffffffffffffffffffffffffffff\n      and\n        /* \"erc20.sol\":10809:10811  20 */\n      0x14\n        /* \"erc20.sol\":12918:12970  toHexString(uint256(uint160(addr)), _ADDRESS_LENGTH) */\n      0xff\n      and\n        /* \"erc20.sol\":12918:12929  toHexString */\n      tag_311\n        /* \"erc20.sol\":12918:12970  toHexString(uint256(uint160(addr)), _ADDRESS_LENGTH) */\n      jump\t// in\n    tag_316:\n        /* \"erc20.sol\":12911:12970  return toHexString(uint256(uint160(addr)), _ADDRESS_LENGTH) */\n      swap1\n      pop\n        /* \"erc20.sol\":12827:12978  function toHexString(address addr) internal pure returns (string memory) {\r... */\n      swap2\n      swap1\n      pop\n      jump\t// out\n        /* \"erc20.sol\":12219:12670  function toHexString(uint256 value, uint256 length) internal pure returns (string memory) {\r... */\n    tag_311:\n        /* \"erc20.sol\":12294:12307  string memory */\n      0x60\n        /* \"erc20.sol\":12320:12339  bytes memory buffer */\n      0x00\n        /* \"erc20.sol\":12365:12366  2 */\n      0x02\n        /* \"erc20.sol\":12356:12362  length */\n      dup4\n        /* \"erc20.sol\":12352:12353  2 */\n      0x02\n        /* \"erc20.sol\":12352:12362  2 * length */\n      tag_318\n      swap2\n      swap1\n      tag_319\n      jump\t// in\n    tag_318:\n        /* \"erc20.sol\":12352:12366  2 * length + 2 */\n      tag_320\n      swap2\n      swap1\n      tag_178\n      jump\t// in\n    tag_320:\n        /* \"erc20.sol\":12342:12367  new bytes(2 * length + 2) */\n      0xffffffffffffffff\n      dup2\n      gt\n      iszero\n      tag_321\n      jumpi\n      tag_322\n      tag_323\n      jump\t// in\n    tag_322:\n    tag_321:\n      mload(0x40)\n      swap1\n      dup1\n      dup3\n      mstore\n      dup1\n      0x1f\n      add\n      not(0x1f)\n      and\n      0x20\n      add\n      dup3\n      add\n      0x40\n      mstore\n      dup1\n      iszero\n      tag_324\n      jumpi\n      dup2\n      0x20\n      add\n      0x01\n      dup3\n      mul\n      dup1\n      calldatasize\n      dup4\n      calldatacopy\n      dup1\n      dup3\n      add\n      swap2\n      pop\n      pop\n      swap1\n      pop\n    tag_324:\n      pop\n        /* \"erc20.sol\":12320:12367  bytes memory buffer = new bytes(2 * length + 2) */\n      swap1\n      pop\n        /* \"erc20.sol\":12378:12393  buffer[0] = \"0\" */\n      0x3000000000000000000000000000000000000000000000000000000000000000\n        /* \"erc20.sol\":12378:12384  buffer */\n      dup2\n        /* \"erc20.sol\":12385:12386  0 */\n      0x00\n        /* \"erc20.sol\":12378:12387  buffer[0] */\n      dup2\n      mload\n      dup2\n      lt\n      tag_325\n      jumpi\n      tag_326\n      tag_327\n      jump\t// in\n    tag_326:\n    tag_325:\n      0x20\n      add\n      add\n        /* \"erc20.sol\":12378:12393  buffer[0] = \"0\" */\n      swap1\n      not(0xffffffffffffffffffffffffffffffffffffffffffffffffffffffffffffff)\n      and\n      swap1\n      dup2\n      0x00\n      byte\n      swap1\n      mstore8\n      pop\n        /* \"erc20.sol\":12404:12419  buffer[1] = \"x\" */\n      0x7800000000000000000000000000000000000000000000000000000000000000\n        /* \"erc20.sol\":12404:12410  buffer */\n      dup2\n        /* \"erc20.sol\":12411:12412  1 */\n      0x01\n        /* \"erc20.sol\":12404:12413  buffer[1] */\n      dup2\n      mload\n      dup2\n      lt\n      tag_328\n      jumpi\n      tag_329\n      tag_327\n      jump\t// in\n    tag_329:\n    tag_328:\n      0x20\n      add\n      add\n        /* \"erc20.sol\":12404:12419  buffer[1] = \"x\" */\n      swap1\n      not(0xffffffffffffffffffffffffffffffffffffffffffffffffffffffffffffff)\n      and\n      swap1\n      dup2\n      0x00\n      byte\n      swap1\n      mstore8\n      pop\n        /* \"erc20.sol\":12435:12444  uint256 i */\n      0x00\n        /* \"erc20.sol\":12460:12461  1 */\n      0x01\n        /* \"erc20.sol\":12451:12457  length */\n      dup5\n        /* \"erc20.sol\":12447:12448  2 */\n      0x02\n        /* \"erc20.sol\":12447:12457  2 * length */\n      tag_333\n      swap2\n      swap1\n      tag_319\n      jump\t// in\n    tag_333:\n        /* \"erc20.sol\":12447:12461  2 * length + 1 */\n      tag_334\n      swap2\n      swap1\n      tag_178\n      jump\t// in\n    tag_334:\n        /* \"erc20.sol\":12435:12461  uint256 i = 2 * length + 1 */\n      swap1\n      pop\n        /* \"erc20.sol\":12430:12565  for (uint256 i = 2 * length + 1; i > 1; --i) {\r... */\n    tag_330:\n        /* \"erc20.sol\":12467:12468  1 */\n      0x01\n        /* \"erc20.sol\":12463:12464  i */\n      dup2\n        /* \"erc20.sol\":12463:12468  i > 1 */\n      gt\n        /* \"erc20.sol\":12430:12565  for (uint256 i = 2 * length + 1; i > 1; --i) {\r... */\n      iszero\n      tag_331\n      jumpi\n        /* \"erc20.sol\":12502:12514  _HEX_SYMBOLS */\n      0x3031323334353637383961626364656600000000000000000000000000000000\n        /* \"erc20.sol\":12523:12526  0xf */\n      0x0f\n        /* \"erc20.sol\":12515:12520  value */\n      dup7\n        /* \"erc20.sol\":12515:12526  value & 0xf */\n      and\n        /* \"erc20.sol\":12502:12527  _HEX_SYMBOLS[value & 0xf] */\n      0x10\n      dup2\n      lt\n      tag_335\n      jumpi\n      tag_336\n      tag_327\n      jump\t// in\n    tag_336:\n    tag_335:\n      byte\n      0xf8\n      shl\n        /* \"erc20.sol\":12490:12496  buffer */\n      dup3\n        /* \"erc20.sol\":12497:12498  i */\n      dup3\n        /* \"erc20.sol\":12490:12499  buffer[i] */\n      dup2\n      mload\n      dup2\n      lt\n      tag_337\n      jumpi\n      tag_338\n      tag_327\n      jump\t// in\n    tag_338:\n    tag_337:\n      0x20\n      add\n      add\n        /* \"erc20.sol\":12490:12527  buffer[i] = _HEX_SYMBOLS[value & 0xf] */\n      swap1\n      not(0xffffffffffffffffffffffffffffffffffffffffffffffffffffffffffffff)\n      and\n      swap1\n      dup2\n      0x00\n      byte\n      swap1\n      mstore8\n      pop\n        /* \"erc20.sol\":12552:12553  4 */\n      0x04\n        /* \"erc20.sol\":12542:12553  value >>= 4 */\n      dup6\n      swap1\n      shr\n      swap5\n      pop\n        /* \"erc20.sol\":12470:12473  --i */\n      dup1\n      tag_339\n      swap1\n      tag_340\n      jump\t// in\n    tag_339:\n      swap1\n      pop\n        /* \"erc20.sol\":12430:12565  for (uint256 i = 2 * length + 1; i > 1; --i) {\r... */\n      jump(tag_330)\n    tag_331:\n      pop\n        /* \"erc20.sol\":12592:12593  0 */\n      0x00\n        /* \"erc20.sol\":12583:12588  value */\n      dup5\n        /* \"erc20.sol\":12583:12593  value == 0 */\n      eq\n        /* \"erc20.sol\":12575:12630  require(value == 0, \"Strings: hex length insufficient\") */\n      tag_341\n      jumpi\n      mload(0x40)\n      0x08c379a000000000000000000000000000000000000000000000000000000000\n      dup2\n      mstore\n      0x04\n      add\n      tag_342\n      swap1\n      tag_343\n      jump\t// in\n    tag_342:\n      mload(0x40)\n      dup1\n      swap2\n      sub\n      swap1\n      revert\n    tag_341:\n        /* \"erc20.sol\":12655:12661  buffer */\n      dup1\n        /* \"erc20.sol\":12641:12662  return string(buffer) */\n      swap2\n      pop\n      pop\n        /* \"erc20.sol\":12219:12670  function toHexString(uint256 value, uint256 length) internal pure returns (string memory) {\r... */\n      swap3\n      swap2\n      pop\n      pop\n      jump\t// out\n        /* \"#utility.yul\":7:146   */\n    tag_345:\n        /* \"#utility.yul\":53:58   */\n      0x00\n        /* \"#utility.yul\":91:97   */\n      dup2\n        /* \"#utility.yul\":78:98   */\n      calldataload\n        /* \"#utility.yul\":69:98   */\n      swap1\n      pop\n        /* \"#utility.yul\":107:140   */\n      tag_347\n        /* \"#utility.yul\":134:139   */\n      dup2\n        /* \"#utility.yul\":107:140   */\n      tag_348\n      jump\t// in\n    tag_347:\n        /* \"#utility.yul\":7:146   */\n      swap3\n      swap2\n      pop\n      pop\n      jump\t// out\n        /* \"#utility.yul\":152:291   */\n    tag_349:\n        /* \"#utility.yul\":198:203   */\n      0x00\n        /* \"#utility.yul\":236:242   */\n      dup2\n        /* \"#utility.yul\":223:243   */\n      calldataload\n        /* \"#utility.yul\":214:243   */\n      swap1\n      pop\n        /* \"#utility.yul\":252:285   */\n      tag_351\n        /* \"#utility.yul\":279:284   */\n      dup2\n        /* \"#utility.yul\":252:285   */\n      tag_352\n      jump\t// in\n    tag_351:\n        /* \"#utility.yul\":152:291   */\n      swap3\n      swap2\n      pop\n      pop\n      jump\t// out\n        /* \"#utility.yul\":297:434   */\n    tag_353:\n        /* \"#utility.yul\":342:347   */\n      0x00\n        /* \"#utility.yul\":380:386   */\n      dup2\n        /* \"#utility.yul\":367:387   */\n      calldataload\n        /* \"#utility.yul\":358:387   */\n      swap1\n      pop\n        /* \"#utility.yul\":396:428   */\n      tag_355\n        /* \"#utility.yul\":422:427   */\n      dup2\n        /* \"#utility.yul\":396:428   */\n      tag_356\n      jump\t// in\n    tag_355:\n        /* \"#utility.yul\":297:434   */\n      swap3\n      swap2\n      pop\n      pop\n      jump\t// out\n        /* \"#utility.yul\":440:579   */\n    tag_357:\n        /* \"#utility.yul\":486:491   */\n      0x00\n        /* \"#utility.yul\":524:530   */\n      dup2\n        /* \"#utility.yul\":511:531   */\n      calldataload\n        /* \"#utility.yul\":502:531   */\n      swap1\n      pop\n        /* \"#utility.yul\":540:573   */\n      tag_359\n        /* \"#utility.yul\":567:572   */\n      dup2\n        /* \"#utility.yul\":540:573   */\n      tag_360\n      jump\t// in\n    tag_359:\n        /* \"#utility.yul\":440:579   */\n      swap3\n      swap2\n      pop\n      pop\n      jump\t// out\n        /* \"#utility.yul\":585:914   */\n    tag_82:\n        /* \"#utility.yul\":644:650   */\n      0x00\n        /* \"#utility.yul\":693:695   */\n      0x20\n        /* \"#utility.yul\":681:690   */\n      dup3\n        /* \"#utility.yul\":672:679   */\n      dup5\n        /* \"#utility.yul\":668:691   */\n      sub\n        /* \"#utility.yul\":664:696   */\n      slt\n        /* \"#utility.yul\":661:780   */\n      iszero\n      tag_362\n      jumpi\n        /* \"#utility.yul\":699:778   */\n      tag_363\n      tag_364\n      jump\t// in\n    tag_363:\n        /* \"#utility.yul\":661:780   */\n    tag_362:\n        /* \"#utility.yul\":819:820   */\n      0x00\n        /* \"#utility.yul\":844:897   */\n      tag_365\n        /* \"#utility.yul\":889:896   */\n      dup5\n        /* \"#utility.yul\":880:886   */\n      dup3\n        /* \"#utility.yul\":869:878   */\n      dup6\n        /* \"#utility.yul\":865:887   */\n      add\n        /* \"#utility.yul\":844:897   */\n      tag_345\n      jump\t// in\n    tag_365:\n        /* \"#utility.yul\":834:897   */\n      swap2\n      pop\n        /* \"#utility.yul\":790:907   */\n      pop\n        /* \"#utility.yul\":585:914   */\n      swap3\n      swap2\n      pop\n      pop\n      jump\t// out\n        /* \"#utility.yul\":920:1394   */\n    tag_123:\n        /* \"#utility.yul\":988:994   */\n      0x00\n        /* \"#utility.yul\":996:1002   */\n      dup1\n        /* \"#utility.yul\":1045:1047   */\n      0x40\n        /* \"#utility.yul\":1033:1042   */\n      dup4\n        /* \"#utility.yul\":1024:1031   */\n      dup6\n        /* \"#utility.yul\":1020:1043   */\n      sub\n        /* \"#utility.yul\":1016:1048   */\n      slt\n        /* \"#utility.yul\":1013:1132   */\n      iszero\n      tag_367\n      jumpi\n        /* \"#utility.yul\":1051:1130   */\n      tag_368\n      tag_364\n      jump\t// in\n    tag_368:\n        /* \"#utility.yul\":1013:1132   */\n    tag_367:\n        /* \"#utility.yul\":1171:1172   */\n      0x00\n        /* \"#utility.yul\":1196:1249   */\n      tag_369\n        /* \"#utility.yul\":1241:1248   */\n      dup6\n        /* \"#utility.yul\":1232:1238   */\n      dup3\n        /* \"#utility.yul\":1221:1230   */\n      dup7\n        /* \"#utility.yul\":1217:1239   */\n      add\n        /* \"#utility.yul\":1196:1249   */\n      tag_345\n      jump\t// in\n    tag_369:\n        /* \"#utility.yul\":1186:1249   */\n      swap3\n      pop\n        /* \"#utility.yul\":1142:1259   */\n      pop\n        /* \"#utility.yul\":1298:1300   */\n      0x20\n        /* \"#utility.yul\":1324:1377   */\n      tag_370\n        /* \"#utility.yul\":1369:1376   */\n      dup6\n        /* \"#utility.yul\":1360:1366   */\n      dup3\n        /* \"#utility.yul\":1349:1358   */\n      dup7\n        /* \"#utility.yul\":1345:1367   */\n      add\n        /* \"#utility.yul\":1324:1377   */\n      tag_345\n      jump\t// in\n    tag_370:\n        /* \"#utility.yul\":1314:1377   */\n      swap2\n      pop\n        /* \"#utility.yul\":1269:1387   */\n      pop\n        /* \"#utility.yul\":920:1394   */\n      swap3\n      pop\n      swap3\n      swap1\n      pop\n      jump\t// out\n        /* \"#utility.yul\":1400:2019   */\n    tag_53:\n        /* \"#utility.yul\":1477:1483   */\n      0x00\n        /* \"#utility.yul\":1485:1491   */\n      dup1\n        /* \"#utility.yul\":1493:1499   */\n      0x00\n        /* \"#utility.yul\":1542:1544   */\n      0x60\n        /* \"#utility.yul\":1530:1539   */\n      dup5\n        /* \"#utility.yul\":1521:1528   */\n      dup7\n        /* \"#utility.yul\":1517:1540   */\n      sub\n        /* \"#utility.yul\":1513:1545   */\n      slt\n        /* \"#utility.yul\":1510:1629   */\n      iszero\n      tag_372\n      jumpi\n        /* \"#utility.yul\":1548:1627   */\n      tag_373\n      tag_364\n      jump\t// in\n    tag_373:\n        /* \"#utility.yul\":1510:1629   */\n    tag_372:\n        /* \"#utility.yul\":1668:1669   */\n      0x00\n        /* \"#utility.yul\":1693:1746   */\n      tag_374\n        /* \"#utility.yul\":1738:1745   */\n      dup7\n        /* \"#utility.yul\":1729:1735   */\n      dup3\n        /* \"#utility.yul\":1718:1727   */\n      dup8\n        /* \"#utility.yul\":1714:1736   */\n      add\n        /* \"#utility.yul\":1693:1746   */\n      tag_345\n      jump\t// in\n    tag_374:\n        /* \"#utility.yul\":1683:1746   */\n      swap4\n      pop\n        /* \"#utility.yul\":1639:1756   */\n      pop\n        /* \"#utility.yul\":1795:1797   */\n      0x20\n        /* \"#utility.yul\":1821:1874   */\n      tag_375\n        /* \"#utility.yul\":1866:1873   */\n      dup7\n        /* \"#utility.yul\":1857:1863   */\n      dup3\n        /* \"#utility.yul\":1846:1855   */\n      dup8\n        /* \"#utility.yul\":1842:1864   */\n      add\n        /* \"#utility.yul\":1821:1874   */\n      tag_345\n      jump\t// in\n    tag_375:\n        /* \"#utility.yul\":1811:1874   */\n      swap3\n      pop\n        /* \"#utility.yul\":1766:1884   */\n      pop\n        /* \"#utility.yul\":1923:1925   */\n      0x40\n        /* \"#utility.yul\":1949:2002   */\n      tag_376\n        /* \"#utility.yul\":1994:2001   */\n      dup7\n        /* \"#utility.yul\":1985:1991   */\n      dup3\n        /* \"#utility.yul\":1974:1983   */\n      dup8\n        /* \"#utility.yul\":1970:1992   */\n      add\n        /* \"#utility.yul\":1949:2002   */\n      tag_357\n      jump\t// in\n    tag_376:\n        /* \"#utility.yul\":1939:2002   */\n      swap2\n      pop\n        /* \"#utility.yul\":1894:2012   */\n      pop\n        /* \"#utility.yul\":1400:2019   */\n      swap3\n      pop\n      swap3\n      pop\n      swap3\n      jump\t// out\n        /* \"#utility.yul\":2025:2499   */\n    tag_44:\n        /* \"#utility.yul\":2093:2099   */\n      0x00\n        /* \"#utility.yul\":2101:2107   */\n      dup1\n        /* \"#utility.yul\":2150:2152   */\n      0x40\n        /* \"#utility.yul\":2138:2147   */\n      dup4\n        /* \"#utility.yul\":2129:2136   */\n      dup6\n        /* \"#utility.yul\":2125:2148   */\n      sub\n        /* \"#utility.yul\":2121:2153   */\n      slt\n        /* \"#utility.yul\":2118:2237   */\n      iszero\n      tag_378\n      jumpi\n        /* \"#utility.yul\":2156:2235   */\n      tag_379\n      tag_364\n      jump\t// in\n    tag_379:\n        /* \"#utility.yul\":2118:2237   */\n    tag_378:\n        /* \"#utility.yul\":2276:2277   */\n      0x00\n        /* \"#utility.yul\":2301:2354   */\n      tag_380\n        /* \"#utility.yul\":2346:2353   */\n      dup6\n        /* \"#utility.yul\":2337:2343   */\n      dup3\n        /* \"#utility.yul\":2326:2335   */\n      dup7\n        /* \"#utility.yul\":2322:2344   */\n      add\n        /* \"#utility.yul\":2301:2354   */\n      tag_345\n      jump\t// in\n    tag_380:\n        /* \"#utility.yul\":2291:2354   */\n      swap3\n      pop\n        /* \"#utility.yul\":2247:2364   */\n      pop\n        /* \"#utility.yul\":2403:2405   */\n      0x20\n        /* \"#utility.yul\":2429:2482   */\n      tag_381\n        /* \"#utility.yul\":2474:2481   */\n      dup6\n        /* \"#utility.yul\":2465:2471   */\n      dup3\n        /* \"#utility.yul\":2454:2463   */\n      dup7\n        /* \"#utility.yul\":2450:2472   */\n      add\n        /* \"#utility.yul\":2429:2482   */\n      tag_357\n      jump\t// in\n    tag_381:\n        /* \"#utility.yul\":2419:2482   */\n      swap2\n      pop\n        /* \"#utility.yul\":2374:2492   */\n      pop\n        /* \"#utility.yul\":2025:2499   */\n      swap3\n      pop\n      swap3\n      swap1\n      pop\n      jump\t// out\n        /* \"#utility.yul\":2505:2834   */\n    tag_58:\n        /* \"#utility.yul\":2564:2570   */\n      0x00\n        /* \"#utility.yul\":2613:2615   */\n      0x20\n        /* \"#utility.yul\":2601:2610   */\n      dup3\n        /* \"#utility.yul\":2592:2599   */\n      dup5\n        /* \"#utility.yul\":2588:2611   */\n      sub\n        /* \"#utility.yul\":2584:2616   */\n      slt\n        /* \"#utility.yul\":2581:2700   */\n      iszero\n      tag_383\n      jumpi\n        /* \"#utility.yul\":2619:2698   */\n      tag_384\n      tag_364\n      jump\t// in\n    tag_384:\n        /* \"#utility.yul\":2581:2700   */\n    tag_383:\n        /* \"#utility.yul\":2739:2740   */\n      0x00\n        /* \"#utility.yul\":2764:2817   */\n      tag_385\n        /* \"#utility.yul\":2809:2816   */\n      dup5\n        /* \"#utility.yul\":2800:2806   */\n      dup3\n        /* \"#utility.yul\":2789:2798   */\n      dup6\n        /* \"#utility.yul\":2785:2807   */\n      add\n        /* \"#utility.yul\":2764:2817   */\n      tag_349\n      jump\t// in\n    tag_385:\n        /* \"#utility.yul\":2754:2817   */\n      swap2\n      pop\n        /* \"#utility.yul\":2710:2827   */\n      pop\n        /* \"#utility.yul\":2505:2834   */\n      swap3\n      swap2\n      pop\n      pop\n      jump\t// out\n        /* \"#utility.yul\":2840:3314   */\n    tag_64:\n        /* \"#utility.yul\":2908:2914   */\n      0x00\n        /* \"#utility.yul\":2916:2922   */\n      dup1\n        /* \"#utility.yul\":2965:2967   */\n      0x40\n        /* \"#utility.yul\":2953:2962   */\n      dup4\n        /* \"#utility.yul\":2944:2951   */\n      dup6\n        /* \"#utility.yul\":2940:2963   */\n      sub\n        /* \"#utility.yul\":2936:2968   */\n      slt\n        /* \"#utility.yul\":2933:3052   */\n      iszero\n      tag_387\n      jumpi\n        /* \"#utility.yul\":2971:3050   */\n      tag_388\n      tag_364\n      jump\t// in\n    tag_388:\n        /* \"#utility.yul\":2933:3052   */\n    tag_387:\n        /* \"#utility.yul\":3091:3092   */\n      0x00\n        /* \"#utility.yul\":3116:3169   */\n      tag_389\n        /* \"#utility.yul\":3161:3168   */\n      dup6\n        /* \"#utility.yul\":3152:3158   */\n      dup3\n        /* \"#utility.yul\":3141:3150   */\n      dup7\n        /* \"#utility.yul\":3137:3159   */\n      add\n        /* \"#utility.yul\":3116:3169   */\n      tag_349\n      jump\t// in\n    tag_389:\n        /* \"#utility.yul\":3106:3169   */\n      swap3\n      pop\n        /* \"#utility.yul\":3062:3179   */\n      pop\n        /* \"#utility.yul\":3218:3220   */\n      0x20\n        /* \"#utility.yul\":3244:3297   */\n      tag_390\n        /* \"#utility.yul\":3289:3296   */\n      dup6\n        /* \"#utility.yul\":3280:3286   */\n      dup3\n        /* \"#utility.yul\":3269:3278   */\n      dup7\n        /* \"#utility.yul\":3265:3287   */\n      add\n        /* \"#utility.yul\":3244:3297   */\n      tag_345\n      jump\t// in\n    tag_390:\n        /* \"#utility.yul\":3234:3297   */\n      swap2\n      pop\n        /* \"#utility.yul\":3189:3307   */\n      pop\n        /* \"#utility.yul\":2840:3314   */\n      swap3\n      pop\n      swap3\n      swap1\n      pop\n      jump\t// out\n        /* \"#utility.yul\":3320:3647   */\n    tag_34:\n        /* \"#utility.yul\":3378:3384   */\n      0x00\n        /* \"#utility.yul\":3427:3429   */\n      0x20\n        /* \"#utility.yul\":3415:3424   */\n      dup3\n        /* \"#utility.yul\":3406:3413   */\n      dup5\n        /* \"#utility.yul\":3402:3425   */\n      sub\n        /* \"#utility.yul\":3398:3430   */\n      slt\n        /* \"#utility.yul\":3395:3514   */\n      iszero\n      tag_392\n      jumpi\n        /* \"#utility.yul\":3433:3512   */\n      tag_393\n      tag_364\n      jump\t// in\n    tag_393:\n        /* \"#utility.yul\":3395:3514   */\n    tag_392:\n        /* \"#utility.yul\":3553:3554   */\n      0x00\n        /* \"#utility.yul\":3578:3630   */\n      tag_394\n        /* \"#utility.yul\":3622:3629   */\n      dup5\n        /* \"#utility.yul\":3613:3619   */\n      dup3\n        /* \"#utility.yul\":3602:3611   */\n      dup6\n        /* \"#utility.yul\":3598:3620   */\n      add\n        /* \"#utility.yul\":3578:3630   */\n      tag_353\n      jump\t// in\n    tag_394:\n        /* \"#utility.yul\":3568:3630   */\n      swap2\n      pop\n        /* \"#utility.yul\":3524:3640   */\n      pop\n        /* \"#utility.yul\":3320:3647   */\n      swap3\n      swap2\n      pop\n      pop\n      jump\t// out\n        /* \"#utility.yul\":3653:3771   */\n    tag_395:\n        /* \"#utility.yul\":3740:3764   */\n      tag_397\n        /* \"#utility.yul\":3758:3763   */\n      dup2\n        /* \"#utility.yul\":3740:3764   */\n      tag_398\n      jump\t// in\n    tag_397:\n        /* \"#utility.yul\":3735:3738   */\n      dup3\n        /* \"#utility.yul\":3728:3765   */\n      mstore\n        /* \"#utility.yul\":3653:3771   */\n      pop\n      pop\n      jump\t// out\n        /* \"#utility.yul\":3777:3886   */\n    tag_399:\n        /* \"#utility.yul\":3858:3879   */\n      tag_401\n        /* \"#utility.yul\":3873:3878   */\n      dup2\n        /* \"#utility.yul\":3858:3879   */\n      tag_402\n      jump\t// in\n    tag_401:\n        /* \"#utility.yul\":3853:3856   */\n      dup3\n        /* \"#utility.yul\":3846:3880   */\n      mstore\n        /* \"#utility.yul\":3777:3886   */\n      pop\n      pop\n      jump\t// out\n        /* \"#utility.yul\":3892:4010   */\n    tag_403:\n        /* \"#utility.yul\":3979:4003   */\n      tag_405\n        /* \"#utility.yul\":3997:4002   */\n      dup2\n        /* \"#utility.yul\":3979:4003   */\n      tag_406\n      jump\t// in\n    tag_405:\n        /* \"#utility.yul\":3974:3977   */\n      dup3\n        /* \"#utility.yul\":3967:4004   */\n      mstore\n        /* \"#utility.yul\":3892:4010   */\n      pop\n      pop\n      jump\t// out\n        /* \"#utility.yul\":4016:4380   */\n    tag_407:\n        /* \"#utility.yul\":4104:4107   */\n      0x00\n        /* \"#utility.yul\":4132:4171   */\n      tag_409\n        /* \"#utility.yul\":4165:4170   */\n      dup3\n        /* \"#utility.yul\":4132:4171   */\n      tag_410\n      jump\t// in\n    tag_409:\n        /* \"#utility.yul\":4187:4258   */\n      tag_411\n        /* \"#utility.yul\":4251:4257   */\n      dup2\n        /* \"#utility.yul\":4246:4249   */\n      dup6\n        /* \"#utility.yul\":4187:4258   */\n      tag_412\n      jump\t// in\n    tag_411:\n        /* \"#utility.yul\":4180:4258   */\n      swap4\n      pop\n        /* \"#utility.yul\":4267:4319   */\n      tag_413\n        /* \"#utility.yul\":4312:4318   */\n      dup2\n        /* \"#utility.yul\":4307:4310   */\n      dup6\n        /* \"#utility.yul\":4300:4304   */\n      0x20\n        /* \"#utility.yul\":4293:4298   */\n      dup7\n        /* \"#utility.yul\":4289:4305   */\n      add\n        /* \"#utility.yul\":4267:4319   */\n      tag_414\n      jump\t// in\n    tag_413:\n        /* \"#utility.yul\":4344:4373   */\n      tag_415\n        /* \"#utility.yul\":4366:4372   */\n      dup2\n        /* \"#utility.yul\":4344:4373   */\n      tag_416\n      jump\t// in\n    tag_415:\n        /* \"#utility.yul\":4339:4342   */\n      dup5\n        /* \"#utility.yul\":4335:4374   */\n      add\n        /* \"#utility.yul\":4328:4374   */\n      swap2\n      pop\n        /* \"#utility.yul\":4108:4380   */\n      pop\n        /* \"#utility.yul\":4016:4380   */\n      swap3\n      swap2\n      pop\n      pop\n      jump\t// out\n        /* \"#utility.yul\":4386:4763   */\n    tag_417:\n        /* \"#utility.yul\":4492:4495   */\n      0x00\n        /* \"#utility.yul\":4520:4559   */\n      tag_419\n        /* \"#utility.yul\":4553:4558   */\n      dup3\n        /* \"#utility.yul\":4520:4559   */\n      tag_410\n      jump\t// in\n    tag_419:\n        /* \"#utility.yul\":4575:4664   */\n      tag_420\n        /* \"#utility.yul\":4657:4663   */\n      dup2\n        /* \"#utility.yul\":4652:4655   */\n      dup6\n        /* \"#utility.yul\":4575:4664   */\n      tag_421\n      jump\t// in\n    tag_420:\n        /* \"#utility.yul\":4568:4664   */\n      swap4\n      pop\n        /* \"#utility.yul\":4673:4725   */\n      tag_422\n        /* \"#utility.yul\":4718:4724   */\n      dup2\n        /* \"#utility.yul\":4713:4716   */\n      dup6\n        /* \"#utility.yul\":4706:4710   */\n      0x20\n        /* \"#utility.yul\":4699:4704   */\n      dup7\n        /* \"#utility.yul\":4695:4711   */\n      add\n        /* \"#utility.yul\":4673:4725   */\n      tag_414\n      jump\t// in\n    tag_422:\n        /* \"#utility.yul\":4750:4756   */\n      dup1\n        /* \"#utility.yul\":4745:4748   */\n      dup5\n        /* \"#utility.yul\":4741:4757   */\n      add\n        /* \"#utility.yul\":4734:4757   */\n      swap2\n      pop\n        /* \"#utility.yul\":4496:4763   */\n      pop\n        /* \"#utility.yul\":4386:4763   */\n      swap3\n      swap2\n      pop\n      pop\n      jump\t// out\n        /* \"#utility.yul\":4769:5135   */\n    tag_423:\n        /* \"#utility.yul\":4911:4914   */\n      0x00\n        /* \"#utility.yul\":4932:4999   */\n      tag_425\n        /* \"#utility.yul\":4996:4998   */\n      0x20\n        /* \"#utility.yul\":4991:4994   */\n      dup4\n        /* \"#utility.yul\":4932:4999   */\n      tag_412\n      jump\t// in\n    tag_425:\n        /* \"#utility.yul\":4925:4999   */\n      swap2\n      pop\n        /* \"#utility.yul\":5008:5101   */\n      tag_426\n        /* \"#utility.yul\":5097:5100   */\n      dup3\n        /* \"#utility.yul\":5008:5101   */\n      tag_427\n      jump\t// in\n    tag_426:\n        /* \"#utility.yul\":5126:5128   */\n      0x20\n        /* \"#utility.yul\":5121:5124   */\n      dup3\n        /* \"#utility.yul\":5117:5129   */\n      add\n        /* \"#utility.yul\":5110:5129   */\n      swap1\n      pop\n        /* \"#utility.yul\":4769:5135   */\n      swap2\n      swap1\n      pop\n      jump\t// out\n        /* \"#utility.yul\":5141:5507   */\n    tag_428:\n        /* \"#utility.yul\":5283:5286   */\n      0x00\n        /* \"#utility.yul\":5304:5371   */\n      tag_430\n        /* \"#utility.yul\":5368:5370   */\n      0x23\n        /* \"#utility.yul\":5363:5366   */\n      dup4\n        /* \"#utility.yul\":5304:5371   */\n      tag_412\n      jump\t// in\n    tag_430:\n        /* \"#utility.yul\":5297:5371   */\n      swap2\n      pop\n        /* \"#utility.yul\":5380:5473   */\n      tag_431\n        /* \"#utility.yul\":5469:5472   */\n      dup3\n        /* \"#utility.yul\":5380:5473   */\n      tag_432\n      jump\t// in\n    tag_431:\n        /* \"#utility.yul\":5498:5500   */\n      0x40\n        /* \"#utility.yul\":5493:5496   */\n      dup3\n        /* \"#utility.yul\":5489:5501   */\n      add\n        /* \"#utility.yul\":5482:5501   */\n      swap1\n      pop\n        /* \"#utility.yul\":5141:5507   */\n      swap2\n      swap1\n      pop\n      jump\t// out\n        /* \"#utility.yul\":5513:5879   */\n    tag_433:\n        /* \"#utility.yul\":5655:5658   */\n      0x00\n        /* \"#utility.yul\":5676:5743   */\n      tag_435\n        /* \"#utility.yul\":5740:5742   */\n      0x22\n        /* \"#utility.yul\":5735:5738   */\n      dup4\n        /* \"#utility.yul\":5676:5743   */\n      tag_412\n      jump\t// in\n    tag_435:\n        /* \"#utility.yul\":5669:5743   */\n      swap2\n      pop\n        /* \"#utility.yul\":5752:5845   */\n      tag_436\n        /* \"#utility.yul\":5841:5844   */\n      dup3\n        /* \"#utility.yul\":5752:5845   */\n      tag_437\n      jump\t// in\n    tag_436:\n        /* \"#utility.yul\":5870:5872   */\n      0x40\n        /* \"#utility.yul\":5865:5868   */\n      dup3\n        /* \"#utility.yul\":5861:5873   */\n      add\n        /* \"#utility.yul\":5854:5873   */\n      swap1\n      pop\n        /* \"#utility.yul\":5513:5879   */\n      swap2\n      swap1\n      pop\n      jump\t// out\n        /* \"#utility.yul\":5885:6251   */\n    tag_438:\n        /* \"#utility.yul\":6027:6030   */\n      0x00\n        /* \"#utility.yul\":6048:6115   */\n      tag_440\n        /* \"#utility.yul\":6112:6114   */\n      0x26\n        /* \"#utility.yul\":6107:6110   */\n      dup4\n        /* \"#utility.yul\":6048:6115   */\n      tag_412\n      jump\t// in\n    tag_440:\n        /* \"#utility.yul\":6041:6115   */\n      swap2\n      pop\n        /* \"#utility.yul\":6124:6217   */\n      tag_441\n        /* \"#utility.yul\":6213:6216   */\n      dup3\n        /* \"#utility.yul\":6124:6217   */\n      tag_442\n      jump\t// in\n    tag_441:\n        /* \"#utility.yul\":6242:6244   */\n      0x40\n        /* \"#utility.yul\":6237:6240   */\n      dup3\n        /* \"#utility.yul\":6233:6245   */\n      add\n        /* \"#utility.yul\":6226:6245   */\n      swap1\n      pop\n        /* \"#utility.yul\":5885:6251   */\n      swap2\n      swap1\n      pop\n      jump\t// out\n        /* \"#utility.yul\":6257:6623   */\n    tag_443:\n        /* \"#utility.yul\":6399:6402   */\n      0x00\n        /* \"#utility.yul\":6420:6487   */\n      tag_445\n        /* \"#utility.yul\":6484:6486   */\n      0x22\n        /* \"#utility.yul\":6479:6482   */\n      dup4\n        /* \"#utility.yul\":6420:6487   */\n      tag_412\n      jump\t// in\n    tag_445:\n        /* \"#utility.yul\":6413:6487   */\n      swap2\n      pop\n        /* \"#utility.yul\":6496:6589   */\n      tag_446\n        /* \"#utility.yul\":6585:6588   */\n      dup3\n        /* \"#utility.yul\":6496:6589   */\n      tag_447\n      jump\t// in\n    tag_446:\n        /* \"#utility.yul\":6614:6616   */\n      0x40\n        /* \"#utility.yul\":6609:6612   */\n      dup3\n        /* \"#utility.yul\":6605:6617   */\n      add\n        /* \"#utility.yul\":6598:6617   */\n      swap1\n      pop\n        /* \"#utility.yul\":6257:6623   */\n      swap2\n      swap1\n      pop\n      jump\t// out\n        /* \"#utility.yul\":6629:6995   */\n    tag_448:\n        /* \"#utility.yul\":6771:6774   */\n      0x00\n        /* \"#utility.yul\":6792:6859   */\n      tag_450\n        /* \"#utility.yul\":6856:6858   */\n      0x28\n        /* \"#utility.yul\":6851:6854   */\n      dup4\n        /* \"#utility.yul\":6792:6859   */\n      tag_412\n      jump\t// in\n    tag_450:\n        /* \"#utility.yul\":6785:6859   */\n      swap2\n      pop\n        /* \"#utility.yul\":6868:6961   */\n      tag_451\n        /* \"#utility.yul\":6957:6960   */\n      dup3\n        /* \"#utility.yul\":6868:6961   */\n      tag_452\n      jump\t// in\n    tag_451:\n        /* \"#utility.yul\":6986:6988   */\n      0x40\n        /* \"#utility.yul\":6981:6984   */\n      dup3\n        /* \"#utility.yul\":6977:6989   */\n      add\n        /* \"#utility.yul\":6970:6989   */\n      swap1\n      pop\n        /* \"#utility.yul\":6629:6995   */\n      swap2\n      swap1\n      pop\n      jump\t// out\n        /* \"#utility.yul\":7001:7367   */\n    tag_453:\n        /* \"#utility.yul\":7143:7146   */\n      0x00\n        /* \"#utility.yul\":7164:7231   */\n      tag_455\n        /* \"#utility.yul\":7228:7230   */\n      0x26\n        /* \"#utility.yul\":7223:7226   */\n      dup4\n        /* \"#utility.yul\":7164:7231   */\n      tag_412\n      jump\t// in\n    tag_455:\n        /* \"#utility.yul\":7157:7231   */\n      swap2\n      pop\n        /* \"#utility.yul\":7240:7333   */\n      tag_456\n        /* \"#utility.yul\":7329:7332   */\n      dup3\n        /* \"#utility.yul\":7240:7333   */\n      tag_457\n      jump\t// in\n    tag_456:\n        /* \"#utility.yul\":7358:7360   */\n      0x40\n        /* \"#utility.yul\":7353:7356   */\n      dup3\n        /* \"#utility.yul\":7349:7361   */\n      add\n        /* \"#utility.yul\":7342:7361   */\n      swap1\n      pop\n        /* \"#utility.yul\":7001:7367   */\n      swap2\n      swap1\n      pop\n      jump\t// out\n        /* \"#utility.yul\":7373:7739   */\n    tag_458:\n        /* \"#utility.yul\":7515:7518   */\n      0x00\n        /* \"#utility.yul\":7536:7603   */\n      tag_460\n        /* \"#utility.yul\":7600:7602   */\n      0x28\n        /* \"#utility.yul\":7595:7598   */\n      dup4\n        /* \"#utility.yul\":7536:7603   */\n      tag_412\n      jump\t// in\n    tag_460:\n        /* \"#utility.yul\":7529:7603   */\n      swap2\n      pop\n        /* \"#utility.yul\":7612:7705   */\n      tag_461\n        /* \"#utility.yul\":7701:7704   */\n      dup3\n        /* \"#utility.yul\":7612:7705   */\n      tag_462\n      jump\t// in\n    tag_461:\n        /* \"#utility.yul\":7730:7732   */\n      0x40\n        /* \"#utility.yul\":7725:7728   */\n      dup3\n        /* \"#utility.yul\":7721:7733   */\n      add\n        /* \"#utility.yul\":7714:7733   */\n      swap1\n      pop\n        /* \"#utility.yul\":7373:7739   */\n      swap2\n      swap1\n      pop\n      jump\t// out\n        /* \"#utility.yul\":7745:8111   */\n    tag_463:\n        /* \"#utility.yul\":7887:7890   */\n      0x00\n        /* \"#utility.yul\":7908:7975   */\n      tag_465\n        /* \"#utility.yul\":7972:7974   */\n      0x20\n        /* \"#utility.yul\":7967:7970   */\n      dup4\n        /* \"#utility.yul\":7908:7975   */\n      tag_412\n      jump\t// in\n    tag_465:\n        /* \"#utility.yul\":7901:7975   */\n      swap2\n      pop\n        /* \"#utility.yul\":7984:8077   */\n      tag_466\n        /* \"#utility.yul\":8073:8076   */\n      dup3\n        /* \"#utility.yul\":7984:8077   */\n      tag_467\n      jump\t// in\n    tag_466:\n        /* \"#utility.yul\":8102:8104   */\n      0x20\n        /* \"#utility.yul\":8097:8100   */\n      dup3\n        /* \"#utility.yul\":8093:8105   */\n      add\n        /* \"#utility.yul\":8086:8105   */\n      swap1\n      pop\n        /* \"#utility.yul\":7745:8111   */\n      swap2\n      swap1\n      pop\n      jump\t// out\n        /* \"#utility.yul\":8117:8483   */\n    tag_468:\n        /* \"#utility.yul\":8259:8262   */\n      0x00\n        /* \"#utility.yul\":8280:8347   */\n      tag_470\n        /* \"#utility.yul\":8344:8346   */\n      0x21\n        /* \"#utility.yul\":8339:8342   */\n      dup4\n        /* \"#utility.yul\":8280:8347   */\n      tag_412\n      jump\t// in\n    tag_470:\n        /* \"#utility.yul\":8273:8347   */\n      swap2\n      pop\n        /* \"#utility.yul\":8356:8449   */\n      tag_471\n        /* \"#utility.yul\":8445:8448   */\n      dup3\n        /* \"#utility.yul\":8356:8449   */\n      tag_472\n      jump\t// in\n    tag_471:\n        /* \"#utility.yul\":8474:8476   */\n      0x40\n        /* \"#utility.yul\":8469:8472   */\n      dup3\n        /* \"#utility.yul\":8465:8477   */\n      add\n        /* \"#utility.yul\":8458:8477   */\n      swap1\n      pop\n        /* \"#utility.yul\":8117:8483   */\n      swap2\n      swap1\n      pop\n      jump\t// out\n        /* \"#utility.yul\":8489:8855   */\n    tag_473:\n        /* \"#utility.yul\":8631:8634   */\n      0x00\n        /* \"#utility.yul\":8652:8719   */\n      tag_475\n        /* \"#utility.yul\":8716:8718   */\n      0x25\n        /* \"#utility.yul\":8711:8714   */\n      dup4\n        /* \"#utility.yul\":8652:8719   */\n      tag_412\n      jump\t// in\n    tag_475:\n        /* \"#utility.yul\":8645:8719   */\n      swap2\n      pop\n        /* \"#utility.yul\":8728:8821   */\n      tag_476\n        /* \"#utility.yul\":8817:8820   */\n      dup3\n        /* \"#utility.yul\":8728:8821   */\n      tag_477\n      jump\t// in\n    tag_476:\n        /* \"#utility.yul\":8846:8848   */\n      0x40\n        /* \"#utility.yul\":8841:8844   */\n      dup3\n        /* \"#utility.yul\":8837:8849   */\n      add\n        /* \"#utility.yul\":8830:8849   */\n      swap1\n      pop\n        /* \"#utility.yul\":8489:8855   */\n      swap2\n      swap1\n      pop\n      jump\t// out\n        /* \"#utility.yul\":8861:9227   */\n    tag_478:\n        /* \"#utility.yul\":9003:9006   */\n      0x00\n        /* \"#utility.yul\":9024:9091   */\n      tag_480\n        /* \"#utility.yul\":9088:9090   */\n      0x24\n        /* \"#utility.yul\":9083:9086   */\n      dup4\n        /* \"#utility.yul\":9024:9091   */\n      tag_412\n      jump\t// in\n    tag_480:\n        /* \"#utility.yul\":9017:9091   */\n      swap2\n      pop\n        /* \"#utility.yul\":9100:9193   */\n      tag_481\n        /* \"#utility.yul\":9189:9192   */\n      dup3\n        /* \"#utility.yul\":9100:9193   */\n      tag_482\n      jump\t// in\n    tag_481:\n        /* \"#utility.yul\":9218:9220   */\n      0x40\n        /* \"#utility.yul\":9213:9216   */\n      dup3\n        /* \"#utility.yul\":9209:9221   */\n      add\n        /* \"#utility.yul\":9202:9221   */\n      swap1\n      pop\n        /* \"#utility.yul\":8861:9227   */\n      swap2\n      swap1\n      pop\n      jump\t// out\n        /* \"#utility.yul\":9233:9635   */\n    tag_483:\n        /* \"#utility.yul\":9393:9396   */\n      0x00\n        /* \"#utility.yul\":9414:9499   */\n      tag_485\n        /* \"#utility.yul\":9496:9498   */\n      0x17\n        /* \"#utility.yul\":9491:9494   */\n      dup4\n        /* \"#utility.yul\":9414:9499   */\n      tag_421\n      jump\t// in\n    tag_485:\n        /* \"#utility.yul\":9407:9499   */\n      swap2\n      pop\n        /* \"#utility.yul\":9508:9601   */\n      tag_486\n        /* \"#utility.yul\":9597:9600   */\n      dup3\n        /* \"#utility.yul\":9508:9601   */\n      tag_487\n      jump\t// in\n    tag_486:\n        /* \"#utility.yul\":9626:9628   */\n      0x17\n        /* \"#utility.yul\":9621:9624   */\n      dup3\n        /* \"#utility.yul\":9617:9629   */\n      add\n        /* \"#utility.yul\":9610:9629   */\n      swap1\n      pop\n        /* \"#utility.yul\":9233:9635   */\n      swap2\n      swap1\n      pop\n      jump\t// out\n        /* \"#utility.yul\":9641:10007   */\n    tag_488:\n        /* \"#utility.yul\":9783:9786   */\n      0x00\n        /* \"#utility.yul\":9804:9871   */\n      tag_490\n        /* \"#utility.yul\":9868:9870   */\n      0x25\n        /* \"#utility.yul\":9863:9866   */\n      dup4\n        /* \"#utility.yul\":9804:9871   */\n      tag_412\n      jump\t// in\n    tag_490:\n        /* \"#utility.yul\":9797:9871   */\n      swap2\n      pop\n        /* \"#utility.yul\":9880:9973   */\n      tag_491\n        /* \"#utility.yul\":9969:9972   */\n      dup3\n        /* \"#utility.yul\":9880:9973   */\n      tag_492\n      jump\t// in\n    tag_491:\n        /* \"#utility.yul\":9998:10000   */\n      0x40\n        /* \"#utility.yul\":9993:9996   */\n      dup3\n        /* \"#utility.yul\":9989:10001   */\n      add\n        /* \"#utility.yul\":9982:10001   */\n      swap1\n      pop\n        /* \"#utility.yul\":9641:10007   */\n      swap2\n      swap1\n      pop\n      jump\t// out\n        /* \"#utility.yul\":10013:10415   */\n    tag_493:\n        /* \"#utility.yul\":10173:10176   */\n      0x00\n        /* \"#utility.yul\":10194:10279   */\n      tag_495\n        /* \"#utility.yul\":10276:10278   */\n      0x11\n        /* \"#utility.yul\":10271:10274   */\n      dup4\n        /* \"#utility.yul\":10194:10279   */\n      tag_421\n      jump\t// in\n    tag_495:\n        /* \"#utility.yul\":10187:10279   */\n      swap2\n      pop\n        /* \"#utility.yul\":10288:10381   */\n      tag_496\n        /* \"#utility.yul\":10377:10380   */\n      dup3\n        /* \"#utility.yul\":10288:10381   */\n      tag_497\n      jump\t// in\n    tag_496:\n        /* \"#utility.yul\":10406:10408   */\n      0x11\n        /* \"#utility.yul\":10401:10404   */\n      dup3\n        /* \"#utility.yul\":10397:10409   */\n      add\n        /* \"#utility.yul\":10390:10409   */\n      swap1\n      pop\n        /* \"#utility.yul\":10013:10415   */\n      swap2\n      swap1\n      pop\n      jump\t// out\n        /* \"#utility.yul\":10421:10787   */\n    tag_498:\n        /* \"#utility.yul\":10563:10566   */\n      0x00\n        /* \"#utility.yul\":10584:10651   */\n      tag_500\n        /* \"#utility.yul\":10648:10650   */\n      0x2f\n        /* \"#utility.yul\":10643:10646   */\n      dup4\n        /* \"#utility.yul\":10584:10651   */\n      tag_412\n      jump\t// in\n    tag_500:\n        /* \"#utility.yul\":10577:10651   */\n      swap2\n      pop\n        /* \"#utility.yul\":10660:10753   */\n      tag_501\n        /* \"#utility.yul\":10749:10752   */\n      dup3\n        /* \"#utility.yul\":10660:10753   */\n      tag_502\n      jump\t// in\n    tag_501:\n        /* \"#utility.yul\":10778:10780   */\n      0x40\n        /* \"#utility.yul\":10773:10776   */\n      dup3\n        /* \"#utility.yul\":10769:10781   */\n      add\n        /* \"#utility.yul\":10762:10781   */\n      swap1\n      pop\n        /* \"#utility.yul\":10421:10787   */\n      swap2\n      swap1\n      pop\n      jump\t// out\n        /* \"#utility.yul\":10793:11159   */\n    tag_503:\n        /* \"#utility.yul\":10935:10938   */\n      0x00\n        /* \"#utility.yul\":10956:11023   */\n      tag_505\n        /* \"#utility.yul\":11020:11022   */\n      0x1f\n        /* \"#utility.yul\":11015:11018   */\n      dup4\n        /* \"#utility.yul\":10956:11023   */\n      tag_412\n      jump\t// in\n    tag_505:\n        /* \"#utility.yul\":10949:11023   */\n      swap2\n      pop\n        /* \"#utility.yul\":11032:11125   */\n      tag_506\n        /* \"#utility.yul\":11121:11124   */\n      dup3\n        /* \"#utility.yul\":11032:11125   */\n      tag_507\n      jump\t// in\n    tag_506:\n        /* \"#utility.yul\":11150:11152   */\n      0x20\n        /* \"#utility.yul\":11145:11148   */\n      dup3\n        /* \"#utility.yul\":11141:11153   */\n      add\n        /* \"#utility.yul\":11134:11153   */\n      swap1\n      pop\n        /* \"#utility.yul\":10793:11159   */\n      swap2\n      swap1\n      pop\n      jump\t// out\n        /* \"#utility.yul\":11165:11283   */\n    tag_508:\n        /* \"#utility.yul\":11252:11276   */\n      tag_510\n        /* \"#utility.yul\":11270:11275   */\n      dup2\n        /* \"#utility.yul\":11252:11276   */\n      tag_511\n      jump\t// in\n    tag_510:\n        /* \"#utility.yul\":11247:11250   */\n      dup3\n        /* \"#utility.yul\":11240:11277   */\n      mstore\n        /* \"#utility.yul\":11165:11283   */\n      pop\n      pop\n      jump\t// out\n        /* \"#utility.yul\":11289:11401   */\n    tag_512:\n        /* \"#utility.yul\":11372:11394   */\n      tag_514\n        /* \"#utility.yul\":11388:11393   */\n      dup2\n        /* \"#utility.yul\":11372:11394   */\n      tag_515\n      jump\t// in\n    tag_514:\n        /* \"#utility.yul\":11367:11370   */\n      dup3\n        /* \"#utility.yul\":11360:11395   */\n      mstore\n        /* \"#utility.yul\":11289:11401   */\n      pop\n      pop\n      jump\t// out\n        /* \"#utility.yul\":11407:12374   */\n    tag_313:\n        /* \"#utility.yul\":11789:11792   */\n      0x00\n        /* \"#utility.yul\":11811:11959   */\n      tag_517\n        /* \"#utility.yul\":11955:11958   */\n      dup3\n        /* \"#utility.yul\":11811:11959   */\n      tag_483\n      jump\t// in\n    tag_517:\n        /* \"#utility.yul\":11804:11959   */\n      swap2\n      pop\n        /* \"#utility.yul\":11976:12071   */\n      tag_518\n        /* \"#utility.yul\":12067:12070   */\n      dup3\n        /* \"#utility.yul\":12058:12064   */\n      dup6\n        /* \"#utility.yul\":11976:12071   */\n      tag_417\n      jump\t// in\n    tag_518:\n        /* \"#utility.yul\":11969:12071   */\n      swap2\n      pop\n        /* \"#utility.yul\":12088:12236   */\n      tag_519\n        /* \"#utility.yul\":12232:12235   */\n      dup3\n        /* \"#utility.yul\":12088:12236   */\n      tag_493\n      jump\t// in\n    tag_519:\n        /* \"#utility.yul\":12081:12236   */\n      swap2\n      pop\n        /* \"#utility.yul\":12253:12348   */\n      tag_520\n        /* \"#utility.yul\":12344:12347   */\n      dup3\n        /* \"#utility.yul\":12335:12341   */\n      dup5\n        /* \"#utility.yul\":12253:12348   */\n      tag_417\n      jump\t// in\n    tag_520:\n        /* \"#utility.yul\":12246:12348   */\n      swap2\n      pop\n        /* \"#utility.yul\":12365:12368   */\n      dup2\n        /* \"#utility.yul\":12358:12368   */\n      swap1\n      pop\n        /* \"#utility.yul\":11407:12374   */\n      swap4\n      swap3\n      pop\n      pop\n      pop\n      jump\t// out\n        /* \"#utility.yul\":12380:12602   */\n    tag_90:\n        /* \"#utility.yul\":12473:12477   */\n      0x00\n        /* \"#utility.yul\":12511:12513   */\n      0x20\n        /* \"#utility.yul\":12500:12509   */\n      dup3\n        /* \"#utility.yul\":12496:12514   */\n      add\n        /* \"#utility.yul\":12488:12514   */\n      swap1\n      pop\n        /* \"#utility.yul\":12524:12595   */\n      tag_522\n        /* \"#utility.yul\":12592:12593   */\n      0x00\n        /* \"#utility.yul\":12581:12590   */\n      dup4\n        /* \"#utility.yul\":12577:12594   */\n      add\n        /* \"#utility.yul\":12568:12574   */\n      dup5\n        /* \"#utility.yul\":12524:12595   */\n      tag_395\n      jump\t// in\n    tag_522:\n        /* \"#utility.yul\":12380:12602   */\n      swap3\n      swap2\n      pop\n      pop\n      jump\t// out\n        /* \"#utility.yul\":12608:12818   */\n    tag_37:\n        /* \"#utility.yul\":12695:12699   */\n      0x00\n        /* \"#utility.yul\":12733:12735   */\n      0x20\n        /* \"#utility.yul\":12722:12731   */\n      dup3\n        /* \"#utility.yul\":12718:12736   */\n      add\n        /* \"#utility.yul\":12710:12736   */\n      swap1\n      pop\n        /* \"#utility.yul\":12746:12811   */\n      tag_524\n        /* \"#utility.yul\":12808:12809   */\n      0x00\n        /* \"#utility.yul\":12797:12806   */\n      dup4\n        /* \"#utility.yul\":12793:12810   */\n      add\n        /* \"#utility.yul\":12784:12790   */\n      dup5\n        /* \"#utility.yul\":12746:12811   */\n      tag_399\n      jump\t// in\n    tag_524:\n        /* \"#utility.yul\":12608:12818   */\n      swap3\n      swap2\n      pop\n      pop\n      jump\t// out\n        /* \"#utility.yul\":12824:13046   */\n    tag_61:\n        /* \"#utility.yul\":12917:12921   */\n      0x00\n        /* \"#utility.yul\":12955:12957   */\n      0x20\n        /* \"#utility.yul\":12944:12953   */\n      dup3\n        /* \"#utility.yul\":12940:12958   */\n      add\n        /* \"#utility.yul\":12932:12958   */\n      swap1\n      pop\n        /* \"#utility.yul\":12968:13039   */\n      tag_526\n        /* \"#utility.yul\":13036:13037   */\n      0x00\n        /* \"#utility.yul\":13025:13034   */\n      dup4\n        /* \"#utility.yul\":13021:13038   */\n      add\n        /* \"#utility.yul\":13012:13018   */\n      dup5\n        /* \"#utility.yul\":12968:13039   */\n      tag_403\n      jump\t// in\n    tag_526:\n        /* \"#utility.yul\":12824:13046   */\n      swap3\n      swap2\n      pop\n      pop\n      jump\t// out\n        /* \"#utility.yul\":13052:13365   */\n    tag_41:\n        /* \"#utility.yul\":13165:13169   */\n      0x00\n        /* \"#utility.yul\":13203:13205   */\n      0x20\n        /* \"#utility.yul\":13192:13201   */\n      dup3\n        /* \"#utility.yul\":13188:13206   */\n      add\n        /* \"#utility.yul\":13180:13206   */\n      swap1\n      pop\n        /* \"#utility.yul\":13252:13261   */\n      dup2\n        /* \"#utility.yul\":13246:13250   */\n      dup2\n        /* \"#utility.yul\":13242:13262   */\n      sub\n        /* \"#utility.yul\":13238:13239   */\n      0x00\n        /* \"#utility.yul\":13227:13236   */\n      dup4\n        /* \"#utility.yul\":13223:13240   */\n      add\n        /* \"#utility.yul\":13216:13263   */\n      mstore\n        /* \"#utility.yul\":13280:13358   */\n      tag_528\n        /* \"#utility.yul\":13353:13357   */\n      dup2\n        /* \"#utility.yul\":13344:13350   */\n      dup5\n        /* \"#utility.yul\":13280:13358   */\n      tag_407\n      jump\t// in\n    tag_528:\n        /* \"#utility.yul\":13272:13358   */\n      swap1\n      pop\n        /* \"#utility.yul\":13052:13365   */\n      swap3\n      swap2\n      pop\n      pop\n      jump\t// out\n        /* \"#utility.yul\":13371:13790   */\n    tag_343:\n        /* \"#utility.yul\":13537:13541   */\n      0x00\n        /* \"#utility.yul\":13575:13577   */\n      0x20\n        /* \"#utility.yul\":13564:13573   */\n      dup3\n        /* \"#utility.yul\":13560:13578   */\n      add\n        /* \"#utility.yul\":13552:13578   */\n      swap1\n      pop\n        /* \"#utility.yul\":13624:13633   */\n      dup2\n        /* \"#utility.yul\":13618:13622   */\n      dup2\n        /* \"#utility.yul\":13614:13634   */\n      sub\n        /* \"#utility.yul\":13610:13611   */\n      0x00\n        /* \"#utility.yul\":13599:13608   */\n      dup4\n        /* \"#utility.yul\":13595:13612   */\n      add\n        /* \"#utility.yul\":13588:13635   */\n      mstore\n        /* \"#utility.yul\":13652:13783   */\n      tag_530\n        /* \"#utility.yul\":13778:13782   */\n      dup2\n        /* \"#utility.yul\":13652:13783   */\n      tag_423\n      jump\t// in\n    tag_530:\n        /* \"#utility.yul\":13644:13783   */\n      swap1\n      pop\n        /* \"#utility.yul\":13371:13790   */\n      swap2\n      swap1\n      pop\n      jump\t// out\n        /* \"#utility.yul\":13796:14215   */\n    tag_262:\n        /* \"#utility.yul\":13962:13966   */\n      0x00\n        /* \"#utility.yul\":14000:14002   */\n      0x20\n        /* \"#utility.yul\":13989:13998   */\n      dup3\n        /* \"#utility.yul\":13985:14003   */\n      add\n        /* \"#utility.yul\":13977:14003   */\n      swap1\n      pop\n        /* \"#utility.yul\":14049:14058   */\n      dup2\n        /* \"#utility.yul\":14043:14047   */\n      dup2\n        /* \"#utility.yul\":14039:14059   */\n      sub\n        /* \"#utility.yul\":14035:14036   */\n      0x00\n        /* \"#utility.yul\":14024:14033   */\n      dup4\n        /* \"#utility.yul\":14020:14037   */\n      add\n        /* \"#utility.yul\":14013:14060   */\n      mstore\n        /* \"#utility.yul\":14077:14208   */\n      tag_532\n        /* \"#utility.yul\":14203:14207   */\n      dup2\n        /* \"#utility.yul\":14077:14208   */\n      tag_428\n      jump\t// in\n    tag_532:\n        /* \"#utility.yul\":14069:14208   */\n      swap1\n      pop\n        /* \"#utility.yul\":13796:14215   */\n      swap2\n      swap1\n      pop\n      jump\t// out\n        /* \"#utility.yul\":14221:14640   */\n    tag_300:\n        /* \"#utility.yul\":14387:14391   */\n      0x00\n        /* \"#utility.yul\":14425:14427   */\n      0x20\n        /* \"#utility.yul\":14414:14423   */\n      dup3\n        /* \"#utility.yul\":14410:14428   */\n      add\n        /* \"#utility.yul\":14402:14428   */\n      swap1\n      pop\n        /* \"#utility.yul\":14474:14483   */\n      dup2\n        /* \"#utility.yul\":14468:14472   */\n      dup2\n        /* \"#utility.yul\":14464:14484   */\n      sub\n        /* \"#utility.yul\":14460:14461   */\n      0x00\n        /* \"#utility.yul\":14449:14458   */\n      dup4\n        /* \"#utility.yul\":14445:14462   */\n      add\n        /* \"#utility.yul\":14438:14485   */\n      mstore\n        /* \"#utility.yul\":14502:14633   */\n      tag_534\n        /* \"#utility.yul\":14628:14632   */\n      dup2\n        /* \"#utility.yul\":14502:14633   */\n      tag_433\n      jump\t// in\n    tag_534:\n        /* \"#utility.yul\":14494:14633   */\n      swap1\n      pop\n        /* \"#utility.yul\":14221:14640   */\n      swap2\n      swap1\n      pop\n      jump\t// out\n        /* \"#utility.yul\":14646:15065   */\n    tag_245:\n        /* \"#utility.yul\":14812:14816   */\n      0x00\n        /* \"#utility.yul\":14850:14852   */\n      0x20\n        /* \"#utility.yul\":14839:14848   */\n      dup3\n        /* \"#utility.yul\":14835:14853   */\n      add\n        /* \"#utility.yul\":14827:14853   */\n      swap1\n      pop\n        /* \"#utility.yul\":14899:14908   */\n      dup2\n        /* \"#utility.yul\":14893:14897   */\n      dup2\n        /* \"#utility.yul\":14889:14909   */\n      sub\n        /* \"#utility.yul\":14885:14886   */\n      0x00\n        /* \"#utility.yul\":14874:14883   */\n      dup4\n        /* \"#utility.yul\":14870:14887   */\n      add\n        /* \"#utility.yul\":14863:14910   */\n      mstore\n        /* \"#utility.yul\":14927:15058   */\n      tag_536\n        /* \"#utility.yul\":15053:15057   */\n      dup2\n        /* \"#utility.yul\":14927:15058   */\n      tag_438\n      jump\t// in\n    tag_536:\n        /* \"#utility.yul\":14919:15058   */\n      swap1\n      pop\n        /* \"#utility.yul\":14646:15065   */\n      swap2\n      swap1\n      pop\n      jump\t// out\n        /* \"#utility.yul\":15071:15490   */\n    tag_254:\n        /* \"#utility.yul\":15237:15241   */\n      0x00\n        /* \"#utility.yul\":15275:15277   */\n      0x20\n        /* \"#utility.yul\":15264:15273   */\n      dup3\n        /* \"#utility.yul\":15260:15278   */\n      add\n        /* \"#utility.yul\":15252:15278   */\n      swap1\n      pop\n        /* \"#utility.yul\":15324:15333   */\n      dup2\n        /* \"#utility.yul\":15318:15322   */\n      dup2\n        /* \"#utility.yul\":15314:15334   */\n      sub\n        /* \"#utility.yul\":15310:15311   */\n      0x00\n        /* \"#utility.yul\":15299:15308   */\n      dup4\n        /* \"#utility.yul\":15295:15312   */\n      add\n        /* \"#utility.yul\":15288:15335   */\n      mstore\n        /* \"#utility.yul\":15352:15483   */\n      tag_538\n        /* \"#utility.yul\":15478:15482   */\n      dup2\n        /* \"#utility.yul\":15352:15483   */\n      tag_443\n      jump\t// in\n    tag_538:\n        /* \"#utility.yul\":15344:15483   */\n      swap1\n      pop\n        /* \"#utility.yul\":15071:15490   */\n      swap2\n      swap1\n      pop\n      jump\t// out\n        /* \"#utility.yul\":15496:15915   */\n    tag_184:\n        /* \"#utility.yul\":15662:15666   */\n      0x00\n        /* \"#utility.yul\":15700:15702   */\n      0x20\n        /* \"#utility.yul\":15689:15698   */\n      dup3\n        /* \"#utility.yul\":15685:15703   */\n      add\n        /* \"#utility.yul\":15677:15703   */\n      swap1\n      pop\n        /* \"#utility.yul\":15749:15758   */\n      dup2\n        /* \"#utility.yul\":15743:15747   */\n      dup2\n        /* \"#utility.yul\":15739:15759   */\n      sub\n        /* \"#utility.yul\":15735:15736   */\n      0x00\n        /* \"#utility.yul\":15724:15733   */\n      dup4\n        /* \"#utility.yul\":15720:15737   */\n      add\n        /* \"#utility.yul\":15713:15760   */\n      mstore\n        /* \"#utility.yul\":15777:15908   */\n      tag_540\n        /* \"#utility.yul\":15903:15907   */\n      dup2\n        /* \"#utility.yul\":15777:15908   */\n      tag_448\n      jump\t// in\n    tag_540:\n        /* \"#utility.yul\":15769:15908   */\n      swap1\n      pop\n        /* \"#utility.yul\":15496:15915   */\n      swap2\n      swap1\n      pop\n      jump\t// out\n        /* \"#utility.yul\":15921:16340   */\n    tag_267:\n        /* \"#utility.yul\":16087:16091   */\n      0x00\n        /* \"#utility.yul\":16125:16127   */\n      0x20\n        /* \"#utility.yul\":16114:16123   */\n      dup3\n        /* \"#utility.yul\":16110:16128   */\n      add\n        /* \"#utility.yul\":16102:16128   */\n      swap1\n      pop\n        /* \"#utility.yul\":16174:16183   */\n      dup2\n        /* \"#utility.yul\":16168:16172   */\n      dup2\n        /* \"#utility.yul\":16164:16184   */\n      sub\n        /* \"#utility.yul\":16160:16161   */\n      0x00\n        /* \"#utility.yul\":16149:16158   */\n      dup4\n        /* \"#utility.yul\":16145:16162   */\n      add\n        /* \"#utility.yul\":16138:16185   */\n      mstore\n        /* \"#utility.yul\":16202:16333   */\n      tag_542\n        /* \"#utility.yul\":16328:16332   */\n      dup2\n        /* \"#utility.yul\":16202:16333   */\n      tag_453\n      jump\t// in\n    tag_542:\n        /* \"#utility.yul\":16194:16333   */\n      swap1\n      pop\n        /* \"#utility.yul\":15921:16340   */\n      swap2\n      swap1\n      pop\n      jump\t// out\n        /* \"#utility.yul\":16346:16765   */\n    tag_152:\n        /* \"#utility.yul\":16512:16516   */\n      0x00\n        /* \"#utility.yul\":16550:16552   */\n      0x20\n        /* \"#utility.yul\":16539:16548   */\n      dup3\n        /* \"#utility.yul\":16535:16553   */\n      add\n        /* \"#utility.yul\":16527:16553   */\n      swap1\n      pop\n        /* \"#utility.yul\":16599:16608   */\n      dup2\n        /* \"#utility.yul\":16593:16597   */\n      dup2\n        /* \"#utility.yul\":16589:16609   */\n      sub\n        /* \"#utility.yul\":16585:16586   */\n      0x00\n        /* \"#utility.yul\":16574:16583   */\n      dup4\n        /* \"#utility.yul\":16570:16587   */\n      add\n        /* \"#utility.yul\":16563:16610   */\n      mstore\n        /* \"#utility.yul\":16627:16758   */\n      tag_544\n        /* \"#utility.yul\":16753:16757   */\n      dup2\n        /* \"#utility.yul\":16627:16758   */\n      tag_458\n      jump\t// in\n    tag_544:\n        /* \"#utility.yul\":16619:16758   */\n      swap1\n      pop\n        /* \"#utility.yul\":16346:16765   */\n      swap2\n      swap1\n      pop\n      jump\t// out\n        /* \"#utility.yul\":16771:17190   */\n    tag_194:\n        /* \"#utility.yul\":16937:16941   */\n      0x00\n        /* \"#utility.yul\":16975:16977   */\n      0x20\n        /* \"#utility.yul\":16964:16973   */\n      dup3\n        /* \"#utility.yul\":16960:16978   */\n      add\n        /* \"#utility.yul\":16952:16978   */\n      swap1\n      pop\n        /* \"#utility.yul\":17024:17033   */\n      dup2\n        /* \"#utility.yul\":17018:17022   */\n      dup2\n        /* \"#utility.yul\":17014:17034   */\n      sub\n        /* \"#utility.yul\":17010:17011   */\n      0x00\n        /* \"#utility.yul\":16999:17008   */\n      dup4\n        /* \"#utility.yul\":16995:17012   */\n      add\n        /* \"#utility.yul\":16988:17035   */\n      mstore\n        /* \"#utility.yul\":17052:17183   */\n      tag_546\n        /* \"#utility.yul\":17178:17182   */\n      dup2\n        /* \"#utility.yul\":17052:17183   */\n      tag_463\n      jump\t// in\n    tag_546:\n        /* \"#utility.yul\":17044:17183   */\n      swap1\n      pop\n        /* \"#utility.yul\":16771:17190   */\n      swap2\n      swap1\n      pop\n      jump\t// out\n        /* \"#utility.yul\":17196:17615   */\n    tag_296:\n        /* \"#utility.yul\":17362:17366   */\n      0x00\n        /* \"#utility.yul\":17400:17402   */\n      0x20\n        /* \"#utility.yul\":17389:17398   */\n      dup3\n        /* \"#utility.yul\":17385:17403   */\n      add\n        /* \"#utility.yul\":17377:17403   */\n      swap1\n      pop\n        /* \"#utility.yul\":17449:17458   */\n      dup2\n        /* \"#utility.yul\":17443:17447   */\n      dup2\n        /* \"#utility.yul\":17439:17459   */\n      sub\n        /* \"#utility.yul\":17435:17436   */\n      0x00\n        /* \"#utility.yul\":17424:17433   */\n      dup4\n        /* \"#utility.yul\":17420:17437   */\n      add\n        /* \"#utility.yul\":17413:17460   */\n      mstore\n        /* \"#utility.yul\":17477:17608   */\n      tag_548\n        /* \"#utility.yul\":17603:17607   */\n      dup2\n        /* \"#utility.yul\":17477:17608   */\n      tag_468\n      jump\t// in\n    tag_548:\n        /* \"#utility.yul\":17469:17608   */\n      swap1\n      pop\n        /* \"#utility.yul\":17196:17615   */\n      swap2\n      swap1\n      pop\n      jump\t// out\n        /* \"#utility.yul\":17621:18040   */\n    tag_259:\n        /* \"#utility.yul\":17787:17791   */\n      0x00\n        /* \"#utility.yul\":17825:17827   */\n      0x20\n        /* \"#utility.yul\":17814:17823   */\n      dup3\n        /* \"#utility.yul\":17810:17828   */\n      add\n        /* \"#utility.yul\":17802:17828   */\n      swap1\n      pop\n        /* \"#utility.yul\":17874:17883   */\n      dup2\n        /* \"#utility.yul\":17868:17872   */\n      dup2\n        /* \"#utility.yul\":17864:17884   */\n      sub\n        /* \"#utility.yul\":17860:17861   */\n      0x00\n        /* \"#utility.yul\":17849:17858   */\n      dup4\n        /* \"#utility.yul\":17845:17862   */\n      add\n        /* \"#utility.yul\":17838:17885   */\n      mstore\n        /* \"#utility.yul\":17902:18033   */\n      tag_550\n        /* \"#utility.yul\":18028:18032   */\n      dup2\n        /* \"#utility.yul\":17902:18033   */\n      tag_473\n      jump\t// in\n    tag_550:\n        /* \"#utility.yul\":17894:18033   */\n      swap1\n      pop\n        /* \"#utility.yul\":17621:18040   */\n      swap2\n      swap1\n      pop\n      jump\t// out\n        /* \"#utility.yul\":18046:18465   */\n    tag_251:\n        /* \"#utility.yul\":18212:18216   */\n      0x00\n        /* \"#utility.yul\":18250:18252   */\n      0x20\n        /* \"#utility.yul\":18239:18248   */\n      dup3\n        /* \"#utility.yul\":18235:18253   */\n      add\n        /* \"#utility.yul\":18227:18253   */\n      swap1\n      pop\n        /* \"#utility.yul\":18299:18308   */\n      dup2\n        /* \"#utility.yul\":18293:18297   */\n      dup2\n        /* \"#utility.yul\":18289:18309   */\n      sub\n        /* \"#utility.yul\":18285:18286   */\n      0x00\n        /* \"#utility.yul\":18274:18283   */\n      dup4\n        /* \"#utility.yul\":18270:18287   */\n      add\n        /* \"#utility.yul\":18263:18310   */\n      mstore\n        /* \"#utility.yul\":18327:18458   */\n      tag_552\n        /* \"#utility.yul\":18453:18457   */\n      dup2\n        /* \"#utility.yul\":18327:18458   */\n      tag_478\n      jump\t// in\n    tag_552:\n        /* \"#utility.yul\":18319:18458   */\n      swap1\n      pop\n        /* \"#utility.yul\":18046:18465   */\n      swap2\n      swap1\n      pop\n      jump\t// out\n        /* \"#utility.yul\":18471:18890   */\n    tag_224:\n        /* \"#utility.yul\":18637:18641   */\n      0x00\n        /* \"#utility.yul\":18675:18677   */\n      0x20\n        /* \"#utility.yul\":18664:18673   */\n      dup3\n        /* \"#utility.yul\":18660:18678   */\n      add\n        /* \"#utility.yul\":18652:18678   */\n      swap1\n      pop\n        /* \"#utility.yul\":18724:18733   */\n      dup2\n        /* \"#utility.yul\":18718:18722   */\n      dup2\n        /* \"#utility.yul\":18714:18734   */\n      sub\n        /* \"#utility.yul\":18710:18711   */\n      0x00\n        /* \"#utility.yul\":18699:18708   */\n      dup4\n        /* \"#utility.yul\":18695:18712   */\n      add\n        /* \"#utility.yul\":18688:18735   */\n      mstore\n        /* \"#utility.yul\":18752:18883   */\n      tag_554\n        /* \"#utility.yul\":18878:18882   */\n      dup2\n        /* \"#utility.yul\":18752:18883   */\n      tag_488\n      jump\t// in\n    tag_554:\n        /* \"#utility.yul\":18744:18883   */\n      swap1\n      pop\n        /* \"#utility.yul\":18471:18890   */\n      swap2\n      swap1\n      pop\n      jump\t// out\n        /* \"#utility.yul\":18896:19315   */\n    tag_170:\n        /* \"#utility.yul\":19062:19066   */\n      0x00\n        /* \"#utility.yul\":19100:19102   */\n      0x20\n        /* \"#utility.yul\":19089:19098   */\n      dup3\n        /* \"#utility.yul\":19085:19103   */\n      add\n        /* \"#utility.yul\":19077:19103   */\n      swap1\n      pop\n        /* \"#utility.yul\":19149:19158   */\n      dup2\n        /* \"#utility.yul\":19143:19147   */\n      dup2\n        /* \"#utility.yul\":19139:19159   */\n      sub\n        /* \"#utility.yul\":19135:19136   */\n      0x00\n        /* \"#utility.yul\":19124:19133   */\n      dup4\n        /* \"#utility.yul\":19120:19137   */\n      add\n        /* \"#utility.yul\":19113:19160   */\n      mstore\n        /* \"#utility.yul\":19177:19308   */\n      tag_556\n        /* \"#utility.yul\":19303:19307   */\n      dup2\n        /* \"#utility.yul\":19177:19308   */\n      tag_498\n      jump\t// in\n    tag_556:\n        /* \"#utility.yul\":19169:19308   */\n      swap1\n      pop\n        /* \"#utility.yul\":18896:19315   */\n      swap2\n      swap1\n      pop\n      jump\t// out\n        /* \"#utility.yul\":19321:19740   */\n    tag_286:\n        /* \"#utility.yul\":19487:19491   */\n      0x00\n        /* \"#utility.yul\":19525:19527   */\n      0x20\n        /* \"#utility.yul\":19514:19523   */\n      dup3\n        /* \"#utility.yul\":19510:19528   */\n      add\n        /* \"#utility.yul\":19502:19528   */\n      swap1\n      pop\n        /* \"#utility.yul\":19574:19583   */\n      dup2\n        /* \"#utility.yul\":19568:19572   */\n      dup2\n        /* \"#utility.yul\":19564:19584   */\n      sub\n        /* \"#utility.yul\":19560:19561   */\n      0x00\n        /* \"#utility.yul\":19549:19558   */\n      dup4\n        /* \"#utility.yul\":19545:19562   */\n      add\n        /* \"#utility.yul\":19538:19585   */\n      mstore\n        /* \"#utility.yul\":19602:19733   */\n      tag_558\n        /* \"#utility.yul\":19728:19732   */\n      dup2\n        /* \"#utility.yul\":19602:19733   */\n      tag_503\n      jump\t// in\n    tag_558:\n        /* \"#utility.yul\":19594:19733   */\n      swap1\n      pop\n        /* \"#utility.yul\":19321:19740   */\n      swap2\n      swap1\n      pop\n      jump\t// out\n        /* \"#utility.yul\":19746:19968   */\n    tag_50:\n        /* \"#utility.yul\":19839:19843   */\n      0x00\n        /* \"#utility.yul\":19877:19879   */\n      0x20\n        /* \"#utility.yul\":19866:19875   */\n      dup3\n        /* \"#utility.yul\":19862:19880   */\n      add\n        /* \"#utility.yul\":19854:19880   */\n      swap1\n      pop\n        /* \"#utility.yul\":19890:19961   */\n      tag_560\n        /* \"#utility.yul\":19958:19959   */\n      0x00\n        /* \"#utility.yul\":19947:19956   */\n      dup4\n        /* \"#utility.yul\":19943:19960   */\n      add\n        /* \"#utility.yul\":19934:19940   */\n      dup5\n        /* \"#utility.yul\":19890:19961   */\n      tag_508\n      jump\t// in\n    tag_560:\n        /* \"#utility.yul\":19746:19968   */\n      swap3\n      swap2\n      pop\n      pop\n      jump\t// out\n        /* \"#utility.yul\":19974:20188   */\n    tag_69:\n        /* \"#utility.yul\":20063:20067   */\n      0x00\n        /* \"#utility.yul\":20101:20103   */\n      0x20\n        /* \"#utility.yul\":20090:20099   */\n      dup3\n        /* \"#utility.yul\":20086:20104   */\n      add\n        /* \"#utility.yul\":20078:20104   */\n      swap1\n      pop\n        /* \"#utility.yul\":20114:20181   */\n      tag_562\n        /* \"#utility.yul\":20178:20179   */\n      0x00\n        /* \"#utility.yul\":20167:20176   */\n      dup4\n        /* \"#utility.yul\":20163:20180   */\n      add\n        /* \"#utility.yul\":20154:20160   */\n      dup5\n        /* \"#utility.yul\":20114:20181   */\n      tag_512\n      jump\t// in\n    tag_562:\n        /* \"#utility.yul\":19974:20188   */\n      swap3\n      swap2\n      pop\n      pop\n      jump\t// out\n        /* \"#utility.yul\":20275:20374   */\n    tag_410:\n        /* \"#utility.yul\":20327:20333   */\n      0x00\n        /* \"#utility.yul\":20361:20366   */\n      dup2\n        /* \"#utility.yul\":20355:20367   */\n      mload\n        /* \"#utility.yul\":20345:20367   */\n      swap1\n      pop\n        /* \"#utility.yul\":20275:20374   */\n      swap2\n      swap1\n      pop\n      jump\t// out\n        /* \"#utility.yul\":20380:20549   */\n    tag_412:\n        /* \"#utility.yul\":20464:20475   */\n      0x00\n        /* \"#utility.yul\":20498:20504   */\n      dup3\n        /* \"#utility.yul\":20493:20496   */\n      dup3\n        /* \"#utility.yul\":20486:20505   */\n      mstore\n        /* \"#utility.yul\":20538:20542   */\n      0x20\n        /* \"#utility.yul\":20533:20536   */\n      dup3\n        /* \"#utility.yul\":20529:20543   */\n      add\n        /* \"#utility.yul\":20514:20543   */\n      swap1\n      pop\n        /* \"#utility.yul\":20380:20549   */\n      swap3\n      swap2\n      pop\n      pop\n      jump\t// out\n        /* \"#utility.yul\":20555:20703   */\n    tag_421:\n        /* \"#utility.yul\":20657:20668   */\n      0x00\n        /* \"#utility.yul\":20694:20697   */\n      dup2\n        /* \"#utility.yul\":20679:20697   */\n      swap1\n      pop\n        /* \"#utility.yul\":20555:20703   */\n      swap3\n      swap2\n      pop\n      pop\n      jump\t// out\n        /* \"#utility.yul\":20709:21014   */\n    tag_178:\n        /* \"#utility.yul\":20749:20752   */\n      0x00\n        /* \"#utility.yul\":20768:20788   */\n      tag_569\n        /* \"#utility.yul\":20786:20787   */\n      dup3\n        /* \"#utility.yul\":20768:20788   */\n      tag_511\n      jump\t// in\n    tag_569:\n        /* \"#utility.yul\":20763:20788   */\n      swap2\n      pop\n        /* \"#utility.yul\":20802:20822   */\n      tag_570\n        /* \"#utility.yul\":20820:20821   */\n      dup4\n        /* \"#utility.yul\":20802:20822   */\n      tag_511\n      jump\t// in\n    tag_570:\n        /* \"#utility.yul\":20797:20822   */\n      swap3\n      pop\n        /* \"#utility.yul\":20956:20957   */\n      dup3\n        /* \"#utility.yul\":20888:20954   */\n      0xffffffffffffffffffffffffffffffffffffffffffffffffffffffffffffffff\n        /* \"#utility.yul\":20884:20958   */\n      sub\n        /* \"#utility.yul\":20881:20882   */\n      dup3\n        /* \"#utility.yul\":20878:20959   */\n      gt\n        /* \"#utility.yul\":20875:20982   */\n      iszero\n      tag_571\n      jumpi\n        /* \"#utility.yul\":20962:20980   */\n      tag_572\n      tag_573\n      jump\t// in\n    tag_572:\n        /* \"#utility.yul\":20875:20982   */\n    tag_571:\n        /* \"#utility.yul\":21006:21007   */\n      dup3\n        /* \"#utility.yul\":21003:21004   */\n      dup3\n        /* \"#utility.yul\":20999:21008   */\n      add\n        /* \"#utility.yul\":20992:21008   */\n      swap1\n      pop\n        /* \"#utility.yul\":20709:21014   */\n      swap3\n      swap2\n      pop\n      pop\n      jump\t// out\n        /* \"#utility.yul\":21020:21368   */\n    tag_319:\n        /* \"#utility.yul\":21060:21067   */\n      0x00\n        /* \"#utility.yul\":21083:21103   */\n      tag_575\n        /* \"#utility.yul\":21101:21102   */\n      dup3\n        /* \"#utility.yul\":21083:21103   */\n      tag_511\n      jump\t// in\n    tag_575:\n        /* \"#utility.yul\":21078:21103   */\n      swap2\n      pop\n        /* \"#utility.yul\":21117:21137   */\n      tag_576\n        /* \"#utility.yul\":21135:21136   */\n      dup4\n        /* \"#utility.yul\":21117:21137   */\n      tag_511\n      jump\t// in\n    tag_576:\n        /* \"#utility.yul\":21112:21137   */\n      swap3\n      pop\n        /* \"#utility.yul\":21305:21306   */\n      dup2\n        /* \"#utility.yul\":21237:21303   */\n      0xffffffffffffffffffffffffffffffffffffffffffffffffffffffffffffffff\n        /* \"#utility.yul\":21233:21307   */\n      div\n        /* \"#utility.yul\":21230:21231   */\n      dup4\n        /* \"#utility.yul\":21227:21308   */\n      gt\n        /* \"#utility.yul\":21222:21223   */\n      dup3\n        /* \"#utility.yul\":21215:21224   */\n      iszero\n        /* \"#utility.yul\":21208:21225   */\n      iszero\n        /* \"#utility.yul\":21204:21309   */\n      and\n        /* \"#utility.yul\":21201:21332   */\n      iszero\n      tag_577\n      jumpi\n        /* \"#utility.yul\":21312:21330   */\n      tag_578\n      tag_573\n      jump\t// in\n    tag_578:\n        /* \"#utility.yul\":21201:21332   */\n    tag_577:\n        /* \"#utility.yul\":21360:21361   */\n      dup3\n        /* \"#utility.yul\":21357:21358   */\n      dup3\n        /* \"#utility.yul\":21353:21362   */\n      mul\n        /* \"#utility.yul\":21342:21362   */\n      swap1\n      pop\n        /* \"#utility.yul\":21020:21368   */\n      swap3\n      swap2\n      pop\n      pop\n      jump\t// out\n        /* \"#utility.yul\":21374:21565   */\n    tag_156:\n        /* \"#utility.yul\":21414:21418   */\n      0x00\n        /* \"#utility.yul\":21434:21454   */\n      tag_580\n        /* \"#utility.yul\":21452:21453   */\n      dup3\n        /* \"#utility.yul\":21434:21454   */\n      tag_511\n      jump\t// in\n    tag_580:\n        /* \"#utility.yul\":21429:21454   */\n      swap2\n      pop\n        /* \"#utility.yul\":21468:21488   */\n      tag_581\n        /* \"#utility.yul\":21486:21487   */\n      dup4\n        /* \"#utility.yul\":21468:21488   */\n      tag_511\n      jump\t// in\n    tag_581:\n        /* \"#utility.yul\":21463:21488   */\n      swap3\n      pop\n        /* \"#utility.yul\":21507:21508   */\n      dup3\n        /* \"#utility.yul\":21504:21505   */\n      dup3\n        /* \"#utility.yul\":21501:21509   */\n      lt\n        /* \"#utility.yul\":21498:21532   */\n      iszero\n      tag_582\n      jumpi\n        /* \"#utility.yul\":21512:21530   */\n      tag_583\n      tag_573\n      jump\t// in\n    tag_583:\n        /* \"#utility.yul\":21498:21532   */\n    tag_582:\n        /* \"#utility.yul\":21557:21558   */\n      dup3\n        /* \"#utility.yul\":21554:21555   */\n      dup3\n        /* \"#utility.yul\":21550:21559   */\n      sub\n        /* \"#utility.yul\":21542:21559   */\n      swap1\n      pop\n        /* \"#utility.yul\":21374:21565   */\n      swap3\n      swap2\n      pop\n      pop\n      jump\t// out\n        /* \"#utility.yul\":21571:21667   */\n    tag_398:\n        /* \"#utility.yul\":21608:21615   */\n      0x00\n        /* \"#utility.yul\":21637:21661   */\n      tag_585\n        /* \"#utility.yul\":21655:21660   */\n      dup3\n        /* \"#utility.yul\":21637:21661   */\n      tag_586\n      jump\t// in\n    tag_585:\n        /* \"#utility.yul\":21626:21661   */\n      swap1\n      pop\n        /* \"#utility.yul\":21571:21667   */\n      swap2\n      swap1\n      pop\n      jump\t// out\n        /* \"#utility.yul\":21673:21763   */\n    tag_402:\n        /* \"#utility.yul\":21707:21714   */\n      0x00\n        /* \"#utility.yul\":21750:21755   */\n      dup2\n        /* \"#utility.yul\":21743:21756   */\n      iszero\n        /* \"#utility.yul\":21736:21757   */\n      iszero\n        /* \"#utility.yul\":21725:21757   */\n      swap1\n      pop\n        /* \"#utility.yul\":21673:21763   */\n      swap2\n      swap1\n      pop\n      jump\t// out\n        /* \"#utility.yul\":21769:21846   */\n    tag_406:\n        /* \"#utility.yul\":21806:21813   */\n      0x00\n        /* \"#utility.yul\":21835:21840   */\n      dup2\n        /* \"#utility.yul\":21824:21840   */\n      swap1\n      pop\n        /* \"#utility.yul\":21769:21846   */\n      swap2\n      swap1\n      pop\n      jump\t// out\n        /* \"#utility.yul\":21852:22001   */\n    tag_589:\n        /* \"#utility.yul\":21888:21895   */\n      0x00\n        /* \"#utility.yul\":21928:21994   */\n      0xffffffff00000000000000000000000000000000000000000000000000000000\n        /* \"#utility.yul\":21921:21926   */\n      dup3\n        /* \"#utility.yul\":21917:21995   */\n      and\n        /* \"#utility.yul\":21906:21995   */\n      swap1\n      pop\n        /* \"#utility.yul\":21852:22001   */\n      swap2\n      swap1\n      pop\n      jump\t// out\n        /* \"#utility.yul\":22007:22133   */\n    tag_586:\n        /* \"#utility.yul\":22044:22051   */\n      0x00\n        /* \"#utility.yul\":22084:22126   */\n      0xffffffffffffffffffffffffffffffffffffffff\n        /* \"#utility.yul\":22077:22082   */\n      dup3\n        /* \"#utility.yul\":22073:22127   */\n      and\n        /* \"#utility.yul\":22062:22127   */\n      swap1\n      pop\n        /* \"#utility.yul\":22007:22133   */\n      swap2\n      swap1\n      pop\n      jump\t// out\n        /* \"#utility.yul\":22139:22216   */\n    tag_511:\n        /* \"#utility.yul\":22176:22183   */\n      0x00\n        /* \"#utility.yul\":22205:22210   */\n      dup2\n        /* \"#utility.yul\":22194:22210   */\n      swap1\n      pop\n        /* \"#utility.yul\":22139:22216   */\n      swap2\n      swap1\n      pop\n      jump\t// out\n        /* \"#utility.yul\":22222:22308   */\n    tag_515:\n        /* \"#utility.yul\":22257:22264   */\n      0x00\n        /* \"#utility.yul\":22297:22301   */\n      0xff\n        /* \"#utility.yul\":22290:22295   */\n      dup3\n        /* \"#utility.yul\":22286:22302   */\n      and\n        /* \"#utility.yul\":22275:22302   */\n      swap1\n      pop\n        /* \"#utility.yul\":22222:22308   */\n      swap2\n      swap1\n      pop\n      jump\t// out\n        /* \"#utility.yul\":22314:22621   */\n    tag_414:\n        /* \"#utility.yul\":22382:22383   */\n      0x00\n        /* \"#utility.yul\":22392:22505   */\n    tag_595:\n        /* \"#utility.yul\":22406:22412   */\n      dup4\n        /* \"#utility.yul\":22403:22404   */\n      dup2\n        /* \"#utility.yul\":22400:22413   */\n      lt\n        /* \"#utility.yul\":22392:22505   */\n      iszero\n      tag_597\n      jumpi\n        /* \"#utility.yul\":22491:22492   */\n      dup1\n        /* \"#utility.yul\":22486:22489   */\n      dup3\n        /* \"#utility.yul\":22482:22493   */\n      add\n        /* \"#utility.yul\":22476:22494   */\n      mload\n        /* \"#utility.yul\":22472:22473   */\n      dup2\n        /* \"#utility.yul\":22467:22470   */\n      dup5\n        /* \"#utility.yul\":22463:22474   */\n      add\n        /* \"#utility.yul\":22456:22495   */\n      mstore\n        /* \"#utility.yul\":22428:22430   */\n      0x20\n        /* \"#utility.yul\":22425:22426   */\n      dup2\n        /* \"#utility.yul\":22421:22431   */\n      add\n        /* \"#utility.yul\":22416:22431   */\n      swap1\n      pop\n        /* \"#utility.yul\":22392:22505   */\n      jump(tag_595)\n    tag_597:\n        /* \"#utility.yul\":22523:22529   */\n      dup4\n        /* \"#utility.yul\":22520:22521   */\n      dup2\n        /* \"#utility.yul\":22517:22530   */\n      gt\n        /* \"#utility.yul\":22514:22615   */\n      iszero\n      tag_598\n      jumpi\n        /* \"#utility.yul\":22603:22604   */\n      0x00\n        /* \"#utility.yul\":22594:22600   */\n      dup5\n        /* \"#utility.yul\":22589:22592   */\n      dup5\n        /* \"#utility.yul\":22585:22601   */\n      add\n        /* \"#utility.yul\":22578:22605   */\n      mstore\n        /* \"#utility.yul\":22514:22615   */\n    tag_598:\n        /* \"#utility.yul\":22363:22621   */\n      pop\n        /* \"#utility.yul\":22314:22621   */\n      pop\n      pop\n      pop\n      jump\t// out\n        /* \"#utility.yul\":22627:22798   */\n    tag_340:\n        /* \"#utility.yul\":22666:22669   */\n      0x00\n        /* \"#utility.yul\":22689:22713   */\n      tag_600\n        /* \"#utility.yul\":22707:22712   */\n      dup3\n        /* \"#utility.yul\":22689:22713   */\n      tag_511\n      jump\t// in\n    tag_600:\n        /* \"#utility.yul\":22680:22713   */\n      swap2\n      pop\n        /* \"#utility.yul\":22735:22739   */\n      0x00\n        /* \"#utility.yul\":22728:22733   */\n      dup3\n        /* \"#utility.yul\":22725:22740   */\n      eq\n        /* \"#utility.yul\":22722:22763   */\n      iszero\n      tag_601\n      jumpi\n        /* \"#utility.yul\":22743:22761   */\n      tag_602\n      tag_573\n      jump\t// in\n    tag_602:\n        /* \"#utility.yul\":22722:22763   */\n    tag_601:\n        /* \"#utility.yul\":22790:22791   */\n      0x01\n        /* \"#utility.yul\":22783:22788   */\n      dup3\n        /* \"#utility.yul\":22779:22792   */\n      sub\n        /* \"#utility.yul\":22772:22792   */\n      swap1\n      pop\n        /* \"#utility.yul\":22627:22798   */\n      swap2\n      swap1\n      pop\n      jump\t// out\n        /* \"#utility.yul\":22804:23124   */\n    tag_135:\n        /* \"#utility.yul\":22848:22854   */\n      0x00\n        /* \"#utility.yul\":22885:22886   */\n      0x02\n        /* \"#utility.yul\":22879:22883   */\n      dup3\n        /* \"#utility.yul\":22875:22887   */\n      div\n        /* \"#utility.yul\":22865:22887   */\n      swap1\n      pop\n        /* \"#utility.yul\":22932:22933   */\n      0x01\n        /* \"#utility.yul\":22926:22930   */\n      dup3\n        /* \"#utility.yul\":22922:22934   */\n      and\n        /* \"#utility.yul\":22953:22971   */\n      dup1\n        /* \"#utility.yul\":22943:23024   */\n      tag_604\n      jumpi\n        /* \"#utility.yul\":23009:23013   */\n      0x7f\n        /* \"#utility.yul\":23001:23007   */\n      dup3\n        /* \"#utility.yul\":22997:23014   */\n      and\n        /* \"#utility.yul\":22987:23014   */\n      swap2\n      pop\n        /* \"#utility.yul\":22943:23024   */\n    tag_604:\n        /* \"#utility.yul\":23071:23073   */\n      0x20\n        /* \"#utility.yul\":23063:23069   */\n      dup3\n        /* \"#utility.yul\":23060:23074   */\n      lt\n        /* \"#utility.yul\":23040:23058   */\n      dup2\n        /* \"#utility.yul\":23037:23075   */\n      eq\n        /* \"#utility.yul\":23034:23118   */\n      iszero\n      tag_605\n      jumpi\n        /* \"#utility.yul\":23090:23108   */\n      tag_606\n      tag_607\n      jump\t// in\n    tag_606:\n        /* \"#utility.yul\":23034:23118   */\n    tag_605:\n        /* \"#utility.yul\":22855:23124   */\n      pop\n        /* \"#utility.yul\":22804:23124   */\n      swap2\n      swap1\n      pop\n      jump\t// out\n        /* \"#utility.yul\":23130:23310   */\n    tag_573:\n        /* \"#utility.yul\":23178:23255   */\n      0x4e487b7100000000000000000000000000000000000000000000000000000000\n        /* \"#utility.yul\":23175:23176   */\n      0x00\n        /* \"#utility.yul\":23168:23256   */\n      mstore\n        /* \"#utility.yul\":23275:23279   */\n      0x11\n        /* \"#utility.yul\":23272:23273   */\n      0x04\n        /* \"#utility.yul\":23265:23280   */\n      mstore\n        /* \"#utility.yul\":23299:23303   */\n      0x24\n        /* \"#utility.yul\":23296:23297   */\n      0x00\n        /* \"#utility.yul\":23289:23304   */\n      revert\n        /* \"#utility.yul\":23316:23496   */\n    tag_607:\n        /* \"#utility.yul\":23364:23441   */\n      0x4e487b7100000000000000000000000000000000000000000000000000000000\n        /* \"#utility.yul\":23361:23362   */\n      0x00\n        /* \"#utility.yul\":23354:23442   */\n      mstore\n        /* \"#utility.yul\":23461:23465   */\n      0x22\n        /* \"#utility.yul\":23458:23459   */\n      0x04\n        /* \"#utility.yul\":23451:23466   */\n      mstore\n        /* \"#utility.yul\":23485:23489   */\n      0x24\n        /* \"#utility.yul\":23482:23483   */\n      0x00\n        /* \"#utility.yul\":23475:23490   */\n      revert\n        /* \"#utility.yul\":23502:23682   */\n    tag_327:\n        /* \"#utility.yul\":23550:23627   */\n      0x4e487b7100000000000000000000000000000000000000000000000000000000\n        /* \"#utility.yul\":23547:23548   */\n      0x00\n        /* \"#utility.yul\":23540:23628   */\n      mstore\n        /* \"#utility.yul\":23647:23651   */\n      0x32\n        /* \"#utility.yul\":23644:23645   */\n      0x04\n        /* \"#utility.yul\":23637:23652   */\n      mstore\n        /* \"#utility.yul\":23671:23675   */\n      0x24\n        /* \"#utility.yul\":23668:23669   */\n      0x00\n        /* \"#utility.yul\":23661:23676   */\n      revert\n        /* \"#utility.yul\":23688:23868   */\n    tag_323:\n        /* \"#utility.yul\":23736:23813   */\n      0x4e487b7100000000000000000000000000000000000000000000000000000000\n        /* \"#utility.yul\":23733:23734   */\n      0x00\n        /* \"#utility.yul\":23726:23814   */\n      mstore\n        /* \"#utility.yul\":23833:23837   */\n      0x41\n        /* \"#utility.yul\":23830:23831   */\n      0x04\n        /* \"#utility.yul\":23823:23838   */\n      mstore\n        /* \"#utility.yul\":23857:23861   */\n      0x24\n        /* \"#utility.yul\":23854:23855   */\n      0x00\n        /* \"#utility.yul\":23847:23862   */\n      revert\n        /* \"#utility.yul\":23997:24114   */\n    tag_364:\n        /* \"#utility.yul\":24106:24107   */\n      0x00\n        /* \"#utility.yul\":24103:24104   */\n      dup1\n        /* \"#utility.yul\":24096:24108   */\n      revert\n        /* \"#utility.yul\":24120:24222   */\n    tag_416:\n        /* \"#utility.yul\":24161:24167   */\n      0x00\n        /* \"#utility.yul\":24212:24214   */\n      0x1f\n        /* \"#utility.yul\":24208:24215   */\n      not\n        /* \"#utility.yul\":24203:24205   */\n      0x1f\n        /* \"#utility.yul\":24196:24201   */\n      dup4\n        /* \"#utility.yul\":24192:24206   */\n      add\n        /* \"#utility.yul\":24188:24216   */\n      and\n        /* \"#utility.yul\":24178:24216   */\n      swap1\n      pop\n        /* \"#utility.yul\":24120:24222   */\n      swap2\n      swap1\n      pop\n      jump\t// out\n        /* \"#utility.yul\":24228:24410   */\n    tag_427:\n        /* \"#utility.yul\":24368:24402   */\n      0x537472696e67733a20686578206c656e67746820696e73756666696369656e74\n        /* \"#utility.yul\":24364:24365   */\n      0x00\n        /* \"#utility.yul\":24356:24362   */\n      dup3\n        /* \"#utility.yul\":24352:24366   */\n      add\n        /* \"#utility.yul\":24345:24403   */\n      mstore\n        /* \"#utility.yul\":24228:24410   */\n      pop\n      jump\t// out\n        /* \"#utility.yul\":24416:24638   */\n    tag_432:\n        /* \"#utility.yul\":24556:24590   */\n      0x45524332303a207472616e7366657220746f20746865207a65726f2061646472\n        /* \"#utility.yul\":24552:24553   */\n      0x00\n        /* \"#utility.yul\":24544:24550   */\n      dup3\n        /* \"#utility.yul\":24540:24554   */\n      add\n        /* \"#utility.yul\":24533:24591   */\n      mstore\n        /* \"#utility.yul\":24625:24630   */\n      0x6573730000000000000000000000000000000000000000000000000000000000\n        /* \"#utility.yul\":24620:24622   */\n      0x20\n        /* \"#utility.yul\":24612:24618   */\n      dup3\n        /* \"#utility.yul\":24608:24623   */\n      add\n        /* \"#utility.yul\":24601:24631   */\n      mstore\n        /* \"#utility.yul\":24416:24638   */\n      pop\n      jump\t// out\n        /* \"#utility.yul\":24644:24865   */\n    tag_437:\n        /* \"#utility.yul\":24784:24818   */\n      0x45524332303a206275726e20616d6f756e7420657863656564732062616c616e\n        /* \"#utility.yul\":24780:24781   */\n      0x00\n        /* \"#utility.yul\":24772:24778   */\n      dup3\n        /* \"#utility.yul\":24768:24782   */\n      add\n        /* \"#utility.yul\":24761:24819   */\n      mstore\n        /* \"#utility.yul\":24853:24857   */\n      0x6365000000000000000000000000000000000000000000000000000000000000\n        /* \"#utility.yul\":24848:24850   */\n      0x20\n        /* \"#utility.yul\":24840:24846   */\n      dup3\n        /* \"#utility.yul\":24836:24851   */\n      add\n        /* \"#utility.yul\":24829:24858   */\n      mstore\n        /* \"#utility.yul\":24644:24865   */\n      pop\n      jump\t// out\n        /* \"#utility.yul\":24871:25096   */\n    tag_442:\n        /* \"#utility.yul\":25011:25045   */\n      0x4f776e61626c653a206e6577206f776e657220697320746865207a65726f2061\n        /* \"#utility.yul\":25007:25008   */\n      0x00\n        /* \"#utility.yul\":24999:25005   */\n      dup3\n        /* \"#utility.yul\":24995:25009   */\n      add\n        /* \"#utility.yul\":24988:25046   */\n      mstore\n        /* \"#utility.yul\":25080:25088   */\n      0x6464726573730000000000000000000000000000000000000000000000000000\n        /* \"#utility.yul\":25075:25077   */\n      0x20\n        /* \"#utility.yul\":25067:25073   */\n      dup3\n        /* \"#utility.yul\":25063:25078   */\n      add\n        /* \"#utility.yul\":25056:25089   */\n      mstore\n        /* \"#utility.yul\":24871:25096   */\n      pop\n      jump\t// out\n        /* \"#utility.yul\":25102:25323   */\n    tag_447:\n        /* \"#utility.yul\":25242:25276   */\n      0x45524332303a20617070726f766520746f20746865207a65726f206164647265\n        /* \"#utility.yul\":25238:25239   */\n      0x00\n        /* \"#utility.yul\":25230:25236   */\n      dup3\n        /* \"#utility.yul\":25226:25240   */\n      add\n        /* \"#utility.yul\":25219:25277   */\n      mstore\n        /* \"#utility.yul\":25311:25315   */\n      0x7373000000000000000000000000000000000000000000000000000000000000\n        /* \"#utility.yul\":25306:25308   */\n      0x20\n        /* \"#utility.yul\":25298:25304   */\n      dup3\n        /* \"#utility.yul\":25294:25309   */\n      add\n        /* \"#utility.yul\":25287:25316   */\n      mstore\n        /* \"#utility.yul\":25102:25323   */\n      pop\n      jump\t// out\n        /* \"#utility.yul\":25329:25556   */\n    tag_452:\n        /* \"#utility.yul\":25469:25503   */\n      0x4d696e74657220526f6c653a2043616c6c657220537570706f73656420546f20\n        /* \"#utility.yul\":25465:25466   */\n      0x00\n        /* \"#utility.yul\":25457:25463   */\n      dup3\n        /* \"#utility.yul\":25453:25467   */\n      add\n        /* \"#utility.yul\":25446:25504   */\n      mstore\n        /* \"#utility.yul\":25538:25548   */\n      0x4265204d696e6574000000000000000000000000000000000000000000000000\n        /* \"#utility.yul\":25533:25535   */\n      0x20\n        /* \"#utility.yul\":25525:25531   */\n      dup3\n        /* \"#utility.yul\":25521:25536   */\n      add\n        /* \"#utility.yul\":25514:25549   */\n      mstore\n        /* \"#utility.yul\":25329:25556   */\n      pop\n      jump\t// out\n        /* \"#utility.yul\":25562:25787   */\n    tag_457:\n        /* \"#utility.yul\":25702:25736   */\n      0x45524332303a207472616e7366657220616d6f756e7420657863656564732062\n        /* \"#utility.yul\":25698:25699   */\n      0x00\n        /* \"#utility.yul\":25690:25696   */\n      dup3\n        /* \"#utility.yul\":25686:25700   */\n      add\n        /* \"#utility.yul\":25679:25737   */\n      mstore\n        /* \"#utility.yul\":25771:25779   */\n      0x616c616e63650000000000000000000000000000000000000000000000000000\n        /* \"#utility.yul\":25766:25768   */\n      0x20\n        /* \"#utility.yul\":25758:25764   */\n      dup3\n        /* \"#utility.yul\":25754:25769   */\n      add\n        /* \"#utility.yul\":25747:25780   */\n      mstore\n        /* \"#utility.yul\":25562:25787   */\n      pop\n      jump\t// out\n        /* \"#utility.yul\":25793:26020   */\n    tag_462:\n        /* \"#utility.yul\":25933:25967   */\n      0x45524332303a207472616e7366657220616d6f756e7420657863656564732061\n        /* \"#utility.yul\":25929:25930   */\n      0x00\n        /* \"#utility.yul\":25921:25927   */\n      dup3\n        /* \"#utility.yul\":25917:25931   */\n      add\n        /* \"#utility.yul\":25910:25968   */\n      mstore\n        /* \"#utility.yul\":26002:26012   */\n      0x6c6c6f77616e6365000000000000000000000000000000000000000000000000\n        /* \"#utility.yul\":25997:25999   */\n      0x20\n        /* \"#utility.yul\":25989:25995   */\n      dup3\n        /* \"#utility.yul\":25985:26000   */\n      add\n        /* \"#utility.yul\":25978:26013   */\n      mstore\n        /* \"#utility.yul\":25793:26020   */\n      pop\n      jump\t// out\n        /* \"#utility.yul\":26026:26208   */\n    tag_467:\n        /* \"#utility.yul\":26166:26200   */\n      0x4f776e61626c653a2063616c6c6572206973206e6f7420746865206f776e6572\n        /* \"#utility.yul\":26162:26163   */\n      0x00\n        /* \"#utility.yul\":26154:26160   */\n      dup3\n        /* \"#utility.yul\":26150:26164   */\n      add\n        /* \"#utility.yul\":26143:26201   */\n      mstore\n        /* \"#utility.yul\":26026:26208   */\n      pop\n      jump\t// out\n        /* \"#utility.yul\":26214:26434   */\n    tag_472:\n        /* \"#utility.yul\":26354:26388   */\n      0x45524332303a206275726e2066726f6d20746865207a65726f20616464726573\n        /* \"#utility.yul\":26350:26351   */\n      0x00\n        /* \"#utility.yul\":26342:26348   */\n      dup3\n        /* \"#utility.yul\":26338:26352   */\n      add\n        /* \"#utility.yul\":26331:26389   */\n      mstore\n        /* \"#utility.yul\":26423:26426   */\n      0x7300000000000000000000000000000000000000000000000000000000000000\n        /* \"#utility.yul\":26418:26420   */\n      0x20\n        /* \"#utility.yul\":26410:26416   */\n      dup3\n        /* \"#utility.yul\":26406:26421   */\n      add\n        /* \"#utility.yul\":26399:26427   */\n      mstore\n        /* \"#utility.yul\":26214:26434   */\n      pop\n      jump\t// out\n        /* \"#utility.yul\":26440:26664   */\n    tag_477:\n        /* \"#utility.yul\":26580:26614   */\n      0x45524332303a207472616e736665722066726f6d20746865207a65726f206164\n        /* \"#utility.yul\":26576:26577   */\n      0x00\n        /* \"#utility.yul\":26568:26574   */\n      dup3\n        /* \"#utility.yul\":26564:26578   */\n      add\n        /* \"#utility.yul\":26557:26615   */\n      mstore\n        /* \"#utility.yul\":26649:26656   */\n      0x6472657373000000000000000000000000000000000000000000000000000000\n        /* \"#utility.yul\":26644:26646   */\n      0x20\n        /* \"#utility.yul\":26636:26642   */\n      dup3\n        /* \"#utility.yul\":26632:26647   */\n      add\n        /* \"#utility.yul\":26625:26657   */\n      mstore\n        /* \"#utility.yul\":26440:26664   */\n      pop\n      jump\t// out\n        /* \"#utility.yul\":26670:26893   */\n    tag_482:\n        /* \"#utility.yul\":26810:26844   */\n      0x45524332303a20617070726f76652066726f6d20746865207a65726f20616464\n        /* \"#utility.yul\":26806:26807   */\n      0x00\n        /* \"#utility.yul\":26798:26804   */\n      dup3\n        /* \"#utility.yul\":26794:26808   */\n      add\n        /* \"#utility.yul\":26787:26845   */\n      mstore\n        /* \"#utility.yul\":26879:26885   */\n      0x7265737300000000000000000000000000000000000000000000000000000000\n        /* \"#utility.yul\":26874:26876   */\n      0x20\n        /* \"#utility.yul\":26866:26872   */\n      dup3\n        /* \"#utility.yul\":26862:26877   */\n      add\n        /* \"#utility.yul\":26855:26886   */\n      mstore\n        /* \"#utility.yul\":26670:26893   */\n      pop\n      jump\t// out\n        /* \"#utility.yul\":26899:27072   */\n    tag_487:\n        /* \"#utility.yul\":27039:27064   */\n      0x416363657373436f6e74726f6c3a206163636f756e7420000000000000000000\n        /* \"#utility.yul\":27035:27036   */\n      0x00\n        /* \"#utility.yul\":27027:27033   */\n      dup3\n        /* \"#utility.yul\":27023:27037   */\n      add\n        /* \"#utility.yul\":27016:27065   */\n      mstore\n        /* \"#utility.yul\":26899:27072   */\n      pop\n      jump\t// out\n        /* \"#utility.yul\":27078:27302   */\n    tag_492:\n        /* \"#utility.yul\":27218:27252   */\n      0x45524332303a2064656372656173656420616c6c6f77616e63652062656c6f77\n        /* \"#utility.yul\":27214:27215   */\n      0x00\n        /* \"#utility.yul\":27206:27212   */\n      dup3\n        /* \"#utility.yul\":27202:27216   */\n      add\n        /* \"#utility.yul\":27195:27253   */\n      mstore\n        /* \"#utility.yul\":27287:27294   */\n      0x207a65726f000000000000000000000000000000000000000000000000000000\n        /* \"#utility.yul\":27282:27284   */\n      0x20\n        /* \"#utility.yul\":27274:27280   */\n      dup3\n        /* \"#utility.yul\":27270:27285   */\n      add\n        /* \"#utility.yul\":27263:27295   */\n      mstore\n        /* \"#utility.yul\":27078:27302   */\n      pop\n      jump\t// out\n        /* \"#utility.yul\":27308:27475   */\n    tag_497:\n        /* \"#utility.yul\":27448:27467   */\n      0x206973206d697373696e6720726f6c6520000000000000000000000000000000\n        /* \"#utility.yul\":27444:27445   */\n      0x00\n        /* \"#utility.yul\":27436:27442   */\n      dup3\n        /* \"#utility.yul\":27432:27446   */\n      add\n        /* \"#utility.yul\":27425:27468   */\n      mstore\n        /* \"#utility.yul\":27308:27475   */\n      pop\n      jump\t// out\n        /* \"#utility.yul\":27481:27715   */\n    tag_502:\n        /* \"#utility.yul\":27621:27655   */\n      0x416363657373436f6e74726f6c3a2063616e206f6e6c792072656e6f756e6365\n        /* \"#utility.yul\":27617:27618   */\n      0x00\n        /* \"#utility.yul\":27609:27615   */\n      dup3\n        /* \"#utility.yul\":27605:27619   */\n      add\n        /* \"#utility.yul\":27598:27656   */\n      mstore\n        /* \"#utility.yul\":27690:27707   */\n      0x20726f6c657320666f722073656c660000000000000000000000000000000000\n        /* \"#utility.yul\":27685:27687   */\n      0x20\n        /* \"#utility.yul\":27677:27683   */\n      dup3\n        /* \"#utility.yul\":27673:27688   */\n      add\n        /* \"#utility.yul\":27666:27708   */\n      mstore\n        /* \"#utility.yul\":27481:27715   */\n      pop\n      jump\t// out\n        /* \"#utility.yul\":27721:27902   */\n    tag_507:\n        /* \"#utility.yul\":27861:27894   */\n      0x45524332303a206d696e7420746f20746865207a65726f206164647265737300\n        /* \"#utility.yul\":27857:27858   */\n      0x00\n        /* \"#utility.yul\":27849:27855   */\n      dup3\n        /* \"#utility.yul\":27845:27859   */\n      add\n        /* \"#utility.yul\":27838:27895   */\n      mstore\n        /* \"#utility.yul\":27721:27902   */\n      pop\n      jump\t// out\n        /* \"#utility.yul\":27908:28030   */\n    tag_348:\n        /* \"#utility.yul\":27981:28005   */\n      tag_634\n        /* \"#utility.yul\":27999:28004   */\n      dup2\n        /* \"#utility.yul\":27981:28005   */\n      tag_398\n      jump\t// in\n    tag_634:\n        /* \"#utility.yul\":27974:27979   */\n      dup2\n        /* \"#utility.yul\":27971:28006   */\n      eq\n        /* \"#utility.yul\":27961:28024   */\n      tag_635\n      jumpi\n        /* \"#utility.yul\":28020:28021   */\n      0x00\n        /* \"#utility.yul\":28017:28018   */\n      dup1\n        /* \"#utility.yul\":28010:28022   */\n      revert\n        /* \"#utility.yul\":27961:28024   */\n    tag_635:\n        /* \"#utility.yul\":27908:28030   */\n      pop\n      jump\t// out\n        /* \"#utility.yul\":28036:28158   */\n    tag_352:\n        /* \"#utility.yul\":28109:28133   */\n      tag_637\n        /* \"#utility.yul\":28127:28132   */\n      dup2\n        /* \"#utility.yul\":28109:28133   */\n      tag_406\n      jump\t// in\n    tag_637:\n        /* \"#utility.yul\":28102:28107   */\n      dup2\n        /* \"#utility.yul\":28099:28134   */\n      eq\n        /* \"#utility.yul\":28089:28152   */\n      tag_638\n      jumpi\n        /* \"#utility.yul\":28148:28149   */\n      0x00\n        /* \"#utility.yul\":28145:28146   */\n      dup1\n        /* \"#utility.yul\":28138:28150   */\n      revert\n        /* \"#utility.yul\":28089:28152   */\n    tag_638:\n        /* \"#utility.yul\":28036:28158   */\n      pop\n      jump\t// out\n        /* \"#utility.yul\":28164:28284   */\n    tag_356:\n        /* \"#utility.yul\":28236:28259   */\n      tag_640\n        /* \"#utility.yul\":28253:28258   */\n      dup2\n        /* \"#utility.yul\":28236:28259   */\n      tag_589\n      jump\t// in\n    tag_640:\n        /* \"#utility.yul\":28229:28234   */\n      dup2\n        /* \"#utility.yul\":28226:28260   */\n      eq\n        /* \"#utility.yul\":28216:28278   */\n      tag_641\n      jumpi\n        /* \"#utility.yul\":28274:28275   */\n      0x00\n        /* \"#utility.yul\":28271:28272   */\n      dup1\n        /* \"#utility.yul\":28264:28276   */\n      revert\n        /* \"#utility.yul\":28216:28278   */\n    tag_641:\n        /* \"#utility.yul\":28164:28284   */\n      pop\n      jump\t// out\n        /* \"#utility.yul\":28290:28412   */\n    tag_360:\n        /* \"#utility.yul\":28363:28387   */\n      tag_643\n        /* \"#utility.yul\":28381:28386   */\n      dup2\n        /* \"#utility.yul\":28363:28387   */\n      tag_511\n      jump\t// in\n    tag_643:\n        /* \"#utility.yul\":28356:28361   */\n      dup2\n        /* \"#utility.yul\":28353:28388   */\n      eq\n        /* \"#utility.yul\":28343:28406   */\n      tag_644\n      jumpi\n        /* \"#utility.yul\":28402:28403   */\n      0x00\n        /* \"#utility.yul\":28399:28400   */\n      dup1\n        /* \"#utility.yul\":28392:28404   */\n      revert\n        /* \"#utility.yul\":28343:28406   */\n    tag_644:\n        /* \"#utility.yul\":28290:28412   */\n      pop\n      jump\t// out\n\n    auxdata: 0xa2646970667358221220bab3adc48196fbd7f6e6d556c2b15c290faa3edfed7f356a1b47b4b2a56e17ae64736f6c63430008070033\n}\n",
				"bytecode": {
					"linkReferences": {},
					"object": "60806040523480156200001157600080fd5b506000620000246200021f60201b60201c565b9050806000806101000a81548173ffffffffffffffffffffffffffffffffffffffff021916908373ffffffffffffffffffffffffffffffffffffffff1602179055508073ffffffffffffffffffffffffffffffffffffffff16600073ffffffffffffffffffffffffffffffffffffffff167f8be0079c531659141344cd1fd0a4f28419497f9722a3daafe3b4186f6b6457e060405160405180910390a3506040518060400160405280600d81526020017f50484f494e49585f544f4b454e00000000000000000000000000000000000000815250600590805190602001906200010f929190620003a2565b506040518060400160405280600781526020017f50484f494e495800000000000000000000000000000000000000000000000000815250600690805190602001906200015d929190620003a2565b506200016e6200022760201b60201c565b600a6200017c9190620004ad565b620f42406200018c9190620005ea565b60048190555060045460026000620001a96200021f60201b60201c565b73ffffffffffffffffffffffffffffffffffffffff1673ffffffffffffffffffffffffffffffffffffffff16815260200190815260200160002081905550620002197f9f2df0fed2c77648de5860a4cc508cd0818c85b8b8a1ab4ceeef8d981c8956a6336200023060201b60201c565b62000703565b600033905090565b60006012905090565b6200024282826200024660201b60201c565b5050565b6200025882826200033760201b60201c565b6200033357600180600084815260200190815260200160002060000160008373ffffffffffffffffffffffffffffffffffffffff1673ffffffffffffffffffffffffffffffffffffffff16815260200190815260200160002060006101000a81548160ff021916908315150217905550620002d86200021f60201b60201c565b73ffffffffffffffffffffffffffffffffffffffff168173ffffffffffffffffffffffffffffffffffffffff16837f2f8788117e7eff1d82e926ec794901d17c78024a50270940304540a733656f0d60405160405180910390a45b5050565b60006001600084815260200190815260200160002060000160008373ffffffffffffffffffffffffffffffffffffffff1673ffffffffffffffffffffffffffffffffffffffff16815260200190815260200160002060009054906101000a900460ff16905092915050565b828054620003b09062000662565b90600052602060002090601f016020900481019282620003d4576000855562000420565b82601f10620003ef57805160ff191683800117855562000420565b8280016001018555821562000420579182015b828111156200041f57825182559160200191906001019062000402565b5b5090506200042f919062000433565b5090565b5b808211156200044e57600081600090555060010162000434565b5090565b6000808291508390505b6001851115620004a4578086048111156200047c576200047b62000698565b5b60018516156200048c5780820291505b80810290506200049c85620006f6565b94506200045c565b94509492505050565b6000620004ba826200064b565b9150620004c78362000655565b9250620004f67fffffffffffffffffffffffffffffffffffffffffffffffffffffffffffffffff8484620004fe565b905092915050565b600082620005105760019050620005e3565b81620005205760009050620005e3565b816001811462000539576002811462000544576200057a565b6001915050620005e3565b60ff84111562000559576200055862000698565b5b8360020a91508482111562000573576200057262000698565b5b50620005e3565b5060208310610133831016604e8410600b8410161715620005b45782820a905083811115620005ae57620005ad62000698565b5b620005e3565b620005c3848484600162000452565b92509050818404811115620005dd57620005dc62000698565b5b81810290505b9392505050565b6000620005f7826200064b565b915062000604836200064b565b9250817fffffffffffffffffffffffffffffffffffffffffffffffffffffffffffffffff048311821515161562000640576200063f62000698565b5b828202905092915050565b6000819050919050565b600060ff82169050919050565b600060028204905060018216806200067b57607f821691505b60208210811415620006925762000691620006c7565b5b50919050565b7f4e487b7100000000000000000000000000000000000000000000000000000000600052601160045260246000fd5b7f4e487b7100000000000000000000000000000000000000000000000000000000600052602260045260246000fd5b60008160011c9050919050565b612d1280620007136000396000f3fe608060405234801561001057600080fd5b50600436106101735760003560e01c8063715018a6116100de578063a217fddf11610097578063d539139311610071578063d539139314610472578063d547741f14610490578063dd62ed3e146104ac578063f2fde38b146104dc57610173565b8063a217fddf146103f4578063a457c2d714610412578063a9059cbb1461044257610173565b8063715018a6146103465780638da5cb5b1461035057806391d148541461036e57806395d89b411461039e578063983b2d56146103bc5780639dc29fac146103d857610173565b80632f2ff15d116101305780632f2ff15d14610274578063313ce5671461029057806336568abe146102ae57806339509351146102ca57806340c10f19146102fa57806370a082311461031657610173565b806301ffc9a71461017857806306fdde03146101a8578063095ea7b3146101c657806318160ddd146101f657806323b872dd14610214578063248a9ca314610244575b600080fd5b610192600480360381019061018d9190611f10565b6104f8565b60405161019f919061229a565b60405180910390f35b6101b0610572565b6040516101bd91906122d0565b60405180910390f35b6101e060048036038101906101db9190611e63565b610604565b6040516101ed919061229a565b60405180910390f35b6101fe610622565b60405161020b91906124d2565b60405180910390f35b61022e60048036038101906102299190611e10565b61062c565b60405161023b919061229a565b60405180910390f35b61025e60048036038101906102599190611ea3565b61072d565b60405161026b91906122b5565b60405180910390f35b61028e60048036038101906102899190611ed0565b61074d565b005b61029861076e565b6040516102a591906124ed565b60405180910390f35b6102c860048036038101906102c39190611ed0565b610777565b005b6102e460048036038101906102df9190611e63565b6107fa565b6040516102f1919061229a565b60405180910390f35b610314600480360381019061030f9190611e63565b6108a6565b005b610330600480360381019061032b9190611da3565b610924565b60405161033d91906124d2565b60405180910390f35b61034e61096d565b005b610358610aa7565b604051610365919061227f565b60405180910390f35b61038860048036038101906103839190611ed0565b610ad0565b604051610395919061229a565b60405180910390f35b6103a6610b3b565b6040516103b391906122d0565b60405180910390f35b6103d660048036038101906103d19190611da3565b610bcd565b005b6103f260048036038101906103ed9190611e63565b610c76565b005b6103fc610d00565b60405161040991906122b5565b60405180910390f35b61042c60048036038101906104279190611e63565b610d07565b604051610439919061229a565b60405180910390f35b61045c60048036038101906104579190611e63565b610dfb565b604051610469919061229a565b60405180910390f35b61047a610e19565b60405161048791906122b5565b60405180910390f35b6104aa60048036038101906104a59190611ed0565b610e3d565b005b6104c660048036038101906104c19190611dd0565b610e5e565b6040516104d391906124d2565b60405180910390f35b6104f660048036038101906104f19190611da3565b610ee5565b005b60007f7965db0b000000000000000000000000000000000000000000000000000000007bffffffffffffffffffffffffffffffffffffffffffffffffffffffff1916827bffffffffffffffffffffffffffffffffffffffffffffffffffffffff1916148061056b575061056a8261108e565b5b9050919050565b606060058054610581906126fb565b80601f01602080910402602001604051908101604052809291908181526020018280546105ad906126fb565b80156105fa5780601f106105cf576101008083540402835291602001916105fa565b820191906000526020600020905b8154815290600101906020018083116105dd57829003601f168201915b5050505050905090565b60006106186106116110f8565b8484611100565b6001905092915050565b6000600454905090565b60006106398484846112cb565b6000600360008673ffffffffffffffffffffffffffffffffffffffff1673ffffffffffffffffffffffffffffffffffffffff16815260200190815260200160002060006106846110f8565b73ffffffffffffffffffffffffffffffffffffffff1673ffffffffffffffffffffffffffffffffffffffff16815260200190815260200160002054905082811015610704576040517f08c379a00000000000000000000000000000000000000000000000000000000081526004016106fb906123d2565b60405180910390fd5b610721856107106110f8565b858461071c91906125df565b611100565b60019150509392505050565b600060016000838152602001908152602001600020600101549050919050565b6107568261072d565b61075f8161154d565b6107698383611561565b505050565b60006012905090565b61077f6110f8565b73ffffffffffffffffffffffffffffffffffffffff168173ffffffffffffffffffffffffffffffffffffffff16146107ec576040517f08c379a00000000000000000000000000000000000000000000000000000000081526004016107e390612492565b60405180910390fd5b6107f68282611641565b5050565b600061089c6108076110f8565b8484600360006108156110f8565b73ffffffffffffffffffffffffffffffffffffffff1673ffffffffffffffffffffffffffffffffffffffff16815260200190815260200160002060008873ffffffffffffffffffffffffffffffffffffffff1673ffffffffffffffffffffffffffffffffffffffff16815260200190815260200160002054610897919061252f565b611100565b6001905092915050565b6108d77f9f2df0fed2c77648de5860a4cc508cd0818c85b8b8a1ab4ceeef8d981c8956a66108d26110f8565b610ad0565b610916576040517f08c379a000000000000000000000000000000000000000000000000000000000815260040161090d90612392565b60405180910390fd5b6109208282611723565b5050565b6000600260008373ffffffffffffffffffffffffffffffffffffffff1673ffffffffffffffffffffffffffffffffffffffff168152602001908152602001600020549050919050565b6109756110f8565b73ffffffffffffffffffffffffffffffffffffffff16610993610aa7565b73ffffffffffffffffffffffffffffffffffffffff16146109e9576040517f08c379a00000000000000000000000000000000000000000000000000000000081526004016109e0906123f2565b60405180910390fd5b600073ffffffffffffffffffffffffffffffffffffffff1660008054906101000a900473ffffffffffffffffffffffffffffffffffffffff1673ffffffffffffffffffffffffffffffffffffffff167f8be0079c531659141344cd1fd0a4f28419497f9722a3daafe3b4186f6b6457e060405160405180910390a360008060006101000a81548173ffffffffffffffffffffffffffffffffffffffff021916908373ffffffffffffffffffffffffffffffffffffffff160217905550565b60008060009054906101000a900473ffffffffffffffffffffffffffffffffffffffff16905090565b60006001600084815260200190815260200160002060000160008373ffffffffffffffffffffffffffffffffffffffff1673ffffffffffffffffffffffffffffffffffffffff16815260200190815260200160002060009054906101000a900460ff16905092915050565b606060068054610b4a906126fb565b80601f0160208091040260200160405190810160405280929190818152602001828054610b76906126fb565b8015610bc35780601f10610b9857610100808354040283529160200191610bc3565b820191906000526020600020905b815481529060010190602001808311610ba657829003601f168201915b5050505050905090565b610bd56110f8565b73ffffffffffffffffffffffffffffffffffffffff16610bf3610aa7565b73ffffffffffffffffffffffffffffffffffffffff1614610c49576040517f08c379a0000000000000000000000000000000000000000000000000000000008152600401610c40906123f2565b60405180910390fd5b610c737f9f2df0fed2c77648de5860a4cc508cd0818c85b8b8a1ab4ceeef8d981c8956a682611878565b50565b610c7e6110f8565b73ffffffffffffffffffffffffffffffffffffffff16610c9c610aa7565b73ffffffffffffffffffffffffffffffffffffffff1614610cf2576040517f08c379a0000000000000000000000000000000000000000000000000000000008152600401610ce9906123f2565b60405180910390fd5b610cfc8282611886565b5050565b6000801b81565b60008060036000610d166110f8565b73ffffffffffffffffffffffffffffffffffffffff1673ffffffffffffffffffffffffffffffffffffffff16815260200190815260200160002060008573ffffffffffffffffffffffffffffffffffffffff1673ffffffffffffffffffffffffffffffffffffffff16815260200190815260200160002054905082811015610dd3576040517f08c379a0000000000000000000000000000000000000000000000000000000008152600401610dca90612472565b60405180910390fd5b610df0610dde6110f8565b858584610deb91906125df565b611100565b600191505092915050565b6000610e0f610e086110f8565b84846112cb565b6001905092915050565b7f9f2df0fed2c77648de5860a4cc508cd0818c85b8b8a1ab4ceeef8d981c8956a681565b610e468261072d565b610e4f8161154d565b610e598383611641565b505050565b6000600360008473ffffffffffffffffffffffffffffffffffffffff1673ffffffffffffffffffffffffffffffffffffffff16815260200190815260200160002060008373ffffffffffffffffffffffffffffffffffffffff1673ffffffffffffffffffffffffffffffffffffffff16815260200190815260200160002054905092915050565b610eed6110f8565b73ffffffffffffffffffffffffffffffffffffffff16610f0b610aa7565b73ffffffffffffffffffffffffffffffffffffffff1614610f61576040517f08c379a0000000000000000000000000000000000000000000000000000000008152600401610f58906123f2565b60405180910390fd5b600073ffffffffffffffffffffffffffffffffffffffff168173ffffffffffffffffffffffffffffffffffffffff161415610fd1576040517f08c379a0000000000000000000000000000000000000000000000000000000008152600401610fc890612352565b60405180910390fd5b8073ffffffffffffffffffffffffffffffffffffffff1660008054906101000a900473ffffffffffffffffffffffffffffffffffffffff1673ffffffffffffffffffffffffffffffffffffffff167f8be0079c531659141344cd1fd0a4f28419497f9722a3daafe3b4186f6b6457e060405160405180910390a3806000806101000a81548173ffffffffffffffffffffffffffffffffffffffff021916908373ffffffffffffffffffffffffffffffffffffffff16021790555050565b60007f01ffc9a7000000000000000000000000000000000000000000000000000000007bffffffffffffffffffffffffffffffffffffffffffffffffffffffff1916827bffffffffffffffffffffffffffffffffffffffffffffffffffffffff1916149050919050565b600033905090565b600073ffffffffffffffffffffffffffffffffffffffff168373ffffffffffffffffffffffffffffffffffffffff161415611170576040517f08c379a000000000000000000000000000000000000000000000000000000000815260040161116790612452565b60405180910390fd5b600073ffffffffffffffffffffffffffffffffffffffff168273ffffffffffffffffffffffffffffffffffffffff1614156111e0576040517f08c379a00000000000000000000000000000000000000000000000000000000081526004016111d790612372565b60405180910390fd5b80600360008573ffffffffffffffffffffffffffffffffffffffff1673ffffffffffffffffffffffffffffffffffffffff16815260200190815260200160002060008473ffffffffffffffffffffffffffffffffffffffff1673ffffffffffffffffffffffffffffffffffffffff168152602001908152602001600020819055508173ffffffffffffffffffffffffffffffffffffffff168373ffffffffffffffffffffffffffffffffffffffff167f8c5be1e5ebec7d5bd14f71427d1e84f3dd0314c0f7b2291e5b200ac8c7c3b925836040516112be91906124d2565b60405180910390a3505050565b600073ffffffffffffffffffffffffffffffffffffffff168373ffffffffffffffffffffffffffffffffffffffff16141561133b576040517f08c379a000000000000000000000000000000000000000000000000000000000815260040161133290612432565b60405180910390fd5b600073ffffffffffffffffffffffffffffffffffffffff168273ffffffffffffffffffffffffffffffffffffffff1614156113ab576040517f08c379a00000000000000000000000000000000000000000000000000000000081526004016113a290612312565b60405180910390fd5b6113b6838383611a5c565b6000600260008573ffffffffffffffffffffffffffffffffffffffff1673ffffffffffffffffffffffffffffffffffffffff1681526020019081526020016000205490508181101561143d576040517f08c379a0000000000000000000000000000000000000000000000000000000008152600401611434906123b2565b60405180910390fd5b818161144991906125df565b600260008673ffffffffffffffffffffffffffffffffffffffff1673ffffffffffffffffffffffffffffffffffffffff1681526020019081526020016000208190555081600260008573ffffffffffffffffffffffffffffffffffffffff1673ffffffffffffffffffffffffffffffffffffffff16815260200190815260200160002060008282546114db919061252f565b925050819055508273ffffffffffffffffffffffffffffffffffffffff168473ffffffffffffffffffffffffffffffffffffffff167fddf252ad1be2c89b69c2b068fc378daa952ba7f163c4a11628f55a4df523b3ef8460405161153f91906124d2565b60405180910390a350505050565b61155e816115596110f8565b611a61565b50565b61156b8282610ad0565b61163d57600180600084815260200190815260200160002060000160008373ffffffffffffffffffffffffffffffffffffffff1673ffffffffffffffffffffffffffffffffffffffff16815260200190815260200160002060006101000a81548160ff0219169083151502179055506115e26110f8565b73ffffffffffffffffffffffffffffffffffffffff168173ffffffffffffffffffffffffffffffffffffffff16837f2f8788117e7eff1d82e926ec794901d17c78024a50270940304540a733656f0d60405160405180910390a45b5050565b61164b8282610ad0565b1561171f5760006001600084815260200190815260200160002060000160008373ffffffffffffffffffffffffffffffffffffffff1673ffffffffffffffffffffffffffffffffffffffff16815260200190815260200160002060006101000a81548160ff0219169083151502179055506116c46110f8565b73ffffffffffffffffffffffffffffffffffffffff168173ffffffffffffffffffffffffffffffffffffffff16837ff6391f5c32d9c69d2a47ea670b442974b53935d1edc7fd64eb21e047a839171b60405160405180910390a45b5050565b600073ffffffffffffffffffffffffffffffffffffffff168273ffffffffffffffffffffffffffffffffffffffff161415611793576040517f08c379a000000000000000000000000000000000000000000000000000000000815260040161178a906124b2565b60405180910390fd5b61179f60008383611a5c565b80600460008282546117b1919061252f565b9250508190555080600260008473ffffffffffffffffffffffffffffffffffffffff1673ffffffffffffffffffffffffffffffffffffffff1681526020019081526020016000206000828254611807919061252f565b925050819055508173ffffffffffffffffffffffffffffffffffffffff16600073ffffffffffffffffffffffffffffffffffffffff167fddf252ad1be2c89b69c2b068fc378daa952ba7f163c4a11628f55a4df523b3ef8360405161186c91906124d2565b60405180910390a35050565b6118828282611561565b5050565b600073ffffffffffffffffffffffffffffffffffffffff168273ffffffffffffffffffffffffffffffffffffffff1614156118f6576040517f08c379a00000000000000000000000000000000000000000000000000000000081526004016118ed90612412565b60405180910390fd5b61190282600083611a5c565b6000600260008473ffffffffffffffffffffffffffffffffffffffff1673ffffffffffffffffffffffffffffffffffffffff16815260200190815260200160002054905081811015611989576040517f08c379a000000000000000000000000000000000000000000000000000000000815260040161198090612332565b60405180910390fd5b818161199591906125df565b600260008573ffffffffffffffffffffffffffffffffffffffff1673ffffffffffffffffffffffffffffffffffffffff1681526020019081526020016000208190555081600460008282546119ea91906125df565b92505081905550600073ffffffffffffffffffffffffffffffffffffffff168373ffffffffffffffffffffffffffffffffffffffff167fddf252ad1be2c89b69c2b068fc378daa952ba7f163c4a11628f55a4df523b3ef84604051611a4f91906124d2565b60405180910390a3505050565b505050565b611a6b8282610ad0565b611ae257611a7881611ae6565b611a868360001c6020611b13565b604051602001611a97929190612245565b6040516020818303038152906040526040517f08c379a0000000000000000000000000000000000000000000000000000000008152600401611ad991906122d0565b60405180910390fd5b5050565b6060611b0c8273ffffffffffffffffffffffffffffffffffffffff16601460ff16611b13565b9050919050565b606060006002836002611b269190612585565b611b30919061252f565b67ffffffffffffffff811115611b4957611b486127ba565b5b6040519080825280601f01601f191660200182016040528015611b7b5781602001600182028036833780820191505090505b5090507f300000000000000000000000000000000000000000000000000000000000000081600081518110611bb357611bb261278b565b5b60200101907effffffffffffffffffffffffffffffffffffffffffffffffffffffffffffff1916908160001a9053507f780000000000000000000000000000000000000000000000000000000000000081600181518110611c1757611c1661278b565b5b60200101907effffffffffffffffffffffffffffffffffffffffffffffffffffffffffffff1916908160001a90535060006001846002611c579190612585565b611c61919061252f565b90505b6001811115611d01577f3031323334353637383961626364656600000000000000000000000000000000600f861660108110611ca357611ca261278b565b5b1a60f81b828281518110611cba57611cb961278b565b5b60200101907effffffffffffffffffffffffffffffffffffffffffffffffffffffffffffff1916908160001a905350600485901c945080611cfa906126d1565b9050611c64565b5060008414611d45576040517f08c379a0000000000000000000000000000000000000000000000000000000008152600401611d3c906122f2565b60405180910390fd5b8091505092915050565b600081359050611d5e81612c80565b92915050565b600081359050611d7381612c97565b92915050565b600081359050611d8881612cae565b92915050565b600081359050611d9d81612cc5565b92915050565b600060208284031215611db957611db86127e9565b5b6000611dc784828501611d4f565b91505092915050565b60008060408385031215611de757611de66127e9565b5b6000611df585828601611d4f565b9250506020611e0685828601611d4f565b9150509250929050565b600080600060608486031215611e2957611e286127e9565b5b6000611e3786828701611d4f565b9350506020611e4886828701611d4f565b9250506040611e5986828701611d8e565b9150509250925092565b60008060408385031215611e7a57611e796127e9565b5b6000611e8885828601611d4f565b9250506020611e9985828601611d8e565b9150509250929050565b600060208284031215611eb957611eb86127e9565b5b6000611ec784828501611d64565b91505092915050565b60008060408385031215611ee757611ee66127e9565b5b6000611ef585828601611d64565b9250506020611f0685828601611d4f565b9150509250929050565b600060208284031215611f2657611f256127e9565b5b6000611f3484828501611d79565b91505092915050565b611f4681612613565b82525050565b611f5581612625565b82525050565b611f6481612631565b82525050565b6000611f7582612508565b611f7f8185612513565b9350611f8f81856020860161269e565b611f98816127ee565b840191505092915050565b6000611fae82612508565b611fb88185612524565b9350611fc881856020860161269e565b80840191505092915050565b6000611fe1602083612513565b9150611fec826127ff565b602082019050919050565b6000612004602383612513565b915061200f82612828565b604082019050919050565b6000612027602283612513565b915061203282612877565b604082019050919050565b600061204a602683612513565b9150612055826128c6565b604082019050919050565b600061206d602283612513565b915061207882612915565b604082019050919050565b6000612090602883612513565b915061209b82612964565b604082019050919050565b60006120b3602683612513565b91506120be826129b3565b604082019050919050565b60006120d6602883612513565b91506120e182612a02565b604082019050919050565b60006120f9602083612513565b915061210482612a51565b602082019050919050565b600061211c602183612513565b915061212782612a7a565b604082019050919050565b600061213f602583612513565b915061214a82612ac9565b604082019050919050565b6000612162602483612513565b915061216d82612b18565b604082019050919050565b6000612185601783612524565b915061219082612b67565b601782019050919050565b60006121a8602583612513565b91506121b382612b90565b604082019050919050565b60006121cb601183612524565b91506121d682612bdf565b601182019050919050565b60006121ee602f83612513565b91506121f982612c08565b604082019050919050565b6000612211601f83612513565b915061221c82612c57565b602082019050919050565b61223081612687565b82525050565b61223f81612691565b82525050565b600061225082612178565b915061225c8285611fa3565b9150612267826121be565b91506122738284611fa3565b91508190509392505050565b60006020820190506122946000830184611f3d565b92915050565b60006020820190506122af6000830184611f4c565b92915050565b60006020820190506122ca6000830184611f5b565b92915050565b600060208201905081810360008301526122ea8184611f6a565b905092915050565b6000602082019050818103600083015261230b81611fd4565b9050919050565b6000602082019050818103600083015261232b81611ff7565b9050919050565b6000602082019050818103600083015261234b8161201a565b9050919050565b6000602082019050818103600083015261236b8161203d565b9050919050565b6000602082019050818103600083015261238b81612060565b9050919050565b600060208201905081810360008301526123ab81612083565b9050919050565b600060208201905081810360008301526123cb816120a6565b9050919050565b600060208201905081810360008301526123eb816120c9565b9050919050565b6000602082019050818103600083015261240b816120ec565b9050919050565b6000602082019050818103600083015261242b8161210f565b9050919050565b6000602082019050818103600083015261244b81612132565b9050919050565b6000602082019050818103600083015261246b81612155565b9050919050565b6000602082019050818103600083015261248b8161219b565b9050919050565b600060208201905081810360008301526124ab816121e1565b9050919050565b600060208201905081810360008301526124cb81612204565b9050919050565b60006020820190506124e76000830184612227565b92915050565b60006020820190506125026000830184612236565b92915050565b600081519050919050565b600082825260208201905092915050565b600081905092915050565b600061253a82612687565b915061254583612687565b9250827fffffffffffffffffffffffffffffffffffffffffffffffffffffffffffffffff0382111561257a5761257961272d565b5b828201905092915050565b600061259082612687565b915061259b83612687565b9250817fffffffffffffffffffffffffffffffffffffffffffffffffffffffffffffffff04831182151516156125d4576125d361272d565b5b828202905092915050565b60006125ea82612687565b91506125f583612687565b9250828210156126085761260761272d565b5b828203905092915050565b600061261e82612667565b9050919050565b60008115159050919050565b6000819050919050565b60007fffffffff0000000000000000000000000000000000000000000000000000000082169050919050565b600073ffffffffffffffffffffffffffffffffffffffff82169050919050565b6000819050919050565b600060ff82169050919050565b60005b838110156126bc5780820151818401526020810190506126a1565b838111156126cb576000848401525b50505050565b60006126dc82612687565b915060008214156126f0576126ef61272d565b5b600182039050919050565b6000600282049050600182168061271357607f821691505b602082108114156127275761272661275c565b5b50919050565b7f4e487b7100000000000000000000000000000000000000000000000000000000600052601160045260246000fd5b7f4e487b7100000000000000000000000000000000000000000000000000000000600052602260045260246000fd5b7f4e487b7100000000000000000000000000000000000000000000000000000000600052603260045260246000fd5b7f4e487b7100000000000000000000000000000000000000000000000000000000600052604160045260246000fd5b600080fd5b6000601f19601f8301169050919050565b7f537472696e67733a20686578206c656e67746820696e73756666696369656e74600082015250565b7f45524332303a207472616e7366657220746f20746865207a65726f206164647260008201527f6573730000000000000000000000000000000000000000000000000000000000602082015250565b7f45524332303a206275726e20616d6f756e7420657863656564732062616c616e60008201527f6365000000000000000000000000000000000000000000000000000000000000602082015250565b7f4f776e61626c653a206e6577206f776e657220697320746865207a65726f206160008201527f6464726573730000000000000000000000000000000000000000000000000000602082015250565b7f45524332303a20617070726f766520746f20746865207a65726f20616464726560008201527f7373000000000000000000000000000000000000000000000000000000000000602082015250565b7f4d696e74657220526f6c653a2043616c6c657220537570706f73656420546f2060008201527f4265204d696e6574000000000000000000000000000000000000000000000000602082015250565b7f45524332303a207472616e7366657220616d6f756e742065786365656473206260008201527f616c616e63650000000000000000000000000000000000000000000000000000602082015250565b7f45524332303a207472616e7366657220616d6f756e742065786365656473206160008201527f6c6c6f77616e6365000000000000000000000000000000000000000000000000602082015250565b7f4f776e61626c653a2063616c6c6572206973206e6f7420746865206f776e6572600082015250565b7f45524332303a206275726e2066726f6d20746865207a65726f2061646472657360008201527f7300000000000000000000000000000000000000000000000000000000000000602082015250565b7f45524332303a207472616e736665722066726f6d20746865207a65726f20616460008201527f6472657373000000000000000000000000000000000000000000000000000000602082015250565b7f45524332303a20617070726f76652066726f6d20746865207a65726f2061646460008201527f7265737300000000000000000000000000000000000000000000000000000000602082015250565b7f416363657373436f6e74726f6c3a206163636f756e7420000000000000000000600082015250565b7f45524332303a2064656372656173656420616c6c6f77616e63652062656c6f7760008201527f207a65726f000000000000000000000000000000000000000000000000000000602082015250565b7f206973206d697373696e6720726f6c6520000000000000000000000000000000600082015250565b7f416363657373436f6e74726f6c3a2063616e206f6e6c792072656e6f756e636560008201527f20726f6c657320666f722073656c660000000000000000000000000000000000602082015250565b7f45524332303a206d696e7420746f20746865207a65726f206164647265737300600082015250565b612c8981612613565b8114612c9457600080fd5b50565b612ca081612631565b8114612cab57600080fd5b50565b612cb78161263b565b8114612cc257600080fd5b50565b612cce81612687565b8114612cd957600080fd5b5056fea2646970667358221220bab3adc48196fbd7f6e6d556c2b15c290faa3edfed7f356a1b47b4b2a56e17ae64736f6c63430008070033",
					"opcodes": "PUSH1 0x80 PUSH1 0x40 MSTORE CALLVALUE DUP1 ISZERO PUSH3 0x11 JUMPI PUSH1 0x0 DUP1 REVERT JUMPDEST POP PUSH1 0x0 PUSH3 0x24 PUSH3 0x21F PUSH1 0x20 SHL PUSH1 0x20 SHR JUMP JUMPDEST SWAP1 POP DUP1 PUSH1 0x0 DUP1 PUSH2 0x100 EXP DUP2 SLOAD DUP2 PUSH20 0xFFFFFFFFFFFFFFFFFFFFFFFFFFFFFFFFFFFFFFFF MUL NOT AND SWAP1 DUP4 PUSH20 0xFFFFFFFFFFFFFFFFFFFFFFFFFFFFFFFFFFFFFFFF AND MUL OR SWAP1 SSTORE POP DUP1 PUSH20 0xFFFFFFFFFFFFFFFFFFFFFFFFFFFFFFFFFFFFFFFF AND PUSH1 0x0 PUSH20 0xFFFFFFFFFFFFFFFFFFFFFFFFFFFFFFFFFFFFFFFF AND PUSH32 0x8BE0079C531659141344CD1FD0A4F28419497F9722A3DAAFE3B4186F6B6457E0 PUSH1 0x40 MLOAD PUSH1 0x40 MLOAD DUP1 SWAP2 SUB SWAP1 LOG3 POP PUSH1 0x40 MLOAD DUP1 PUSH1 0x40 ADD PUSH1 0x40 MSTORE DUP1 PUSH1 0xD DUP2 MSTORE PUSH1 0x20 ADD PUSH32 0x50484F494E49585F544F4B454E00000000000000000000000000000000000000 DUP2 MSTORE POP PUSH1 0x5 SWAP1 DUP1 MLOAD SWAP1 PUSH1 0x20 ADD SWAP1 PUSH3 0x10F SWAP3 SWAP2 SWAP1 PUSH3 0x3A2 JUMP JUMPDEST POP PUSH1 0x40 MLOAD DUP1 PUSH1 0x40 ADD PUSH1 0x40 MSTORE DUP1 PUSH1 0x7 DUP2 MSTORE PUSH1 0x20 ADD PUSH32 0x50484F494E495800000000000000000000000000000000000000000000000000 DUP2 MSTORE POP PUSH1 0x6 SWAP1 DUP1 MLOAD SWAP1 PUSH1 0x20 ADD SWAP1 PUSH3 0x15D SWAP3 SWAP2 SWAP1 PUSH3 0x3A2 JUMP JUMPDEST POP PUSH3 0x16E PUSH3 0x227 PUSH1 0x20 SHL PUSH1 0x20 SHR JUMP JUMPDEST PUSH1 0xA PUSH3 0x17C SWAP2 SWAP1 PUSH3 0x4AD JUMP JUMPDEST PUSH3 0xF4240 PUSH3 0x18C SWAP2 SWAP1 PUSH3 0x5EA JUMP JUMPDEST PUSH1 0x4 DUP2 SWAP1 SSTORE POP PUSH1 0x4 SLOAD PUSH1 0x2 PUSH1 0x0 PUSH3 0x1A9 PUSH3 0x21F PUSH1 0x20 SHL PUSH1 0x20 SHR JUMP JUMPDEST PUSH20 0xFFFFFFFFFFFFFFFFFFFFFFFFFFFFFFFFFFFFFFFF AND PUSH20 0xFFFFFFFFFFFFFFFFFFFFFFFFFFFFFFFFFFFFFFFF AND DUP2 MSTORE PUSH1 0x20 ADD SWAP1 DUP2 MSTORE PUSH1 0x20 ADD PUSH1 0x0 KECCAK256 DUP2 SWAP1 SSTORE POP PUSH3 0x219 PUSH32 0x9F2DF0FED2C77648DE5860A4CC508CD0818C85B8B8A1AB4CEEEF8D981C8956A6 CALLER PUSH3 0x230 PUSH1 0x20 SHL PUSH1 0x20 SHR JUMP JUMPDEST PUSH3 0x703 JUMP JUMPDEST PUSH1 0x0 CALLER SWAP1 POP SWAP1 JUMP JUMPDEST PUSH1 0x0 PUSH1 0x12 SWAP1 POP SWAP1 JUMP JUMPDEST PUSH3 0x242 DUP3 DUP3 PUSH3 0x246 PUSH1 0x20 SHL PUSH1 0x20 SHR JUMP JUMPDEST POP POP JUMP JUMPDEST PUSH3 0x258 DUP3 DUP3 PUSH3 0x337 PUSH1 0x20 SHL PUSH1 0x20 SHR JUMP JUMPDEST PUSH3 0x333 JUMPI PUSH1 0x1 DUP1 PUSH1 0x0 DUP5 DUP2 MSTORE PUSH1 0x20 ADD SWAP1 DUP2 MSTORE PUSH1 0x20 ADD PUSH1 0x0 KECCAK256 PUSH1 0x0 ADD PUSH1 0x0 DUP4 PUSH20 0xFFFFFFFFFFFFFFFFFFFFFFFFFFFFFFFFFFFFFFFF AND PUSH20 0xFFFFFFFFFFFFFFFFFFFFFFFFFFFFFFFFFFFFFFFF AND DUP2 MSTORE PUSH1 0x20 ADD SWAP1 DUP2 MSTORE PUSH1 0x20 ADD PUSH1 0x0 KECCAK256 PUSH1 0x0 PUSH2 0x100 EXP DUP2 SLOAD DUP2 PUSH1 0xFF MUL NOT AND SWAP1 DUP4 ISZERO ISZERO MUL OR SWAP1 SSTORE POP PUSH3 0x2D8 PUSH3 0x21F PUSH1 0x20 SHL PUSH1 0x20 SHR JUMP JUMPDEST PUSH20 0xFFFFFFFFFFFFFFFFFFFFFFFFFFFFFFFFFFFFFFFF AND DUP2 PUSH20 0xFFFFFFFFFFFFFFFFFFFFFFFFFFFFFFFFFFFFFFFF AND DUP4 PUSH32 0x2F8788117E7EFF1D82E926EC794901D17C78024A50270940304540A733656F0D PUSH1 0x40 MLOAD PUSH1 0x40 MLOAD DUP1 SWAP2 SUB SWAP1 LOG4 JUMPDEST POP POP JUMP JUMPDEST PUSH1 0x0 PUSH1 0x1 PUSH1 0x0 DUP5 DUP2 MSTORE PUSH1 0x20 ADD SWAP1 DUP2 MSTORE PUSH1 0x20 ADD PUSH1 0x0 KECCAK256 PUSH1 0x0 ADD PUSH1 0x0 DUP4 PUSH20 0xFFFFFFFFFFFFFFFFFFFFFFFFFFFFFFFFFFFFFFFF AND PUSH20 0xFFFFFFFFFFFFFFFFFFFFFFFFFFFFFFFFFFFFFFFF AND DUP2 MSTORE PUSH1 0x20 ADD SWAP1 DUP2 MSTORE PUSH1 0x20 ADD PUSH1 0x0 KECCAK256 PUSH1 0x0 SWAP1 SLOAD SWAP1 PUSH2 0x100 EXP SWAP1 DIV PUSH1 0xFF AND SWAP1 POP SWAP3 SWAP2 POP POP JUMP JUMPDEST DUP3 DUP1 SLOAD PUSH3 0x3B0 SWAP1 PUSH3 0x662 JUMP JUMPDEST SWAP1 PUSH1 0x0 MSTORE PUSH1 0x20 PUSH1 0x0 KECCAK256 SWAP1 PUSH1 0x1F ADD PUSH1 0x20 SWAP1 DIV DUP2 ADD SWAP3 DUP3 PUSH3 0x3D4 JUMPI PUSH1 0x0 DUP6 SSTORE PUSH3 0x420 JUMP JUMPDEST DUP3 PUSH1 0x1F LT PUSH3 0x3EF JUMPI DUP1 MLOAD PUSH1 0xFF NOT AND DUP4 DUP1 ADD OR DUP6 SSTORE PUSH3 0x420 JUMP JUMPDEST DUP3 DUP1 ADD PUSH1 0x1 ADD DUP6 SSTORE DUP3 ISZERO PUSH3 0x420 JUMPI SWAP2 DUP3 ADD JUMPDEST DUP3 DUP2 GT ISZERO PUSH3 0x41F JUMPI DUP3 MLOAD DUP3 SSTORE SWAP2 PUSH1 0x20 ADD SWAP2 SWAP1 PUSH1 0x1 ADD SWAP1 PUSH3 0x402 JUMP JUMPDEST JUMPDEST POP SWAP1 POP PUSH3 0x42F SWAP2 SWAP1 PUSH3 0x433 JUMP JUMPDEST POP SWAP1 JUMP JUMPDEST JUMPDEST DUP1 DUP3 GT ISZERO PUSH3 0x44E JUMPI PUSH1 0x0 DUP2 PUSH1 0x0 SWAP1 SSTORE POP PUSH1 0x1 ADD PUSH3 0x434 JUMP JUMPDEST POP SWAP1 JUMP JUMPDEST PUSH1 0x0 DUP1 DUP3 SWAP2 POP DUP4 SWAP1 POP JUMPDEST PUSH1 0x1 DUP6 GT ISZERO PUSH3 0x4A4 JUMPI DUP1 DUP7 DIV DUP2 GT ISZERO PUSH3 0x47C JUMPI PUSH3 0x47B PUSH3 0x698 JUMP JUMPDEST JUMPDEST PUSH1 0x1 DUP6 AND ISZERO PUSH3 0x48C JUMPI DUP1 DUP3 MUL SWAP2 POP JUMPDEST DUP1 DUP2 MUL SWAP1 POP PUSH3 0x49C DUP6 PUSH3 0x6F6 JUMP JUMPDEST SWAP5 POP PUSH3 0x45C JUMP JUMPDEST SWAP5 POP SWAP5 SWAP3 POP POP POP JUMP JUMPDEST PUSH1 0x0 PUSH3 0x4BA DUP3 PUSH3 0x64B JUMP JUMPDEST SWAP2 POP PUSH3 0x4C7 DUP4 PUSH3 0x655 JUMP JUMPDEST SWAP3 POP PUSH3 0x4F6 PUSH32 0xFFFFFFFFFFFFFFFFFFFFFFFFFFFFFFFFFFFFFFFFFFFFFFFFFFFFFFFFFFFFFFFF DUP5 DUP5 PUSH3 0x4FE JUMP JUMPDEST SWAP1 POP SWAP3 SWAP2 POP POP JUMP JUMPDEST PUSH1 0x0 DUP3 PUSH3 0x510 JUMPI PUSH1 0x1 SWAP1 POP PUSH3 0x5E3 JUMP JUMPDEST DUP2 PUSH3 0x520 JUMPI PUSH1 0x0 SWAP1 POP PUSH3 0x5E3 JUMP JUMPDEST DUP2 PUSH1 0x1 DUP2 EQ PUSH3 0x539 JUMPI PUSH1 0x2 DUP2 EQ PUSH3 0x544 JUMPI PUSH3 0x57A JUMP JUMPDEST PUSH1 0x1 SWAP2 POP POP PUSH3 0x5E3 JUMP JUMPDEST PUSH1 0xFF DUP5 GT ISZERO PUSH3 0x559 JUMPI PUSH3 0x558 PUSH3 0x698 JUMP JUMPDEST JUMPDEST DUP4 PUSH1 0x2 EXP SWAP2 POP DUP5 DUP3 GT ISZERO PUSH3 0x573 JUMPI PUSH3 0x572 PUSH3 0x698 JUMP JUMPDEST JUMPDEST POP PUSH3 0x5E3 JUMP JUMPDEST POP PUSH1 0x20 DUP4 LT PUSH2 0x133 DUP4 LT AND PUSH1 0x4E DUP5 LT PUSH1 0xB DUP5 LT AND OR ISZERO PUSH3 0x5B4 JUMPI DUP3 DUP3 EXP SWAP1 POP DUP4 DUP2 GT ISZERO PUSH3 0x5AE JUMPI PUSH3 0x5AD PUSH3 0x698 JUMP JUMPDEST JUMPDEST PUSH3 0x5E3 JUMP JUMPDEST PUSH3 0x5C3 DUP5 DUP5 DUP5 PUSH1 0x1 PUSH3 0x452 JUMP JUMPDEST SWAP3 POP SWAP1 POP DUP2 DUP5 DIV DUP2 GT ISZERO PUSH3 0x5DD JUMPI PUSH3 0x5DC PUSH3 0x698 JUMP JUMPDEST JUMPDEST DUP2 DUP2 MUL SWAP1 POP JUMPDEST SWAP4 SWAP3 POP POP POP JUMP JUMPDEST PUSH1 0x0 PUSH3 0x5F7 DUP3 PUSH3 0x64B JUMP JUMPDEST SWAP2 POP PUSH3 0x604 DUP4 PUSH3 0x64B JUMP JUMPDEST SWAP3 POP DUP2 PUSH32 0xFFFFFFFFFFFFFFFFFFFFFFFFFFFFFFFFFFFFFFFFFFFFFFFFFFFFFFFFFFFFFFFF DIV DUP4 GT DUP3 ISZERO ISZERO AND ISZERO PUSH3 0x640 JUMPI PUSH3 0x63F PUSH3 0x698 JUMP JUMPDEST JUMPDEST DUP3 DUP3 MUL SWAP1 POP SWAP3 SWAP2 POP POP JUMP JUMPDEST PUSH1 0x0 DUP2 SWAP1 POP SWAP2 SWAP1 POP JUMP JUMPDEST PUSH1 0x0 PUSH1 0xFF DUP3 AND SWAP1 POP SWAP2 SWAP1 POP JUMP JUMPDEST PUSH1 0x0 PUSH1 0x2 DUP3 DIV SWAP1 POP PUSH1 0x1 DUP3 AND DUP1 PUSH3 0x67B JUMPI PUSH1 0x7F DUP3 AND SWAP2 POP JUMPDEST PUSH1 0x20 DUP3 LT DUP2 EQ ISZERO PUSH3 0x692 JUMPI PUSH3 0x691 PUSH3 0x6C7 JUMP JUMPDEST JUMPDEST POP SWAP2 SWAP1 POP JUMP JUMPDEST PUSH32 0x4E487B7100000000000000000000000000000000000000000000000000000000 PUSH1 0x0 MSTORE PUSH1 0x11 PUSH1 0x4 MSTORE PUSH1 0x24 PUSH1 0x0 REVERT JUMPDEST PUSH32 0x4E487B7100000000000000000000000000000000000000000000000000000000 PUSH1 0x0 MSTORE PUSH1 0x22 PUSH1 0x4 MSTORE PUSH1 0x24 PUSH1 0x0 REVERT JUMPDEST PUSH1 0x0 DUP2 PUSH1 0x1 SHR SWAP1 POP SWAP2 SWAP1 POP JUMP JUMPDEST PUSH2 0x2D12 DUP1 PUSH3 0x713 PUSH1 0x0 CODECOPY PUSH1 0x0 RETURN INVALID PUSH1 0x80 PUSH1 0x40 MSTORE CALLVALUE DUP1 ISZERO PUSH2 0x10 JUMPI PUSH1 0x0 DUP1 REVERT JUMPDEST POP PUSH1 0x4 CALLDATASIZE LT PUSH2 0x173 JUMPI PUSH1 0x0 CALLDATALOAD PUSH1 0xE0 SHR DUP1 PUSH4 0x715018A6 GT PUSH2 0xDE JUMPI DUP1 PUSH4 0xA217FDDF GT PUSH2 0x97 JUMPI DUP1 PUSH4 0xD5391393 GT PUSH2 0x71 JUMPI DUP1 PUSH4 0xD5391393 EQ PUSH2 0x472 JUMPI DUP1 PUSH4 0xD547741F EQ PUSH2 0x490 JUMPI DUP1 PUSH4 0xDD62ED3E EQ PUSH2 0x4AC JUMPI DUP1 PUSH4 0xF2FDE38B EQ PUSH2 0x4DC JUMPI PUSH2 0x173 JUMP JUMPDEST DUP1 PUSH4 0xA217FDDF EQ PUSH2 0x3F4 JUMPI DUP1 PUSH4 0xA457C2D7 EQ PUSH2 0x412 JUMPI DUP1 PUSH4 0xA9059CBB EQ PUSH2 0x442 JUMPI PUSH2 0x173 JUMP JUMPDEST DUP1 PUSH4 0x715018A6 EQ PUSH2 0x346 JUMPI DUP1 PUSH4 0x8DA5CB5B EQ PUSH2 0x350 JUMPI DUP1 PUSH4 0x91D14854 EQ PUSH2 0x36E JUMPI DUP1 PUSH4 0x95D89B41 EQ PUSH2 0x39E JUMPI DUP1 PUSH4 0x983B2D56 EQ PUSH2 0x3BC JUMPI DUP1 PUSH4 0x9DC29FAC EQ PUSH2 0x3D8 JUMPI PUSH2 0x173 JUMP JUMPDEST DUP1 PUSH4 0x2F2FF15D GT PUSH2 0x130 JUMPI DUP1 PUSH4 0x2F2FF15D EQ PUSH2 0x274 JUMPI DUP1 PUSH4 0x313CE567 EQ PUSH2 0x290 JUMPI DUP1 PUSH4 0x36568ABE EQ PUSH2 0x2AE JUMPI DUP1 PUSH4 0x39509351 EQ PUSH2 0x2CA JUMPI DUP1 PUSH4 0x40C10F19 EQ PUSH2 0x2FA JUMPI DUP1 PUSH4 0x70A08231 EQ PUSH2 0x316 JUMPI PUSH2 0x173 JUMP JUMPDEST DUP1 PUSH4 0x1FFC9A7 EQ PUSH2 0x178 JUMPI DUP1 PUSH4 0x6FDDE03 EQ PUSH2 0x1A8 JUMPI DUP1 PUSH4 0x95EA7B3 EQ PUSH2 0x1C6 JUMPI DUP1 PUSH4 0x18160DDD EQ PUSH2 0x1F6 JUMPI DUP1 PUSH4 0x23B872DD EQ PUSH2 0x214 JUMPI DUP1 PUSH4 0x248A9CA3 EQ PUSH2 0x244 JUMPI JUMPDEST PUSH1 0x0 DUP1 REVERT JUMPDEST PUSH2 0x192 PUSH1 0x4 DUP1 CALLDATASIZE SUB DUP2 ADD SWAP1 PUSH2 0x18D SWAP2 SWAP1 PUSH2 0x1F10 JUMP JUMPDEST PUSH2 0x4F8 JUMP JUMPDEST PUSH1 0x40 MLOAD PUSH2 0x19F SWAP2 SWAP1 PUSH2 0x229A JUMP JUMPDEST PUSH1 0x40 MLOAD DUP1 SWAP2 SUB SWAP1 RETURN JUMPDEST PUSH2 0x1B0 PUSH2 0x572 JUMP JUMPDEST PUSH1 0x40 MLOAD PUSH2 0x1BD SWAP2 SWAP1 PUSH2 0x22D0 JUMP JUMPDEST PUSH1 0x40 MLOAD DUP1 SWAP2 SUB SWAP1 RETURN JUMPDEST PUSH2 0x1E0 PUSH1 0x4 DUP1 CALLDATASIZE SUB DUP2 ADD SWAP1 PUSH2 0x1DB SWAP2 SWAP1 PUSH2 0x1E63 JUMP JUMPDEST PUSH2 0x604 JUMP JUMPDEST PUSH1 0x40 MLOAD PUSH2 0x1ED SWAP2 SWAP1 PUSH2 0x229A JUMP JUMPDEST PUSH1 0x40 MLOAD DUP1 SWAP2 SUB SWAP1 RETURN JUMPDEST PUSH2 0x1FE PUSH2 0x622 JUMP JUMPDEST PUSH1 0x40 MLOAD PUSH2 0x20B SWAP2 SWAP1 PUSH2 0x24D2 JUMP JUMPDEST PUSH1 0x40 MLOAD DUP1 SWAP2 SUB SWAP1 RETURN JUMPDEST PUSH2 0x22E PUSH1 0x4 DUP1 CALLDATASIZE SUB DUP2 ADD SWAP1 PUSH2 0x229 SWAP2 SWAP1 PUSH2 0x1E10 JUMP JUMPDEST PUSH2 0x62C JUMP JUMPDEST PUSH1 0x40 MLOAD PUSH2 0x23B SWAP2 SWAP1 PUSH2 0x229A JUMP JUMPDEST PUSH1 0x40 MLOAD DUP1 SWAP2 SUB SWAP1 RETURN JUMPDEST PUSH2 0x25E PUSH1 0x4 DUP1 CALLDATASIZE SUB DUP2 ADD SWAP1 PUSH2 0x259 SWAP2 SWAP1 PUSH2 0x1EA3 JUMP JUMPDEST PUSH2 0x72D JUMP JUMPDEST PUSH1 0x40 MLOAD PUSH2 0x26B SWAP2 SWAP1 PUSH2 0x22B5 JUMP JUMPDEST PUSH1 0x40 MLOAD DUP1 SWAP2 SUB SWAP1 RETURN JUMPDEST PUSH2 0x28E PUSH1 0x4 DUP1 CALLDATASIZE SUB DUP2 ADD SWAP1 PUSH2 0x289 SWAP2 SWAP1 PUSH2 0x1ED0 JUMP JUMPDEST PUSH2 0x74D JUMP JUMPDEST STOP JUMPDEST PUSH2 0x298 PUSH2 0x76E JUMP JUMPDEST PUSH1 0x40 MLOAD PUSH2 0x2A5 SWAP2 SWAP1 PUSH2 0x24ED JUMP JUMPDEST PUSH1 0x40 MLOAD DUP1 SWAP2 SUB SWAP1 RETURN JUMPDEST PUSH2 0x2C8 PUSH1 0x4 DUP1 CALLDATASIZE SUB DUP2 ADD SWAP1 PUSH2 0x2C3 SWAP2 SWAP1 PUSH2 0x1ED0 JUMP JUMPDEST PUSH2 0x777 JUMP JUMPDEST STOP JUMPDEST PUSH2 0x2E4 PUSH1 0x4 DUP1 CALLDATASIZE SUB DUP2 ADD SWAP1 PUSH2 0x2DF SWAP2 SWAP1 PUSH2 0x1E63 JUMP JUMPDEST PUSH2 0x7FA JUMP JUMPDEST PUSH1 0x40 MLOAD PUSH2 0x2F1 SWAP2 SWAP1 PUSH2 0x229A JUMP JUMPDEST PUSH1 0x40 MLOAD DUP1 SWAP2 SUB SWAP1 RETURN JUMPDEST PUSH2 0x314 PUSH1 0x4 DUP1 CALLDATASIZE SUB DUP2 ADD SWAP1 PUSH2 0x30F SWAP2 SWAP1 PUSH2 0x1E63 JUMP JUMPDEST PUSH2 0x8A6 JUMP JUMPDEST STOP JUMPDEST PUSH2 0x330 PUSH1 0x4 DUP1 CALLDATASIZE SUB DUP2 ADD SWAP1 PUSH2 0x32B SWAP2 SWAP1 PUSH2 0x1DA3 JUMP JUMPDEST PUSH2 0x924 JUMP JUMPDEST PUSH1 0x40 MLOAD PUSH2 0x33D SWAP2 SWAP1 PUSH2 0x24D2 JUMP JUMPDEST PUSH1 0x40 MLOAD DUP1 SWAP2 SUB SWAP1 RETURN JUMPDEST PUSH2 0x34E PUSH2 0x96D JUMP JUMPDEST STOP JUMPDEST PUSH2 0x358 PUSH2 0xAA7 JUMP JUMPDEST PUSH1 0x40 MLOAD PUSH2 0x365 SWAP2 SWAP1 PUSH2 0x227F JUMP JUMPDEST PUSH1 0x40 MLOAD DUP1 SWAP2 SUB SWAP1 RETURN JUMPDEST PUSH2 0x388 PUSH1 0x4 DUP1 CALLDATASIZE SUB DUP2 ADD SWAP1 PUSH2 0x383 SWAP2 SWAP1 PUSH2 0x1ED0 JUMP JUMPDEST PUSH2 0xAD0 JUMP JUMPDEST PUSH1 0x40 MLOAD PUSH2 0x395 SWAP2 SWAP1 PUSH2 0x229A JUMP JUMPDEST PUSH1 0x40 MLOAD DUP1 SWAP2 SUB SWAP1 RETURN JUMPDEST PUSH2 0x3A6 PUSH2 0xB3B JUMP JUMPDEST PUSH1 0x40 MLOAD PUSH2 0x3B3 SWAP2 SWAP1 PUSH2 0x22D0 JUMP JUMPDEST PUSH1 0x40 MLOAD DUP1 SWAP2 SUB SWAP1 RETURN JUMPDEST PUSH2 0x3D6 PUSH1 0x4 DUP1 CALLDATASIZE SUB DUP2 ADD SWAP1 PUSH2 0x3D1 SWAP2 SWAP1 PUSH2 0x1DA3 JUMP JUMPDEST PUSH2 0xBCD JUMP JUMPDEST STOP JUMPDEST PUSH2 0x3F2 PUSH1 0x4 DUP1 CALLDATASIZE SUB DUP2 ADD SWAP1 PUSH2 0x3ED SWAP2 SWAP1 PUSH2 0x1E63 JUMP JUMPDEST PUSH2 0xC76 JUMP JUMPDEST STOP JUMPDEST PUSH2 0x3FC PUSH2 0xD00 JUMP JUMPDEST PUSH1 0x40 MLOAD PUSH2 0x409 SWAP2 SWAP1 PUSH2 0x22B5 JUMP JUMPDEST PUSH1 0x40 MLOAD DUP1 SWAP2 SUB SWAP1 RETURN JUMPDEST PUSH2 0x42C PUSH1 0x4 DUP1 CALLDATASIZE SUB DUP2 ADD SWAP1 PUSH2 0x427 SWAP2 SWAP1 PUSH2 0x1E63 JUMP JUMPDEST PUSH2 0xD07 JUMP JUMPDEST PUSH1 0x40 MLOAD PUSH2 0x439 SWAP2 SWAP1 PUSH2 0x229A JUMP JUMPDEST PUSH1 0x40 MLOAD DUP1 SWAP2 SUB SWAP1 RETURN JUMPDEST PUSH2 0x45C PUSH1 0x4 DUP1 CALLDATASIZE SUB DUP2 ADD SWAP1 PUSH2 0x457 SWAP2 SWAP1 PUSH2 0x1E63 JUMP JUMPDEST PUSH2 0xDFB JUMP JUMPDEST PUSH1 0x40 MLOAD PUSH2 0x469 SWAP2 SWAP1 PUSH2 0x229A JUMP JUMPDEST PUSH1 0x40 MLOAD DUP1 SWAP2 SUB SWAP1 RETURN JUMPDEST PUSH2 0x47A PUSH2 0xE19 JUMP JUMPDEST PUSH1 0x40 MLOAD PUSH2 0x487 SWAP2 SWAP1 PUSH2 0x22B5 JUMP JUMPDEST PUSH1 0x40 MLOAD DUP1 SWAP2 SUB SWAP1 RETURN JUMPDEST PUSH2 0x4AA PUSH1 0x4 DUP1 CALLDATASIZE SUB DUP2 ADD SWAP1 PUSH2 0x4A5 SWAP2 SWAP1 PUSH2 0x1ED0 JUMP JUMPDEST PUSH2 0xE3D JUMP JUMPDEST STOP JUMPDEST PUSH2 0x4C6 PUSH1 0x4 DUP1 CALLDATASIZE SUB DUP2 ADD SWAP1 PUSH2 0x4C1 SWAP2 SWAP1 PUSH2 0x1DD0 JUMP JUMPDEST PUSH2 0xE5E JUMP JUMPDEST PUSH1 0x40 MLOAD PUSH2 0x4D3 SWAP2 SWAP1 PUSH2 0x24D2 JUMP JUMPDEST PUSH1 0x40 MLOAD DUP1 SWAP2 SUB SWAP1 RETURN JUMPDEST PUSH2 0x4F6 PUSH1 0x4 DUP1 CALLDATASIZE SUB DUP2 ADD SWAP1 PUSH2 0x4F1 SWAP2 SWAP1 PUSH2 0x1DA3 JUMP JUMPDEST PUSH2 0xEE5 JUMP JUMPDEST STOP JUMPDEST PUSH1 0x0 PUSH32 0x7965DB0B00000000000000000000000000000000000000000000000000000000 PUSH28 0xFFFFFFFFFFFFFFFFFFFFFFFFFFFFFFFFFFFFFFFFFFFFFFFFFFFFFFFF NOT AND DUP3 PUSH28 0xFFFFFFFFFFFFFFFFFFFFFFFFFFFFFFFFFFFFFFFFFFFFFFFFFFFFFFFF NOT AND EQ DUP1 PUSH2 0x56B JUMPI POP PUSH2 0x56A DUP3 PUSH2 0x108E JUMP JUMPDEST JUMPDEST SWAP1 POP SWAP2 SWAP1 POP JUMP JUMPDEST PUSH1 0x60 PUSH1 0x5 DUP1 SLOAD PUSH2 0x581 SWAP1 PUSH2 0x26FB JUMP JUMPDEST DUP1 PUSH1 0x1F ADD PUSH1 0x20 DUP1 SWAP2 DIV MUL PUSH1 0x20 ADD PUSH1 0x40 MLOAD SWAP1 DUP2 ADD PUSH1 0x40 MSTORE DUP1 SWAP3 SWAP2 SWAP1 DUP2 DUP2 MSTORE PUSH1 0x20 ADD DUP3 DUP1 SLOAD PUSH2 0x5AD SWAP1 PUSH2 0x26FB JUMP JUMPDEST DUP1 ISZERO PUSH2 0x5FA JUMPI DUP1 PUSH1 0x1F LT PUSH2 0x5CF JUMPI PUSH2 0x100 DUP1 DUP4 SLOAD DIV MUL DUP4 MSTORE SWAP2 PUSH1 0x20 ADD SWAP2 PUSH2 0x5FA JUMP JUMPDEST DUP3 ADD SWAP2 SWAP1 PUSH1 0x0 MSTORE PUSH1 0x20 PUSH1 0x0 KECCAK256 SWAP1 JUMPDEST DUP2 SLOAD DUP2 MSTORE SWAP1 PUSH1 0x1 ADD SWAP1 PUSH1 0x20 ADD DUP1 DUP4 GT PUSH2 0x5DD JUMPI DUP3 SWAP1 SUB PUSH1 0x1F AND DUP3 ADD SWAP2 JUMPDEST POP POP POP POP POP SWAP1 POP SWAP1 JUMP JUMPDEST PUSH1 0x0 PUSH2 0x618 PUSH2 0x611 PUSH2 0x10F8 JUMP JUMPDEST DUP5 DUP5 PUSH2 0x1100 JUMP JUMPDEST PUSH1 0x1 SWAP1 POP SWAP3 SWAP2 POP POP JUMP JUMPDEST PUSH1 0x0 PUSH1 0x4 SLOAD SWAP1 POP SWAP1 JUMP JUMPDEST PUSH1 0x0 PUSH2 0x639 DUP5 DUP5 DUP5 PUSH2 0x12CB JUMP JUMPDEST PUSH1 0x0 PUSH1 0x3 PUSH1 0x0 DUP7 PUSH20 0xFFFFFFFFFFFFFFFFFFFFFFFFFFFFFFFFFFFFFFFF AND PUSH20 0xFFFFFFFFFFFFFFFFFFFFFFFFFFFFFFFFFFFFFFFF AND DUP2 MSTORE PUSH1 0x20 ADD SWAP1 DUP2 MSTORE PUSH1 0x20 ADD PUSH1 0x0 KECCAK256 PUSH1 0x0 PUSH2 0x684 PUSH2 0x10F8 JUMP JUMPDEST PUSH20 0xFFFFFFFFFFFFFFFFFFFFFFFFFFFFFFFFFFFFFFFF AND PUSH20 0xFFFFFFFFFFFFFFFFFFFFFFFFFFFFFFFFFFFFFFFF AND DUP2 MSTORE PUSH1 0x20 ADD SWAP1 DUP2 MSTORE PUSH1 0x20 ADD PUSH1 0x0 KECCAK256 SLOAD SWAP1 POP DUP3 DUP2 LT ISZERO PUSH2 0x704 JUMPI PUSH1 0x40 MLOAD PUSH32 0x8C379A000000000000000000000000000000000000000000000000000000000 DUP2 MSTORE PUSH1 0x4 ADD PUSH2 0x6FB SWAP1 PUSH2 0x23D2 JUMP JUMPDEST PUSH1 0x40 MLOAD DUP1 SWAP2 SUB SWAP1 REVERT JUMPDEST PUSH2 0x721 DUP6 PUSH2 0x710 PUSH2 0x10F8 JUMP JUMPDEST DUP6 DUP5 PUSH2 0x71C SWAP2 SWAP1 PUSH2 0x25DF JUMP JUMPDEST PUSH2 0x1100 JUMP JUMPDEST PUSH1 0x1 SWAP2 POP POP SWAP4 SWAP3 POP POP POP JUMP JUMPDEST PUSH1 0x0 PUSH1 0x1 PUSH1 0x0 DUP4 DUP2 MSTORE PUSH1 0x20 ADD SWAP1 DUP2 MSTORE PUSH1 0x20 ADD PUSH1 0x0 KECCAK256 PUSH1 0x1 ADD SLOAD SWAP1 POP SWAP2 SWAP1 POP JUMP JUMPDEST PUSH2 0x756 DUP3 PUSH2 0x72D JUMP JUMPDEST PUSH2 0x75F DUP2 PUSH2 0x154D JUMP JUMPDEST PUSH2 0x769 DUP4 DUP4 PUSH2 0x1561 JUMP JUMPDEST POP POP POP JUMP JUMPDEST PUSH1 0x0 PUSH1 0x12 SWAP1 POP SWAP1 JUMP JUMPDEST PUSH2 0x77F PUSH2 0x10F8 JUMP JUMPDEST PUSH20 0xFFFFFFFFFFFFFFFFFFFFFFFFFFFFFFFFFFFFFFFF AND DUP2 PUSH20 0xFFFFFFFFFFFFFFFFFFFFFFFFFFFFFFFFFFFFFFFF AND EQ PUSH2 0x7EC JUMPI PUSH1 0x40 MLOAD PUSH32 0x8C379A000000000000000000000000000000000000000000000000000000000 DUP2 MSTORE PUSH1 0x4 ADD PUSH2 0x7E3 SWAP1 PUSH2 0x2492 JUMP JUMPDEST PUSH1 0x40 MLOAD DUP1 SWAP2 SUB SWAP1 REVERT JUMPDEST PUSH2 0x7F6 DUP3 DUP3 PUSH2 0x1641 JUMP JUMPDEST POP POP JUMP JUMPDEST PUSH1 0x0 PUSH2 0x89C PUSH2 0x807 PUSH2 0x10F8 JUMP JUMPDEST DUP5 DUP5 PUSH1 0x3 PUSH1 0x0 PUSH2 0x815 PUSH2 0x10F8 JUMP JUMPDEST PUSH20 0xFFFFFFFFFFFFFFFFFFFFFFFFFFFFFFFFFFFFFFFF AND PUSH20 0xFFFFFFFFFFFFFFFFFFFFFFFFFFFFFFFFFFFFFFFF AND DUP2 MSTORE PUSH1 0x20 ADD SWAP1 DUP2 MSTORE PUSH1 0x20 ADD PUSH1 0x0 KECCAK256 PUSH1 0x0 DUP9 PUSH20 0xFFFFFFFFFFFFFFFFFFFFFFFFFFFFFFFFFFFFFFFF AND PUSH20 0xFFFFFFFFFFFFFFFFFFFFFFFFFFFFFFFFFFFFFFFF AND DUP2 MSTORE PUSH1 0x20 ADD SWAP1 DUP2 MSTORE PUSH1 0x20 ADD PUSH1 0x0 KECCAK256 SLOAD PUSH2 0x897 SWAP2 SWAP1 PUSH2 0x252F JUMP JUMPDEST PUSH2 0x1100 JUMP JUMPDEST PUSH1 0x1 SWAP1 POP SWAP3 SWAP2 POP POP JUMP JUMPDEST PUSH2 0x8D7 PUSH32 0x9F2DF0FED2C77648DE5860A4CC508CD0818C85B8B8A1AB4CEEEF8D981C8956A6 PUSH2 0x8D2 PUSH2 0x10F8 JUMP JUMPDEST PUSH2 0xAD0 JUMP JUMPDEST PUSH2 0x916 JUMPI PUSH1 0x40 MLOAD PUSH32 0x8C379A000000000000000000000000000000000000000000000000000000000 DUP2 MSTORE PUSH1 0x4 ADD PUSH2 0x90D SWAP1 PUSH2 0x2392 JUMP JUMPDEST PUSH1 0x40 MLOAD DUP1 SWAP2 SUB SWAP1 REVERT JUMPDEST PUSH2 0x920 DUP3 DUP3 PUSH2 0x1723 JUMP JUMPDEST POP POP JUMP JUMPDEST PUSH1 0x0 PUSH1 0x2 PUSH1 0x0 DUP4 PUSH20 0xFFFFFFFFFFFFFFFFFFFFFFFFFFFFFFFFFFFFFFFF AND PUSH20 0xFFFFFFFFFFFFFFFFFFFFFFFFFFFFFFFFFFFFFFFF AND DUP2 MSTORE PUSH1 0x20 ADD SWAP1 DUP2 MSTORE PUSH1 0x20 ADD PUSH1 0x0 KECCAK256 SLOAD SWAP1 POP SWAP2 SWAP1 POP JUMP JUMPDEST PUSH2 0x975 PUSH2 0x10F8 JUMP JUMPDEST PUSH20 0xFFFFFFFFFFFFFFFFFFFFFFFFFFFFFFFFFFFFFFFF AND PUSH2 0x993 PUSH2 0xAA7 JUMP JUMPDEST PUSH20 0xFFFFFFFFFFFFFFFFFFFFFFFFFFFFFFFFFFFFFFFF AND EQ PUSH2 0x9E9 JUMPI PUSH1 0x40 MLOAD PUSH32 0x8C379A000000000000000000000000000000000000000000000000000000000 DUP2 MSTORE PUSH1 0x4 ADD PUSH2 0x9E0 SWAP1 PUSH2 0x23F2 JUMP JUMPDEST PUSH1 0x40 MLOAD DUP1 SWAP2 SUB SWAP1 REVERT JUMPDEST PUSH1 0x0 PUSH20 0xFFFFFFFFFFFFFFFFFFFFFFFFFFFFFFFFFFFFFFFF AND PUSH1 0x0 DUP1 SLOAD SWAP1 PUSH2 0x100 EXP SWAP1 DIV PUSH20 0xFFFFFFFFFFFFFFFFFFFFFFFFFFFFFFFFFFFFFFFF AND PUSH20 0xFFFFFFFFFFFFFFFFFFFFFFFFFFFFFFFFFFFFFFFF AND PUSH32 0x8BE0079C531659141344CD1FD0A4F28419497F9722A3DAAFE3B4186F6B6457E0 PUSH1 0x40 MLOAD PUSH1 0x40 MLOAD DUP1 SWAP2 SUB SWAP1 LOG3 PUSH1 0x0 DUP1 PUSH1 0x0 PUSH2 0x100 EXP DUP2 SLOAD DUP2 PUSH20 0xFFFFFFFFFFFFFFFFFFFFFFFFFFFFFFFFFFFFFFFF MUL NOT AND SWAP1 DUP4 PUSH20 0xFFFFFFFFFFFFFFFFFFFFFFFFFFFFFFFFFFFFFFFF AND MUL OR SWAP1 SSTORE POP JUMP JUMPDEST PUSH1 0x0 DUP1 PUSH1 0x0 SWAP1 SLOAD SWAP1 PUSH2 0x100 EXP SWAP1 DIV PUSH20 0xFFFFFFFFFFFFFFFFFFFFFFFFFFFFFFFFFFFFFFFF AND SWAP1 POP SWAP1 JUMP JUMPDEST PUSH1 0x0 PUSH1 0x1 PUSH1 0x0 DUP5 DUP2 MSTORE PUSH1 0x20 ADD SWAP1 DUP2 MSTORE PUSH1 0x20 ADD PUSH1 0x0 KECCAK256 PUSH1 0x0 ADD PUSH1 0x0 DUP4 PUSH20 0xFFFFFFFFFFFFFFFFFFFFFFFFFFFFFFFFFFFFFFFF AND PUSH20 0xFFFFFFFFFFFFFFFFFFFFFFFFFFFFFFFFFFFFFFFF AND DUP2 MSTORE PUSH1 0x20 ADD SWAP1 DUP2 MSTORE PUSH1 0x20 ADD PUSH1 0x0 KECCAK256 PUSH1 0x0 SWAP1 SLOAD SWAP1 PUSH2 0x100 EXP SWAP1 DIV PUSH1 0xFF AND SWAP1 POP SWAP3 SWAP2 POP POP JUMP JUMPDEST PUSH1 0x60 PUSH1 0x6 DUP1 SLOAD PUSH2 0xB4A SWAP1 PUSH2 0x26FB JUMP JUMPDEST DUP1 PUSH1 0x1F ADD PUSH1 0x20 DUP1 SWAP2 DIV MUL PUSH1 0x20 ADD PUSH1 0x40 MLOAD SWAP1 DUP2 ADD PUSH1 0x40 MSTORE DUP1 SWAP3 SWAP2 SWAP1 DUP2 DUP2 MSTORE PUSH1 0x20 ADD DUP3 DUP1 SLOAD PUSH2 0xB76 SWAP1 PUSH2 0x26FB JUMP JUMPDEST DUP1 ISZERO PUSH2 0xBC3 JUMPI DUP1 PUSH1 0x1F LT PUSH2 0xB98 JUMPI PUSH2 0x100 DUP1 DUP4 SLOAD DIV MUL DUP4 MSTORE SWAP2 PUSH1 0x20 ADD SWAP2 PUSH2 0xBC3 JUMP JUMPDEST DUP3 ADD SWAP2 SWAP1 PUSH1 0x0 MSTORE PUSH1 0x20 PUSH1 0x0 KECCAK256 SWAP1 JUMPDEST DUP2 SLOAD DUP2 MSTORE SWAP1 PUSH1 0x1 ADD SWAP1 PUSH1 0x20 ADD DUP1 DUP4 GT PUSH2 0xBA6 JUMPI DUP3 SWAP1 SUB PUSH1 0x1F AND DUP3 ADD SWAP2 JUMPDEST POP POP POP POP POP SWAP1 POP SWAP1 JUMP JUMPDEST PUSH2 0xBD5 PUSH2 0x10F8 JUMP JUMPDEST PUSH20 0xFFFFFFFFFFFFFFFFFFFFFFFFFFFFFFFFFFFFFFFF AND PUSH2 0xBF3 PUSH2 0xAA7 JUMP JUMPDEST PUSH20 0xFFFFFFFFFFFFFFFFFFFFFFFFFFFFFFFFFFFFFFFF AND EQ PUSH2 0xC49 JUMPI PUSH1 0x40 MLOAD PUSH32 0x8C379A000000000000000000000000000000000000000000000000000000000 DUP2 MSTORE PUSH1 0x4 ADD PUSH2 0xC40 SWAP1 PUSH2 0x23F2 JUMP JUMPDEST PUSH1 0x40 MLOAD DUP1 SWAP2 SUB SWAP1 REVERT JUMPDEST PUSH2 0xC73 PUSH32 0x9F2DF0FED2C77648DE5860A4CC508CD0818C85B8B8A1AB4CEEEF8D981C8956A6 DUP3 PUSH2 0x1878 JUMP JUMPDEST POP JUMP JUMPDEST PUSH2 0xC7E PUSH2 0x10F8 JUMP JUMPDEST PUSH20 0xFFFFFFFFFFFFFFFFFFFFFFFFFFFFFFFFFFFFFFFF AND PUSH2 0xC9C PUSH2 0xAA7 JUMP JUMPDEST PUSH20 0xFFFFFFFFFFFFFFFFFFFFFFFFFFFFFFFFFFFFFFFF AND EQ PUSH2 0xCF2 JUMPI PUSH1 0x40 MLOAD PUSH32 0x8C379A000000000000000000000000000000000000000000000000000000000 DUP2 MSTORE PUSH1 0x4 ADD PUSH2 0xCE9 SWAP1 PUSH2 0x23F2 JUMP JUMPDEST PUSH1 0x40 MLOAD DUP1 SWAP2 SUB SWAP1 REVERT JUMPDEST PUSH2 0xCFC DUP3 DUP3 PUSH2 0x1886 JUMP JUMPDEST POP POP JUMP JUMPDEST PUSH1 0x0 DUP1 SHL DUP2 JUMP JUMPDEST PUSH1 0x0 DUP1 PUSH1 0x3 PUSH1 0x0 PUSH2 0xD16 PUSH2 0x10F8 JUMP JUMPDEST PUSH20 0xFFFFFFFFFFFFFFFFFFFFFFFFFFFFFFFFFFFFFFFF AND PUSH20 0xFFFFFFFFFFFFFFFFFFFFFFFFFFFFFFFFFFFFFFFF AND DUP2 MSTORE PUSH1 0x20 ADD SWAP1 DUP2 MSTORE PUSH1 0x20 ADD PUSH1 0x0 KECCAK256 PUSH1 0x0 DUP6 PUSH20 0xFFFFFFFFFFFFFFFFFFFFFFFFFFFFFFFFFFFFFFFF AND PUSH20 0xFFFFFFFFFFFFFFFFFFFFFFFFFFFFFFFFFFFFFFFF AND DUP2 MSTORE PUSH1 0x20 ADD SWAP1 DUP2 MSTORE PUSH1 0x20 ADD PUSH1 0x0 KECCAK256 SLOAD SWAP1 POP DUP3 DUP2 LT ISZERO PUSH2 0xDD3 JUMPI PUSH1 0x40 MLOAD PUSH32 0x8C379A000000000000000000000000000000000000000000000000000000000 DUP2 MSTORE PUSH1 0x4 ADD PUSH2 0xDCA SWAP1 PUSH2 0x2472 JUMP JUMPDEST PUSH1 0x40 MLOAD DUP1 SWAP2 SUB SWAP1 REVERT JUMPDEST PUSH2 0xDF0 PUSH2 0xDDE PUSH2 0x10F8 JUMP JUMPDEST DUP6 DUP6 DUP5 PUSH2 0xDEB SWAP2 SWAP1 PUSH2 0x25DF JUMP JUMPDEST PUSH2 0x1100 JUMP JUMPDEST PUSH1 0x1 SWAP2 POP POP SWAP3 SWAP2 POP POP JUMP JUMPDEST PUSH1 0x0 PUSH2 0xE0F PUSH2 0xE08 PUSH2 0x10F8 JUMP JUMPDEST DUP5 DUP5 PUSH2 0x12CB JUMP JUMPDEST PUSH1 0x1 SWAP1 POP SWAP3 SWAP2 POP POP JUMP JUMPDEST PUSH32 0x9F2DF0FED2C77648DE5860A4CC508CD0818C85B8B8A1AB4CEEEF8D981C8956A6 DUP2 JUMP JUMPDEST PUSH2 0xE46 DUP3 PUSH2 0x72D JUMP JUMPDEST PUSH2 0xE4F DUP2 PUSH2 0x154D JUMP JUMPDEST PUSH2 0xE59 DUP4 DUP4 PUSH2 0x1641 JUMP JUMPDEST POP POP POP JUMP JUMPDEST PUSH1 0x0 PUSH1 0x3 PUSH1 0x0 DUP5 PUSH20 0xFFFFFFFFFFFFFFFFFFFFFFFFFFFFFFFFFFFFFFFF AND PUSH20 0xFFFFFFFFFFFFFFFFFFFFFFFFFFFFFFFFFFFFFFFF AND DUP2 MSTORE PUSH1 0x20 ADD SWAP1 DUP2 MSTORE PUSH1 0x20 ADD PUSH1 0x0 KECCAK256 PUSH1 0x0 DUP4 PUSH20 0xFFFFFFFFFFFFFFFFFFFFFFFFFFFFFFFFFFFFFFFF AND PUSH20 0xFFFFFFFFFFFFFFFFFFFFFFFFFFFFFFFFFFFFFFFF AND DUP2 MSTORE PUSH1 0x20 ADD SWAP1 DUP2 MSTORE PUSH1 0x20 ADD PUSH1 0x0 KECCAK256 SLOAD SWAP1 POP SWAP3 SWAP2 POP POP JUMP JUMPDEST PUSH2 0xEED PUSH2 0x10F8 JUMP JUMPDEST PUSH20 0xFFFFFFFFFFFFFFFFFFFFFFFFFFFFFFFFFFFFFFFF AND PUSH2 0xF0B PUSH2 0xAA7 JUMP JUMPDEST PUSH20 0xFFFFFFFFFFFFFFFFFFFFFFFFFFFFFFFFFFFFFFFF AND EQ PUSH2 0xF61 JUMPI PUSH1 0x40 MLOAD PUSH32 0x8C379A000000000000000000000000000000000000000000000000000000000 DUP2 MSTORE PUSH1 0x4 ADD PUSH2 0xF58 SWAP1 PUSH2 0x23F2 JUMP JUMPDEST PUSH1 0x40 MLOAD DUP1 SWAP2 SUB SWAP1 REVERT JUMPDEST PUSH1 0x0 PUSH20 0xFFFFFFFFFFFFFFFFFFFFFFFFFFFFFFFFFFFFFFFF AND DUP2 PUSH20 0xFFFFFFFFFFFFFFFFFFFFFFFFFFFFFFFFFFFFFFFF AND EQ ISZERO PUSH2 0xFD1 JUMPI PUSH1 0x40 MLOAD PUSH32 0x8C379A000000000000000000000000000000000000000000000000000000000 DUP2 MSTORE PUSH1 0x4 ADD PUSH2 0xFC8 SWAP1 PUSH2 0x2352 JUMP JUMPDEST PUSH1 0x40 MLOAD DUP1 SWAP2 SUB SWAP1 REVERT JUMPDEST DUP1 PUSH20 0xFFFFFFFFFFFFFFFFFFFFFFFFFFFFFFFFFFFFFFFF AND PUSH1 0x0 DUP1 SLOAD SWAP1 PUSH2 0x100 EXP SWAP1 DIV PUSH20 0xFFFFFFFFFFFFFFFFFFFFFFFFFFFFFFFFFFFFFFFF AND PUSH20 0xFFFFFFFFFFFFFFFFFFFFFFFFFFFFFFFFFFFFFFFF AND PUSH32 0x8BE0079C531659141344CD1FD0A4F28419497F9722A3DAAFE3B4186F6B6457E0 PUSH1 0x40 MLOAD PUSH1 0x40 MLOAD DUP1 SWAP2 SUB SWAP1 LOG3 DUP1 PUSH1 0x0 DUP1 PUSH2 0x100 EXP DUP2 SLOAD DUP2 PUSH20 0xFFFFFFFFFFFFFFFFFFFFFFFFFFFFFFFFFFFFFFFF MUL NOT AND SWAP1 DUP4 PUSH20 0xFFFFFFFFFFFFFFFFFFFFFFFFFFFFFFFFFFFFFFFF AND MUL OR SWAP1 SSTORE POP POP JUMP JUMPDEST PUSH1 0x0 PUSH32 0x1FFC9A700000000000000000000000000000000000000000000000000000000 PUSH28 0xFFFFFFFFFFFFFFFFFFFFFFFFFFFFFFFFFFFFFFFFFFFFFFFFFFFFFFFF NOT AND DUP3 PUSH28 0xFFFFFFFFFFFFFFFFFFFFFFFFFFFFFFFFFFFFFFFFFFFFFFFFFFFFFFFF NOT AND EQ SWAP1 POP SWAP2 SWAP1 POP JUMP JUMPDEST PUSH1 0x0 CALLER SWAP1 POP SWAP1 JUMP JUMPDEST PUSH1 0x0 PUSH20 0xFFFFFFFFFFFFFFFFFFFFFFFFFFFFFFFFFFFFFFFF AND DUP4 PUSH20 0xFFFFFFFFFFFFFFFFFFFFFFFFFFFFFFFFFFFFFFFF AND EQ ISZERO PUSH2 0x1170 JUMPI PUSH1 0x40 MLOAD PUSH32 0x8C379A000000000000000000000000000000000000000000000000000000000 DUP2 MSTORE PUSH1 0x4 ADD PUSH2 0x1167 SWAP1 PUSH2 0x2452 JUMP JUMPDEST PUSH1 0x40 MLOAD DUP1 SWAP2 SUB SWAP1 REVERT JUMPDEST PUSH1 0x0 PUSH20 0xFFFFFFFFFFFFFFFFFFFFFFFFFFFFFFFFFFFFFFFF AND DUP3 PUSH20 0xFFFFFFFFFFFFFFFFFFFFFFFFFFFFFFFFFFFFFFFF AND EQ ISZERO PUSH2 0x11E0 JUMPI PUSH1 0x40 MLOAD PUSH32 0x8C379A000000000000000000000000000000000000000000000000000000000 DUP2 MSTORE PUSH1 0x4 ADD PUSH2 0x11D7 SWAP1 PUSH2 0x2372 JUMP JUMPDEST PUSH1 0x40 MLOAD DUP1 SWAP2 SUB SWAP1 REVERT JUMPDEST DUP1 PUSH1 0x3 PUSH1 0x0 DUP6 PUSH20 0xFFFFFFFFFFFFFFFFFFFFFFFFFFFFFFFFFFFFFFFF AND PUSH20 0xFFFFFFFFFFFFFFFFFFFFFFFFFFFFFFFFFFFFFFFF AND DUP2 MSTORE PUSH1 0x20 ADD SWAP1 DUP2 MSTORE PUSH1 0x20 ADD PUSH1 0x0 KECCAK256 PUSH1 0x0 DUP5 PUSH20 0xFFFFFFFFFFFFFFFFFFFFFFFFFFFFFFFFFFFFFFFF AND PUSH20 0xFFFFFFFFFFFFFFFFFFFFFFFFFFFFFFFFFFFFFFFF AND DUP2 MSTORE PUSH1 0x20 ADD SWAP1 DUP2 MSTORE PUSH1 0x20 ADD PUSH1 0x0 KECCAK256 DUP2 SWAP1 SSTORE POP DUP2 PUSH20 0xFFFFFFFFFFFFFFFFFFFFFFFFFFFFFFFFFFFFFFFF AND DUP4 PUSH20 0xFFFFFFFFFFFFFFFFFFFFFFFFFFFFFFFFFFFFFFFF AND PUSH32 0x8C5BE1E5EBEC7D5BD14F71427D1E84F3DD0314C0F7B2291E5B200AC8C7C3B925 DUP4 PUSH1 0x40 MLOAD PUSH2 0x12BE SWAP2 SWAP1 PUSH2 0x24D2 JUMP JUMPDEST PUSH1 0x40 MLOAD DUP1 SWAP2 SUB SWAP1 LOG3 POP POP POP JUMP JUMPDEST PUSH1 0x0 PUSH20 0xFFFFFFFFFFFFFFFFFFFFFFFFFFFFFFFFFFFFFFFF AND DUP4 PUSH20 0xFFFFFFFFFFFFFFFFFFFFFFFFFFFFFFFFFFFFFFFF AND EQ ISZERO PUSH2 0x133B JUMPI PUSH1 0x40 MLOAD PUSH32 0x8C379A000000000000000000000000000000000000000000000000000000000 DUP2 MSTORE PUSH1 0x4 ADD PUSH2 0x1332 SWAP1 PUSH2 0x2432 JUMP JUMPDEST PUSH1 0x40 MLOAD DUP1 SWAP2 SUB SWAP1 REVERT JUMPDEST PUSH1 0x0 PUSH20 0xFFFFFFFFFFFFFFFFFFFFFFFFFFFFFFFFFFFFFFFF AND DUP3 PUSH20 0xFFFFFFFFFFFFFFFFFFFFFFFFFFFFFFFFFFFFFFFF AND EQ ISZERO PUSH2 0x13AB JUMPI PUSH1 0x40 MLOAD PUSH32 0x8C379A000000000000000000000000000000000000000000000000000000000 DUP2 MSTORE PUSH1 0x4 ADD PUSH2 0x13A2 SWAP1 PUSH2 0x2312 JUMP JUMPDEST PUSH1 0x40 MLOAD DUP1 SWAP2 SUB SWAP1 REVERT JUMPDEST PUSH2 0x13B6 DUP4 DUP4 DUP4 PUSH2 0x1A5C JUMP JUMPDEST PUSH1 0x0 PUSH1 0x2 PUSH1 0x0 DUP6 PUSH20 0xFFFFFFFFFFFFFFFFFFFFFFFFFFFFFFFFFFFFFFFF AND PUSH20 0xFFFFFFFFFFFFFFFFFFFFFFFFFFFFFFFFFFFFFFFF AND DUP2 MSTORE PUSH1 0x20 ADD SWAP1 DUP2 MSTORE PUSH1 0x20 ADD PUSH1 0x0 KECCAK256 SLOAD SWAP1 POP DUP2 DUP2 LT ISZERO PUSH2 0x143D JUMPI PUSH1 0x40 MLOAD PUSH32 0x8C379A000000000000000000000000000000000000000000000000000000000 DUP2 MSTORE PUSH1 0x4 ADD PUSH2 0x1434 SWAP1 PUSH2 0x23B2 JUMP JUMPDEST PUSH1 0x40 MLOAD DUP1 SWAP2 SUB SWAP1 REVERT JUMPDEST DUP2 DUP2 PUSH2 0x1449 SWAP2 SWAP1 PUSH2 0x25DF JUMP JUMPDEST PUSH1 0x2 PUSH1 0x0 DUP7 PUSH20 0xFFFFFFFFFFFFFFFFFFFFFFFFFFFFFFFFFFFFFFFF AND PUSH20 0xFFFFFFFFFFFFFFFFFFFFFFFFFFFFFFFFFFFFFFFF AND DUP2 MSTORE PUSH1 0x20 ADD SWAP1 DUP2 MSTORE PUSH1 0x20 ADD PUSH1 0x0 KECCAK256 DUP2 SWAP1 SSTORE POP DUP2 PUSH1 0x2 PUSH1 0x0 DUP6 PUSH20 0xFFFFFFFFFFFFFFFFFFFFFFFFFFFFFFFFFFFFFFFF AND PUSH20 0xFFFFFFFFFFFFFFFFFFFFFFFFFFFFFFFFFFFFFFFF AND DUP2 MSTORE PUSH1 0x20 ADD SWAP1 DUP2 MSTORE PUSH1 0x20 ADD PUSH1 0x0 KECCAK256 PUSH1 0x0 DUP3 DUP3 SLOAD PUSH2 0x14DB SWAP2 SWAP1 PUSH2 0x252F JUMP JUMPDEST SWAP3 POP POP DUP2 SWAP1 SSTORE POP DUP3 PUSH20 0xFFFFFFFFFFFFFFFFFFFFFFFFFFFFFFFFFFFFFFFF AND DUP5 PUSH20 0xFFFFFFFFFFFFFFFFFFFFFFFFFFFFFFFFFFFFFFFF AND PUSH32 0xDDF252AD1BE2C89B69C2B068FC378DAA952BA7F163C4A11628F55A4DF523B3EF DUP5 PUSH1 0x40 MLOAD PUSH2 0x153F SWAP2 SWAP1 PUSH2 0x24D2 JUMP JUMPDEST PUSH1 0x40 MLOAD DUP1 SWAP2 SUB SWAP1 LOG3 POP POP POP POP JUMP JUMPDEST PUSH2 0x155E DUP2 PUSH2 0x1559 PUSH2 0x10F8 JUMP JUMPDEST PUSH2 0x1A61 JUMP JUMPDEST POP JUMP JUMPDEST PUSH2 0x156B DUP3 DUP3 PUSH2 0xAD0 JUMP JUMPDEST PUSH2 0x163D JUMPI PUSH1 0x1 DUP1 PUSH1 0x0 DUP5 DUP2 MSTORE PUSH1 0x20 ADD SWAP1 DUP2 MSTORE PUSH1 0x20 ADD PUSH1 0x0 KECCAK256 PUSH1 0x0 ADD PUSH1 0x0 DUP4 PUSH20 0xFFFFFFFFFFFFFFFFFFFFFFFFFFFFFFFFFFFFFFFF AND PUSH20 0xFFFFFFFFFFFFFFFFFFFFFFFFFFFFFFFFFFFFFFFF AND DUP2 MSTORE PUSH1 0x20 ADD SWAP1 DUP2 MSTORE PUSH1 0x20 ADD PUSH1 0x0 KECCAK256 PUSH1 0x0 PUSH2 0x100 EXP DUP2 SLOAD DUP2 PUSH1 0xFF MUL NOT AND SWAP1 DUP4 ISZERO ISZERO MUL OR SWAP1 SSTORE POP PUSH2 0x15E2 PUSH2 0x10F8 JUMP JUMPDEST PUSH20 0xFFFFFFFFFFFFFFFFFFFFFFFFFFFFFFFFFFFFFFFF AND DUP2 PUSH20 0xFFFFFFFFFFFFFFFFFFFFFFFFFFFFFFFFFFFFFFFF AND DUP4 PUSH32 0x2F8788117E7EFF1D82E926EC794901D17C78024A50270940304540A733656F0D PUSH1 0x40 MLOAD PUSH1 0x40 MLOAD DUP1 SWAP2 SUB SWAP1 LOG4 JUMPDEST POP POP JUMP JUMPDEST PUSH2 0x164B DUP3 DUP3 PUSH2 0xAD0 JUMP JUMPDEST ISZERO PUSH2 0x171F JUMPI PUSH1 0x0 PUSH1 0x1 PUSH1 0x0 DUP5 DUP2 MSTORE PUSH1 0x20 ADD SWAP1 DUP2 MSTORE PUSH1 0x20 ADD PUSH1 0x0 KECCAK256 PUSH1 0x0 ADD PUSH1 0x0 DUP4 PUSH20 0xFFFFFFFFFFFFFFFFFFFFFFFFFFFFFFFFFFFFFFFF AND PUSH20 0xFFFFFFFFFFFFFFFFFFFFFFFFFFFFFFFFFFFFFFFF AND DUP2 MSTORE PUSH1 0x20 ADD SWAP1 DUP2 MSTORE PUSH1 0x20 ADD PUSH1 0x0 KECCAK256 PUSH1 0x0 PUSH2 0x100 EXP DUP2 SLOAD DUP2 PUSH1 0xFF MUL NOT AND SWAP1 DUP4 ISZERO ISZERO MUL OR SWAP1 SSTORE POP PUSH2 0x16C4 PUSH2 0x10F8 JUMP JUMPDEST PUSH20 0xFFFFFFFFFFFFFFFFFFFFFFFFFFFFFFFFFFFFFFFF AND DUP2 PUSH20 0xFFFFFFFFFFFFFFFFFFFFFFFFFFFFFFFFFFFFFFFF AND DUP4 PUSH32 0xF6391F5C32D9C69D2A47EA670B442974B53935D1EDC7FD64EB21E047A839171B PUSH1 0x40 MLOAD PUSH1 0x40 MLOAD DUP1 SWAP2 SUB SWAP1 LOG4 JUMPDEST POP POP JUMP JUMPDEST PUSH1 0x0 PUSH20 0xFFFFFFFFFFFFFFFFFFFFFFFFFFFFFFFFFFFFFFFF AND DUP3 PUSH20 0xFFFFFFFFFFFFFFFFFFFFFFFFFFFFFFFFFFFFFFFF AND EQ ISZERO PUSH2 0x1793 JUMPI PUSH1 0x40 MLOAD PUSH32 0x8C379A000000000000000000000000000000000000000000000000000000000 DUP2 MSTORE PUSH1 0x4 ADD PUSH2 0x178A SWAP1 PUSH2 0x24B2 JUMP JUMPDEST PUSH1 0x40 MLOAD DUP1 SWAP2 SUB SWAP1 REVERT JUMPDEST PUSH2 0x179F PUSH1 0x0 DUP4 DUP4 PUSH2 0x1A5C JUMP JUMPDEST DUP1 PUSH1 0x4 PUSH1 0x0 DUP3 DUP3 SLOAD PUSH2 0x17B1 SWAP2 SWAP1 PUSH2 0x252F JUMP JUMPDEST SWAP3 POP POP DUP2 SWAP1 SSTORE POP DUP1 PUSH1 0x2 PUSH1 0x0 DUP5 PUSH20 0xFFFFFFFFFFFFFFFFFFFFFFFFFFFFFFFFFFFFFFFF AND PUSH20 0xFFFFFFFFFFFFFFFFFFFFFFFFFFFFFFFFFFFFFFFF AND DUP2 MSTORE PUSH1 0x20 ADD SWAP1 DUP2 MSTORE PUSH1 0x20 ADD PUSH1 0x0 KECCAK256 PUSH1 0x0 DUP3 DUP3 SLOAD PUSH2 0x1807 SWAP2 SWAP1 PUSH2 0x252F JUMP JUMPDEST SWAP3 POP POP DUP2 SWAP1 SSTORE POP DUP2 PUSH20 0xFFFFFFFFFFFFFFFFFFFFFFFFFFFFFFFFFFFFFFFF AND PUSH1 0x0 PUSH20 0xFFFFFFFFFFFFFFFFFFFFFFFFFFFFFFFFFFFFFFFF AND PUSH32 0xDDF252AD1BE2C89B69C2B068FC378DAA952BA7F163C4A11628F55A4DF523B3EF DUP4 PUSH1 0x40 MLOAD PUSH2 0x186C SWAP2 SWAP1 PUSH2 0x24D2 JUMP JUMPDEST PUSH1 0x40 MLOAD DUP1 SWAP2 SUB SWAP1 LOG3 POP POP JUMP JUMPDEST PUSH2 0x1882 DUP3 DUP3 PUSH2 0x1561 JUMP JUMPDEST POP POP JUMP JUMPDEST PUSH1 0x0 PUSH20 0xFFFFFFFFFFFFFFFFFFFFFFFFFFFFFFFFFFFFFFFF AND DUP3 PUSH20 0xFFFFFFFFFFFFFFFFFFFFFFFFFFFFFFFFFFFFFFFF AND EQ ISZERO PUSH2 0x18F6 JUMPI PUSH1 0x40 MLOAD PUSH32 0x8C379A000000000000000000000000000000000000000000000000000000000 DUP2 MSTORE PUSH1 0x4 ADD PUSH2 0x18ED SWAP1 PUSH2 0x2412 JUMP JUMPDEST PUSH1 0x40 MLOAD DUP1 SWAP2 SUB SWAP1 REVERT JUMPDEST PUSH2 0x1902 DUP3 PUSH1 0x0 DUP4 PUSH2 0x1A5C JUMP JUMPDEST PUSH1 0x0 PUSH1 0x2 PUSH1 0x0 DUP5 PUSH20 0xFFFFFFFFFFFFFFFFFFFFFFFFFFFFFFFFFFFFFFFF AND PUSH20 0xFFFFFFFFFFFFFFFFFFFFFFFFFFFFFFFFFFFFFFFF AND DUP2 MSTORE PUSH1 0x20 ADD SWAP1 DUP2 MSTORE PUSH1 0x20 ADD PUSH1 0x0 KECCAK256 SLOAD SWAP1 POP DUP2 DUP2 LT ISZERO PUSH2 0x1989 JUMPI PUSH1 0x40 MLOAD PUSH32 0x8C379A000000000000000000000000000000000000000000000000000000000 DUP2 MSTORE PUSH1 0x4 ADD PUSH2 0x1980 SWAP1 PUSH2 0x2332 JUMP JUMPDEST PUSH1 0x40 MLOAD DUP1 SWAP2 SUB SWAP1 REVERT JUMPDEST DUP2 DUP2 PUSH2 0x1995 SWAP2 SWAP1 PUSH2 0x25DF JUMP JUMPDEST PUSH1 0x2 PUSH1 0x0 DUP6 PUSH20 0xFFFFFFFFFFFFFFFFFFFFFFFFFFFFFFFFFFFFFFFF AND PUSH20 0xFFFFFFFFFFFFFFFFFFFFFFFFFFFFFFFFFFFFFFFF AND DUP2 MSTORE PUSH1 0x20 ADD SWAP1 DUP2 MSTORE PUSH1 0x20 ADD PUSH1 0x0 KECCAK256 DUP2 SWAP1 SSTORE POP DUP2 PUSH1 0x4 PUSH1 0x0 DUP3 DUP3 SLOAD PUSH2 0x19EA SWAP2 SWAP1 PUSH2 0x25DF JUMP JUMPDEST SWAP3 POP POP DUP2 SWAP1 SSTORE POP PUSH1 0x0 PUSH20 0xFFFFFFFFFFFFFFFFFFFFFFFFFFFFFFFFFFFFFFFF AND DUP4 PUSH20 0xFFFFFFFFFFFFFFFFFFFFFFFFFFFFFFFFFFFFFFFF AND PUSH32 0xDDF252AD1BE2C89B69C2B068FC378DAA952BA7F163C4A11628F55A4DF523B3EF DUP5 PUSH1 0x40 MLOAD PUSH2 0x1A4F SWAP2 SWAP1 PUSH2 0x24D2 JUMP JUMPDEST PUSH1 0x40 MLOAD DUP1 SWAP2 SUB SWAP1 LOG3 POP POP POP JUMP JUMPDEST POP POP POP JUMP JUMPDEST PUSH2 0x1A6B DUP3 DUP3 PUSH2 0xAD0 JUMP JUMPDEST PUSH2 0x1AE2 JUMPI PUSH2 0x1A78 DUP2 PUSH2 0x1AE6 JUMP JUMPDEST PUSH2 0x1A86 DUP4 PUSH1 0x0 SHR PUSH1 0x20 PUSH2 0x1B13 JUMP JUMPDEST PUSH1 0x40 MLOAD PUSH1 0x20 ADD PUSH2 0x1A97 SWAP3 SWAP2 SWAP1 PUSH2 0x2245 JUMP JUMPDEST PUSH1 0x40 MLOAD PUSH1 0x20 DUP2 DUP4 SUB SUB DUP2 MSTORE SWAP1 PUSH1 0x40 MSTORE PUSH1 0x40 MLOAD PUSH32 0x8C379A000000000000000000000000000000000000000000000000000000000 DUP2 MSTORE PUSH1 0x4 ADD PUSH2 0x1AD9 SWAP2 SWAP1 PUSH2 0x22D0 JUMP JUMPDEST PUSH1 0x40 MLOAD DUP1 SWAP2 SUB SWAP1 REVERT JUMPDEST POP POP JUMP JUMPDEST PUSH1 0x60 PUSH2 0x1B0C DUP3 PUSH20 0xFFFFFFFFFFFFFFFFFFFFFFFFFFFFFFFFFFFFFFFF AND PUSH1 0x14 PUSH1 0xFF AND PUSH2 0x1B13 JUMP JUMPDEST SWAP1 POP SWAP2 SWAP1 POP JUMP JUMPDEST PUSH1 0x60 PUSH1 0x0 PUSH1 0x2 DUP4 PUSH1 0x2 PUSH2 0x1B26 SWAP2 SWAP1 PUSH2 0x2585 JUMP JUMPDEST PUSH2 0x1B30 SWAP2 SWAP1 PUSH2 0x252F JUMP JUMPDEST PUSH8 0xFFFFFFFFFFFFFFFF DUP2 GT ISZERO PUSH2 0x1B49 JUMPI PUSH2 0x1B48 PUSH2 0x27BA JUMP JUMPDEST JUMPDEST PUSH1 0x40 MLOAD SWAP1 DUP1 DUP3 MSTORE DUP1 PUSH1 0x1F ADD PUSH1 0x1F NOT AND PUSH1 0x20 ADD DUP3 ADD PUSH1 0x40 MSTORE DUP1 ISZERO PUSH2 0x1B7B JUMPI DUP2 PUSH1 0x20 ADD PUSH1 0x1 DUP3 MUL DUP1 CALLDATASIZE DUP4 CALLDATACOPY DUP1 DUP3 ADD SWAP2 POP POP SWAP1 POP JUMPDEST POP SWAP1 POP PUSH32 0x3000000000000000000000000000000000000000000000000000000000000000 DUP2 PUSH1 0x0 DUP2 MLOAD DUP2 LT PUSH2 0x1BB3 JUMPI PUSH2 0x1BB2 PUSH2 0x278B JUMP JUMPDEST JUMPDEST PUSH1 0x20 ADD ADD SWAP1 PUSH31 0xFFFFFFFFFFFFFFFFFFFFFFFFFFFFFFFFFFFFFFFFFFFFFFFFFFFFFFFFFFFFFF NOT AND SWAP1 DUP2 PUSH1 0x0 BYTE SWAP1 MSTORE8 POP PUSH32 0x7800000000000000000000000000000000000000000000000000000000000000 DUP2 PUSH1 0x1 DUP2 MLOAD DUP2 LT PUSH2 0x1C17 JUMPI PUSH2 0x1C16 PUSH2 0x278B JUMP JUMPDEST JUMPDEST PUSH1 0x20 ADD ADD SWAP1 PUSH31 0xFFFFFFFFFFFFFFFFFFFFFFFFFFFFFFFFFFFFFFFFFFFFFFFFFFFFFFFFFFFFFF NOT AND SWAP1 DUP2 PUSH1 0x0 BYTE SWAP1 MSTORE8 POP PUSH1 0x0 PUSH1 0x1 DUP5 PUSH1 0x2 PUSH2 0x1C57 SWAP2 SWAP1 PUSH2 0x2585 JUMP JUMPDEST PUSH2 0x1C61 SWAP2 SWAP1 PUSH2 0x252F JUMP JUMPDEST SWAP1 POP JUMPDEST PUSH1 0x1 DUP2 GT ISZERO PUSH2 0x1D01 JUMPI PUSH32 0x3031323334353637383961626364656600000000000000000000000000000000 PUSH1 0xF DUP7 AND PUSH1 0x10 DUP2 LT PUSH2 0x1CA3 JUMPI PUSH2 0x1CA2 PUSH2 0x278B JUMP JUMPDEST JUMPDEST BYTE PUSH1 0xF8 SHL DUP3 DUP3 DUP2 MLOAD DUP2 LT PUSH2 0x1CBA JUMPI PUSH2 0x1CB9 PUSH2 0x278B JUMP JUMPDEST JUMPDEST PUSH1 0x20 ADD ADD SWAP1 PUSH31 0xFFFFFFFFFFFFFFFFFFFFFFFFFFFFFFFFFFFFFFFFFFFFFFFFFFFFFFFFFFFFFF NOT AND SWAP1 DUP2 PUSH1 0x0 BYTE SWAP1 MSTORE8 POP PUSH1 0x4 DUP6 SWAP1 SHR SWAP5 POP DUP1 PUSH2 0x1CFA SWAP1 PUSH2 0x26D1 JUMP JUMPDEST SWAP1 POP PUSH2 0x1C64 JUMP JUMPDEST POP PUSH1 0x0 DUP5 EQ PUSH2 0x1D45 JUMPI PUSH1 0x40 MLOAD PUSH32 0x8C379A000000000000000000000000000000000000000000000000000000000 DUP2 MSTORE PUSH1 0x4 ADD PUSH2 0x1D3C SWAP1 PUSH2 0x22F2 JUMP JUMPDEST PUSH1 0x40 MLOAD DUP1 SWAP2 SUB SWAP1 REVERT JUMPDEST DUP1 SWAP2 POP POP SWAP3 SWAP2 POP POP JUMP JUMPDEST PUSH1 0x0 DUP2 CALLDATALOAD SWAP1 POP PUSH2 0x1D5E DUP2 PUSH2 0x2C80 JUMP JUMPDEST SWAP3 SWAP2 POP POP JUMP JUMPDEST PUSH1 0x0 DUP2 CALLDATALOAD SWAP1 POP PUSH2 0x1D73 DUP2 PUSH2 0x2C97 JUMP JUMPDEST SWAP3 SWAP2 POP POP JUMP JUMPDEST PUSH1 0x0 DUP2 CALLDATALOAD SWAP1 POP PUSH2 0x1D88 DUP2 PUSH2 0x2CAE JUMP JUMPDEST SWAP3 SWAP2 POP POP JUMP JUMPDEST PUSH1 0x0 DUP2 CALLDATALOAD SWAP1 POP PUSH2 0x1D9D DUP2 PUSH2 0x2CC5 JUMP JUMPDEST SWAP3 SWAP2 POP POP JUMP JUMPDEST PUSH1 0x0 PUSH1 0x20 DUP3 DUP5 SUB SLT ISZERO PUSH2 0x1DB9 JUMPI PUSH2 0x1DB8 PUSH2 0x27E9 JUMP JUMPDEST JUMPDEST PUSH1 0x0 PUSH2 0x1DC7 DUP5 DUP3 DUP6 ADD PUSH2 0x1D4F JUMP JUMPDEST SWAP2 POP POP SWAP3 SWAP2 POP POP JUMP JUMPDEST PUSH1 0x0 DUP1 PUSH1 0x40 DUP4 DUP6 SUB SLT ISZERO PUSH2 0x1DE7 JUMPI PUSH2 0x1DE6 PUSH2 0x27E9 JUMP JUMPDEST JUMPDEST PUSH1 0x0 PUSH2 0x1DF5 DUP6 DUP3 DUP7 ADD PUSH2 0x1D4F JUMP JUMPDEST SWAP3 POP POP PUSH1 0x20 PUSH2 0x1E06 DUP6 DUP3 DUP7 ADD PUSH2 0x1D4F JUMP JUMPDEST SWAP2 POP POP SWAP3 POP SWAP3 SWAP1 POP JUMP JUMPDEST PUSH1 0x0 DUP1 PUSH1 0x0 PUSH1 0x60 DUP5 DUP7 SUB SLT ISZERO PUSH2 0x1E29 JUMPI PUSH2 0x1E28 PUSH2 0x27E9 JUMP JUMPDEST JUMPDEST PUSH1 0x0 PUSH2 0x1E37 DUP7 DUP3 DUP8 ADD PUSH2 0x1D4F JUMP JUMPDEST SWAP4 POP POP PUSH1 0x20 PUSH2 0x1E48 DUP7 DUP3 DUP8 ADD PUSH2 0x1D4F JUMP JUMPDEST SWAP3 POP POP PUSH1 0x40 PUSH2 0x1E59 DUP7 DUP3 DUP8 ADD PUSH2 0x1D8E JUMP JUMPDEST SWAP2 POP POP SWAP3 POP SWAP3 POP SWAP3 JUMP JUMPDEST PUSH1 0x0 DUP1 PUSH1 0x40 DUP4 DUP6 SUB SLT ISZERO PUSH2 0x1E7A JUMPI PUSH2 0x1E79 PUSH2 0x27E9 JUMP JUMPDEST JUMPDEST PUSH1 0x0 PUSH2 0x1E88 DUP6 DUP3 DUP7 ADD PUSH2 0x1D4F JUMP JUMPDEST SWAP3 POP POP PUSH1 0x20 PUSH2 0x1E99 DUP6 DUP3 DUP7 ADD PUSH2 0x1D8E JUMP JUMPDEST SWAP2 POP POP SWAP3 POP SWAP3 SWAP1 POP JUMP JUMPDEST PUSH1 0x0 PUSH1 0x20 DUP3 DUP5 SUB SLT ISZERO PUSH2 0x1EB9 JUMPI PUSH2 0x1EB8 PUSH2 0x27E9 JUMP JUMPDEST JUMPDEST PUSH1 0x0 PUSH2 0x1EC7 DUP5 DUP3 DUP6 ADD PUSH2 0x1D64 JUMP JUMPDEST SWAP2 POP POP SWAP3 SWAP2 POP POP JUMP JUMPDEST PUSH1 0x0 DUP1 PUSH1 0x40 DUP4 DUP6 SUB SLT ISZERO PUSH2 0x1EE7 JUMPI PUSH2 0x1EE6 PUSH2 0x27E9 JUMP JUMPDEST JUMPDEST PUSH1 0x0 PUSH2 0x1EF5 DUP6 DUP3 DUP7 ADD PUSH2 0x1D64 JUMP JUMPDEST SWAP3 POP POP PUSH1 0x20 PUSH2 0x1F06 DUP6 DUP3 DUP7 ADD PUSH2 0x1D4F JUMP JUMPDEST SWAP2 POP POP SWAP3 POP SWAP3 SWAP1 POP JUMP JUMPDEST PUSH1 0x0 PUSH1 0x20 DUP3 DUP5 SUB SLT ISZERO PUSH2 0x1F26 JUMPI PUSH2 0x1F25 PUSH2 0x27E9 JUMP JUMPDEST JUMPDEST PUSH1 0x0 PUSH2 0x1F34 DUP5 DUP3 DUP6 ADD PUSH2 0x1D79 JUMP JUMPDEST SWAP2 POP POP SWAP3 SWAP2 POP POP JUMP JUMPDEST PUSH2 0x1F46 DUP2 PUSH2 0x2613 JUMP JUMPDEST DUP3 MSTORE POP POP JUMP JUMPDEST PUSH2 0x1F55 DUP2 PUSH2 0x2625 JUMP JUMPDEST DUP3 MSTORE POP POP JUMP JUMPDEST PUSH2 0x1F64 DUP2 PUSH2 0x2631 JUMP JUMPDEST DUP3 MSTORE POP POP JUMP JUMPDEST PUSH1 0x0 PUSH2 0x1F75 DUP3 PUSH2 0x2508 JUMP JUMPDEST PUSH2 0x1F7F DUP2 DUP6 PUSH2 0x2513 JUMP JUMPDEST SWAP4 POP PUSH2 0x1F8F DUP2 DUP6 PUSH1 0x20 DUP7 ADD PUSH2 0x269E JUMP JUMPDEST PUSH2 0x1F98 DUP2 PUSH2 0x27EE JUMP JUMPDEST DUP5 ADD SWAP2 POP POP SWAP3 SWAP2 POP POP JUMP JUMPDEST PUSH1 0x0 PUSH2 0x1FAE DUP3 PUSH2 0x2508 JUMP JUMPDEST PUSH2 0x1FB8 DUP2 DUP6 PUSH2 0x2524 JUMP JUMPDEST SWAP4 POP PUSH2 0x1FC8 DUP2 DUP6 PUSH1 0x20 DUP7 ADD PUSH2 0x269E JUMP JUMPDEST DUP1 DUP5 ADD SWAP2 POP POP SWAP3 SWAP2 POP POP JUMP JUMPDEST PUSH1 0x0 PUSH2 0x1FE1 PUSH1 0x20 DUP4 PUSH2 0x2513 JUMP JUMPDEST SWAP2 POP PUSH2 0x1FEC DUP3 PUSH2 0x27FF JUMP JUMPDEST PUSH1 0x20 DUP3 ADD SWAP1 POP SWAP2 SWAP1 POP JUMP JUMPDEST PUSH1 0x0 PUSH2 0x2004 PUSH1 0x23 DUP4 PUSH2 0x2513 JUMP JUMPDEST SWAP2 POP PUSH2 0x200F DUP3 PUSH2 0x2828 JUMP JUMPDEST PUSH1 0x40 DUP3 ADD SWAP1 POP SWAP2 SWAP1 POP JUMP JUMPDEST PUSH1 0x0 PUSH2 0x2027 PUSH1 0x22 DUP4 PUSH2 0x2513 JUMP JUMPDEST SWAP2 POP PUSH2 0x2032 DUP3 PUSH2 0x2877 JUMP JUMPDEST PUSH1 0x40 DUP3 ADD SWAP1 POP SWAP2 SWAP1 POP JUMP JUMPDEST PUSH1 0x0 PUSH2 0x204A PUSH1 0x26 DUP4 PUSH2 0x2513 JUMP JUMPDEST SWAP2 POP PUSH2 0x2055 DUP3 PUSH2 0x28C6 JUMP JUMPDEST PUSH1 0x40 DUP3 ADD SWAP1 POP SWAP2 SWAP1 POP JUMP JUMPDEST PUSH1 0x0 PUSH2 0x206D PUSH1 0x22 DUP4 PUSH2 0x2513 JUMP JUMPDEST SWAP2 POP PUSH2 0x2078 DUP3 PUSH2 0x2915 JUMP JUMPDEST PUSH1 0x40 DUP3 ADD SWAP1 POP SWAP2 SWAP1 POP JUMP JUMPDEST PUSH1 0x0 PUSH2 0x2090 PUSH1 0x28 DUP4 PUSH2 0x2513 JUMP JUMPDEST SWAP2 POP PUSH2 0x209B DUP3 PUSH2 0x2964 JUMP JUMPDEST PUSH1 0x40 DUP3 ADD SWAP1 POP SWAP2 SWAP1 POP JUMP JUMPDEST PUSH1 0x0 PUSH2 0x20B3 PUSH1 0x26 DUP4 PUSH2 0x2513 JUMP JUMPDEST SWAP2 POP PUSH2 0x20BE DUP3 PUSH2 0x29B3 JUMP JUMPDEST PUSH1 0x40 DUP3 ADD SWAP1 POP SWAP2 SWAP1 POP JUMP JUMPDEST PUSH1 0x0 PUSH2 0x20D6 PUSH1 0x28 DUP4 PUSH2 0x2513 JUMP JUMPDEST SWAP2 POP PUSH2 0x20E1 DUP3 PUSH2 0x2A02 JUMP JUMPDEST PUSH1 0x40 DUP3 ADD SWAP1 POP SWAP2 SWAP1 POP JUMP JUMPDEST PUSH1 0x0 PUSH2 0x20F9 PUSH1 0x20 DUP4 PUSH2 0x2513 JUMP JUMPDEST SWAP2 POP PUSH2 0x2104 DUP3 PUSH2 0x2A51 JUMP JUMPDEST PUSH1 0x20 DUP3 ADD SWAP1 POP SWAP2 SWAP1 POP JUMP JUMPDEST PUSH1 0x0 PUSH2 0x211C PUSH1 0x21 DUP4 PUSH2 0x2513 JUMP JUMPDEST SWAP2 POP PUSH2 0x2127 DUP3 PUSH2 0x2A7A JUMP JUMPDEST PUSH1 0x40 DUP3 ADD SWAP1 POP SWAP2 SWAP1 POP JUMP JUMPDEST PUSH1 0x0 PUSH2 0x213F PUSH1 0x25 DUP4 PUSH2 0x2513 JUMP JUMPDEST SWAP2 POP PUSH2 0x214A DUP3 PUSH2 0x2AC9 JUMP JUMPDEST PUSH1 0x40 DUP3 ADD SWAP1 POP SWAP2 SWAP1 POP JUMP JUMPDEST PUSH1 0x0 PUSH2 0x2162 PUSH1 0x24 DUP4 PUSH2 0x2513 JUMP JUMPDEST SWAP2 POP PUSH2 0x216D DUP3 PUSH2 0x2B18 JUMP JUMPDEST PUSH1 0x40 DUP3 ADD SWAP1 POP SWAP2 SWAP1 POP JUMP JUMPDEST PUSH1 0x0 PUSH2 0x2185 PUSH1 0x17 DUP4 PUSH2 0x2524 JUMP JUMPDEST SWAP2 POP PUSH2 0x2190 DUP3 PUSH2 0x2B67 JUMP JUMPDEST PUSH1 0x17 DUP3 ADD SWAP1 POP SWAP2 SWAP1 POP JUMP JUMPDEST PUSH1 0x0 PUSH2 0x21A8 PUSH1 0x25 DUP4 PUSH2 0x2513 JUMP JUMPDEST SWAP2 POP PUSH2 0x21B3 DUP3 PUSH2 0x2B90 JUMP JUMPDEST PUSH1 0x40 DUP3 ADD SWAP1 POP SWAP2 SWAP1 POP JUMP JUMPDEST PUSH1 0x0 PUSH2 0x21CB PUSH1 0x11 DUP4 PUSH2 0x2524 JUMP JUMPDEST SWAP2 POP PUSH2 0x21D6 DUP3 PUSH2 0x2BDF JUMP JUMPDEST PUSH1 0x11 DUP3 ADD SWAP1 POP SWAP2 SWAP1 POP JUMP JUMPDEST PUSH1 0x0 PUSH2 0x21EE PUSH1 0x2F DUP4 PUSH2 0x2513 JUMP JUMPDEST SWAP2 POP PUSH2 0x21F9 DUP3 PUSH2 0x2C08 JUMP JUMPDEST PUSH1 0x40 DUP3 ADD SWAP1 POP SWAP2 SWAP1 POP JUMP JUMPDEST PUSH1 0x0 PUSH2 0x2211 PUSH1 0x1F DUP4 PUSH2 0x2513 JUMP JUMPDEST SWAP2 POP PUSH2 0x221C DUP3 PUSH2 0x2C57 JUMP JUMPDEST PUSH1 0x20 DUP3 ADD SWAP1 POP SWAP2 SWAP1 POP JUMP JUMPDEST PUSH2 0x2230 DUP2 PUSH2 0x2687 JUMP JUMPDEST DUP3 MSTORE POP POP JUMP JUMPDEST PUSH2 0x223F DUP2 PUSH2 0x2691 JUMP JUMPDEST DUP3 MSTORE POP POP JUMP JUMPDEST PUSH1 0x0 PUSH2 0x2250 DUP3 PUSH2 0x2178 JUMP JUMPDEST SWAP2 POP PUSH2 0x225C DUP3 DUP6 PUSH2 0x1FA3 JUMP JUMPDEST SWAP2 POP PUSH2 0x2267 DUP3 PUSH2 0x21BE JUMP JUMPDEST SWAP2 POP PUSH2 0x2273 DUP3 DUP5 PUSH2 0x1FA3 JUMP JUMPDEST SWAP2 POP DUP2 SWAP1 POP SWAP4 SWAP3 POP POP POP JUMP JUMPDEST PUSH1 0x0 PUSH1 0x20 DUP3 ADD SWAP1 POP PUSH2 0x2294 PUSH1 0x0 DUP4 ADD DUP5 PUSH2 0x1F3D JUMP JUMPDEST SWAP3 SWAP2 POP POP JUMP JUMPDEST PUSH1 0x0 PUSH1 0x20 DUP3 ADD SWAP1 POP PUSH2 0x22AF PUSH1 0x0 DUP4 ADD DUP5 PUSH2 0x1F4C JUMP JUMPDEST SWAP3 SWAP2 POP POP JUMP JUMPDEST PUSH1 0x0 PUSH1 0x20 DUP3 ADD SWAP1 POP PUSH2 0x22CA PUSH1 0x0 DUP4 ADD DUP5 PUSH2 0x1F5B JUMP JUMPDEST SWAP3 SWAP2 POP POP JUMP JUMPDEST PUSH1 0x0 PUSH1 0x20 DUP3 ADD SWAP1 POP DUP2 DUP2 SUB PUSH1 0x0 DUP4 ADD MSTORE PUSH2 0x22EA DUP2 DUP5 PUSH2 0x1F6A JUMP JUMPDEST SWAP1 POP SWAP3 SWAP2 POP POP JUMP JUMPDEST PUSH1 0x0 PUSH1 0x20 DUP3 ADD SWAP1 POP DUP2 DUP2 SUB PUSH1 0x0 DUP4 ADD MSTORE PUSH2 0x230B DUP2 PUSH2 0x1FD4 JUMP JUMPDEST SWAP1 POP SWAP2 SWAP1 POP JUMP JUMPDEST PUSH1 0x0 PUSH1 0x20 DUP3 ADD SWAP1 POP DUP2 DUP2 SUB PUSH1 0x0 DUP4 ADD MSTORE PUSH2 0x232B DUP2 PUSH2 0x1FF7 JUMP JUMPDEST SWAP1 POP SWAP2 SWAP1 POP JUMP JUMPDEST PUSH1 0x0 PUSH1 0x20 DUP3 ADD SWAP1 POP DUP2 DUP2 SUB PUSH1 0x0 DUP4 ADD MSTORE PUSH2 0x234B DUP2 PUSH2 0x201A JUMP JUMPDEST SWAP1 POP SWAP2 SWAP1 POP JUMP JUMPDEST PUSH1 0x0 PUSH1 0x20 DUP3 ADD SWAP1 POP DUP2 DUP2 SUB PUSH1 0x0 DUP4 ADD MSTORE PUSH2 0x236B DUP2 PUSH2 0x203D JUMP JUMPDEST SWAP1 POP SWAP2 SWAP1 POP JUMP JUMPDEST PUSH1 0x0 PUSH1 0x20 DUP3 ADD SWAP1 POP DUP2 DUP2 SUB PUSH1 0x0 DUP4 ADD MSTORE PUSH2 0x238B DUP2 PUSH2 0x2060 JUMP JUMPDEST SWAP1 POP SWAP2 SWAP1 POP JUMP JUMPDEST PUSH1 0x0 PUSH1 0x20 DUP3 ADD SWAP1 POP DUP2 DUP2 SUB PUSH1 0x0 DUP4 ADD MSTORE PUSH2 0x23AB DUP2 PUSH2 0x2083 JUMP JUMPDEST SWAP1 POP SWAP2 SWAP1 POP JUMP JUMPDEST PUSH1 0x0 PUSH1 0x20 DUP3 ADD SWAP1 POP DUP2 DUP2 SUB PUSH1 0x0 DUP4 ADD MSTORE PUSH2 0x23CB DUP2 PUSH2 0x20A6 JUMP JUMPDEST SWAP1 POP SWAP2 SWAP1 POP JUMP JUMPDEST PUSH1 0x0 PUSH1 0x20 DUP3 ADD SWAP1 POP DUP2 DUP2 SUB PUSH1 0x0 DUP4 ADD MSTORE PUSH2 0x23EB DUP2 PUSH2 0x20C9 JUMP JUMPDEST SWAP1 POP SWAP2 SWAP1 POP JUMP JUMPDEST PUSH1 0x0 PUSH1 0x20 DUP3 ADD SWAP1 POP DUP2 DUP2 SUB PUSH1 0x0 DUP4 ADD MSTORE PUSH2 0x240B DUP2 PUSH2 0x20EC JUMP JUMPDEST SWAP1 POP SWAP2 SWAP1 POP JUMP JUMPDEST PUSH1 0x0 PUSH1 0x20 DUP3 ADD SWAP1 POP DUP2 DUP2 SUB PUSH1 0x0 DUP4 ADD MSTORE PUSH2 0x242B DUP2 PUSH2 0x210F JUMP JUMPDEST SWAP1 POP SWAP2 SWAP1 POP JUMP JUMPDEST PUSH1 0x0 PUSH1 0x20 DUP3 ADD SWAP1 POP DUP2 DUP2 SUB PUSH1 0x0 DUP4 ADD MSTORE PUSH2 0x244B DUP2 PUSH2 0x2132 JUMP JUMPDEST SWAP1 POP SWAP2 SWAP1 POP JUMP JUMPDEST PUSH1 0x0 PUSH1 0x20 DUP3 ADD SWAP1 POP DUP2 DUP2 SUB PUSH1 0x0 DUP4 ADD MSTORE PUSH2 0x246B DUP2 PUSH2 0x2155 JUMP JUMPDEST SWAP1 POP SWAP2 SWAP1 POP JUMP JUMPDEST PUSH1 0x0 PUSH1 0x20 DUP3 ADD SWAP1 POP DUP2 DUP2 SUB PUSH1 0x0 DUP4 ADD MSTORE PUSH2 0x248B DUP2 PUSH2 0x219B JUMP JUMPDEST SWAP1 POP SWAP2 SWAP1 POP JUMP JUMPDEST PUSH1 0x0 PUSH1 0x20 DUP3 ADD SWAP1 POP DUP2 DUP2 SUB PUSH1 0x0 DUP4 ADD MSTORE PUSH2 0x24AB DUP2 PUSH2 0x21E1 JUMP JUMPDEST SWAP1 POP SWAP2 SWAP1 POP JUMP JUMPDEST PUSH1 0x0 PUSH1 0x20 DUP3 ADD SWAP1 POP DUP2 DUP2 SUB PUSH1 0x0 DUP4 ADD MSTORE PUSH2 0x24CB DUP2 PUSH2 0x2204 JUMP JUMPDEST SWAP1 POP SWAP2 SWAP1 POP JUMP JUMPDEST PUSH1 0x0 PUSH1 0x20 DUP3 ADD SWAP1 POP PUSH2 0x24E7 PUSH1 0x0 DUP4 ADD DUP5 PUSH2 0x2227 JUMP JUMPDEST SWAP3 SWAP2 POP POP JUMP JUMPDEST PUSH1 0x0 PUSH1 0x20 DUP3 ADD SWAP1 POP PUSH2 0x2502 PUSH1 0x0 DUP4 ADD DUP5 PUSH2 0x2236 JUMP JUMPDEST SWAP3 SWAP2 POP POP JUMP JUMPDEST PUSH1 0x0 DUP2 MLOAD SWAP1 POP SWAP2 SWAP1 POP JUMP JUMPDEST PUSH1 0x0 DUP3 DUP3 MSTORE PUSH1 0x20 DUP3 ADD SWAP1 POP SWAP3 SWAP2 POP POP JUMP JUMPDEST PUSH1 0x0 DUP2 SWAP1 POP SWAP3 SWAP2 POP POP JUMP JUMPDEST PUSH1 0x0 PUSH2 0x253A DUP3 PUSH2 0x2687 JUMP JUMPDEST SWAP2 POP PUSH2 0x2545 DUP4 PUSH2 0x2687 JUMP JUMPDEST SWAP3 POP DUP3 PUSH32 0xFFFFFFFFFFFFFFFFFFFFFFFFFFFFFFFFFFFFFFFFFFFFFFFFFFFFFFFFFFFFFFFF SUB DUP3 GT ISZERO PUSH2 0x257A JUMPI PUSH2 0x2579 PUSH2 0x272D JUMP JUMPDEST JUMPDEST DUP3 DUP3 ADD SWAP1 POP SWAP3 SWAP2 POP POP JUMP JUMPDEST PUSH1 0x0 PUSH2 0x2590 DUP3 PUSH2 0x2687 JUMP JUMPDEST SWAP2 POP PUSH2 0x259B DUP4 PUSH2 0x2687 JUMP JUMPDEST SWAP3 POP DUP2 PUSH32 0xFFFFFFFFFFFFFFFFFFFFFFFFFFFFFFFFFFFFFFFFFFFFFFFFFFFFFFFFFFFFFFFF DIV DUP4 GT DUP3 ISZERO ISZERO AND ISZERO PUSH2 0x25D4 JUMPI PUSH2 0x25D3 PUSH2 0x272D JUMP JUMPDEST JUMPDEST DUP3 DUP3 MUL SWAP1 POP SWAP3 SWAP2 POP POP JUMP JUMPDEST PUSH1 0x0 PUSH2 0x25EA DUP3 PUSH2 0x2687 JUMP JUMPDEST SWAP2 POP PUSH2 0x25F5 DUP4 PUSH2 0x2687 JUMP JUMPDEST SWAP3 POP DUP3 DUP3 LT ISZERO PUSH2 0x2608 JUMPI PUSH2 0x2607 PUSH2 0x272D JUMP JUMPDEST JUMPDEST DUP3 DUP3 SUB SWAP1 POP SWAP3 SWAP2 POP POP JUMP JUMPDEST PUSH1 0x0 PUSH2 0x261E DUP3 PUSH2 0x2667 JUMP JUMPDEST SWAP1 POP SWAP2 SWAP1 POP JUMP JUMPDEST PUSH1 0x0 DUP2 ISZERO ISZERO SWAP1 POP SWAP2 SWAP1 POP JUMP JUMPDEST PUSH1 0x0 DUP2 SWAP1 POP SWAP2 SWAP1 POP JUMP JUMPDEST PUSH1 0x0 PUSH32 0xFFFFFFFF00000000000000000000000000000000000000000000000000000000 DUP3 AND SWAP1 POP SWAP2 SWAP1 POP JUMP JUMPDEST PUSH1 0x0 PUSH20 0xFFFFFFFFFFFFFFFFFFFFFFFFFFFFFFFFFFFFFFFF DUP3 AND SWAP1 POP SWAP2 SWAP1 POP JUMP JUMPDEST PUSH1 0x0 DUP2 SWAP1 POP SWAP2 SWAP1 POP JUMP JUMPDEST PUSH1 0x0 PUSH1 0xFF DUP3 AND SWAP1 POP SWAP2 SWAP1 POP JUMP JUMPDEST PUSH1 0x0 JUMPDEST DUP4 DUP2 LT ISZERO PUSH2 0x26BC JUMPI DUP1 DUP3 ADD MLOAD DUP2 DUP5 ADD MSTORE PUSH1 0x20 DUP2 ADD SWAP1 POP PUSH2 0x26A1 JUMP JUMPDEST DUP4 DUP2 GT ISZERO PUSH2 0x26CB JUMPI PUSH1 0x0 DUP5 DUP5 ADD MSTORE JUMPDEST POP POP POP POP JUMP JUMPDEST PUSH1 0x0 PUSH2 0x26DC DUP3 PUSH2 0x2687 JUMP JUMPDEST SWAP2 POP PUSH1 0x0 DUP3 EQ ISZERO PUSH2 0x26F0 JUMPI PUSH2 0x26EF PUSH2 0x272D JUMP JUMPDEST JUMPDEST PUSH1 0x1 DUP3 SUB SWAP1 POP SWAP2 SWAP1 POP JUMP JUMPDEST PUSH1 0x0 PUSH1 0x2 DUP3 DIV SWAP1 POP PUSH1 0x1 DUP3 AND DUP1 PUSH2 0x2713 JUMPI PUSH1 0x7F DUP3 AND SWAP2 POP JUMPDEST PUSH1 0x20 DUP3 LT DUP2 EQ ISZERO PUSH2 0x2727 JUMPI PUSH2 0x2726 PUSH2 0x275C JUMP JUMPDEST JUMPDEST POP SWAP2 SWAP1 POP JUMP JUMPDEST PUSH32 0x4E487B7100000000000000000000000000000000000000000000000000000000 PUSH1 0x0 MSTORE PUSH1 0x11 PUSH1 0x4 MSTORE PUSH1 0x24 PUSH1 0x0 REVERT JUMPDEST PUSH32 0x4E487B7100000000000000000000000000000000000000000000000000000000 PUSH1 0x0 MSTORE PUSH1 0x22 PUSH1 0x4 MSTORE PUSH1 0x24 PUSH1 0x0 REVERT JUMPDEST PUSH32 0x4E487B7100000000000000000000000000000000000000000000000000000000 PUSH1 0x0 MSTORE PUSH1 0x32 PUSH1 0x4 MSTORE PUSH1 0x24 PUSH1 0x0 REVERT JUMPDEST PUSH32 0x4E487B7100000000000000000000000000000000000000000000000000000000 PUSH1 0x0 MSTORE PUSH1 0x41 PUSH1 0x4 MSTORE PUSH1 0x24 PUSH1 0x0 REVERT JUMPDEST PUSH1 0x0 DUP1 REVERT JUMPDEST PUSH1 0x0 PUSH1 0x1F NOT PUSH1 0x1F DUP4 ADD AND SWAP1 POP SWAP2 SWAP1 POP JUMP JUMPDEST PUSH32 0x537472696E67733A20686578206C656E67746820696E73756666696369656E74 PUSH1 0x0 DUP3 ADD MSTORE POP JUMP JUMPDEST PUSH32 0x45524332303A207472616E7366657220746F20746865207A65726F2061646472 PUSH1 0x0 DUP3 ADD MSTORE PUSH32 0x6573730000000000000000000000000000000000000000000000000000000000 PUSH1 0x20 DUP3 ADD MSTORE POP JUMP JUMPDEST PUSH32 0x45524332303A206275726E20616D6F756E7420657863656564732062616C616E PUSH1 0x0 DUP3 ADD MSTORE PUSH32 0x6365000000000000000000000000000000000000000000000000000000000000 PUSH1 0x20 DUP3 ADD MSTORE POP JUMP JUMPDEST PUSH32 0x4F776E61626C653A206E6577206F776E657220697320746865207A65726F2061 PUSH1 0x0 DUP3 ADD MSTORE PUSH32 0x6464726573730000000000000000000000000000000000000000000000000000 PUSH1 0x20 DUP3 ADD MSTORE POP JUMP JUMPDEST PUSH32 0x45524332303A20617070726F766520746F20746865207A65726F206164647265 PUSH1 0x0 DUP3 ADD MSTORE PUSH32 0x7373000000000000000000000000000000000000000000000000000000000000 PUSH1 0x20 DUP3 ADD MSTORE POP JUMP JUMPDEST PUSH32 0x4D696E74657220526F6C653A2043616C6C657220537570706F73656420546F20 PUSH1 0x0 DUP3 ADD MSTORE PUSH32 0x4265204D696E6574000000000000000000000000000000000000000000000000 PUSH1 0x20 DUP3 ADD MSTORE POP JUMP JUMPDEST PUSH32 0x45524332303A207472616E7366657220616D6F756E7420657863656564732062 PUSH1 0x0 DUP3 ADD MSTORE PUSH32 0x616C616E63650000000000000000000000000000000000000000000000000000 PUSH1 0x20 DUP3 ADD MSTORE POP JUMP JUMPDEST PUSH32 0x45524332303A207472616E7366657220616D6F756E7420657863656564732061 PUSH1 0x0 DUP3 ADD MSTORE PUSH32 0x6C6C6F77616E6365000000000000000000000000000000000000000000000000 PUSH1 0x20 DUP3 ADD MSTORE POP JUMP JUMPDEST PUSH32 0x4F776E61626C653A2063616C6C6572206973206E6F7420746865206F776E6572 PUSH1 0x0 DUP3 ADD MSTORE POP JUMP JUMPDEST PUSH32 0x45524332303A206275726E2066726F6D20746865207A65726F20616464726573 PUSH1 0x0 DUP3 ADD MSTORE PUSH32 0x7300000000000000000000000000000000000000000000000000000000000000 PUSH1 0x20 DUP3 ADD MSTORE POP JUMP JUMPDEST PUSH32 0x45524332303A207472616E736665722066726F6D20746865207A65726F206164 PUSH1 0x0 DUP3 ADD MSTORE PUSH32 0x6472657373000000000000000000000000000000000000000000000000000000 PUSH1 0x20 DUP3 ADD MSTORE POP JUMP JUMPDEST PUSH32 0x45524332303A20617070726F76652066726F6D20746865207A65726F20616464 PUSH1 0x0 DUP3 ADD MSTORE PUSH32 0x7265737300000000000000000000000000000000000000000000000000000000 PUSH1 0x20 DUP3 ADD MSTORE POP JUMP JUMPDEST PUSH32 0x416363657373436F6E74726F6C3A206163636F756E7420000000000000000000 PUSH1 0x0 DUP3 ADD MSTORE POP JUMP JUMPDEST PUSH32 0x45524332303A2064656372656173656420616C6C6F77616E63652062656C6F77 PUSH1 0x0 DUP3 ADD MSTORE PUSH32 0x207A65726F000000000000000000000000000000000000000000000000000000 PUSH1 0x20 DUP3 ADD MSTORE POP JUMP JUMPDEST PUSH32 0x206973206D697373696E6720726F6C6520000000000000000000000000000000 PUSH1 0x0 DUP3 ADD MSTORE POP JUMP JUMPDEST PUSH32 0x416363657373436F6E74726F6C3A2063616E206F6E6C792072656E6F756E6365 PUSH1 0x0 DUP3 ADD MSTORE PUSH32 0x20726F6C657320666F722073656C660000000000000000000000000000000000 PUSH1 0x20 DUP3 ADD MSTORE POP JUMP JUMPDEST PUSH32 0x45524332303A206D696E7420746F20746865207A65726F206164647265737300 PUSH1 0x0 DUP3 ADD MSTORE POP JUMP JUMPDEST PUSH2 0x2C89 DUP2 PUSH2 0x2613 JUMP JUMPDEST DUP2 EQ PUSH2 0x2C94 JUMPI PUSH1 0x0 DUP1 REVERT JUMPDEST POP JUMP JUMPDEST PUSH2 0x2CA0 DUP2 PUSH2 0x2631 JUMP JUMPDEST DUP2 EQ PUSH2 0x2CAB JUMPI PUSH1 0x0 DUP1 REVERT JUMPDEST POP JUMP JUMPDEST PUSH2 0x2CB7 DUP2 PUSH2 0x263B JUMP JUMPDEST DUP2 EQ PUSH2 0x2CC2 JUMPI PUSH1 0x0 DUP1 REVERT JUMPDEST POP JUMP JUMPDEST PUSH2 0x2CCE DUP2 PUSH2 0x2687 JUMP JUMPDEST DUP2 EQ PUSH2 0x2CD9 JUMPI PUSH1 0x0 DUP1 REVERT JUMPDEST POP JUMP INVALID LOG2 PUSH5 0x6970667358 0x22 SLT KECCAK256 0xBA 0xB3 0xAD 0xC4 DUP2 SWAP7 0xFB 0xD7 0xF6 0xE6 0xD5 JUMP 0xC2 0xB1 0x5C 0x29 0xF 0xAA RETURNDATACOPY 0xDF 0xED PUSH32 0x356A1B47B4B2A56E17AE64736F6C634300080700330000000000000000000000 "
				},
				"gasEstimates": {
					"creation": {
						"codeDepositCost": "2307600",
						"executionCost": "infinite",
						"totalCost": "infinite"
					},
					"external": {
						"DEFAULT_ADMIN_ROLE()": "380",
						"MINTER_ROLE()": "373",
						"addMinter(address)": "infinite",
						"allowance(address,address)": "infinite",
						"approve(address,uint256)": "infinite",
						"balanceOf(address)": "2974",
						"burn(address,uint256)": "infinite",
						"decimals()": "388",
						"decreaseAllowance(address,uint256)": "infinite",
						"getRoleAdmin(bytes32)": "infinite",
						"grantRole(bytes32,address)": "infinite",
						"hasRole(bytes32,address)": "3207",
						"increaseAllowance(address,uint256)": "infinite",
						"mint(address,uint256)": "infinite",
						"name()": "infinite",
						"owner()": "2567",
						"renounceOwnership()": "30352",
						"renounceRole(bytes32,address)": "infinite",
						"revokeRole(bytes32,address)": "infinite",
						"supportsInterface(bytes4)": "751",
						"symbol()": "infinite",
						"totalSupply()": "2527",
						"transfer(address,uint256)": "infinite",
						"transferFrom(address,address,uint256)": "infinite",
						"transferOwnership(address)": "30788"
					},
					"internal": {
						"_approve(address,address,uint256)": "infinite",
						"_beforeTokenTransfer(address,address,uint256)": "15",
						"_burn(address,uint256)": "infinite",
						"_mint(address,uint256)": "infinite",
						"_transfer(address,address,uint256)": "infinite"
					}
				},
				"methodIdentifiers": {
					"DEFAULT_ADMIN_ROLE()": "a217fddf",
					"MINTER_ROLE()": "d5391393",
					"addMinter(address)": "983b2d56",
					"allowance(address,address)": "dd62ed3e",
					"approve(address,uint256)": "095ea7b3",
					"balanceOf(address)": "70a08231",
					"burn(address,uint256)": "9dc29fac",
					"decimals()": "313ce567",
					"decreaseAllowance(address,uint256)": "a457c2d7",
					"getRoleAdmin(bytes32)": "248a9ca3",
					"grantRole(bytes32,address)": "2f2ff15d",
					"hasRole(bytes32,address)": "91d14854",
					"increaseAllowance(address,uint256)": "39509351",
					"mint(address,uint256)": "40c10f19",
					"name()": "06fdde03",
					"owner()": "8da5cb5b",
					"renounceOwnership()": "715018a6",
					"renounceRole(bytes32,address)": "36568abe",
					"revokeRole(bytes32,address)": "d547741f",
					"supportsInterface(bytes4)": "01ffc9a7",
					"symbol()": "95d89b41",
					"totalSupply()": "18160ddd",
					"transfer(address,uint256)": "a9059cbb",
					"transferFrom(address,address,uint256)": "23b872dd",
					"transferOwnership(address)": "f2fde38b"
				}
			},
			"storageLayout": {
				"storage": [
					{
						"astId": 124,
						"contract": "erc20.sol:PHOINIX_Token",
						"label": "_owner",
						"offset": 0,
						"slot": "0",
						"type": "t_address"
					},
					{
						"astId": 577,
						"contract": "erc20.sol:PHOINIX_Token",
						"label": "_roles",
						"offset": 0,
						"slot": "1",
						"type": "t_mapping(t_bytes32,t_struct(RoleData)572_storage)"
					},
					{
						"astId": 882,
						"contract": "erc20.sol:PHOINIX_Token",
						"label": "_balances",
						"offset": 0,
						"slot": "2",
						"type": "t_mapping(t_address,t_uint256)"
					},
					{
						"astId": 888,
						"contract": "erc20.sol:PHOINIX_Token",
						"label": "_allowances",
						"offset": 0,
						"slot": "3",
						"type": "t_mapping(t_address,t_mapping(t_address,t_uint256))"
					},
					{
						"astId": 890,
						"contract": "erc20.sol:PHOINIX_Token",
						"label": "_totalSupply",
						"offset": 0,
						"slot": "4",
						"type": "t_uint256"
					},
					{
						"astId": 892,
						"contract": "erc20.sol:PHOINIX_Token",
						"label": "_name",
						"offset": 0,
						"slot": "5",
						"type": "t_string_storage"
					},
					{
						"astId": 894,
						"contract": "erc20.sol:PHOINIX_Token",
						"label": "_symbol",
						"offset": 0,
						"slot": "6",
						"type": "t_string_storage"
					}
				],
				"types": {
					"t_address": {
						"encoding": "inplace",
						"label": "address",
						"numberOfBytes": "20"
					},
					"t_bool": {
						"encoding": "inplace",
						"label": "bool",
						"numberOfBytes": "1"
					},
					"t_bytes32": {
						"encoding": "inplace",
						"label": "bytes32",
						"numberOfBytes": "32"
					},
					"t_mapping(t_address,t_bool)": {
						"encoding": "mapping",
						"key": "t_address",
						"label": "mapping(address => bool)",
						"numberOfBytes": "32",
						"value": "t_bool"
					},
					"t_mapping(t_address,t_mapping(t_address,t_uint256))": {
						"encoding": "mapping",
						"key": "t_address",
						"label": "mapping(address => mapping(address => uint256))",
						"numberOfBytes": "32",
						"value": "t_mapping(t_address,t_uint256)"
					},
					"t_mapping(t_address,t_uint256)": {
						"encoding": "mapping",
						"key": "t_address",
						"label": "mapping(address => uint256)",
						"numberOfBytes": "32",
						"value": "t_uint256"
					},
					"t_mapping(t_bytes32,t_struct(RoleData)572_storage)": {
						"encoding": "mapping",
						"key": "t_bytes32",
						"label": "mapping(bytes32 => struct AccessControl.RoleData)",
						"numberOfBytes": "32",
						"value": "t_struct(RoleData)572_storage"
					},
					"t_string_storage": {
						"encoding": "bytes",
						"label": "string",
						"numberOfBytes": "32"
					},
					"t_struct(RoleData)572_storage": {
						"encoding": "inplace",
						"label": "struct AccessControl.RoleData",
						"members": [
							{
								"astId": 569,
								"contract": "erc20.sol:PHOINIX_Token",
								"label": "members",
								"offset": 0,
								"slot": "0",
								"type": "t_mapping(t_address,t_bool)"
							},
							{
								"astId": 571,
								"contract": "erc20.sol:PHOINIX_Token",
								"label": "adminRole",
								"offset": 0,
								"slot": "1",
								"type": "t_bytes32"
							}
						],
						"numberOfBytes": "64"
					},
					"t_uint256": {
						"encoding": "inplace",
						"label": "uint256",
						"numberOfBytes": "32"
					}
				}
			},
			"userdoc": {
				"kind": "user",
				"methods": {},
				"version": 1
			}
		}
	}
}