{
	"contracts/ICO_Contract.sol": {
		"ICO_Contract": {
			"abi": [
				{
					"inputs": [
						{
							"internalType": "address",
							"name": "_Owners_Wallet",
							"type": "address"
						}
					],
					"stateMutability": "nonpayable",
					"type": "constructor"
				},
				{
					"inputs": [],
					"name": "Amount_Rate",
					"outputs": [
						{
							"internalType": "uint256",
							"name": "",
							"type": "uint256"
						}
					],
					"stateMutability": "view",
					"type": "function"
				},
				{
					"inputs": [
						{
							"internalType": "address",
							"name": "",
							"type": "address"
						}
					],
					"name": "BlackList_Addresses",
					"outputs": [
						{
							"internalType": "bool",
							"name": "",
							"type": "bool"
						}
					],
					"stateMutability": "view",
					"type": "function"
				},
				{
					"inputs": [
						{
							"internalType": "uint256",
							"name": "Amount",
							"type": "uint256"
						}
					],
					"name": "BuyTokens",
					"outputs": [
						{
							"internalType": "bool",
							"name": "",
							"type": "bool"
						}
					],
					"stateMutability": "payable",
					"type": "function"
				},
				{
					"inputs": [
						{
							"internalType": "address",
							"name": "NewOwner",
							"type": "address"
						}
					],
					"name": "ChangeOwner",
					"outputs": [
						{
							"internalType": "bool",
							"name": "",
							"type": "bool"
						}
					],
					"stateMutability": "nonpayable",
					"type": "function"
				},
				{
					"inputs": [],
					"name": "CheckingRemainingPresaleTokens",
					"outputs": [
						{
							"internalType": "uint256",
							"name": "",
							"type": "uint256"
						}
					],
					"stateMutability": "view",
					"type": "function"
				},
				{
					"inputs": [],
					"name": "CloseSale",
					"outputs": [],
					"stateMutability": "nonpayable",
					"type": "function"
				},
				{
					"inputs": [],
					"name": "EndTime",
					"outputs": [
						{
							"internalType": "uint256",
							"name": "",
							"type": "uint256"
						}
					],
					"stateMutability": "view",
					"type": "function"
				},
				{
					"inputs": [],
					"name": "GetEndingTime",
					"outputs": [
						{
							"internalType": "uint256",
							"name": "",
							"type": "uint256"
						}
					],
					"stateMutability": "view",
					"type": "function"
				},
				{
					"inputs": [],
					"name": "GetStartTimeofPresale",
					"outputs": [
						{
							"internalType": "uint256",
							"name": "",
							"type": "uint256"
						}
					],
					"stateMutability": "view",
					"type": "function"
				},
				{
					"inputs": [],
					"name": "GetSymbol",
					"outputs": [
						{
							"internalType": "string",
							"name": "",
							"type": "string"
						}
					],
					"stateMutability": "view",
					"type": "function"
				},
				{
					"inputs": [],
					"name": "GetTokenName",
					"outputs": [
						{
							"internalType": "string",
							"name": "",
							"type": "string"
						}
					],
					"stateMutability": "view",
					"type": "function"
				},
				{
					"inputs": [],
					"name": "MaxTokensToSell",
					"outputs": [
						{
							"internalType": "uint256",
							"name": "",
							"type": "uint256"
						}
					],
					"stateMutability": "view",
					"type": "function"
				},
				{
					"inputs": [],
					"name": "OverAllTotalSupply",
					"outputs": [
						{
							"internalType": "uint256",
							"name": "",
							"type": "uint256"
						}
					],
					"stateMutability": "view",
					"type": "function"
				},
				{
					"inputs": [],
					"name": "Owner",
					"outputs": [
						{
							"internalType": "address",
							"name": "",
							"type": "address"
						}
					],
					"stateMutability": "view",
					"type": "function"
				},
				{
					"inputs": [],
					"name": "Owners_Wallet",
					"outputs": [
						{
							"internalType": "address",
							"name": "",
							"type": "address"
						}
					],
					"stateMutability": "view",
					"type": "function"
				},
				{
					"inputs": [
						{
							"internalType": "address",
							"name": "",
							"type": "address"
						}
					],
					"name": "PresaleHolders",
					"outputs": [
						{
							"internalType": "uint256",
							"name": "",
							"type": "uint256"
						}
					],
					"stateMutability": "view",
					"type": "function"
				},
				{
					"inputs": [],
					"name": "Rate",
					"outputs": [
						{
							"internalType": "uint256",
							"name": "",
							"type": "uint256"
						}
					],
					"stateMutability": "view",
					"type": "function"
				},
				{
					"inputs": [],
					"name": "RemainingTokensToSell",
					"outputs": [
						{
							"internalType": "uint256",
							"name": "",
							"type": "uint256"
						}
					],
					"stateMutability": "view",
					"type": "function"
				},
				{
					"inputs": [],
					"name": "Sale",
					"outputs": [
						{
							"internalType": "bool",
							"name": "",
							"type": "bool"
						}
					],
					"stateMutability": "view",
					"type": "function"
				},
				{
					"inputs": [
						{
							"internalType": "address",
							"name": "BAddress",
							"type": "address"
						},
						{
							"internalType": "bool",
							"name": "flag",
							"type": "bool"
						}
					],
					"name": "SetUpBlackListAddress",
					"outputs": [],
					"stateMutability": "nonpayable",
					"type": "function"
				},
				{
					"inputs": [
						{
							"internalType": "address",
							"name": "_Contract_Address",
							"type": "address"
						}
					],
					"name": "Setup_Address",
					"outputs": [],
					"stateMutability": "nonpayable",
					"type": "function"
				},
				{
					"inputs": [],
					"name": "StartTime",
					"outputs": [
						{
							"internalType": "uint256",
							"name": "",
							"type": "uint256"
						}
					],
					"stateMutability": "view",
					"type": "function"
				},
				{
					"inputs": [],
					"name": "TokenAddress",
					"outputs": [
						{
							"internalType": "address",
							"name": "",
							"type": "address"
						}
					],
					"stateMutability": "view",
					"type": "function"
				},
				{
					"inputs": [
						{
							"internalType": "address",
							"name": "account",
							"type": "address"
						}
					],
					"name": "balanceOf",
					"outputs": [
						{
							"internalType": "uint256",
							"name": "",
							"type": "uint256"
						}
					],
					"stateMutability": "view",
					"type": "function"
				},
				{
					"inputs": [],
					"name": "decimalss",
					"outputs": [
						{
							"internalType": "uint256",
							"name": "",
							"type": "uint256"
						}
					],
					"stateMutability": "view",
					"type": "function"
				},
				{
					"inputs": [],
					"name": "getPriceOFPresaleToken",
					"outputs": [
						{
							"internalType": "uint256",
							"name": "",
							"type": "uint256"
						}
					],
					"stateMutability": "view",
					"type": "function"
				},
				{
					"inputs": [],
					"name": "isSale_Open",
					"outputs": [
						{
							"internalType": "bool",
							"name": "",
							"type": "bool"
						}
					],
					"stateMutability": "view",
					"type": "function"
				},
				{
					"inputs": [],
					"name": "numberOfPresaleHolders",
					"outputs": [
						{
							"internalType": "uint256",
							"name": "",
							"type": "uint256"
						}
					],
					"stateMutability": "view",
					"type": "function"
				},
				{
					"inputs": [],
					"name": "numberOfPresaleTokensHolder",
					"outputs": [
						{
							"internalType": "uint256",
							"name": "",
							"type": "uint256"
						}
					],
					"stateMutability": "view",
					"type": "function"
				},
				{
					"inputs": [
						{
							"internalType": "uint256",
							"name": "_Rate",
							"type": "uint256"
						}
					],
					"name": "updateRate",
					"outputs": [],
					"stateMutability": "nonpayable",
					"type": "function"
				}
			],
			"devdoc": {
				"kind": "dev",
				"methods": {},
				"version": 1
			},
			"evm": {
				"assembly": "    /* \"contracts/ICO_Contract.sol\":867:4769  contract ICO_Contract{... */\n  mstore(0x40, 0x80)\n    /* \"contracts/ICO_Contract.sol\":1439:1878  constructor(address _Owners_Wallet){... */\n  callvalue\n  dup1\n  iszero\n  tag_1\n  jumpi\n  0x00\n  dup1\n  revert\ntag_1:\n  pop\n  mload(0x40)\n  sub(codesize, bytecodeSize)\n  dup1\n  bytecodeSize\n  dup4\n  codecopy\n  dup2\n  dup2\n  add\n  0x40\n  mstore\n  dup2\n  add\n  swap1\n  tag_2\n  swap2\n  swap1\n  tag_3\n  jump\t// in\ntag_2:\n    /* \"contracts/ICO_Contract.sol\":1496:1511  block.timestamp */\n  timestamp\n    /* \"contracts/ICO_Contract.sol\":1484:1493  StartTime */\n  0x00\n    /* \"contracts/ICO_Contract.sol\":1484:1511  StartTime = block.timestamp */\n  dup2\n  swap1\n  sstore\n  pop\n    /* \"contracts/ICO_Contract.sol\":1550:1557  10 days */\n  0x0d2f00\n    /* \"contracts/ICO_Contract.sol\":1532:1547  block.timestamp */\n  timestamp\n    /* \"contracts/ICO_Contract.sol\":1532:1557  block.timestamp + 10 days */\n  tag_6\n  swap2\n  swap1\n  tag_7\n  jump\t// in\ntag_6:\n    /* \"contracts/ICO_Contract.sol\":1521:1528  EndTime */\n  0x01\n    /* \"contracts/ICO_Contract.sol\":1521:1557  EndTime =  block.timestamp + 10 days */\n  dup2\n  swap1\n  sstore\n  pop\n    /* \"contracts/ICO_Contract.sol\":1581:1585  true */\n  0x01\n    /* \"contracts/ICO_Contract.sol\":1567:1578  isSale_Open */\n  0x02\n  0x00\n    /* \"contracts/ICO_Contract.sol\":1567:1585  isSale_Open = true */\n  0x0100\n  exp\n  dup2\n  sload\n  dup2\n  0xff\n  mul\n  not\n  and\n  swap1\n  dup4\n  iszero\n  iszero\n  mul\n  or\n  swap1\n  sstore\n  pop\n    /* \"contracts/ICO_Contract.sol\":1611:1625  _Owners_Wallet */\n  dup1\n    /* \"contracts/ICO_Contract.sol\":1595:1608  Owners_Wallet */\n  0x02\n  0x01\n    /* \"contracts/ICO_Contract.sol\":1595:1625  Owners_Wallet = _Owners_Wallet */\n  0x0100\n  exp\n  dup2\n  sload\n  dup2\n  0xffffffffffffffffffffffffffffffffffffffff\n  mul\n  not\n  and\n  swap1\n  dup4\n  0xffffffffffffffffffffffffffffffffffffffff\n  and\n  mul\n  or\n  swap1\n  sstore\n  pop\n    /* \"contracts/ICO_Contract.sol\":1643:1653  msg.sender */\n  caller\n    /* \"contracts/ICO_Contract.sol\":1635:1640  Owner */\n  0x04\n  0x00\n    /* \"contracts/ICO_Contract.sol\":1635:1653  Owner = msg.sender */\n  0x0100\n  exp\n  dup2\n  sload\n  dup2\n  0xffffffffffffffffffffffffffffffffffffffff\n  mul\n  not\n  and\n  swap1\n  dup4\n  0xffffffffffffffffffffffffffffffffffffffff\n  and\n  mul\n  or\n  swap1\n  sstore\n  pop\n    /* \"contracts/ICO_Contract.sol\":1681:1706  5000000000000000000000000 */\n  0x0422ca8b0a00a425000000\n    /* \"contracts/ICO_Contract.sol\":1663:1678  MaxTokensToSell */\n  0x07\n    /* \"contracts/ICO_Contract.sol\":1663:1706  MaxTokensToSell = 5000000000000000000000000 */\n  dup2\n  swap1\n  sstore\n  pop\n    /* \"contracts/ICO_Contract.sol\":1740:1755  MaxTokensToSell */\n  sload(0x07)\n    /* \"contracts/ICO_Contract.sol\":1716:1737  RemainingTokensToSell */\n  0x08\n    /* \"contracts/ICO_Contract.sol\":1716:1755  RemainingTokensToSell = MaxTokensToSell */\n  dup2\n  swap1\n  sstore\n  pop\n    /* \"contracts/ICO_Contract.sol\":1772:1777  1 wei */\n  0x01\n    /* \"contracts/ICO_Contract.sol\":1765:1769  Rate */\n  0x05\n    /* \"contracts/ICO_Contract.sol\":1765:1777  Rate = 1 wei */\n  dup2\n  swap1\n  sstore\n  pop\n    /* \"contracts/ICO_Contract.sol\":1801:1822  100000000000000000000 */\n  0x056bc75e2d63100000\n    /* \"contracts/ICO_Contract.sol\":1787:1798  Amount_Rate */\n  0x0a\n    /* \"contracts/ICO_Contract.sol\":1787:1822  Amount_Rate = 100000000000000000000 */\n  dup2\n  swap1\n  sstore\n  pop\n    /* \"contracts/ICO_Contract.sol\":1865:1870  false */\n  0x00\n    /* \"contracts/ICO_Contract.sol\":1855:1862  isSetup */\n  0x0b\n  0x00\n    /* \"contracts/ICO_Contract.sol\":1855:1870  isSetup = false */\n  0x0100\n  exp\n  dup2\n  sload\n  dup2\n  0xff\n  mul\n  not\n  and\n  swap1\n  dup4\n  iszero\n  iszero\n  mul\n  or\n  swap1\n  sstore\n  pop\n    /* \"contracts/ICO_Contract.sol\":1439:1878  constructor(address _Owners_Wallet){... */\n  pop\n    /* \"contracts/ICO_Contract.sol\":867:4769  contract ICO_Contract{... */\n  jump(tag_8)\n    /* \"#utility.yul\":7:150   */\ntag_10:\n    /* \"#utility.yul\":64:69   */\n  0x00\n    /* \"#utility.yul\":95:101   */\n  dup2\n    /* \"#utility.yul\":89:102   */\n  mload\n    /* \"#utility.yul\":80:102   */\n  swap1\n  pop\n    /* \"#utility.yul\":111:144   */\n  tag_12\n    /* \"#utility.yul\":138:143   */\n  dup2\n    /* \"#utility.yul\":111:144   */\n  tag_13\n  jump\t// in\ntag_12:\n    /* \"#utility.yul\":7:150   */\n  swap3\n  swap2\n  pop\n  pop\n  jump\t// out\n    /* \"#utility.yul\":156:507   */\ntag_3:\n    /* \"#utility.yul\":226:232   */\n  0x00\n    /* \"#utility.yul\":275:277   */\n  0x20\n    /* \"#utility.yul\":263:272   */\n  dup3\n    /* \"#utility.yul\":254:261   */\n  dup5\n    /* \"#utility.yul\":250:273   */\n  sub\n    /* \"#utility.yul\":246:278   */\n  slt\n    /* \"#utility.yul\":243:362   */\n  iszero\n  tag_15\n  jumpi\n    /* \"#utility.yul\":281:360   */\n  tag_16\n  tag_17\n  jump\t// in\ntag_16:\n    /* \"#utility.yul\":243:362   */\ntag_15:\n    /* \"#utility.yul\":401:402   */\n  0x00\n    /* \"#utility.yul\":426:490   */\n  tag_18\n    /* \"#utility.yul\":482:489   */\n  dup5\n    /* \"#utility.yul\":473:479   */\n  dup3\n    /* \"#utility.yul\":462:471   */\n  dup6\n    /* \"#utility.yul\":458:480   */\n  add\n    /* \"#utility.yul\":426:490   */\n  tag_10\n  jump\t// in\ntag_18:\n    /* \"#utility.yul\":416:490   */\n  swap2\n  pop\n    /* \"#utility.yul\":372:500   */\n  pop\n    /* \"#utility.yul\":156:507   */\n  swap3\n  swap2\n  pop\n  pop\n  jump\t// out\n    /* \"#utility.yul\":594:899   */\ntag_7:\n    /* \"#utility.yul\":634:637   */\n  0x00\n    /* \"#utility.yul\":653:673   */\n  tag_22\n    /* \"#utility.yul\":671:672   */\n  dup3\n    /* \"#utility.yul\":653:673   */\n  tag_23\n  jump\t// in\ntag_22:\n    /* \"#utility.yul\":648:673   */\n  swap2\n  pop\n    /* \"#utility.yul\":687:707   */\n  tag_24\n    /* \"#utility.yul\":705:706   */\n  dup4\n    /* \"#utility.yul\":687:707   */\n  tag_23\n  jump\t// in\ntag_24:\n    /* \"#utility.yul\":682:707   */\n  swap3\n  pop\n    /* \"#utility.yul\":841:842   */\n  dup3\n    /* \"#utility.yul\":773:839   */\n  0xffffffffffffffffffffffffffffffffffffffffffffffffffffffffffffffff\n    /* \"#utility.yul\":769:843   */\n  sub\n    /* \"#utility.yul\":766:767   */\n  dup3\n    /* \"#utility.yul\":763:844   */\n  gt\n    /* \"#utility.yul\":760:867   */\n  iszero\n  tag_25\n  jumpi\n    /* \"#utility.yul\":847:865   */\n  tag_26\n  tag_27\n  jump\t// in\ntag_26:\n    /* \"#utility.yul\":760:867   */\ntag_25:\n    /* \"#utility.yul\":891:892   */\n  dup3\n    /* \"#utility.yul\":888:889   */\n  dup3\n    /* \"#utility.yul\":884:893   */\n  add\n    /* \"#utility.yul\":877:893   */\n  swap1\n  pop\n    /* \"#utility.yul\":594:899   */\n  swap3\n  swap2\n  pop\n  pop\n  jump\t// out\n    /* \"#utility.yul\":905:1001   */\ntag_28:\n    /* \"#utility.yul\":942:949   */\n  0x00\n    /* \"#utility.yul\":971:995   */\n  tag_30\n    /* \"#utility.yul\":989:994   */\n  dup3\n    /* \"#utility.yul\":971:995   */\n  tag_31\n  jump\t// in\ntag_30:\n    /* \"#utility.yul\":960:995   */\n  swap1\n  pop\n    /* \"#utility.yul\":905:1001   */\n  swap2\n  swap1\n  pop\n  jump\t// out\n    /* \"#utility.yul\":1007:1133   */\ntag_31:\n    /* \"#utility.yul\":1044:1051   */\n  0x00\n    /* \"#utility.yul\":1084:1126   */\n  0xffffffffffffffffffffffffffffffffffffffff\n    /* \"#utility.yul\":1077:1082   */\n  dup3\n    /* \"#utility.yul\":1073:1127   */\n  and\n    /* \"#utility.yul\":1062:1127   */\n  swap1\n  pop\n    /* \"#utility.yul\":1007:1133   */\n  swap2\n  swap1\n  pop\n  jump\t// out\n    /* \"#utility.yul\":1139:1216   */\ntag_23:\n    /* \"#utility.yul\":1176:1183   */\n  0x00\n    /* \"#utility.yul\":1205:1210   */\n  dup2\n    /* \"#utility.yul\":1194:1210   */\n  swap1\n  pop\n    /* \"#utility.yul\":1139:1216   */\n  swap2\n  swap1\n  pop\n  jump\t// out\n    /* \"#utility.yul\":1222:1402   */\ntag_27:\n    /* \"#utility.yul\":1270:1347   */\n  0x4e487b7100000000000000000000000000000000000000000000000000000000\n    /* \"#utility.yul\":1267:1268   */\n  0x00\n    /* \"#utility.yul\":1260:1348   */\n  mstore\n    /* \"#utility.yul\":1367:1371   */\n  0x11\n    /* \"#utility.yul\":1364:1365   */\n  0x04\n    /* \"#utility.yul\":1357:1372   */\n  mstore\n    /* \"#utility.yul\":1391:1395   */\n  0x24\n    /* \"#utility.yul\":1388:1389   */\n  0x00\n    /* \"#utility.yul\":1381:1396   */\n  revert\n    /* \"#utility.yul\":1531:1648   */\ntag_17:\n    /* \"#utility.yul\":1640:1641   */\n  0x00\n    /* \"#utility.yul\":1637:1638   */\n  dup1\n    /* \"#utility.yul\":1630:1642   */\n  revert\n    /* \"#utility.yul\":1654:1776   */\ntag_13:\n    /* \"#utility.yul\":1727:1751   */\n  tag_39\n    /* \"#utility.yul\":1745:1750   */\n  dup2\n    /* \"#utility.yul\":1727:1751   */\n  tag_28\n  jump\t// in\ntag_39:\n    /* \"#utility.yul\":1720:1725   */\n  dup2\n    /* \"#utility.yul\":1717:1752   */\n  eq\n    /* \"#utility.yul\":1707:1770   */\n  tag_40\n  jumpi\n    /* \"#utility.yul\":1766:1767   */\n  0x00\n    /* \"#utility.yul\":1763:1764   */\n  dup1\n    /* \"#utility.yul\":1756:1768   */\n  revert\n    /* \"#utility.yul\":1707:1770   */\ntag_40:\n    /* \"#utility.yul\":1654:1776   */\n  pop\n  jump\t// out\n    /* \"contracts/ICO_Contract.sol\":867:4769  contract ICO_Contract{... */\ntag_8:\n  dataSize(sub_0)\n  dup1\n  dataOffset(sub_0)\n  0x00\n  codecopy\n  0x00\n  return\nstop\n\nsub_0: assembly {\n        /* \"contracts/ICO_Contract.sol\":867:4769  contract ICO_Contract{... */\n      mstore(0x40, 0x80)\n      jumpi(tag_1, lt(calldatasize, 0x04))\n      shr(0xe0, calldataload(0x00))\n      dup1\n      0x80efea55\n      gt\n      tag_32\n      jumpi\n      dup1\n      0xc2cba306\n      gt\n      tag_33\n      jumpi\n      dup1\n      0xf0b4e8f7\n      gt\n      tag_34\n      jumpi\n      dup1\n      0xf0b4e8f7\n      eq\n      tag_28\n      jumpi\n      dup1\n      0xf2853292\n      eq\n      tag_29\n      jumpi\n      dup1\n      0xfa08af88\n      eq\n      tag_30\n      jumpi\n      dup1\n      0xfc4a4a1e\n      eq\n      tag_31\n      jumpi\n      jump(tag_1)\n    tag_34:\n      dup1\n      0xc2cba306\n      eq\n      tag_24\n      jumpi\n      dup1\n      0xc43a7752\n      eq\n      tag_25\n      jumpi\n      dup1\n      0xe6be9516\n      eq\n      tag_26\n      jumpi\n      dup1\n      0xedbb7f77\n      eq\n      tag_27\n      jumpi\n      jump(tag_1)\n    tag_33:\n      dup1\n      0xb4a99a4e\n      gt\n      tag_35\n      jumpi\n      dup1\n      0xb4a99a4e\n      eq\n      tag_20\n      jumpi\n      dup1\n      0xb78f9de7\n      eq\n      tag_21\n      jumpi\n      dup1\n      0xbd998dc8\n      eq\n      tag_22\n      jumpi\n      dup1\n      0xc0497ca6\n      eq\n      tag_23\n      jumpi\n      jump(tag_1)\n    tag_35:\n      dup1\n      0x80efea55\n      eq\n      tag_17\n      jumpi\n      dup1\n      0x89749adb\n      eq\n      tag_18\n      jumpi\n      dup1\n      0x914690ed\n      eq\n      tag_19\n      jumpi\n      jump(tag_1)\n    tag_32:\n      dup1\n      0x31627c26\n      gt\n      tag_36\n      jumpi\n      dup1\n      0x69ea1771\n      gt\n      tag_37\n      jumpi\n      dup1\n      0x69ea1771\n      eq\n      tag_13\n      jumpi\n      dup1\n      0x6abfde00\n      eq\n      tag_14\n      jumpi\n      dup1\n      0x70a08231\n      eq\n      tag_15\n      jumpi\n      dup1\n      0x80de983b\n      eq\n      tag_16\n      jumpi\n      jump(tag_1)\n    tag_37:\n      dup1\n      0x31627c26\n      eq\n      tag_9\n      jumpi\n      dup1\n      0x33360978\n      eq\n      tag_10\n      jumpi\n      dup1\n      0x388981ad\n      eq\n      tag_11\n      jumpi\n      dup1\n      0x47fa94e9\n      eq\n      tag_12\n      jumpi\n      jump(tag_1)\n    tag_36:\n      dup1\n      0x179945c3\n      gt\n      tag_38\n      jumpi\n      dup1\n      0x179945c3\n      eq\n      tag_5\n      jumpi\n      dup1\n      0x1b8e94a1\n      eq\n      tag_6\n      jumpi\n      dup1\n      0x24f0bd09\n      eq\n      tag_7\n      jumpi\n      dup1\n      0x2561eea8\n      eq\n      tag_8\n      jumpi\n      jump(tag_1)\n    tag_38:\n      dup1\n      0x11aed7b3\n      eq\n      tag_2\n      jumpi\n      dup1\n      0x11b97bef\n      eq\n      tag_3\n      jumpi\n      dup1\n      0x128d0d02\n      eq\n      tag_4\n      jumpi\n    tag_1:\n      0x00\n      dup1\n      revert\n        /* \"contracts/ICO_Contract.sol\":951:974  bool public isSale_Open */\n    tag_2:\n      callvalue\n      dup1\n      iszero\n      tag_39\n      jumpi\n      0x00\n      dup1\n      revert\n    tag_39:\n      pop\n      tag_40\n      tag_41\n      jump\t// in\n    tag_40:\n      mload(0x40)\n      tag_42\n      swap2\n      swap1\n      tag_43\n      jump\t// in\n    tag_42:\n      mload(0x40)\n      dup1\n      swap2\n      sub\n      swap1\n      return\n        /* \"contracts/ICO_Contract.sol\":4082:4184  function OverAllTotalSupply() public view returns(uint){... */\n    tag_3:\n      callvalue\n      dup1\n      iszero\n      tag_44\n      jumpi\n      0x00\n      dup1\n      revert\n    tag_44:\n      pop\n      tag_45\n      tag_46\n      jump\t// in\n    tag_45:\n      mload(0x40)\n      tag_47\n      swap2\n      swap1\n      tag_48\n      jump\t// in\n    tag_47:\n      mload(0x40)\n      dup1\n      swap2\n      sub\n      swap1\n      return\n        /* \"contracts/ICO_Contract.sol\":1884:2203  function Setup_Address(address _Contract_Address)public onlyOwner{... */\n    tag_4:\n      callvalue\n      dup1\n      iszero\n      tag_49\n      jumpi\n      0x00\n      dup1\n      revert\n    tag_49:\n      pop\n      tag_50\n      0x04\n      dup1\n      calldatasize\n      sub\n      dup2\n      add\n      swap1\n      tag_51\n      swap2\n      swap1\n      tag_52\n      jump\t// in\n    tag_51:\n      tag_53\n      jump\t// in\n    tag_50:\n      stop\n        /* \"contracts/ICO_Contract.sol\":980:1008  address public Owners_Wallet */\n    tag_5:\n      callvalue\n      dup1\n      iszero\n      tag_54\n      jumpi\n      0x00\n      dup1\n      revert\n    tag_54:\n      pop\n      tag_55\n      tag_56\n      jump\t// in\n    tag_55:\n      mload(0x40)\n      tag_57\n      swap2\n      swap1\n      tag_58\n      jump\t// in\n    tag_57:\n      mload(0x40)\n      dup1\n      swap2\n      sub\n      swap1\n      return\n        /* \"contracts/ICO_Contract.sol\":1073:1089  uint public Rate */\n    tag_6:\n      callvalue\n      dup1\n      iszero\n      tag_59\n      jumpi\n      0x00\n      dup1\n      revert\n    tag_59:\n      pop\n      tag_60\n      tag_61\n      jump\t// in\n    tag_60:\n      mload(0x40)\n      tag_62\n      swap2\n      swap1\n      tag_48\n      jump\t// in\n    tag_62:\n      mload(0x40)\n      dup1\n      swap2\n      sub\n      swap1\n      return\n        /* \"contracts/ICO_Contract.sol\":3993:4077  function decimalss() public view returns(uint){... */\n    tag_7:\n      callvalue\n      dup1\n      iszero\n      tag_63\n      jumpi\n      0x00\n      dup1\n      revert\n    tag_63:\n      pop\n      tag_64\n      tag_65\n      jump\t// in\n    tag_64:\n      mload(0x40)\n      tag_66\n      swap2\n      swap1\n      tag_48\n      jump\t// in\n    tag_66:\n      mload(0x40)\n      dup1\n      swap2\n      sub\n      swap1\n      return\n        /* \"contracts/ICO_Contract.sol\":4497:4604  function numberOfPresaleHolders()public view returns(uint){... */\n    tag_8:\n      callvalue\n      dup1\n      iszero\n      tag_67\n      jumpi\n      0x00\n      dup1\n      revert\n    tag_67:\n      pop\n      tag_68\n      tag_69\n      jump\t// in\n    tag_68:\n      mload(0x40)\n      tag_70\n      swap2\n      swap1\n      tag_48\n      jump\t// in\n    tag_70:\n      mload(0x40)\n      dup1\n      swap2\n      sub\n      swap1\n      return\n        /* \"contracts/ICO_Contract.sol\":1151:1184  uint public RemainingTokensToSell */\n    tag_9:\n      callvalue\n      dup1\n      iszero\n      tag_71\n      jumpi\n      0x00\n      dup1\n      revert\n    tag_71:\n      pop\n      tag_72\n      tag_73\n      jump\t// in\n    tag_72:\n      mload(0x40)\n      tag_74\n      swap2\n      swap1\n      tag_48\n      jump\t// in\n    tag_74:\n      mload(0x40)\n      dup1\n      swap2\n      sub\n      swap1\n      return\n        /* \"contracts/ICO_Contract.sol\":926:945  uint public EndTime */\n    tag_10:\n      callvalue\n      dup1\n      iszero\n      tag_75\n      jumpi\n      0x00\n      dup1\n      revert\n    tag_75:\n      pop\n      tag_76\n      tag_77\n      jump\t// in\n    tag_76:\n      mload(0x40)\n      tag_78\n      swap2\n      swap1\n      tag_48\n      jump\t// in\n    tag_78:\n      mload(0x40)\n      dup1\n      swap2\n      sub\n      swap1\n      return\n        /* \"contracts/ICO_Contract.sol\":3798:3890  function GetTokenName() public view returns(string memory){... */\n    tag_11:\n      callvalue\n      dup1\n      iszero\n      tag_79\n      jumpi\n      0x00\n      dup1\n      revert\n    tag_79:\n      pop\n      tag_80\n      tag_81\n      jump\t// in\n    tag_80:\n      mload(0x40)\n      tag_82\n      swap2\n      swap1\n      tag_83\n      jump\t// in\n    tag_82:\n      mload(0x40)\n      dup1\n      swap2\n      sub\n      swap1\n      return\n        /* \"contracts/ICO_Contract.sol\":4687:4765  function GetEndingTime()public view returns(uint){... */\n    tag_12:\n      callvalue\n      dup1\n      iszero\n      tag_84\n      jumpi\n      0x00\n      dup1\n      revert\n    tag_84:\n      pop\n      tag_85\n      tag_86\n      jump\t// in\n    tag_85:\n      mload(0x40)\n      tag_87\n      swap2\n      swap1\n      tag_48\n      jump\t// in\n    tag_87:\n      mload(0x40)\n      dup1\n      swap2\n      sub\n      swap1\n      return\n        /* \"contracts/ICO_Contract.sol\":3449:3526  function updateRate(uint _Rate) public onlyOwner{... */\n    tag_13:\n      callvalue\n      dup1\n      iszero\n      tag_88\n      jumpi\n      0x00\n      dup1\n      revert\n    tag_88:\n      pop\n      tag_89\n      0x04\n      dup1\n      calldatasize\n      sub\n      dup2\n      add\n      swap1\n      tag_90\n      swap2\n      swap1\n      tag_91\n      jump\t// in\n    tag_90:\n      tag_92\n      jump\t// in\n    tag_89:\n      stop\n        /* \"contracts/ICO_Contract.sol\":1118:1145  uint public MaxTokensToSell */\n    tag_14:\n      callvalue\n      dup1\n      iszero\n      tag_93\n      jumpi\n      0x00\n      dup1\n      revert\n    tag_93:\n      pop\n      tag_94\n      tag_95\n      jump\t// in\n    tag_94:\n      mload(0x40)\n      tag_96\n      swap2\n      swap1\n      tag_48\n      jump\t// in\n    tag_96:\n      mload(0x40)\n      dup1\n      swap2\n      sub\n      swap1\n      return\n        /* \"contracts/ICO_Contract.sol\":4195:4308  function balanceOf(address account) public view returns(uint256) {... */\n    tag_15:\n      callvalue\n      dup1\n      iszero\n      tag_97\n      jumpi\n      0x00\n      dup1\n      revert\n    tag_97:\n      pop\n      tag_98\n      0x04\n      dup1\n      calldatasize\n      sub\n      dup2\n      add\n      swap1\n      tag_99\n      swap2\n      swap1\n      tag_52\n      jump\t// in\n    tag_99:\n      tag_100\n      jump\t// in\n    tag_98:\n      mload(0x40)\n      tag_101\n      swap2\n      swap1\n      tag_48\n      jump\t// in\n    tag_101:\n      mload(0x40)\n      dup1\n      swap2\n      sub\n      swap1\n      return\n        /* \"contracts/ICO_Contract.sol\":4403:4492  function GetStartTimeofPresale() public view returns(uint){... */\n    tag_16:\n      callvalue\n      dup1\n      iszero\n      tag_102\n      jumpi\n      0x00\n      dup1\n      revert\n    tag_102:\n      pop\n      tag_103\n      tag_104\n      jump\t// in\n    tag_103:\n      mload(0x40)\n      tag_105\n      swap2\n      swap1\n      tag_48\n      jump\t// in\n    tag_105:\n      mload(0x40)\n      dup1\n      swap2\n      sub\n      swap1\n      return\n        /* \"contracts/ICO_Contract.sol\":1327:1373  mapping(address => uint) public PresaleHolders */\n    tag_17:\n      callvalue\n      dup1\n      iszero\n      tag_106\n      jumpi\n      0x00\n      dup1\n      revert\n    tag_106:\n      pop\n      tag_107\n      0x04\n      dup1\n      calldatasize\n      sub\n      dup2\n      add\n      swap1\n      tag_108\n      swap2\n      swap1\n      tag_52\n      jump\t// in\n    tag_108:\n      tag_109\n      jump\t// in\n    tag_107:\n      mload(0x40)\n      tag_110\n      swap2\n      swap1\n      tag_48\n      jump\t// in\n    tag_110:\n      mload(0x40)\n      dup1\n      swap2\n      sub\n      swap1\n      return\n        /* \"contracts/ICO_Contract.sol\":2588:3329  function BuyTokens(uint Amount)public payable returns(bool){ //give amount in wei... */\n    tag_18:\n      tag_111\n      0x04\n      dup1\n      calldatasize\n      sub\n      dup2\n      add\n      swap1\n      tag_112\n      swap2\n      swap1\n      tag_91\n      jump\t// in\n    tag_112:\n      tag_113\n      jump\t// in\n    tag_111:\n      mload(0x40)\n      tag_114\n      swap2\n      swap1\n      tag_43\n      jump\t// in\n    tag_114:\n      mload(0x40)\n      dup1\n      swap2\n      sub\n      swap1\n      return\n        /* \"contracts/ICO_Contract.sol\":3335:3443  function CheckingRemainingPresaleTokens()public view returns(uint){... */\n    tag_19:\n      callvalue\n      dup1\n      iszero\n      tag_115\n      jumpi\n      0x00\n      dup1\n      revert\n    tag_115:\n      pop\n      tag_116\n      tag_117\n      jump\t// in\n    tag_116:\n      mload(0x40)\n      tag_118\n      swap2\n      swap1\n      tag_48\n      jump\t// in\n    tag_118:\n      mload(0x40)\n      dup1\n      swap2\n      sub\n      swap1\n      return\n        /* \"contracts/ICO_Contract.sol\":1047:1067  address public Owner */\n    tag_20:\n      callvalue\n      dup1\n      iszero\n      tag_119\n      jumpi\n      0x00\n      dup1\n      revert\n    tag_119:\n      pop\n      tag_120\n      tag_121\n      jump\t// in\n    tag_120:\n      mload(0x40)\n      tag_122\n      swap2\n      swap1\n      tag_58\n      jump\t// in\n    tag_122:\n      mload(0x40)\n      dup1\n      swap2\n      sub\n      swap1\n      return\n        /* \"contracts/ICO_Contract.sol\":4609:4682  function Sale()public view returns(bool){... */\n    tag_21:\n      callvalue\n      dup1\n      iszero\n      tag_123\n      jumpi\n      0x00\n      dup1\n      revert\n    tag_123:\n      pop\n      tag_124\n      tag_125\n      jump\t// in\n    tag_124:\n      mload(0x40)\n      tag_126\n      swap2\n      swap1\n      tag_43\n      jump\t// in\n    tag_126:\n      mload(0x40)\n      dup1\n      swap2\n      sub\n      swap1\n      return\n        /* \"contracts/ICO_Contract.sol\":2303:2440  function CloseSale() public onlyOwner{... */\n    tag_22:\n      callvalue\n      dup1\n      iszero\n      tag_127\n      jumpi\n      0x00\n      dup1\n      revert\n    tag_127:\n      pop\n      tag_128\n      tag_129\n      jump\t// in\n    tag_128:\n      stop\n        /* \"contracts/ICO_Contract.sol\":3896:3987  function GetSymbol() public view returns(string memory){... */\n    tag_23:\n      callvalue\n      dup1\n      iszero\n      tag_130\n      jumpi\n      0x00\n      dup1\n      revert\n    tag_130:\n      pop\n      tag_131\n      tag_132\n      jump\t// in\n    tag_131:\n      mload(0x40)\n      tag_133\n      swap2\n      swap1\n      tag_83\n      jump\t// in\n    tag_133:\n      mload(0x40)\n      dup1\n      swap2\n      sub\n      swap1\n      return\n        /* \"contracts/ICO_Contract.sol\":1014:1041  address public TokenAddress */\n    tag_24:\n      callvalue\n      dup1\n      iszero\n      tag_134\n      jumpi\n      0x00\n      dup1\n      revert\n    tag_134:\n      pop\n      tag_135\n      tag_136\n      jump\t// in\n    tag_135:\n      mload(0x40)\n      tag_137\n      swap2\n      swap1\n      tag_58\n      jump\t// in\n    tag_137:\n      mload(0x40)\n      dup1\n      swap2\n      sub\n      swap1\n      return\n        /* \"contracts/ICO_Contract.sol\":4313:4398  function getPriceOFPresaleToken() public view returns(uint){... */\n    tag_25:\n      callvalue\n      dup1\n      iszero\n      tag_138\n      jumpi\n      0x00\n      dup1\n      revert\n    tag_138:\n      pop\n      tag_139\n      tag_140\n      jump\t// in\n    tag_139:\n      mload(0x40)\n      tag_141\n      swap2\n      swap1\n      tag_48\n      jump\t// in\n    tag_141:\n      mload(0x40)\n      dup1\n      swap2\n      sub\n      swap1\n      return\n        /* \"contracts/ICO_Contract.sol\":1235:1258  uint public Amount_Rate */\n    tag_26:\n      callvalue\n      dup1\n      iszero\n      tag_142\n      jumpi\n      0x00\n      dup1\n      revert\n    tag_142:\n      pop\n      tag_143\n      tag_144\n      jump\t// in\n    tag_143:\n      mload(0x40)\n      tag_145\n      swap2\n      swap1\n      tag_48\n      jump\t// in\n    tag_145:\n      mload(0x40)\n      dup1\n      swap2\n      sub\n      swap1\n      return\n        /* \"contracts/ICO_Contract.sol\":1190:1229  uint public numberOfPresaleTokensHolder */\n    tag_27:\n      callvalue\n      dup1\n      iszero\n      tag_146\n      jumpi\n      0x00\n      dup1\n      revert\n    tag_146:\n      pop\n      tag_147\n      tag_148\n      jump\t// in\n    tag_147:\n      mload(0x40)\n      tag_149\n      swap2\n      swap1\n      tag_48\n      jump\t// in\n    tag_149:\n      mload(0x40)\n      dup1\n      swap2\n      sub\n      swap1\n      return\n        /* \"contracts/ICO_Contract.sol\":1379:1430  mapping(address => bool) public BlackList_Addresses */\n    tag_28:\n      callvalue\n      dup1\n      iszero\n      tag_150\n      jumpi\n      0x00\n      dup1\n      revert\n    tag_150:\n      pop\n      tag_151\n      0x04\n      dup1\n      calldatasize\n      sub\n      dup2\n      add\n      swap1\n      tag_152\n      swap2\n      swap1\n      tag_52\n      jump\t// in\n    tag_152:\n      tag_153\n      jump\t// in\n    tag_151:\n      mload(0x40)\n      tag_154\n      swap2\n      swap1\n      tag_43\n      jump\t// in\n    tag_154:\n      mload(0x40)\n      dup1\n      swap2\n      sub\n      swap1\n      return\n        /* \"contracts/ICO_Contract.sol\":3533:3793  function ChangeOwner(address NewOwner)public onlyOwner returns(bool){... */\n    tag_29:\n      callvalue\n      dup1\n      iszero\n      tag_155\n      jumpi\n      0x00\n      dup1\n      revert\n    tag_155:\n      pop\n      tag_156\n      0x04\n      dup1\n      calldatasize\n      sub\n      dup2\n      add\n      swap1\n      tag_157\n      swap2\n      swap1\n      tag_52\n      jump\t// in\n    tag_157:\n      tag_158\n      jump\t// in\n    tag_156:\n      mload(0x40)\n      tag_159\n      swap2\n      swap1\n      tag_43\n      jump\t// in\n    tag_159:\n      mload(0x40)\n      dup1\n      swap2\n      sub\n      swap1\n      return\n        /* \"contracts/ICO_Contract.sol\":2446:2573  function SetUpBlackListAddress(address BAddress,bool flag)public onlyOwner{... */\n    tag_30:\n      callvalue\n      dup1\n      iszero\n      tag_160\n      jumpi\n      0x00\n      dup1\n      revert\n    tag_160:\n      pop\n      tag_161\n      0x04\n      dup1\n      calldatasize\n      sub\n      dup2\n      add\n      swap1\n      tag_162\n      swap2\n      swap1\n      tag_163\n      jump\t// in\n    tag_162:\n      tag_164\n      jump\t// in\n    tag_161:\n      stop\n        /* \"contracts/ICO_Contract.sol\":899:920  uint public StartTime */\n    tag_31:\n      callvalue\n      dup1\n      iszero\n      tag_165\n      jumpi\n      0x00\n      dup1\n      revert\n    tag_165:\n      pop\n      tag_166\n      tag_167\n      jump\t// in\n    tag_166:\n      mload(0x40)\n      tag_168\n      swap2\n      swap1\n      tag_48\n      jump\t// in\n    tag_168:\n      mload(0x40)\n      dup1\n      swap2\n      sub\n      swap1\n      return\n        /* \"contracts/ICO_Contract.sol\":951:974  bool public isSale_Open */\n    tag_41:\n      0x02\n      0x00\n      swap1\n      sload\n      swap1\n      0x0100\n      exp\n      swap1\n      div\n      0xff\n      and\n      dup2\n      jump\t// out\n        /* \"contracts/ICO_Contract.sol\":4082:4184  function OverAllTotalSupply() public view returns(uint){... */\n    tag_46:\n        /* \"contracts/ICO_Contract.sol\":4132:4136  uint */\n      0x00\n        /* \"contracts/ICO_Contract.sol\":4151:4156  Token */\n      0x06\n      0x00\n      swap1\n      sload\n      swap1\n      0x0100\n      exp\n      swap1\n      div\n      0xffffffffffffffffffffffffffffffffffffffff\n      and\n        /* \"contracts/ICO_Contract.sol\":4151:4168  Token.totalSupply */\n      0xffffffffffffffffffffffffffffffffffffffff\n      and\n      0x18160ddd\n        /* \"contracts/ICO_Contract.sol\":4151:4170  Token.totalSupply() */\n      mload(0x40)\n      dup2\n      0xffffffff\n      and\n      0xe0\n      shl\n      dup2\n      mstore\n      0x04\n      add\n      0x20\n      mload(0x40)\n      dup1\n      dup4\n      sub\n      dup2\n      dup7\n      dup1\n      extcodesize\n      iszero\n      dup1\n      iszero\n      tag_170\n      jumpi\n      0x00\n      dup1\n      revert\n    tag_170:\n      pop\n      gas\n      staticcall\n      iszero\n      dup1\n      iszero\n      tag_172\n      jumpi\n      returndatasize\n      0x00\n      dup1\n      returndatacopy\n      revert(0x00, returndatasize)\n    tag_172:\n      pop\n      pop\n      pop\n      pop\n      mload(0x40)\n      returndatasize\n      not(0x1f)\n      0x1f\n      dup3\n      add\n      and\n      dup3\n      add\n      dup1\n      0x40\n      mstore\n      pop\n      dup2\n      add\n      swap1\n      tag_173\n      swap2\n      swap1\n      tag_174\n      jump\t// in\n    tag_173:\n        /* \"contracts/ICO_Contract.sol\":4144:4170  return Token.totalSupply() */\n      swap1\n      pop\n        /* \"contracts/ICO_Contract.sol\":4082:4184  function OverAllTotalSupply() public view returns(uint){... */\n      swap1\n      jump\t// out\n        /* \"contracts/ICO_Contract.sol\":1884:2203  function Setup_Address(address _Contract_Address)public onlyOwner{... */\n    tag_53:\n        /* \"contracts/ICO_Contract.sol\":2257:2262  Owner */\n      0x04\n      0x00\n      swap1\n      sload\n      swap1\n      0x0100\n      exp\n      swap1\n      div\n      0xffffffffffffffffffffffffffffffffffffffff\n      and\n        /* \"contracts/ICO_Contract.sol\":2243:2262  msg.sender == Owner */\n      0xffffffffffffffffffffffffffffffffffffffff\n      and\n        /* \"contracts/ICO_Contract.sol\":2243:2253  msg.sender */\n      caller\n        /* \"contracts/ICO_Contract.sol\":2243:2262  msg.sender == Owner */\n      0xffffffffffffffffffffffffffffffffffffffff\n      and\n      eq\n        /* \"contracts/ICO_Contract.sol\":2235:2287  require(msg.sender == Owner,\"only onwer can use it\") */\n      tag_176\n      jumpi\n      mload(0x40)\n      0x08c379a000000000000000000000000000000000000000000000000000000000\n      dup2\n      mstore\n      0x04\n      add\n      tag_177\n      swap1\n      tag_178\n      jump\t// in\n    tag_177:\n      mload(0x40)\n      dup1\n      swap2\n      sub\n      swap1\n      revert\n    tag_176:\n        /* \"contracts/ICO_Contract.sol\":1990:1991  0 */\n      0x00\n        /* \"contracts/ICO_Contract.sol\":1963:1992  _Contract_Address!=address(0) */\n      0xffffffffffffffffffffffffffffffffffffffff\n      and\n        /* \"contracts/ICO_Contract.sol\":1963:1980  _Contract_Address */\n      dup2\n        /* \"contracts/ICO_Contract.sol\":1963:1992  _Contract_Address!=address(0) */\n      0xffffffffffffffffffffffffffffffffffffffff\n      and\n      eq\n      iszero\n        /* \"contracts/ICO_Contract.sol\":1955:2022  require(_Contract_Address!=address(0),\"zero address is disallowed\") */\n      tag_180\n      jumpi\n      mload(0x40)\n      0x08c379a000000000000000000000000000000000000000000000000000000000\n      dup2\n      mstore\n      0x04\n      add\n      tag_181\n      swap1\n      tag_182\n      jump\t// in\n    tag_181:\n      mload(0x40)\n      dup1\n      swap2\n      sub\n      swap1\n      revert\n    tag_180:\n        /* \"contracts/ICO_Contract.sol\":2096:2113  _Contract_Address */\n      dup1\n        /* \"contracts/ICO_Contract.sol\":2076:2081  Token */\n      0x06\n      0x00\n        /* \"contracts/ICO_Contract.sol\":2076:2114  Token = I_ICO_Token(_Contract_Address) */\n      0x0100\n      exp\n      dup2\n      sload\n      dup2\n      0xffffffffffffffffffffffffffffffffffffffff\n      mul\n      not\n      and\n      swap1\n      dup4\n      0xffffffffffffffffffffffffffffffffffffffff\n      and\n      mul\n      or\n      swap1\n      sstore\n      pop\n        /* \"contracts/ICO_Contract.sol\":2135:2152  _Contract_Address */\n      dup1\n        /* \"contracts/ICO_Contract.sol\":2120:2132  TokenAddress */\n      0x03\n      0x00\n        /* \"contracts/ICO_Contract.sol\":2120:2152  TokenAddress = _Contract_Address */\n      0x0100\n      exp\n      dup2\n      sload\n      dup2\n      0xffffffffffffffffffffffffffffffffffffffff\n      mul\n      not\n      and\n      swap1\n      dup4\n      0xffffffffffffffffffffffffffffffffffffffff\n      and\n      mul\n      or\n      swap1\n      sstore\n      pop\n        /* \"contracts/ICO_Contract.sol\":2172:2176  true */\n      0x01\n        /* \"contracts/ICO_Contract.sol\":2158:2169  isSale_Open */\n      0x02\n      0x00\n        /* \"contracts/ICO_Contract.sol\":2158:2176  isSale_Open = true */\n      0x0100\n      exp\n      dup2\n      sload\n      dup2\n      0xff\n      mul\n      not\n      and\n      swap1\n      dup4\n      iszero\n      iszero\n      mul\n      or\n      swap1\n      sstore\n      pop\n        /* \"contracts/ICO_Contract.sol\":2192:2196  true */\n      0x01\n        /* \"contracts/ICO_Contract.sol\":2182:2189  isSetup */\n      0x0b\n      0x00\n        /* \"contracts/ICO_Contract.sol\":2182:2196  isSetup = true */\n      0x0100\n      exp\n      dup2\n      sload\n      dup2\n      0xff\n      mul\n      not\n      and\n      swap1\n      dup4\n      iszero\n      iszero\n      mul\n      or\n      swap1\n      sstore\n      pop\n        /* \"contracts/ICO_Contract.sol\":1884:2203  function Setup_Address(address _Contract_Address)public onlyOwner{... */\n      pop\n      jump\t// out\n        /* \"contracts/ICO_Contract.sol\":980:1008  address public Owners_Wallet */\n    tag_56:\n      0x02\n      0x01\n      swap1\n      sload\n      swap1\n      0x0100\n      exp\n      swap1\n      div\n      0xffffffffffffffffffffffffffffffffffffffff\n      and\n      dup2\n      jump\t// out\n        /* \"contracts/ICO_Contract.sol\":1073:1089  uint public Rate */\n    tag_61:\n      sload(0x05)\n      dup2\n      jump\t// out\n        /* \"contracts/ICO_Contract.sol\":3993:4077  function decimalss() public view returns(uint){... */\n    tag_65:\n        /* \"contracts/ICO_Contract.sol\":4034:4038  uint */\n      0x00\n        /* \"contracts/ICO_Contract.sol\":4054:4059  Token */\n      0x06\n      0x00\n      swap1\n      sload\n      swap1\n      0x0100\n      exp\n      swap1\n      div\n      0xffffffffffffffffffffffffffffffffffffffff\n      and\n        /* \"contracts/ICO_Contract.sol\":4054:4068  Token.decimals */\n      0xffffffffffffffffffffffffffffffffffffffff\n      and\n      0x313ce567\n        /* \"contracts/ICO_Contract.sol\":4054:4070  Token.decimals() */\n      mload(0x40)\n      dup2\n      0xffffffff\n      and\n      0xe0\n      shl\n      dup2\n      mstore\n      0x04\n      add\n      0x20\n      mload(0x40)\n      dup1\n      dup4\n      sub\n      dup2\n      dup7\n      dup1\n      extcodesize\n      iszero\n      dup1\n      iszero\n      tag_184\n      jumpi\n      0x00\n      dup1\n      revert\n    tag_184:\n      pop\n      gas\n      staticcall\n      iszero\n      dup1\n      iszero\n      tag_186\n      jumpi\n      returndatasize\n      0x00\n      dup1\n      returndatacopy\n      revert(0x00, returndatasize)\n    tag_186:\n      pop\n      pop\n      pop\n      pop\n      mload(0x40)\n      returndatasize\n      not(0x1f)\n      0x1f\n      dup3\n      add\n      and\n      dup3\n      add\n      dup1\n      0x40\n      mstore\n      pop\n      dup2\n      add\n      swap1\n      tag_187\n      swap2\n      swap1\n      tag_188\n      jump\t// in\n    tag_187:\n        /* \"contracts/ICO_Contract.sol\":4047:4070  return Token.decimals() */\n      0xff\n      and\n      swap1\n      pop\n        /* \"contracts/ICO_Contract.sol\":3993:4077  function decimalss() public view returns(uint){... */\n      swap1\n      jump\t// out\n        /* \"contracts/ICO_Contract.sol\":4497:4604  function numberOfPresaleHolders()public view returns(uint){... */\n    tag_69:\n        /* \"contracts/ICO_Contract.sol\":4550:4554  uint */\n      0x00\n        /* \"contracts/ICO_Contract.sol\":4570:4597  numberOfPresaleTokensHolder */\n      sload(0x09)\n        /* \"contracts/ICO_Contract.sol\":4563:4597  return numberOfPresaleTokensHolder */\n      swap1\n      pop\n        /* \"contracts/ICO_Contract.sol\":4497:4604  function numberOfPresaleHolders()public view returns(uint){... */\n      swap1\n      jump\t// out\n        /* \"contracts/ICO_Contract.sol\":1151:1184  uint public RemainingTokensToSell */\n    tag_73:\n      sload(0x08)\n      dup2\n      jump\t// out\n        /* \"contracts/ICO_Contract.sol\":926:945  uint public EndTime */\n    tag_77:\n      sload(0x01)\n      dup2\n      jump\t// out\n        /* \"contracts/ICO_Contract.sol\":3798:3890  function GetTokenName() public view returns(string memory){... */\n    tag_81:\n        /* \"contracts/ICO_Contract.sol\":3842:3855  string memory */\n      0x60\n        /* \"contracts/ICO_Contract.sol\":3871:3876  Token */\n      0x06\n      0x00\n      swap1\n      sload\n      swap1\n      0x0100\n      exp\n      swap1\n      div\n      0xffffffffffffffffffffffffffffffffffffffff\n      and\n        /* \"contracts/ICO_Contract.sol\":3871:3881  Token.name */\n      0xffffffffffffffffffffffffffffffffffffffff\n      and\n      0x06fdde03\n        /* \"contracts/ICO_Contract.sol\":3871:3883  Token.name() */\n      mload(0x40)\n      dup2\n      0xffffffff\n      and\n      0xe0\n      shl\n      dup2\n      mstore\n      0x04\n      add\n      0x00\n      mload(0x40)\n      dup1\n      dup4\n      sub\n      dup2\n      dup7\n      dup1\n      extcodesize\n      iszero\n      dup1\n      iszero\n      tag_191\n      jumpi\n      0x00\n      dup1\n      revert\n    tag_191:\n      pop\n      gas\n      staticcall\n      iszero\n      dup1\n      iszero\n      tag_193\n      jumpi\n      returndatasize\n      0x00\n      dup1\n      returndatacopy\n      revert(0x00, returndatasize)\n    tag_193:\n      pop\n      pop\n      pop\n      pop\n      mload(0x40)\n      returndatasize\n      0x00\n      dup3\n      returndatacopy\n      returndatasize\n      not(0x1f)\n      0x1f\n      dup3\n      add\n      and\n      dup3\n      add\n      dup1\n      0x40\n      mstore\n      pop\n      dup2\n      add\n      swap1\n      tag_194\n      swap2\n      swap1\n      tag_195\n      jump\t// in\n    tag_194:\n        /* \"contracts/ICO_Contract.sol\":3864:3883  return Token.name() */\n      swap1\n      pop\n        /* \"contracts/ICO_Contract.sol\":3798:3890  function GetTokenName() public view returns(string memory){... */\n      swap1\n      jump\t// out\n        /* \"contracts/ICO_Contract.sol\":4687:4765  function GetEndingTime()public view returns(uint){... */\n    tag_86:\n        /* \"contracts/ICO_Contract.sol\":4731:4735  uint */\n      0x00\n        /* \"contracts/ICO_Contract.sol\":4751:4758  EndTime */\n      sload(0x01)\n        /* \"contracts/ICO_Contract.sol\":4744:4758  return EndTime */\n      swap1\n      pop\n        /* \"contracts/ICO_Contract.sol\":4687:4765  function GetEndingTime()public view returns(uint){... */\n      swap1\n      jump\t// out\n        /* \"contracts/ICO_Contract.sol\":3449:3526  function updateRate(uint _Rate) public onlyOwner{... */\n    tag_92:\n        /* \"contracts/ICO_Contract.sol\":2257:2262  Owner */\n      0x04\n      0x00\n      swap1\n      sload\n      swap1\n      0x0100\n      exp\n      swap1\n      div\n      0xffffffffffffffffffffffffffffffffffffffff\n      and\n        /* \"contracts/ICO_Contract.sol\":2243:2262  msg.sender == Owner */\n      0xffffffffffffffffffffffffffffffffffffffff\n      and\n        /* \"contracts/ICO_Contract.sol\":2243:2253  msg.sender */\n      caller\n        /* \"contracts/ICO_Contract.sol\":2243:2262  msg.sender == Owner */\n      0xffffffffffffffffffffffffffffffffffffffff\n      and\n      eq\n        /* \"contracts/ICO_Contract.sol\":2235:2287  require(msg.sender == Owner,\"only onwer can use it\") */\n      tag_198\n      jumpi\n      mload(0x40)\n      0x08c379a000000000000000000000000000000000000000000000000000000000\n      dup2\n      mstore\n      0x04\n      add\n      tag_199\n      swap1\n      tag_178\n      jump\t// in\n    tag_199:\n      mload(0x40)\n      dup1\n      swap2\n      sub\n      swap1\n      revert\n    tag_198:\n        /* \"contracts/ICO_Contract.sol\":3514:3519  _Rate */\n      dup1\n        /* \"contracts/ICO_Contract.sol\":3507:3511  Rate */\n      0x05\n        /* \"contracts/ICO_Contract.sol\":3507:3519  Rate = _Rate */\n      dup2\n      swap1\n      sstore\n      pop\n        /* \"contracts/ICO_Contract.sol\":3449:3526  function updateRate(uint _Rate) public onlyOwner{... */\n      pop\n      jump\t// out\n        /* \"contracts/ICO_Contract.sol\":1118:1145  uint public MaxTokensToSell */\n    tag_95:\n      sload(0x07)\n      dup2\n      jump\t// out\n        /* \"contracts/ICO_Contract.sol\":4195:4308  function balanceOf(address account) public view returns(uint256) {... */\n    tag_100:\n        /* \"contracts/ICO_Contract.sol\":4251:4258  uint256 */\n      0x00\n        /* \"contracts/ICO_Contract.sol\":4277:4282  Token */\n      0x06\n      0x00\n      swap1\n      sload\n      swap1\n      0x0100\n      exp\n      swap1\n      div\n      0xffffffffffffffffffffffffffffffffffffffff\n      and\n        /* \"contracts/ICO_Contract.sol\":4277:4292  Token.balanceOf */\n      0xffffffffffffffffffffffffffffffffffffffff\n      and\n      0x70a08231\n        /* \"contracts/ICO_Contract.sol\":4293:4300  account */\n      dup4\n        /* \"contracts/ICO_Contract.sol\":4277:4301  Token.balanceOf(account) */\n      mload(0x40)\n      dup3\n      0xffffffff\n      and\n      0xe0\n      shl\n      dup2\n      mstore\n      0x04\n      add\n      tag_202\n      swap2\n      swap1\n      tag_58\n      jump\t// in\n    tag_202:\n      0x20\n      mload(0x40)\n      dup1\n      dup4\n      sub\n      dup2\n      dup7\n      dup1\n      extcodesize\n      iszero\n      dup1\n      iszero\n      tag_203\n      jumpi\n      0x00\n      dup1\n      revert\n    tag_203:\n      pop\n      gas\n      staticcall\n      iszero\n      dup1\n      iszero\n      tag_205\n      jumpi\n      returndatasize\n      0x00\n      dup1\n      returndatacopy\n      revert(0x00, returndatasize)\n    tag_205:\n      pop\n      pop\n      pop\n      pop\n      mload(0x40)\n      returndatasize\n      not(0x1f)\n      0x1f\n      dup3\n      add\n      and\n      dup3\n      add\n      dup1\n      0x40\n      mstore\n      pop\n      dup2\n      add\n      swap1\n      tag_206\n      swap2\n      swap1\n      tag_174\n      jump\t// in\n    tag_206:\n        /* \"contracts/ICO_Contract.sol\":4270:4301  return Token.balanceOf(account) */\n      swap1\n      pop\n        /* \"contracts/ICO_Contract.sol\":4195:4308  function balanceOf(address account) public view returns(uint256) {... */\n      swap2\n      swap1\n      pop\n      jump\t// out\n        /* \"contracts/ICO_Contract.sol\":4403:4492  function GetStartTimeofPresale() public view returns(uint){... */\n    tag_104:\n        /* \"contracts/ICO_Contract.sol\":4456:4460  uint */\n      0x00\n        /* \"contracts/ICO_Contract.sol\":4476:4485  StartTime */\n      dup1\n      sload\n        /* \"contracts/ICO_Contract.sol\":4469:4485  return StartTime */\n      swap1\n      pop\n        /* \"contracts/ICO_Contract.sol\":4403:4492  function GetStartTimeofPresale() public view returns(uint){... */\n      swap1\n      jump\t// out\n        /* \"contracts/ICO_Contract.sol\":1327:1373  mapping(address => uint) public PresaleHolders */\n    tag_109:\n      mstore(0x20, 0x0c)\n      dup1\n      0x00\n      mstore\n      keccak256(0x00, 0x40)\n      0x00\n      swap2\n      pop\n      swap1\n      pop\n      sload\n      dup2\n      jump\t// out\n        /* \"contracts/ICO_Contract.sol\":2588:3329  function BuyTokens(uint Amount)public payable returns(bool){ //give amount in wei... */\n    tag_113:\n        /* \"contracts/ICO_Contract.sol\":2642:2646  bool */\n      0x00\n        /* \"contracts/ICO_Contract.sol\":2716:2720  true */\n      0x01\n        /* \"contracts/ICO_Contract.sol\":2683:2720  BlackList_Addresses[msg.sender]!=true */\n      iszero\n      iszero\n        /* \"contracts/ICO_Contract.sol\":2683:2702  BlackList_Addresses */\n      0x0d\n        /* \"contracts/ICO_Contract.sol\":2683:2714  BlackList_Addresses[msg.sender] */\n      0x00\n        /* \"contracts/ICO_Contract.sol\":2703:2713  msg.sender */\n      caller\n        /* \"contracts/ICO_Contract.sol\":2683:2714  BlackList_Addresses[msg.sender] */\n      0xffffffffffffffffffffffffffffffffffffffff\n      and\n      0xffffffffffffffffffffffffffffffffffffffff\n      and\n      dup2\n      mstore\n      0x20\n      add\n      swap1\n      dup2\n      mstore\n      0x20\n      add\n      0x00\n      keccak256\n      0x00\n      swap1\n      sload\n      swap1\n      0x0100\n      exp\n      swap1\n      div\n      0xff\n      and\n        /* \"contracts/ICO_Contract.sol\":2683:2720  BlackList_Addresses[msg.sender]!=true */\n      iszero\n      iszero\n      eq\n      iszero\n        /* \"contracts/ICO_Contract.sol\":2675:2771  require(BlackList_Addresses[msg.sender]!=true,\"blcklist addresses canonot take part in presale\") */\n      tag_209\n      jumpi\n      mload(0x40)\n      0x08c379a000000000000000000000000000000000000000000000000000000000\n      dup2\n      mstore\n      0x04\n      add\n      tag_210\n      swap1\n      tag_211\n      jump\t// in\n    tag_210:\n      mload(0x40)\n      dup1\n      swap2\n      sub\n      swap1\n      revert\n    tag_209:\n        /* \"contracts/ICO_Contract.sol\":2805:2814  StartTime */\n      sload(0x00)\n        /* \"contracts/ICO_Contract.sol\":2786:2801  block.timestamp */\n      timestamp\n        /* \"contracts/ICO_Contract.sol\":2786:2814  block.timestamp >= StartTime */\n      lt\n      iszero\n        /* \"contracts/ICO_Contract.sol\":2786:2844  block.timestamp >= StartTime && block.timestamp <= EndTime */\n      dup1\n      iszero\n      tag_212\n      jumpi\n      pop\n        /* \"contracts/ICO_Contract.sol\":2837:2844  EndTime */\n      sload(0x01)\n        /* \"contracts/ICO_Contract.sol\":2818:2833  block.timestamp */\n      timestamp\n        /* \"contracts/ICO_Contract.sol\":2818:2844  block.timestamp <= EndTime */\n      gt\n      iszero\n        /* \"contracts/ICO_Contract.sol\":2786:2844  block.timestamp >= StartTime && block.timestamp <= EndTime */\n    tag_212:\n        /* \"contracts/ICO_Contract.sol\":2778:2871  require(block.timestamp >= StartTime && block.timestamp <= EndTime,\"sale is not started yet\") */\n      tag_213\n      jumpi\n      mload(0x40)\n      0x08c379a000000000000000000000000000000000000000000000000000000000\n      dup2\n      mstore\n      0x04\n      add\n      tag_214\n      swap1\n      tag_215\n      jump\t// in\n    tag_214:\n      mload(0x40)\n      dup1\n      swap2\n      sub\n      swap1\n      revert\n    tag_213:\n        /* \"contracts/ICO_Contract.sol\":2899:2903  Rate */\n      sload(0x05)\n        /* \"contracts/ICO_Contract.sol\":2886:2895  msg.value */\n      callvalue\n        /* \"contracts/ICO_Contract.sol\":2886:2903  msg.value >= Rate */\n      lt\n      iszero\n        /* \"contracts/ICO_Contract.sol\":2878:2932  require(msg.value >= Rate,\"minimum price is 1y ether\") */\n      tag_216\n      jumpi\n      mload(0x40)\n      0x08c379a000000000000000000000000000000000000000000000000000000000\n      dup2\n      mstore\n      0x04\n      add\n      tag_217\n      swap1\n      tag_218\n      jump\t// in\n    tag_217:\n      mload(0x40)\n      dup1\n      swap2\n      sub\n      swap1\n      revert\n    tag_216:\n        /* \"contracts/ICO_Contract.sol\":2957:2972  MaxTokensToSell */\n      sload(0x07)\n        /* \"contracts/ICO_Contract.sol\":2947:2953  Amount */\n      dup3\n        /* \"contracts/ICO_Contract.sol\":2947:2972  Amount <= MaxTokensToSell */\n      gt\n      iszero\n        /* \"contracts/ICO_Contract.sol\":2939:3020  require(Amount <= MaxTokensToSell,\"we offer limited amount of tokens in presale\") */\n      tag_219\n      jumpi\n      mload(0x40)\n      0x08c379a000000000000000000000000000000000000000000000000000000000\n      dup2\n      mstore\n      0x04\n      add\n      tag_220\n      swap1\n      tag_221\n      jump\t// in\n    tag_220:\n      mload(0x40)\n      dup1\n      swap2\n      sub\n      swap1\n      revert\n    tag_219:\n        /* \"contracts/ICO_Contract.sol\":3028:3047  uint Tokens_you_got */\n      0x00\n        /* \"contracts/ICO_Contract.sol\":3060:3071  Amount_Rate */\n      sload(0x0a)\n        /* \"contracts/ICO_Contract.sol\":3051:3057  Amount */\n      dup4\n        /* \"contracts/ICO_Contract.sol\":3051:3071  Amount * Amount_Rate */\n      tag_222\n      swap2\n      swap1\n      tag_223\n      jump\t// in\n    tag_222:\n        /* \"contracts/ICO_Contract.sol\":3028:3072  uint Tokens_you_got = (Amount * Amount_Rate) */\n      swap1\n      pop\n        /* \"contracts/ICO_Contract.sol\":3091:3104  Owners_Wallet */\n      0x02\n      0x01\n      swap1\n      sload\n      swap1\n      0x0100\n      exp\n      swap1\n      div\n      0xffffffffffffffffffffffffffffffffffffffff\n      and\n        /* \"contracts/ICO_Contract.sol\":3083:3114  payable(Owners_Wallet).transfer */\n      0xffffffffffffffffffffffffffffffffffffffff\n      and\n        /* \"contracts/ICO_Contract.sol\":3083:3125  payable(Owners_Wallet).transfer(msg.value) */\n      0x08fc\n        /* \"contracts/ICO_Contract.sol\":3115:3124  msg.value */\n      callvalue\n        /* \"contracts/ICO_Contract.sol\":3083:3125  payable(Owners_Wallet).transfer(msg.value) */\n      swap1\n      dup2\n      iszero\n      mul\n      swap1\n      mload(0x40)\n      0x00\n      mload(0x40)\n      dup1\n      dup4\n      sub\n      dup2\n      dup6\n      dup9\n      dup9\n      call\n      swap4\n      pop\n      pop\n      pop\n      pop\n      iszero\n      dup1\n      iszero\n      tag_225\n      jumpi\n      returndatasize\n      0x00\n      dup1\n      returndatacopy\n      revert(0x00, returndatasize)\n    tag_225:\n      pop\n        /* \"contracts/ICO_Contract.sol\":3132:3137  Token */\n      0x06\n      0x00\n      swap1\n      sload\n      swap1\n      0x0100\n      exp\n      swap1\n      div\n      0xffffffffffffffffffffffffffffffffffffffff\n      and\n        /* \"contracts/ICO_Contract.sol\":3132:3142  Token.mint */\n      0xffffffffffffffffffffffffffffffffffffffff\n      and\n      0x40c10f19\n        /* \"contracts/ICO_Contract.sol\":3143:3153  msg.sender */\n      caller\n        /* \"contracts/ICO_Contract.sol\":3154:3168  Tokens_you_got */\n      dup4\n        /* \"contracts/ICO_Contract.sol\":3132:3169  Token.mint(msg.sender,Tokens_you_got) */\n      mload(0x40)\n      dup4\n      0xffffffff\n      and\n      0xe0\n      shl\n      dup2\n      mstore\n      0x04\n      add\n      tag_226\n      swap3\n      swap2\n      swap1\n      tag_227\n      jump\t// in\n    tag_226:\n      0x00\n      mload(0x40)\n      dup1\n      dup4\n      sub\n      dup2\n      0x00\n      dup8\n      dup1\n      extcodesize\n      iszero\n      dup1\n      iszero\n      tag_228\n      jumpi\n      0x00\n      dup1\n      revert\n    tag_228:\n      pop\n      gas\n      call\n      iszero\n      dup1\n      iszero\n      tag_230\n      jumpi\n      returndatasize\n      0x00\n      dup1\n      returndatacopy\n      revert(0x00, returndatasize)\n    tag_230:\n      pop\n      pop\n      pop\n      pop\n        /* \"contracts/ICO_Contract.sol\":3203:3217  Tokens_you_got */\n      dup1\n        /* \"contracts/ICO_Contract.sol\":3176:3190  PresaleHolders */\n      0x0c\n        /* \"contracts/ICO_Contract.sol\":3176:3202  PresaleHolders[msg.sender] */\n      0x00\n        /* \"contracts/ICO_Contract.sol\":3191:3201  msg.sender */\n      caller\n        /* \"contracts/ICO_Contract.sol\":3176:3202  PresaleHolders[msg.sender] */\n      0xffffffffffffffffffffffffffffffffffffffff\n      and\n      0xffffffffffffffffffffffffffffffffffffffff\n      and\n      dup2\n      mstore\n      0x20\n      add\n      swap1\n      dup2\n      mstore\n      0x20\n      add\n      0x00\n      keccak256\n        /* \"contracts/ICO_Contract.sol\":3176:3217  PresaleHolders[msg.sender]=Tokens_you_got */\n      dup2\n      swap1\n      sstore\n      pop\n        /* \"contracts/ICO_Contract.sol\":3253:3254  1 */\n      0x01\n        /* \"contracts/ICO_Contract.sol\":3224:3251  numberOfPresaleTokensHolder */\n      0x09\n      0x00\n        /* \"contracts/ICO_Contract.sol\":3224:3254  numberOfPresaleTokensHolder+=1 */\n      dup3\n      dup3\n      sload\n      tag_231\n      swap2\n      swap1\n      tag_232\n      jump\t// in\n    tag_231:\n      swap3\n      pop\n      pop\n      dup2\n      swap1\n      sstore\n      pop\n        /* \"contracts/ICO_Contract.sol\":3284:3298  Tokens_you_got */\n      dup1\n        /* \"contracts/ICO_Contract.sol\":3261:3282  RemainingTokensToSell */\n      0x08\n      0x00\n        /* \"contracts/ICO_Contract.sol\":3261:3298  RemainingTokensToSell-=Tokens_you_got */\n      dup3\n      dup3\n      sload\n      tag_233\n      swap2\n      swap1\n      tag_234\n      jump\t// in\n    tag_233:\n      swap3\n      pop\n      pop\n      dup2\n      swap1\n      sstore\n      pop\n        /* \"contracts/ICO_Contract.sol\":3312:3316  true */\n      0x01\n        /* \"contracts/ICO_Contract.sol\":3305:3316  return true */\n      swap2\n      pop\n      pop\n        /* \"contracts/ICO_Contract.sol\":2588:3329  function BuyTokens(uint Amount)public payable returns(bool){ //give amount in wei... */\n      swap2\n      swap1\n      pop\n      jump\t// out\n        /* \"contracts/ICO_Contract.sol\":3335:3443  function CheckingRemainingPresaleTokens()public view returns(uint){... */\n    tag_117:\n        /* \"contracts/ICO_Contract.sol\":3396:3400  uint */\n      0x00\n        /* \"contracts/ICO_Contract.sol\":3415:3436  RemainingTokensToSell */\n      sload(0x08)\n        /* \"contracts/ICO_Contract.sol\":3408:3436  return RemainingTokensToSell */\n      swap1\n      pop\n        /* \"contracts/ICO_Contract.sol\":3335:3443  function CheckingRemainingPresaleTokens()public view returns(uint){... */\n      swap1\n      jump\t// out\n        /* \"contracts/ICO_Contract.sol\":1047:1067  address public Owner */\n    tag_121:\n      0x04\n      0x00\n      swap1\n      sload\n      swap1\n      0x0100\n      exp\n      swap1\n      div\n      0xffffffffffffffffffffffffffffffffffffffff\n      and\n      dup2\n      jump\t// out\n        /* \"contracts/ICO_Contract.sol\":4609:4682  function Sale()public view returns(bool){... */\n    tag_125:\n        /* \"contracts/ICO_Contract.sol\":4644:4648  bool */\n      0x00\n        /* \"contracts/ICO_Contract.sol\":4664:4675  isSale_Open */\n      0x02\n      0x00\n      swap1\n      sload\n      swap1\n      0x0100\n      exp\n      swap1\n      div\n      0xff\n      and\n        /* \"contracts/ICO_Contract.sol\":4657:4675  return isSale_Open */\n      swap1\n      pop\n        /* \"contracts/ICO_Contract.sol\":4609:4682  function Sale()public view returns(bool){... */\n      swap1\n      jump\t// out\n        /* \"contracts/ICO_Contract.sol\":2303:2440  function CloseSale() public onlyOwner{... */\n    tag_129:\n        /* \"contracts/ICO_Contract.sol\":2257:2262  Owner */\n      0x04\n      0x00\n      swap1\n      sload\n      swap1\n      0x0100\n      exp\n      swap1\n      div\n      0xffffffffffffffffffffffffffffffffffffffff\n      and\n        /* \"contracts/ICO_Contract.sol\":2243:2262  msg.sender == Owner */\n      0xffffffffffffffffffffffffffffffffffffffff\n      and\n        /* \"contracts/ICO_Contract.sol\":2243:2253  msg.sender */\n      caller\n        /* \"contracts/ICO_Contract.sol\":2243:2262  msg.sender == Owner */\n      0xffffffffffffffffffffffffffffffffffffffff\n      and\n      eq\n        /* \"contracts/ICO_Contract.sol\":2235:2287  require(msg.sender == Owner,\"only onwer can use it\") */\n      tag_238\n      jumpi\n      mload(0x40)\n      0x08c379a000000000000000000000000000000000000000000000000000000000\n      dup2\n      mstore\n      0x04\n      add\n      tag_239\n      swap1\n      tag_178\n      jump\t// in\n    tag_239:\n      mload(0x40)\n      dup1\n      swap2\n      sub\n      swap1\n      revert\n    tag_238:\n        /* \"contracts/ICO_Contract.sol\":2358:2369  isSale_Open */\n      0x02\n      0x00\n      swap1\n      sload\n      swap1\n      0x0100\n      exp\n      swap1\n      div\n      0xff\n      and\n        /* \"contracts/ICO_Contract.sol\":2350:2404  require(isSale_Open,\"sale is already not started yet\") */\n      tag_241\n      jumpi\n      mload(0x40)\n      0x08c379a000000000000000000000000000000000000000000000000000000000\n      dup2\n      mstore\n      0x04\n      add\n      tag_242\n      swap1\n      tag_243\n      jump\t// in\n    tag_242:\n      mload(0x40)\n      dup1\n      swap2\n      sub\n      swap1\n      revert\n    tag_241:\n        /* \"contracts/ICO_Contract.sol\":2428:2433  false */\n      0x00\n        /* \"contracts/ICO_Contract.sol\":2414:2425  isSale_Open */\n      0x02\n      0x00\n        /* \"contracts/ICO_Contract.sol\":2414:2433  isSale_Open = false */\n      0x0100\n      exp\n      dup2\n      sload\n      dup2\n      0xff\n      mul\n      not\n      and\n      swap1\n      dup4\n      iszero\n      iszero\n      mul\n      or\n      swap1\n      sstore\n      pop\n        /* \"contracts/ICO_Contract.sol\":2303:2440  function CloseSale() public onlyOwner{... */\n      jump\t// out\n        /* \"contracts/ICO_Contract.sol\":3896:3987  function GetSymbol() public view returns(string memory){... */\n    tag_132:\n        /* \"contracts/ICO_Contract.sol\":3937:3950  string memory */\n      0x60\n        /* \"contracts/ICO_Contract.sol\":3966:3971  Token */\n      0x06\n      0x00\n      swap1\n      sload\n      swap1\n      0x0100\n      exp\n      swap1\n      div\n      0xffffffffffffffffffffffffffffffffffffffff\n      and\n        /* \"contracts/ICO_Contract.sol\":3966:3978  Token.symbol */\n      0xffffffffffffffffffffffffffffffffffffffff\n      and\n      0x95d89b41\n        /* \"contracts/ICO_Contract.sol\":3966:3980  Token.symbol() */\n      mload(0x40)\n      dup2\n      0xffffffff\n      and\n      0xe0\n      shl\n      dup2\n      mstore\n      0x04\n      add\n      0x00\n      mload(0x40)\n      dup1\n      dup4\n      sub\n      dup2\n      dup7\n      dup1\n      extcodesize\n      iszero\n      dup1\n      iszero\n      tag_245\n      jumpi\n      0x00\n      dup1\n      revert\n    tag_245:\n      pop\n      gas\n      staticcall\n      iszero\n      dup1\n      iszero\n      tag_247\n      jumpi\n      returndatasize\n      0x00\n      dup1\n      returndatacopy\n      revert(0x00, returndatasize)\n    tag_247:\n      pop\n      pop\n      pop\n      pop\n      mload(0x40)\n      returndatasize\n      0x00\n      dup3\n      returndatacopy\n      returndatasize\n      not(0x1f)\n      0x1f\n      dup3\n      add\n      and\n      dup3\n      add\n      dup1\n      0x40\n      mstore\n      pop\n      dup2\n      add\n      swap1\n      tag_248\n      swap2\n      swap1\n      tag_195\n      jump\t// in\n    tag_248:\n        /* \"contracts/ICO_Contract.sol\":3959:3980  return Token.symbol() */\n      swap1\n      pop\n        /* \"contracts/ICO_Contract.sol\":3896:3987  function GetSymbol() public view returns(string memory){... */\n      swap1\n      jump\t// out\n        /* \"contracts/ICO_Contract.sol\":1014:1041  address public TokenAddress */\n    tag_136:\n      0x03\n      0x00\n      swap1\n      sload\n      swap1\n      0x0100\n      exp\n      swap1\n      div\n      0xffffffffffffffffffffffffffffffffffffffff\n      and\n      dup2\n      jump\t// out\n        /* \"contracts/ICO_Contract.sol\":4313:4398  function getPriceOFPresaleToken() public view returns(uint){... */\n    tag_140:\n        /* \"contracts/ICO_Contract.sol\":4367:4371  uint */\n      0x00\n        /* \"contracts/ICO_Contract.sol\":4387:4391  Rate */\n      sload(0x05)\n        /* \"contracts/ICO_Contract.sol\":4380:4391  return Rate */\n      swap1\n      pop\n        /* \"contracts/ICO_Contract.sol\":4313:4398  function getPriceOFPresaleToken() public view returns(uint){... */\n      swap1\n      jump\t// out\n        /* \"contracts/ICO_Contract.sol\":1235:1258  uint public Amount_Rate */\n    tag_144:\n      sload(0x0a)\n      dup2\n      jump\t// out\n        /* \"contracts/ICO_Contract.sol\":1190:1229  uint public numberOfPresaleTokensHolder */\n    tag_148:\n      sload(0x09)\n      dup2\n      jump\t// out\n        /* \"contracts/ICO_Contract.sol\":1379:1430  mapping(address => bool) public BlackList_Addresses */\n    tag_153:\n      mstore(0x20, 0x0d)\n      dup1\n      0x00\n      mstore\n      keccak256(0x00, 0x40)\n      0x00\n      swap2\n      pop\n      sload\n      swap1\n      0x0100\n      exp\n      swap1\n      div\n      0xff\n      and\n      dup2\n      jump\t// out\n        /* \"contracts/ICO_Contract.sol\":3533:3793  function ChangeOwner(address NewOwner)public onlyOwner returns(bool){... */\n    tag_158:\n        /* \"contracts/ICO_Contract.sol\":3596:3600  bool */\n      0x00\n        /* \"contracts/ICO_Contract.sol\":2257:2262  Owner */\n      0x04\n      0x00\n      swap1\n      sload\n      swap1\n      0x0100\n      exp\n      swap1\n      div\n      0xffffffffffffffffffffffffffffffffffffffff\n      and\n        /* \"contracts/ICO_Contract.sol\":2243:2262  msg.sender == Owner */\n      0xffffffffffffffffffffffffffffffffffffffff\n      and\n        /* \"contracts/ICO_Contract.sol\":2243:2253  msg.sender */\n      caller\n        /* \"contracts/ICO_Contract.sol\":2243:2262  msg.sender == Owner */\n      0xffffffffffffffffffffffffffffffffffffffff\n      and\n      eq\n        /* \"contracts/ICO_Contract.sol\":2235:2287  require(msg.sender == Owner,\"only onwer can use it\") */\n      tag_251\n      jumpi\n      mload(0x40)\n      0x08c379a000000000000000000000000000000000000000000000000000000000\n      dup2\n      mstore\n      0x04\n      add\n      tag_252\n      swap1\n      tag_178\n      jump\t// in\n    tag_252:\n      mload(0x40)\n      dup1\n      swap2\n      sub\n      swap1\n      revert\n    tag_251:\n        /* \"contracts/ICO_Contract.sol\":3633:3634  0 */\n      0x00\n        /* \"contracts/ICO_Contract.sol\":3615:3635  NewOwner!=address(0) */\n      0xffffffffffffffffffffffffffffffffffffffff\n      and\n        /* \"contracts/ICO_Contract.sol\":3615:3623  NewOwner */\n      dup3\n        /* \"contracts/ICO_Contract.sol\":3615:3635  NewOwner!=address(0) */\n      0xffffffffffffffffffffffffffffffffffffffff\n      and\n      eq\n      iszero\n        /* \"contracts/ICO_Contract.sol\":3607:3669  require(NewOwner!=address(0),\"zero address cannot b an owner\") */\n      tag_254\n      jumpi\n      mload(0x40)\n      0x08c379a000000000000000000000000000000000000000000000000000000000\n      dup2\n      mstore\n      0x04\n      add\n      tag_255\n      swap1\n      tag_256\n      jump\t// in\n    tag_255:\n      mload(0x40)\n      dup1\n      swap2\n      sub\n      swap1\n      revert\n    tag_254:\n        /* \"contracts/ICO_Contract.sol\":3714:3718  true */\n      0x01\n        /* \"contracts/ICO_Contract.sol\":3683:3718  BlackList_Addresses[NewOwner]!=true */\n      iszero\n      iszero\n        /* \"contracts/ICO_Contract.sol\":3683:3702  BlackList_Addresses */\n      0x0d\n        /* \"contracts/ICO_Contract.sol\":3683:3712  BlackList_Addresses[NewOwner] */\n      0x00\n        /* \"contracts/ICO_Contract.sol\":3703:3711  NewOwner */\n      dup5\n        /* \"contracts/ICO_Contract.sol\":3683:3712  BlackList_Addresses[NewOwner] */\n      0xffffffffffffffffffffffffffffffffffffffff\n      and\n      0xffffffffffffffffffffffffffffffffffffffff\n      and\n      dup2\n      mstore\n      0x20\n      add\n      swap1\n      dup2\n      mstore\n      0x20\n      add\n      0x00\n      keccak256\n      0x00\n      swap1\n      sload\n      swap1\n      0x0100\n      exp\n      swap1\n      div\n      0xff\n      and\n        /* \"contracts/ICO_Contract.sol\":3683:3718  BlackList_Addresses[NewOwner]!=true */\n      iszero\n      iszero\n      eq\n      iszero\n        /* \"contracts/ICO_Contract.sol\":3675:3747  require(BlackList_Addresses[NewOwner]!=true,\"it is a blacklist address\") */\n      tag_257\n      jumpi\n      mload(0x40)\n      0x08c379a000000000000000000000000000000000000000000000000000000000\n      dup2\n      mstore\n      0x04\n      add\n      tag_258\n      swap1\n      tag_259\n      jump\t// in\n    tag_258:\n      mload(0x40)\n      dup1\n      swap2\n      sub\n      swap1\n      revert\n    tag_257:\n        /* \"contracts/ICO_Contract.sol\":3761:3769  NewOwner */\n      dup2\n        /* \"contracts/ICO_Contract.sol\":3753:3758  Owner */\n      0x04\n      0x00\n        /* \"contracts/ICO_Contract.sol\":3753:3769  Owner = NewOwner */\n      0x0100\n      exp\n      dup2\n      sload\n      dup2\n      0xffffffffffffffffffffffffffffffffffffffff\n      mul\n      not\n      and\n      swap1\n      dup4\n      0xffffffffffffffffffffffffffffffffffffffff\n      and\n      mul\n      or\n      swap1\n      sstore\n      pop\n        /* \"contracts/ICO_Contract.sol\":3782:3786  true */\n      0x01\n        /* \"contracts/ICO_Contract.sol\":3775:3786  return true */\n      swap1\n      pop\n        /* \"contracts/ICO_Contract.sol\":3533:3793  function ChangeOwner(address NewOwner)public onlyOwner returns(bool){... */\n      swap2\n      swap1\n      pop\n      jump\t// out\n        /* \"contracts/ICO_Contract.sol\":2446:2573  function SetUpBlackListAddress(address BAddress,bool flag)public onlyOwner{... */\n    tag_164:\n        /* \"contracts/ICO_Contract.sol\":2257:2262  Owner */\n      0x04\n      0x00\n      swap1\n      sload\n      swap1\n      0x0100\n      exp\n      swap1\n      div\n      0xffffffffffffffffffffffffffffffffffffffff\n      and\n        /* \"contracts/ICO_Contract.sol\":2243:2262  msg.sender == Owner */\n      0xffffffffffffffffffffffffffffffffffffffff\n      and\n        /* \"contracts/ICO_Contract.sol\":2243:2253  msg.sender */\n      caller\n        /* \"contracts/ICO_Contract.sol\":2243:2262  msg.sender == Owner */\n      0xffffffffffffffffffffffffffffffffffffffff\n      and\n      eq\n        /* \"contracts/ICO_Contract.sol\":2235:2287  require(msg.sender == Owner,\"only onwer can use it\") */\n      tag_261\n      jumpi\n      mload(0x40)\n      0x08c379a000000000000000000000000000000000000000000000000000000000\n      dup2\n      mstore\n      0x04\n      add\n      tag_262\n      swap1\n      tag_178\n      jump\t// in\n    tag_262:\n      mload(0x40)\n      dup1\n      swap2\n      sub\n      swap1\n      revert\n    tag_261:\n        /* \"contracts/ICO_Contract.sol\":2562:2566  flag */\n      dup1\n        /* \"contracts/ICO_Contract.sol\":2530:2549  BlackList_Addresses */\n      0x0d\n        /* \"contracts/ICO_Contract.sol\":2530:2559  BlackList_Addresses[BAddress] */\n      0x00\n        /* \"contracts/ICO_Contract.sol\":2550:2558  BAddress */\n      dup5\n        /* \"contracts/ICO_Contract.sol\":2530:2559  BlackList_Addresses[BAddress] */\n      0xffffffffffffffffffffffffffffffffffffffff\n      and\n      0xffffffffffffffffffffffffffffffffffffffff\n      and\n      dup2\n      mstore\n      0x20\n      add\n      swap1\n      dup2\n      mstore\n      0x20\n      add\n      0x00\n      keccak256\n      0x00\n        /* \"contracts/ICO_Contract.sol\":2530:2566  BlackList_Addresses[BAddress] = flag */\n      0x0100\n      exp\n      dup2\n      sload\n      dup2\n      0xff\n      mul\n      not\n      and\n      swap1\n      dup4\n      iszero\n      iszero\n      mul\n      or\n      swap1\n      sstore\n      pop\n        /* \"contracts/ICO_Contract.sol\":2446:2573  function SetUpBlackListAddress(address BAddress,bool flag)public onlyOwner{... */\n      pop\n      pop\n      jump\t// out\n        /* \"contracts/ICO_Contract.sol\":899:920  uint public StartTime */\n    tag_167:\n      sload(0x00)\n      dup2\n      jump\t// out\n        /* \"#utility.yul\":7:428   */\n    tag_265:\n        /* \"#utility.yul\":96:101   */\n      0x00\n        /* \"#utility.yul\":121:187   */\n      tag_267\n        /* \"#utility.yul\":137:186   */\n      tag_268\n        /* \"#utility.yul\":179:185   */\n      dup5\n        /* \"#utility.yul\":137:186   */\n      tag_269\n      jump\t// in\n    tag_268:\n        /* \"#utility.yul\":121:187   */\n      tag_270\n      jump\t// in\n    tag_267:\n        /* \"#utility.yul\":112:187   */\n      swap1\n      pop\n        /* \"#utility.yul\":210:216   */\n      dup3\n        /* \"#utility.yul\":203:208   */\n      dup2\n        /* \"#utility.yul\":196:217   */\n      mstore\n        /* \"#utility.yul\":248:252   */\n      0x20\n        /* \"#utility.yul\":241:246   */\n      dup2\n        /* \"#utility.yul\":237:253   */\n      add\n        /* \"#utility.yul\":286:289   */\n      dup5\n        /* \"#utility.yul\":277:283   */\n      dup5\n        /* \"#utility.yul\":272:275   */\n      dup5\n        /* \"#utility.yul\":268:284   */\n      add\n        /* \"#utility.yul\":265:290   */\n      gt\n        /* \"#utility.yul\":262:374   */\n      iszero\n      tag_271\n      jumpi\n        /* \"#utility.yul\":293:372   */\n      tag_272\n      tag_273\n      jump\t// in\n    tag_272:\n        /* \"#utility.yul\":262:374   */\n    tag_271:\n        /* \"#utility.yul\":383:422   */\n      tag_274\n        /* \"#utility.yul\":415:421   */\n      dup5\n        /* \"#utility.yul\":410:413   */\n      dup3\n        /* \"#utility.yul\":405:408   */\n      dup6\n        /* \"#utility.yul\":383:422   */\n      tag_275\n      jump\t// in\n    tag_274:\n        /* \"#utility.yul\":102:428   */\n      pop\n        /* \"#utility.yul\":7:428   */\n      swap4\n      swap3\n      pop\n      pop\n      pop\n      jump\t// out\n        /* \"#utility.yul\":434:573   */\n    tag_276:\n        /* \"#utility.yul\":480:485   */\n      0x00\n        /* \"#utility.yul\":518:524   */\n      dup2\n        /* \"#utility.yul\":505:525   */\n      calldataload\n        /* \"#utility.yul\":496:525   */\n      swap1\n      pop\n        /* \"#utility.yul\":534:567   */\n      tag_278\n        /* \"#utility.yul\":561:566   */\n      dup2\n        /* \"#utility.yul\":534:567   */\n      tag_279\n      jump\t// in\n    tag_278:\n        /* \"#utility.yul\":434:573   */\n      swap3\n      swap2\n      pop\n      pop\n      jump\t// out\n        /* \"#utility.yul\":579:712   */\n    tag_280:\n        /* \"#utility.yul\":622:627   */\n      0x00\n        /* \"#utility.yul\":660:666   */\n      dup2\n        /* \"#utility.yul\":647:667   */\n      calldataload\n        /* \"#utility.yul\":638:667   */\n      swap1\n      pop\n        /* \"#utility.yul\":676:706   */\n      tag_282\n        /* \"#utility.yul\":700:705   */\n      dup2\n        /* \"#utility.yul\":676:706   */\n      tag_283\n      jump\t// in\n    tag_282:\n        /* \"#utility.yul\":579:712   */\n      swap3\n      swap2\n      pop\n      pop\n      jump\t// out\n        /* \"#utility.yul\":732:1087   */\n    tag_284:\n        /* \"#utility.yul\":799:804   */\n      0x00\n        /* \"#utility.yul\":848:851   */\n      dup3\n        /* \"#utility.yul\":841:845   */\n      0x1f\n        /* \"#utility.yul\":833:839   */\n      dup4\n        /* \"#utility.yul\":829:846   */\n      add\n        /* \"#utility.yul\":825:852   */\n      slt\n        /* \"#utility.yul\":815:937   */\n      tag_286\n      jumpi\n        /* \"#utility.yul\":856:935   */\n      tag_287\n      tag_288\n      jump\t// in\n    tag_287:\n        /* \"#utility.yul\":815:937   */\n    tag_286:\n        /* \"#utility.yul\":966:972   */\n      dup2\n        /* \"#utility.yul\":960:973   */\n      mload\n        /* \"#utility.yul\":991:1081   */\n      tag_289\n        /* \"#utility.yul\":1077:1080   */\n      dup5\n        /* \"#utility.yul\":1069:1075   */\n      dup3\n        /* \"#utility.yul\":1062:1066   */\n      0x20\n        /* \"#utility.yul\":1054:1060   */\n      dup7\n        /* \"#utility.yul\":1050:1067   */\n      add\n        /* \"#utility.yul\":991:1081   */\n      tag_265\n      jump\t// in\n    tag_289:\n        /* \"#utility.yul\":982:1081   */\n      swap2\n      pop\n        /* \"#utility.yul\":805:1087   */\n      pop\n        /* \"#utility.yul\":732:1087   */\n      swap3\n      swap2\n      pop\n      pop\n      jump\t// out\n        /* \"#utility.yul\":1093:1232   */\n    tag_290:\n        /* \"#utility.yul\":1139:1144   */\n      0x00\n        /* \"#utility.yul\":1177:1183   */\n      dup2\n        /* \"#utility.yul\":1164:1184   */\n      calldataload\n        /* \"#utility.yul\":1155:1184   */\n      swap1\n      pop\n        /* \"#utility.yul\":1193:1226   */\n      tag_292\n        /* \"#utility.yul\":1220:1225   */\n      dup2\n        /* \"#utility.yul\":1193:1226   */\n      tag_293\n      jump\t// in\n    tag_292:\n        /* \"#utility.yul\":1093:1232   */\n      swap3\n      swap2\n      pop\n      pop\n      jump\t// out\n        /* \"#utility.yul\":1238:1381   */\n    tag_294:\n        /* \"#utility.yul\":1295:1300   */\n      0x00\n        /* \"#utility.yul\":1326:1332   */\n      dup2\n        /* \"#utility.yul\":1320:1333   */\n      mload\n        /* \"#utility.yul\":1311:1333   */\n      swap1\n      pop\n        /* \"#utility.yul\":1342:1375   */\n      tag_296\n        /* \"#utility.yul\":1369:1374   */\n      dup2\n        /* \"#utility.yul\":1342:1375   */\n      tag_293\n      jump\t// in\n    tag_296:\n        /* \"#utility.yul\":1238:1381   */\n      swap3\n      swap2\n      pop\n      pop\n      jump\t// out\n        /* \"#utility.yul\":1387:1526   */\n    tag_297:\n        /* \"#utility.yul\":1442:1447   */\n      0x00\n        /* \"#utility.yul\":1473:1479   */\n      dup2\n        /* \"#utility.yul\":1467:1480   */\n      mload\n        /* \"#utility.yul\":1458:1480   */\n      swap1\n      pop\n        /* \"#utility.yul\":1489:1520   */\n      tag_299\n        /* \"#utility.yul\":1514:1519   */\n      dup2\n        /* \"#utility.yul\":1489:1520   */\n      tag_300\n      jump\t// in\n    tag_299:\n        /* \"#utility.yul\":1387:1526   */\n      swap3\n      swap2\n      pop\n      pop\n      jump\t// out\n        /* \"#utility.yul\":1532:1861   */\n    tag_52:\n        /* \"#utility.yul\":1591:1597   */\n      0x00\n        /* \"#utility.yul\":1640:1642   */\n      0x20\n        /* \"#utility.yul\":1628:1637   */\n      dup3\n        /* \"#utility.yul\":1619:1626   */\n      dup5\n        /* \"#utility.yul\":1615:1638   */\n      sub\n        /* \"#utility.yul\":1611:1643   */\n      slt\n        /* \"#utility.yul\":1608:1727   */\n      iszero\n      tag_302\n      jumpi\n        /* \"#utility.yul\":1646:1725   */\n      tag_303\n      tag_304\n      jump\t// in\n    tag_303:\n        /* \"#utility.yul\":1608:1727   */\n    tag_302:\n        /* \"#utility.yul\":1766:1767   */\n      0x00\n        /* \"#utility.yul\":1791:1844   */\n      tag_305\n        /* \"#utility.yul\":1836:1843   */\n      dup5\n        /* \"#utility.yul\":1827:1833   */\n      dup3\n        /* \"#utility.yul\":1816:1825   */\n      dup6\n        /* \"#utility.yul\":1812:1834   */\n      add\n        /* \"#utility.yul\":1791:1844   */\n      tag_276\n      jump\t// in\n    tag_305:\n        /* \"#utility.yul\":1781:1844   */\n      swap2\n      pop\n        /* \"#utility.yul\":1737:1854   */\n      pop\n        /* \"#utility.yul\":1532:1861   */\n      swap3\n      swap2\n      pop\n      pop\n      jump\t// out\n        /* \"#utility.yul\":1867:2335   */\n    tag_163:\n        /* \"#utility.yul\":1932:1938   */\n      0x00\n        /* \"#utility.yul\":1940:1946   */\n      dup1\n        /* \"#utility.yul\":1989:1991   */\n      0x40\n        /* \"#utility.yul\":1977:1986   */\n      dup4\n        /* \"#utility.yul\":1968:1975   */\n      dup6\n        /* \"#utility.yul\":1964:1987   */\n      sub\n        /* \"#utility.yul\":1960:1992   */\n      slt\n        /* \"#utility.yul\":1957:2076   */\n      iszero\n      tag_307\n      jumpi\n        /* \"#utility.yul\":1995:2074   */\n      tag_308\n      tag_304\n      jump\t// in\n    tag_308:\n        /* \"#utility.yul\":1957:2076   */\n    tag_307:\n        /* \"#utility.yul\":2115:2116   */\n      0x00\n        /* \"#utility.yul\":2140:2193   */\n      tag_309\n        /* \"#utility.yul\":2185:2192   */\n      dup6\n        /* \"#utility.yul\":2176:2182   */\n      dup3\n        /* \"#utility.yul\":2165:2174   */\n      dup7\n        /* \"#utility.yul\":2161:2183   */\n      add\n        /* \"#utility.yul\":2140:2193   */\n      tag_276\n      jump\t// in\n    tag_309:\n        /* \"#utility.yul\":2130:2193   */\n      swap3\n      pop\n        /* \"#utility.yul\":2086:2203   */\n      pop\n        /* \"#utility.yul\":2242:2244   */\n      0x20\n        /* \"#utility.yul\":2268:2318   */\n      tag_310\n        /* \"#utility.yul\":2310:2317   */\n      dup6\n        /* \"#utility.yul\":2301:2307   */\n      dup3\n        /* \"#utility.yul\":2290:2299   */\n      dup7\n        /* \"#utility.yul\":2286:2308   */\n      add\n        /* \"#utility.yul\":2268:2318   */\n      tag_280\n      jump\t// in\n    tag_310:\n        /* \"#utility.yul\":2258:2318   */\n      swap2\n      pop\n        /* \"#utility.yul\":2213:2328   */\n      pop\n        /* \"#utility.yul\":1867:2335   */\n      swap3\n      pop\n      swap3\n      swap1\n      pop\n      jump\t// out\n        /* \"#utility.yul\":2341:2865   */\n    tag_195:\n        /* \"#utility.yul\":2421:2427   */\n      0x00\n        /* \"#utility.yul\":2470:2472   */\n      0x20\n        /* \"#utility.yul\":2458:2467   */\n      dup3\n        /* \"#utility.yul\":2449:2456   */\n      dup5\n        /* \"#utility.yul\":2445:2468   */\n      sub\n        /* \"#utility.yul\":2441:2473   */\n      slt\n        /* \"#utility.yul\":2438:2557   */\n      iszero\n      tag_312\n      jumpi\n        /* \"#utility.yul\":2476:2555   */\n      tag_313\n      tag_304\n      jump\t// in\n    tag_313:\n        /* \"#utility.yul\":2438:2557   */\n    tag_312:\n        /* \"#utility.yul\":2617:2618   */\n      0x00\n        /* \"#utility.yul\":2606:2615   */\n      dup3\n        /* \"#utility.yul\":2602:2619   */\n      add\n        /* \"#utility.yul\":2596:2620   */\n      mload\n        /* \"#utility.yul\":2647:2665   */\n      0xffffffffffffffff\n        /* \"#utility.yul\":2639:2645   */\n      dup2\n        /* \"#utility.yul\":2636:2666   */\n      gt\n        /* \"#utility.yul\":2633:2750   */\n      iszero\n      tag_314\n      jumpi\n        /* \"#utility.yul\":2669:2748   */\n      tag_315\n      tag_316\n      jump\t// in\n    tag_315:\n        /* \"#utility.yul\":2633:2750   */\n    tag_314:\n        /* \"#utility.yul\":2774:2848   */\n      tag_317\n        /* \"#utility.yul\":2840:2847   */\n      dup5\n        /* \"#utility.yul\":2831:2837   */\n      dup3\n        /* \"#utility.yul\":2820:2829   */\n      dup6\n        /* \"#utility.yul\":2816:2838   */\n      add\n        /* \"#utility.yul\":2774:2848   */\n      tag_284\n      jump\t// in\n    tag_317:\n        /* \"#utility.yul\":2764:2848   */\n      swap2\n      pop\n        /* \"#utility.yul\":2567:2858   */\n      pop\n        /* \"#utility.yul\":2341:2865   */\n      swap3\n      swap2\n      pop\n      pop\n      jump\t// out\n        /* \"#utility.yul\":2871:3200   */\n    tag_91:\n        /* \"#utility.yul\":2930:2936   */\n      0x00\n        /* \"#utility.yul\":2979:2981   */\n      0x20\n        /* \"#utility.yul\":2967:2976   */\n      dup3\n        /* \"#utility.yul\":2958:2965   */\n      dup5\n        /* \"#utility.yul\":2954:2977   */\n      sub\n        /* \"#utility.yul\":2950:2982   */\n      slt\n        /* \"#utility.yul\":2947:3066   */\n      iszero\n      tag_319\n      jumpi\n        /* \"#utility.yul\":2985:3064   */\n      tag_320\n      tag_304\n      jump\t// in\n    tag_320:\n        /* \"#utility.yul\":2947:3066   */\n    tag_319:\n        /* \"#utility.yul\":3105:3106   */\n      0x00\n        /* \"#utility.yul\":3130:3183   */\n      tag_321\n        /* \"#utility.yul\":3175:3182   */\n      dup5\n        /* \"#utility.yul\":3166:3172   */\n      dup3\n        /* \"#utility.yul\":3155:3164   */\n      dup6\n        /* \"#utility.yul\":3151:3173   */\n      add\n        /* \"#utility.yul\":3130:3183   */\n      tag_290\n      jump\t// in\n    tag_321:\n        /* \"#utility.yul\":3120:3183   */\n      swap2\n      pop\n        /* \"#utility.yul\":3076:3193   */\n      pop\n        /* \"#utility.yul\":2871:3200   */\n      swap3\n      swap2\n      pop\n      pop\n      jump\t// out\n        /* \"#utility.yul\":3206:3557   */\n    tag_174:\n        /* \"#utility.yul\":3276:3282   */\n      0x00\n        /* \"#utility.yul\":3325:3327   */\n      0x20\n        /* \"#utility.yul\":3313:3322   */\n      dup3\n        /* \"#utility.yul\":3304:3311   */\n      dup5\n        /* \"#utility.yul\":3300:3323   */\n      sub\n        /* \"#utility.yul\":3296:3328   */\n      slt\n        /* \"#utility.yul\":3293:3412   */\n      iszero\n      tag_323\n      jumpi\n        /* \"#utility.yul\":3331:3410   */\n      tag_324\n      tag_304\n      jump\t// in\n    tag_324:\n        /* \"#utility.yul\":3293:3412   */\n    tag_323:\n        /* \"#utility.yul\":3451:3452   */\n      0x00\n        /* \"#utility.yul\":3476:3540   */\n      tag_325\n        /* \"#utility.yul\":3532:3539   */\n      dup5\n        /* \"#utility.yul\":3523:3529   */\n      dup3\n        /* \"#utility.yul\":3512:3521   */\n      dup6\n        /* \"#utility.yul\":3508:3530   */\n      add\n        /* \"#utility.yul\":3476:3540   */\n      tag_294\n      jump\t// in\n    tag_325:\n        /* \"#utility.yul\":3466:3540   */\n      swap2\n      pop\n        /* \"#utility.yul\":3422:3550   */\n      pop\n        /* \"#utility.yul\":3206:3557   */\n      swap3\n      swap2\n      pop\n      pop\n      jump\t// out\n        /* \"#utility.yul\":3563:3910   */\n    tag_188:\n        /* \"#utility.yul\":3631:3637   */\n      0x00\n        /* \"#utility.yul\":3680:3682   */\n      0x20\n        /* \"#utility.yul\":3668:3677   */\n      dup3\n        /* \"#utility.yul\":3659:3666   */\n      dup5\n        /* \"#utility.yul\":3655:3678   */\n      sub\n        /* \"#utility.yul\":3651:3683   */\n      slt\n        /* \"#utility.yul\":3648:3767   */\n      iszero\n      tag_327\n      jumpi\n        /* \"#utility.yul\":3686:3765   */\n      tag_328\n      tag_304\n      jump\t// in\n    tag_328:\n        /* \"#utility.yul\":3648:3767   */\n    tag_327:\n        /* \"#utility.yul\":3806:3807   */\n      0x00\n        /* \"#utility.yul\":3831:3893   */\n      tag_329\n        /* \"#utility.yul\":3885:3892   */\n      dup5\n        /* \"#utility.yul\":3876:3882   */\n      dup3\n        /* \"#utility.yul\":3865:3874   */\n      dup6\n        /* \"#utility.yul\":3861:3883   */\n      add\n        /* \"#utility.yul\":3831:3893   */\n      tag_297\n      jump\t// in\n    tag_329:\n        /* \"#utility.yul\":3821:3893   */\n      swap2\n      pop\n        /* \"#utility.yul\":3777:3903   */\n      pop\n        /* \"#utility.yul\":3563:3910   */\n      swap3\n      swap2\n      pop\n      pop\n      jump\t// out\n        /* \"#utility.yul\":3916:4034   */\n    tag_330:\n        /* \"#utility.yul\":4003:4027   */\n      tag_332\n        /* \"#utility.yul\":4021:4026   */\n      dup2\n        /* \"#utility.yul\":4003:4027   */\n      tag_333\n      jump\t// in\n    tag_332:\n        /* \"#utility.yul\":3998:4001   */\n      dup3\n        /* \"#utility.yul\":3991:4028   */\n      mstore\n        /* \"#utility.yul\":3916:4034   */\n      pop\n      pop\n      jump\t// out\n        /* \"#utility.yul\":4040:4149   */\n    tag_334:\n        /* \"#utility.yul\":4121:4142   */\n      tag_336\n        /* \"#utility.yul\":4136:4141   */\n      dup2\n        /* \"#utility.yul\":4121:4142   */\n      tag_337\n      jump\t// in\n    tag_336:\n        /* \"#utility.yul\":4116:4119   */\n      dup3\n        /* \"#utility.yul\":4109:4143   */\n      mstore\n        /* \"#utility.yul\":4040:4149   */\n      pop\n      pop\n      jump\t// out\n        /* \"#utility.yul\":4155:4519   */\n    tag_338:\n        /* \"#utility.yul\":4243:4246   */\n      0x00\n        /* \"#utility.yul\":4271:4310   */\n      tag_340\n        /* \"#utility.yul\":4304:4309   */\n      dup3\n        /* \"#utility.yul\":4271:4310   */\n      tag_341\n      jump\t// in\n    tag_340:\n        /* \"#utility.yul\":4326:4397   */\n      tag_342\n        /* \"#utility.yul\":4390:4396   */\n      dup2\n        /* \"#utility.yul\":4385:4388   */\n      dup6\n        /* \"#utility.yul\":4326:4397   */\n      tag_343\n      jump\t// in\n    tag_342:\n        /* \"#utility.yul\":4319:4397   */\n      swap4\n      pop\n        /* \"#utility.yul\":4406:4458   */\n      tag_344\n        /* \"#utility.yul\":4451:4457   */\n      dup2\n        /* \"#utility.yul\":4446:4449   */\n      dup6\n        /* \"#utility.yul\":4439:4443   */\n      0x20\n        /* \"#utility.yul\":4432:4437   */\n      dup7\n        /* \"#utility.yul\":4428:4444   */\n      add\n        /* \"#utility.yul\":4406:4458   */\n      tag_275\n      jump\t// in\n    tag_344:\n        /* \"#utility.yul\":4483:4512   */\n      tag_345\n        /* \"#utility.yul\":4505:4511   */\n      dup2\n        /* \"#utility.yul\":4483:4512   */\n      tag_346\n      jump\t// in\n    tag_345:\n        /* \"#utility.yul\":4478:4481   */\n      dup5\n        /* \"#utility.yul\":4474:4513   */\n      add\n        /* \"#utility.yul\":4467:4513   */\n      swap2\n      pop\n        /* \"#utility.yul\":4247:4519   */\n      pop\n        /* \"#utility.yul\":4155:4519   */\n      swap3\n      swap2\n      pop\n      pop\n      jump\t// out\n        /* \"#utility.yul\":4525:4891   */\n    tag_347:\n        /* \"#utility.yul\":4667:4670   */\n      0x00\n        /* \"#utility.yul\":4688:4755   */\n      tag_349\n        /* \"#utility.yul\":4752:4754   */\n      0x15\n        /* \"#utility.yul\":4747:4750   */\n      dup4\n        /* \"#utility.yul\":4688:4755   */\n      tag_343\n      jump\t// in\n    tag_349:\n        /* \"#utility.yul\":4681:4755   */\n      swap2\n      pop\n        /* \"#utility.yul\":4764:4857   */\n      tag_350\n        /* \"#utility.yul\":4853:4856   */\n      dup3\n        /* \"#utility.yul\":4764:4857   */\n      tag_351\n      jump\t// in\n    tag_350:\n        /* \"#utility.yul\":4882:4884   */\n      0x20\n        /* \"#utility.yul\":4877:4880   */\n      dup3\n        /* \"#utility.yul\":4873:4885   */\n      add\n        /* \"#utility.yul\":4866:4885   */\n      swap1\n      pop\n        /* \"#utility.yul\":4525:4891   */\n      swap2\n      swap1\n      pop\n      jump\t// out\n        /* \"#utility.yul\":4897:5263   */\n    tag_352:\n        /* \"#utility.yul\":5039:5042   */\n      0x00\n        /* \"#utility.yul\":5060:5127   */\n      tag_354\n        /* \"#utility.yul\":5124:5126   */\n      0x17\n        /* \"#utility.yul\":5119:5122   */\n      dup4\n        /* \"#utility.yul\":5060:5127   */\n      tag_343\n      jump\t// in\n    tag_354:\n        /* \"#utility.yul\":5053:5127   */\n      swap2\n      pop\n        /* \"#utility.yul\":5136:5229   */\n      tag_355\n        /* \"#utility.yul\":5225:5228   */\n      dup3\n        /* \"#utility.yul\":5136:5229   */\n      tag_356\n      jump\t// in\n    tag_355:\n        /* \"#utility.yul\":5254:5256   */\n      0x20\n        /* \"#utility.yul\":5249:5252   */\n      dup3\n        /* \"#utility.yul\":5245:5257   */\n      add\n        /* \"#utility.yul\":5238:5257   */\n      swap1\n      pop\n        /* \"#utility.yul\":4897:5263   */\n      swap2\n      swap1\n      pop\n      jump\t// out\n        /* \"#utility.yul\":5269:5635   */\n    tag_357:\n        /* \"#utility.yul\":5411:5414   */\n      0x00\n        /* \"#utility.yul\":5432:5499   */\n      tag_359\n        /* \"#utility.yul\":5496:5498   */\n      0x19\n        /* \"#utility.yul\":5491:5494   */\n      dup4\n        /* \"#utility.yul\":5432:5499   */\n      tag_343\n      jump\t// in\n    tag_359:\n        /* \"#utility.yul\":5425:5499   */\n      swap2\n      pop\n        /* \"#utility.yul\":5508:5601   */\n      tag_360\n        /* \"#utility.yul\":5597:5600   */\n      dup3\n        /* \"#utility.yul\":5508:5601   */\n      tag_361\n      jump\t// in\n    tag_360:\n        /* \"#utility.yul\":5626:5628   */\n      0x20\n        /* \"#utility.yul\":5621:5624   */\n      dup3\n        /* \"#utility.yul\":5617:5629   */\n      add\n        /* \"#utility.yul\":5610:5629   */\n      swap1\n      pop\n        /* \"#utility.yul\":5269:5635   */\n      swap2\n      swap1\n      pop\n      jump\t// out\n        /* \"#utility.yul\":5641:6007   */\n    tag_362:\n        /* \"#utility.yul\":5783:5786   */\n      0x00\n        /* \"#utility.yul\":5804:5871   */\n      tag_364\n        /* \"#utility.yul\":5868:5870   */\n      0x2c\n        /* \"#utility.yul\":5863:5866   */\n      dup4\n        /* \"#utility.yul\":5804:5871   */\n      tag_343\n      jump\t// in\n    tag_364:\n        /* \"#utility.yul\":5797:5871   */\n      swap2\n      pop\n        /* \"#utility.yul\":5880:5973   */\n      tag_365\n        /* \"#utility.yul\":5969:5972   */\n      dup3\n        /* \"#utility.yul\":5880:5973   */\n      tag_366\n      jump\t// in\n    tag_365:\n        /* \"#utility.yul\":5998:6000   */\n      0x40\n        /* \"#utility.yul\":5993:5996   */\n      dup3\n        /* \"#utility.yul\":5989:6001   */\n      add\n        /* \"#utility.yul\":5982:6001   */\n      swap1\n      pop\n        /* \"#utility.yul\":5641:6007   */\n      swap2\n      swap1\n      pop\n      jump\t// out\n        /* \"#utility.yul\":6013:6379   */\n    tag_367:\n        /* \"#utility.yul\":6155:6158   */\n      0x00\n        /* \"#utility.yul\":6176:6243   */\n      tag_369\n        /* \"#utility.yul\":6240:6242   */\n      0x19\n        /* \"#utility.yul\":6235:6238   */\n      dup4\n        /* \"#utility.yul\":6176:6243   */\n      tag_343\n      jump\t// in\n    tag_369:\n        /* \"#utility.yul\":6169:6243   */\n      swap2\n      pop\n        /* \"#utility.yul\":6252:6345   */\n      tag_370\n        /* \"#utility.yul\":6341:6344   */\n      dup3\n        /* \"#utility.yul\":6252:6345   */\n      tag_371\n      jump\t// in\n    tag_370:\n        /* \"#utility.yul\":6370:6372   */\n      0x20\n        /* \"#utility.yul\":6365:6368   */\n      dup3\n        /* \"#utility.yul\":6361:6373   */\n      add\n        /* \"#utility.yul\":6354:6373   */\n      swap1\n      pop\n        /* \"#utility.yul\":6013:6379   */\n      swap2\n      swap1\n      pop\n      jump\t// out\n        /* \"#utility.yul\":6385:6751   */\n    tag_372:\n        /* \"#utility.yul\":6527:6530   */\n      0x00\n        /* \"#utility.yul\":6548:6615   */\n      tag_374\n        /* \"#utility.yul\":6612:6614   */\n      0x1e\n        /* \"#utility.yul\":6607:6610   */\n      dup4\n        /* \"#utility.yul\":6548:6615   */\n      tag_343\n      jump\t// in\n    tag_374:\n        /* \"#utility.yul\":6541:6615   */\n      swap2\n      pop\n        /* \"#utility.yul\":6624:6717   */\n      tag_375\n        /* \"#utility.yul\":6713:6716   */\n      dup3\n        /* \"#utility.yul\":6624:6717   */\n      tag_376\n      jump\t// in\n    tag_375:\n        /* \"#utility.yul\":6742:6744   */\n      0x20\n        /* \"#utility.yul\":6737:6740   */\n      dup3\n        /* \"#utility.yul\":6733:6745   */\n      add\n        /* \"#utility.yul\":6726:6745   */\n      swap1\n      pop\n        /* \"#utility.yul\":6385:6751   */\n      swap2\n      swap1\n      pop\n      jump\t// out\n        /* \"#utility.yul\":6757:7123   */\n    tag_377:\n        /* \"#utility.yul\":6899:6902   */\n      0x00\n        /* \"#utility.yul\":6920:6987   */\n      tag_379\n        /* \"#utility.yul\":6984:6986   */\n      0x2f\n        /* \"#utility.yul\":6979:6982   */\n      dup4\n        /* \"#utility.yul\":6920:6987   */\n      tag_343\n      jump\t// in\n    tag_379:\n        /* \"#utility.yul\":6913:6987   */\n      swap2\n      pop\n        /* \"#utility.yul\":6996:7089   */\n      tag_380\n        /* \"#utility.yul\":7085:7088   */\n      dup3\n        /* \"#utility.yul\":6996:7089   */\n      tag_381\n      jump\t// in\n    tag_380:\n        /* \"#utility.yul\":7114:7116   */\n      0x40\n        /* \"#utility.yul\":7109:7112   */\n      dup3\n        /* \"#utility.yul\":7105:7117   */\n      add\n        /* \"#utility.yul\":7098:7117   */\n      swap1\n      pop\n        /* \"#utility.yul\":6757:7123   */\n      swap2\n      swap1\n      pop\n      jump\t// out\n        /* \"#utility.yul\":7129:7495   */\n    tag_382:\n        /* \"#utility.yul\":7271:7274   */\n      0x00\n        /* \"#utility.yul\":7292:7359   */\n      tag_384\n        /* \"#utility.yul\":7356:7358   */\n      0x1f\n        /* \"#utility.yul\":7351:7354   */\n      dup4\n        /* \"#utility.yul\":7292:7359   */\n      tag_343\n      jump\t// in\n    tag_384:\n        /* \"#utility.yul\":7285:7359   */\n      swap2\n      pop\n        /* \"#utility.yul\":7368:7461   */\n      tag_385\n        /* \"#utility.yul\":7457:7460   */\n      dup3\n        /* \"#utility.yul\":7368:7461   */\n      tag_386\n      jump\t// in\n    tag_385:\n        /* \"#utility.yul\":7486:7488   */\n      0x20\n        /* \"#utility.yul\":7481:7484   */\n      dup3\n        /* \"#utility.yul\":7477:7489   */\n      add\n        /* \"#utility.yul\":7470:7489   */\n      swap1\n      pop\n        /* \"#utility.yul\":7129:7495   */\n      swap2\n      swap1\n      pop\n      jump\t// out\n        /* \"#utility.yul\":7501:7867   */\n    tag_387:\n        /* \"#utility.yul\":7643:7646   */\n      0x00\n        /* \"#utility.yul\":7664:7731   */\n      tag_389\n        /* \"#utility.yul\":7728:7730   */\n      0x1a\n        /* \"#utility.yul\":7723:7726   */\n      dup4\n        /* \"#utility.yul\":7664:7731   */\n      tag_343\n      jump\t// in\n    tag_389:\n        /* \"#utility.yul\":7657:7731   */\n      swap2\n      pop\n        /* \"#utility.yul\":7740:7833   */\n      tag_390\n        /* \"#utility.yul\":7829:7832   */\n      dup3\n        /* \"#utility.yul\":7740:7833   */\n      tag_391\n      jump\t// in\n    tag_390:\n        /* \"#utility.yul\":7858:7860   */\n      0x20\n        /* \"#utility.yul\":7853:7856   */\n      dup3\n        /* \"#utility.yul\":7849:7861   */\n      add\n        /* \"#utility.yul\":7842:7861   */\n      swap1\n      pop\n        /* \"#utility.yul\":7501:7867   */\n      swap2\n      swap1\n      pop\n      jump\t// out\n        /* \"#utility.yul\":7873:7991   */\n    tag_392:\n        /* \"#utility.yul\":7960:7984   */\n      tag_394\n        /* \"#utility.yul\":7978:7983   */\n      dup2\n        /* \"#utility.yul\":7960:7984   */\n      tag_395\n      jump\t// in\n    tag_394:\n        /* \"#utility.yul\":7955:7958   */\n      dup3\n        /* \"#utility.yul\":7948:7985   */\n      mstore\n        /* \"#utility.yul\":7873:7991   */\n      pop\n      pop\n      jump\t// out\n        /* \"#utility.yul\":7997:8219   */\n    tag_58:\n        /* \"#utility.yul\":8090:8094   */\n      0x00\n        /* \"#utility.yul\":8128:8130   */\n      0x20\n        /* \"#utility.yul\":8117:8126   */\n      dup3\n        /* \"#utility.yul\":8113:8131   */\n      add\n        /* \"#utility.yul\":8105:8131   */\n      swap1\n      pop\n        /* \"#utility.yul\":8141:8212   */\n      tag_397\n        /* \"#utility.yul\":8209:8210   */\n      0x00\n        /* \"#utility.yul\":8198:8207   */\n      dup4\n        /* \"#utility.yul\":8194:8211   */\n      add\n        /* \"#utility.yul\":8185:8191   */\n      dup5\n        /* \"#utility.yul\":8141:8212   */\n      tag_330\n      jump\t// in\n    tag_397:\n        /* \"#utility.yul\":7997:8219   */\n      swap3\n      swap2\n      pop\n      pop\n      jump\t// out\n        /* \"#utility.yul\":8225:8557   */\n    tag_227:\n        /* \"#utility.yul\":8346:8350   */\n      0x00\n        /* \"#utility.yul\":8384:8386   */\n      0x40\n        /* \"#utility.yul\":8373:8382   */\n      dup3\n        /* \"#utility.yul\":8369:8387   */\n      add\n        /* \"#utility.yul\":8361:8387   */\n      swap1\n      pop\n        /* \"#utility.yul\":8397:8468   */\n      tag_399\n        /* \"#utility.yul\":8465:8466   */\n      0x00\n        /* \"#utility.yul\":8454:8463   */\n      dup4\n        /* \"#utility.yul\":8450:8467   */\n      add\n        /* \"#utility.yul\":8441:8447   */\n      dup6\n        /* \"#utility.yul\":8397:8468   */\n      tag_330\n      jump\t// in\n    tag_399:\n        /* \"#utility.yul\":8478:8550   */\n      tag_400\n        /* \"#utility.yul\":8546:8548   */\n      0x20\n        /* \"#utility.yul\":8535:8544   */\n      dup4\n        /* \"#utility.yul\":8531:8549   */\n      add\n        /* \"#utility.yul\":8522:8528   */\n      dup5\n        /* \"#utility.yul\":8478:8550   */\n      tag_392\n      jump\t// in\n    tag_400:\n        /* \"#utility.yul\":8225:8557   */\n      swap4\n      swap3\n      pop\n      pop\n      pop\n      jump\t// out\n        /* \"#utility.yul\":8563:8773   */\n    tag_43:\n        /* \"#utility.yul\":8650:8654   */\n      0x00\n        /* \"#utility.yul\":8688:8690   */\n      0x20\n        /* \"#utility.yul\":8677:8686   */\n      dup3\n        /* \"#utility.yul\":8673:8691   */\n      add\n        /* \"#utility.yul\":8665:8691   */\n      swap1\n      pop\n        /* \"#utility.yul\":8701:8766   */\n      tag_402\n        /* \"#utility.yul\":8763:8764   */\n      0x00\n        /* \"#utility.yul\":8752:8761   */\n      dup4\n        /* \"#utility.yul\":8748:8765   */\n      add\n        /* \"#utility.yul\":8739:8745   */\n      dup5\n        /* \"#utility.yul\":8701:8766   */\n      tag_334\n      jump\t// in\n    tag_402:\n        /* \"#utility.yul\":8563:8773   */\n      swap3\n      swap2\n      pop\n      pop\n      jump\t// out\n        /* \"#utility.yul\":8779:9092   */\n    tag_83:\n        /* \"#utility.yul\":8892:8896   */\n      0x00\n        /* \"#utility.yul\":8930:8932   */\n      0x20\n        /* \"#utility.yul\":8919:8928   */\n      dup3\n        /* \"#utility.yul\":8915:8933   */\n      add\n        /* \"#utility.yul\":8907:8933   */\n      swap1\n      pop\n        /* \"#utility.yul\":8979:8988   */\n      dup2\n        /* \"#utility.yul\":8973:8977   */\n      dup2\n        /* \"#utility.yul\":8969:8989   */\n      sub\n        /* \"#utility.yul\":8965:8966   */\n      0x00\n        /* \"#utility.yul\":8954:8963   */\n      dup4\n        /* \"#utility.yul\":8950:8967   */\n      add\n        /* \"#utility.yul\":8943:8990   */\n      mstore\n        /* \"#utility.yul\":9007:9085   */\n      tag_404\n        /* \"#utility.yul\":9080:9084   */\n      dup2\n        /* \"#utility.yul\":9071:9077   */\n      dup5\n        /* \"#utility.yul\":9007:9085   */\n      tag_338\n      jump\t// in\n    tag_404:\n        /* \"#utility.yul\":8999:9085   */\n      swap1\n      pop\n        /* \"#utility.yul\":8779:9092   */\n      swap3\n      swap2\n      pop\n      pop\n      jump\t// out\n        /* \"#utility.yul\":9098:9517   */\n    tag_178:\n        /* \"#utility.yul\":9264:9268   */\n      0x00\n        /* \"#utility.yul\":9302:9304   */\n      0x20\n        /* \"#utility.yul\":9291:9300   */\n      dup3\n        /* \"#utility.yul\":9287:9305   */\n      add\n        /* \"#utility.yul\":9279:9305   */\n      swap1\n      pop\n        /* \"#utility.yul\":9351:9360   */\n      dup2\n        /* \"#utility.yul\":9345:9349   */\n      dup2\n        /* \"#utility.yul\":9341:9361   */\n      sub\n        /* \"#utility.yul\":9337:9338   */\n      0x00\n        /* \"#utility.yul\":9326:9335   */\n      dup4\n        /* \"#utility.yul\":9322:9339   */\n      add\n        /* \"#utility.yul\":9315:9362   */\n      mstore\n        /* \"#utility.yul\":9379:9510   */\n      tag_406\n        /* \"#utility.yul\":9505:9509   */\n      dup2\n        /* \"#utility.yul\":9379:9510   */\n      tag_347\n      jump\t// in\n    tag_406:\n        /* \"#utility.yul\":9371:9510   */\n      swap1\n      pop\n        /* \"#utility.yul\":9098:9517   */\n      swap2\n      swap1\n      pop\n      jump\t// out\n        /* \"#utility.yul\":9523:9942   */\n    tag_215:\n        /* \"#utility.yul\":9689:9693   */\n      0x00\n        /* \"#utility.yul\":9727:9729   */\n      0x20\n        /* \"#utility.yul\":9716:9725   */\n      dup3\n        /* \"#utility.yul\":9712:9730   */\n      add\n        /* \"#utility.yul\":9704:9730   */\n      swap1\n      pop\n        /* \"#utility.yul\":9776:9785   */\n      dup2\n        /* \"#utility.yul\":9770:9774   */\n      dup2\n        /* \"#utility.yul\":9766:9786   */\n      sub\n        /* \"#utility.yul\":9762:9763   */\n      0x00\n        /* \"#utility.yul\":9751:9760   */\n      dup4\n        /* \"#utility.yul\":9747:9764   */\n      add\n        /* \"#utility.yul\":9740:9787   */\n      mstore\n        /* \"#utility.yul\":9804:9935   */\n      tag_408\n        /* \"#utility.yul\":9930:9934   */\n      dup2\n        /* \"#utility.yul\":9804:9935   */\n      tag_352\n      jump\t// in\n    tag_408:\n        /* \"#utility.yul\":9796:9935   */\n      swap1\n      pop\n        /* \"#utility.yul\":9523:9942   */\n      swap2\n      swap1\n      pop\n      jump\t// out\n        /* \"#utility.yul\":9948:10367   */\n    tag_259:\n        /* \"#utility.yul\":10114:10118   */\n      0x00\n        /* \"#utility.yul\":10152:10154   */\n      0x20\n        /* \"#utility.yul\":10141:10150   */\n      dup3\n        /* \"#utility.yul\":10137:10155   */\n      add\n        /* \"#utility.yul\":10129:10155   */\n      swap1\n      pop\n        /* \"#utility.yul\":10201:10210   */\n      dup2\n        /* \"#utility.yul\":10195:10199   */\n      dup2\n        /* \"#utility.yul\":10191:10211   */\n      sub\n        /* \"#utility.yul\":10187:10188   */\n      0x00\n        /* \"#utility.yul\":10176:10185   */\n      dup4\n        /* \"#utility.yul\":10172:10189   */\n      add\n        /* \"#utility.yul\":10165:10212   */\n      mstore\n        /* \"#utility.yul\":10229:10360   */\n      tag_410\n        /* \"#utility.yul\":10355:10359   */\n      dup2\n        /* \"#utility.yul\":10229:10360   */\n      tag_357\n      jump\t// in\n    tag_410:\n        /* \"#utility.yul\":10221:10360   */\n      swap1\n      pop\n        /* \"#utility.yul\":9948:10367   */\n      swap2\n      swap1\n      pop\n      jump\t// out\n        /* \"#utility.yul\":10373:10792   */\n    tag_221:\n        /* \"#utility.yul\":10539:10543   */\n      0x00\n        /* \"#utility.yul\":10577:10579   */\n      0x20\n        /* \"#utility.yul\":10566:10575   */\n      dup3\n        /* \"#utility.yul\":10562:10580   */\n      add\n        /* \"#utility.yul\":10554:10580   */\n      swap1\n      pop\n        /* \"#utility.yul\":10626:10635   */\n      dup2\n        /* \"#utility.yul\":10620:10624   */\n      dup2\n        /* \"#utility.yul\":10616:10636   */\n      sub\n        /* \"#utility.yul\":10612:10613   */\n      0x00\n        /* \"#utility.yul\":10601:10610   */\n      dup4\n        /* \"#utility.yul\":10597:10614   */\n      add\n        /* \"#utility.yul\":10590:10637   */\n      mstore\n        /* \"#utility.yul\":10654:10785   */\n      tag_412\n        /* \"#utility.yul\":10780:10784   */\n      dup2\n        /* \"#utility.yul\":10654:10785   */\n      tag_362\n      jump\t// in\n    tag_412:\n        /* \"#utility.yul\":10646:10785   */\n      swap1\n      pop\n        /* \"#utility.yul\":10373:10792   */\n      swap2\n      swap1\n      pop\n      jump\t// out\n        /* \"#utility.yul\":10798:11217   */\n    tag_218:\n        /* \"#utility.yul\":10964:10968   */\n      0x00\n        /* \"#utility.yul\":11002:11004   */\n      0x20\n        /* \"#utility.yul\":10991:11000   */\n      dup3\n        /* \"#utility.yul\":10987:11005   */\n      add\n        /* \"#utility.yul\":10979:11005   */\n      swap1\n      pop\n        /* \"#utility.yul\":11051:11060   */\n      dup2\n        /* \"#utility.yul\":11045:11049   */\n      dup2\n        /* \"#utility.yul\":11041:11061   */\n      sub\n        /* \"#utility.yul\":11037:11038   */\n      0x00\n        /* \"#utility.yul\":11026:11035   */\n      dup4\n        /* \"#utility.yul\":11022:11039   */\n      add\n        /* \"#utility.yul\":11015:11062   */\n      mstore\n        /* \"#utility.yul\":11079:11210   */\n      tag_414\n        /* \"#utility.yul\":11205:11209   */\n      dup2\n        /* \"#utility.yul\":11079:11210   */\n      tag_367\n      jump\t// in\n    tag_414:\n        /* \"#utility.yul\":11071:11210   */\n      swap1\n      pop\n        /* \"#utility.yul\":10798:11217   */\n      swap2\n      swap1\n      pop\n      jump\t// out\n        /* \"#utility.yul\":11223:11642   */\n    tag_256:\n        /* \"#utility.yul\":11389:11393   */\n      0x00\n        /* \"#utility.yul\":11427:11429   */\n      0x20\n        /* \"#utility.yul\":11416:11425   */\n      dup3\n        /* \"#utility.yul\":11412:11430   */\n      add\n        /* \"#utility.yul\":11404:11430   */\n      swap1\n      pop\n        /* \"#utility.yul\":11476:11485   */\n      dup2\n        /* \"#utility.yul\":11470:11474   */\n      dup2\n        /* \"#utility.yul\":11466:11486   */\n      sub\n        /* \"#utility.yul\":11462:11463   */\n      0x00\n        /* \"#utility.yul\":11451:11460   */\n      dup4\n        /* \"#utility.yul\":11447:11464   */\n      add\n        /* \"#utility.yul\":11440:11487   */\n      mstore\n        /* \"#utility.yul\":11504:11635   */\n      tag_416\n        /* \"#utility.yul\":11630:11634   */\n      dup2\n        /* \"#utility.yul\":11504:11635   */\n      tag_372\n      jump\t// in\n    tag_416:\n        /* \"#utility.yul\":11496:11635   */\n      swap1\n      pop\n        /* \"#utility.yul\":11223:11642   */\n      swap2\n      swap1\n      pop\n      jump\t// out\n        /* \"#utility.yul\":11648:12067   */\n    tag_211:\n        /* \"#utility.yul\":11814:11818   */\n      0x00\n        /* \"#utility.yul\":11852:11854   */\n      0x20\n        /* \"#utility.yul\":11841:11850   */\n      dup3\n        /* \"#utility.yul\":11837:11855   */\n      add\n        /* \"#utility.yul\":11829:11855   */\n      swap1\n      pop\n        /* \"#utility.yul\":11901:11910   */\n      dup2\n        /* \"#utility.yul\":11895:11899   */\n      dup2\n        /* \"#utility.yul\":11891:11911   */\n      sub\n        /* \"#utility.yul\":11887:11888   */\n      0x00\n        /* \"#utility.yul\":11876:11885   */\n      dup4\n        /* \"#utility.yul\":11872:11889   */\n      add\n        /* \"#utility.yul\":11865:11912   */\n      mstore\n        /* \"#utility.yul\":11929:12060   */\n      tag_418\n        /* \"#utility.yul\":12055:12059   */\n      dup2\n        /* \"#utility.yul\":11929:12060   */\n      tag_377\n      jump\t// in\n    tag_418:\n        /* \"#utility.yul\":11921:12060   */\n      swap1\n      pop\n        /* \"#utility.yul\":11648:12067   */\n      swap2\n      swap1\n      pop\n      jump\t// out\n        /* \"#utility.yul\":12073:12492   */\n    tag_243:\n        /* \"#utility.yul\":12239:12243   */\n      0x00\n        /* \"#utility.yul\":12277:12279   */\n      0x20\n        /* \"#utility.yul\":12266:12275   */\n      dup3\n        /* \"#utility.yul\":12262:12280   */\n      add\n        /* \"#utility.yul\":12254:12280   */\n      swap1\n      pop\n        /* \"#utility.yul\":12326:12335   */\n      dup2\n        /* \"#utility.yul\":12320:12324   */\n      dup2\n        /* \"#utility.yul\":12316:12336   */\n      sub\n        /* \"#utility.yul\":12312:12313   */\n      0x00\n        /* \"#utility.yul\":12301:12310   */\n      dup4\n        /* \"#utility.yul\":12297:12314   */\n      add\n        /* \"#utility.yul\":12290:12337   */\n      mstore\n        /* \"#utility.yul\":12354:12485   */\n      tag_420\n        /* \"#utility.yul\":12480:12484   */\n      dup2\n        /* \"#utility.yul\":12354:12485   */\n      tag_382\n      jump\t// in\n    tag_420:\n        /* \"#utility.yul\":12346:12485   */\n      swap1\n      pop\n        /* \"#utility.yul\":12073:12492   */\n      swap2\n      swap1\n      pop\n      jump\t// out\n        /* \"#utility.yul\":12498:12917   */\n    tag_182:\n        /* \"#utility.yul\":12664:12668   */\n      0x00\n        /* \"#utility.yul\":12702:12704   */\n      0x20\n        /* \"#utility.yul\":12691:12700   */\n      dup3\n        /* \"#utility.yul\":12687:12705   */\n      add\n        /* \"#utility.yul\":12679:12705   */\n      swap1\n      pop\n        /* \"#utility.yul\":12751:12760   */\n      dup2\n        /* \"#utility.yul\":12745:12749   */\n      dup2\n        /* \"#utility.yul\":12741:12761   */\n      sub\n        /* \"#utility.yul\":12737:12738   */\n      0x00\n        /* \"#utility.yul\":12726:12735   */\n      dup4\n        /* \"#utility.yul\":12722:12739   */\n      add\n        /* \"#utility.yul\":12715:12762   */\n      mstore\n        /* \"#utility.yul\":12779:12910   */\n      tag_422\n        /* \"#utility.yul\":12905:12909   */\n      dup2\n        /* \"#utility.yul\":12779:12910   */\n      tag_387\n      jump\t// in\n    tag_422:\n        /* \"#utility.yul\":12771:12910   */\n      swap1\n      pop\n        /* \"#utility.yul\":12498:12917   */\n      swap2\n      swap1\n      pop\n      jump\t// out\n        /* \"#utility.yul\":12923:13145   */\n    tag_48:\n        /* \"#utility.yul\":13016:13020   */\n      0x00\n        /* \"#utility.yul\":13054:13056   */\n      0x20\n        /* \"#utility.yul\":13043:13052   */\n      dup3\n        /* \"#utility.yul\":13039:13057   */\n      add\n        /* \"#utility.yul\":13031:13057   */\n      swap1\n      pop\n        /* \"#utility.yul\":13067:13138   */\n      tag_424\n        /* \"#utility.yul\":13135:13136   */\n      0x00\n        /* \"#utility.yul\":13124:13133   */\n      dup4\n        /* \"#utility.yul\":13120:13137   */\n      add\n        /* \"#utility.yul\":13111:13117   */\n      dup5\n        /* \"#utility.yul\":13067:13138   */\n      tag_392\n      jump\t// in\n    tag_424:\n        /* \"#utility.yul\":12923:13145   */\n      swap3\n      swap2\n      pop\n      pop\n      jump\t// out\n        /* \"#utility.yul\":13151:13280   */\n    tag_270:\n        /* \"#utility.yul\":13185:13191   */\n      0x00\n        /* \"#utility.yul\":13212:13232   */\n      tag_426\n      tag_427\n      jump\t// in\n    tag_426:\n        /* \"#utility.yul\":13202:13232   */\n      swap1\n      pop\n        /* \"#utility.yul\":13241:13274   */\n      tag_428\n        /* \"#utility.yul\":13269:13273   */\n      dup3\n        /* \"#utility.yul\":13261:13267   */\n      dup3\n        /* \"#utility.yul\":13241:13274   */\n      tag_429\n      jump\t// in\n    tag_428:\n        /* \"#utility.yul\":13151:13280   */\n      swap2\n      swap1\n      pop\n      jump\t// out\n        /* \"#utility.yul\":13286:13361   */\n    tag_427:\n        /* \"#utility.yul\":13319:13325   */\n      0x00\n        /* \"#utility.yul\":13352:13354   */\n      0x40\n        /* \"#utility.yul\":13346:13355   */\n      mload\n        /* \"#utility.yul\":13336:13355   */\n      swap1\n      pop\n        /* \"#utility.yul\":13286:13361   */\n      swap1\n      jump\t// out\n        /* \"#utility.yul\":13367:13675   */\n    tag_269:\n        /* \"#utility.yul\":13429:13433   */\n      0x00\n        /* \"#utility.yul\":13519:13537   */\n      0xffffffffffffffff\n        /* \"#utility.yul\":13511:13517   */\n      dup3\n        /* \"#utility.yul\":13508:13538   */\n      gt\n        /* \"#utility.yul\":13505:13561   */\n      iszero\n      tag_432\n      jumpi\n        /* \"#utility.yul\":13541:13559   */\n      tag_433\n      tag_434\n      jump\t// in\n    tag_433:\n        /* \"#utility.yul\":13505:13561   */\n    tag_432:\n        /* \"#utility.yul\":13579:13608   */\n      tag_435\n        /* \"#utility.yul\":13601:13607   */\n      dup3\n        /* \"#utility.yul\":13579:13608   */\n      tag_346\n      jump\t// in\n    tag_435:\n        /* \"#utility.yul\":13571:13608   */\n      swap1\n      pop\n        /* \"#utility.yul\":13663:13667   */\n      0x20\n        /* \"#utility.yul\":13657:13661   */\n      dup2\n        /* \"#utility.yul\":13653:13668   */\n      add\n        /* \"#utility.yul\":13645:13668   */\n      swap1\n      pop\n        /* \"#utility.yul\":13367:13675   */\n      swap2\n      swap1\n      pop\n      jump\t// out\n        /* \"#utility.yul\":13681:13780   */\n    tag_341:\n        /* \"#utility.yul\":13733:13739   */\n      0x00\n        /* \"#utility.yul\":13767:13772   */\n      dup2\n        /* \"#utility.yul\":13761:13773   */\n      mload\n        /* \"#utility.yul\":13751:13773   */\n      swap1\n      pop\n        /* \"#utility.yul\":13681:13780   */\n      swap2\n      swap1\n      pop\n      jump\t// out\n        /* \"#utility.yul\":13786:13955   */\n    tag_343:\n        /* \"#utility.yul\":13870:13881   */\n      0x00\n        /* \"#utility.yul\":13904:13910   */\n      dup3\n        /* \"#utility.yul\":13899:13902   */\n      dup3\n        /* \"#utility.yul\":13892:13911   */\n      mstore\n        /* \"#utility.yul\":13944:13948   */\n      0x20\n        /* \"#utility.yul\":13939:13942   */\n      dup3\n        /* \"#utility.yul\":13935:13949   */\n      add\n        /* \"#utility.yul\":13920:13949   */\n      swap1\n      pop\n        /* \"#utility.yul\":13786:13955   */\n      swap3\n      swap2\n      pop\n      pop\n      jump\t// out\n        /* \"#utility.yul\":13961:14266   */\n    tag_232:\n        /* \"#utility.yul\":14001:14004   */\n      0x00\n        /* \"#utility.yul\":14020:14040   */\n      tag_439\n        /* \"#utility.yul\":14038:14039   */\n      dup3\n        /* \"#utility.yul\":14020:14040   */\n      tag_395\n      jump\t// in\n    tag_439:\n        /* \"#utility.yul\":14015:14040   */\n      swap2\n      pop\n        /* \"#utility.yul\":14054:14074   */\n      tag_440\n        /* \"#utility.yul\":14072:14073   */\n      dup4\n        /* \"#utility.yul\":14054:14074   */\n      tag_395\n      jump\t// in\n    tag_440:\n        /* \"#utility.yul\":14049:14074   */\n      swap3\n      pop\n        /* \"#utility.yul\":14208:14209   */\n      dup3\n        /* \"#utility.yul\":14140:14206   */\n      0xffffffffffffffffffffffffffffffffffffffffffffffffffffffffffffffff\n        /* \"#utility.yul\":14136:14210   */\n      sub\n        /* \"#utility.yul\":14133:14134   */\n      dup3\n        /* \"#utility.yul\":14130:14211   */\n      gt\n        /* \"#utility.yul\":14127:14234   */\n      iszero\n      tag_441\n      jumpi\n        /* \"#utility.yul\":14214:14232   */\n      tag_442\n      tag_443\n      jump\t// in\n    tag_442:\n        /* \"#utility.yul\":14127:14234   */\n    tag_441:\n        /* \"#utility.yul\":14258:14259   */\n      dup3\n        /* \"#utility.yul\":14255:14256   */\n      dup3\n        /* \"#utility.yul\":14251:14260   */\n      add\n        /* \"#utility.yul\":14244:14260   */\n      swap1\n      pop\n        /* \"#utility.yul\":13961:14266   */\n      swap3\n      swap2\n      pop\n      pop\n      jump\t// out\n        /* \"#utility.yul\":14272:14620   */\n    tag_223:\n        /* \"#utility.yul\":14312:14319   */\n      0x00\n        /* \"#utility.yul\":14335:14355   */\n      tag_445\n        /* \"#utility.yul\":14353:14354   */\n      dup3\n        /* \"#utility.yul\":14335:14355   */\n      tag_395\n      jump\t// in\n    tag_445:\n        /* \"#utility.yul\":14330:14355   */\n      swap2\n      pop\n        /* \"#utility.yul\":14369:14389   */\n      tag_446\n        /* \"#utility.yul\":14387:14388   */\n      dup4\n        /* \"#utility.yul\":14369:14389   */\n      tag_395\n      jump\t// in\n    tag_446:\n        /* \"#utility.yul\":14364:14389   */\n      swap3\n      pop\n        /* \"#utility.yul\":14557:14558   */\n      dup2\n        /* \"#utility.yul\":14489:14555   */\n      0xffffffffffffffffffffffffffffffffffffffffffffffffffffffffffffffff\n        /* \"#utility.yul\":14485:14559   */\n      div\n        /* \"#utility.yul\":14482:14483   */\n      dup4\n        /* \"#utility.yul\":14479:14560   */\n      gt\n        /* \"#utility.yul\":14474:14475   */\n      dup3\n        /* \"#utility.yul\":14467:14476   */\n      iszero\n        /* \"#utility.yul\":14460:14477   */\n      iszero\n        /* \"#utility.yul\":14456:14561   */\n      and\n        /* \"#utility.yul\":14453:14584   */\n      iszero\n      tag_447\n      jumpi\n        /* \"#utility.yul\":14564:14582   */\n      tag_448\n      tag_443\n      jump\t// in\n    tag_448:\n        /* \"#utility.yul\":14453:14584   */\n    tag_447:\n        /* \"#utility.yul\":14612:14613   */\n      dup3\n        /* \"#utility.yul\":14609:14610   */\n      dup3\n        /* \"#utility.yul\":14605:14614   */\n      mul\n        /* \"#utility.yul\":14594:14614   */\n      swap1\n      pop\n        /* \"#utility.yul\":14272:14620   */\n      swap3\n      swap2\n      pop\n      pop\n      jump\t// out\n        /* \"#utility.yul\":14626:14817   */\n    tag_234:\n        /* \"#utility.yul\":14666:14670   */\n      0x00\n        /* \"#utility.yul\":14686:14706   */\n      tag_450\n        /* \"#utility.yul\":14704:14705   */\n      dup3\n        /* \"#utility.yul\":14686:14706   */\n      tag_395\n      jump\t// in\n    tag_450:\n        /* \"#utility.yul\":14681:14706   */\n      swap2\n      pop\n        /* \"#utility.yul\":14720:14740   */\n      tag_451\n        /* \"#utility.yul\":14738:14739   */\n      dup4\n        /* \"#utility.yul\":14720:14740   */\n      tag_395\n      jump\t// in\n    tag_451:\n        /* \"#utility.yul\":14715:14740   */\n      swap3\n      pop\n        /* \"#utility.yul\":14759:14760   */\n      dup3\n        /* \"#utility.yul\":14756:14757   */\n      dup3\n        /* \"#utility.yul\":14753:14761   */\n      lt\n        /* \"#utility.yul\":14750:14784   */\n      iszero\n      tag_452\n      jumpi\n        /* \"#utility.yul\":14764:14782   */\n      tag_453\n      tag_443\n      jump\t// in\n    tag_453:\n        /* \"#utility.yul\":14750:14784   */\n    tag_452:\n        /* \"#utility.yul\":14809:14810   */\n      dup3\n        /* \"#utility.yul\":14806:14807   */\n      dup3\n        /* \"#utility.yul\":14802:14811   */\n      sub\n        /* \"#utility.yul\":14794:14811   */\n      swap1\n      pop\n        /* \"#utility.yul\":14626:14817   */\n      swap3\n      swap2\n      pop\n      pop\n      jump\t// out\n        /* \"#utility.yul\":14823:14919   */\n    tag_333:\n        /* \"#utility.yul\":14860:14867   */\n      0x00\n        /* \"#utility.yul\":14889:14913   */\n      tag_455\n        /* \"#utility.yul\":14907:14912   */\n      dup3\n        /* \"#utility.yul\":14889:14913   */\n      tag_456\n      jump\t// in\n    tag_455:\n        /* \"#utility.yul\":14878:14913   */\n      swap1\n      pop\n        /* \"#utility.yul\":14823:14919   */\n      swap2\n      swap1\n      pop\n      jump\t// out\n        /* \"#utility.yul\":14925:15015   */\n    tag_337:\n        /* \"#utility.yul\":14959:14966   */\n      0x00\n        /* \"#utility.yul\":15002:15007   */\n      dup2\n        /* \"#utility.yul\":14995:15008   */\n      iszero\n        /* \"#utility.yul\":14988:15009   */\n      iszero\n        /* \"#utility.yul\":14977:15009   */\n      swap1\n      pop\n        /* \"#utility.yul\":14925:15015   */\n      swap2\n      swap1\n      pop\n      jump\t// out\n        /* \"#utility.yul\":15021:15147   */\n    tag_456:\n        /* \"#utility.yul\":15058:15065   */\n      0x00\n        /* \"#utility.yul\":15098:15140   */\n      0xffffffffffffffffffffffffffffffffffffffff\n        /* \"#utility.yul\":15091:15096   */\n      dup3\n        /* \"#utility.yul\":15087:15141   */\n      and\n        /* \"#utility.yul\":15076:15141   */\n      swap1\n      pop\n        /* \"#utility.yul\":15021:15147   */\n      swap2\n      swap1\n      pop\n      jump\t// out\n        /* \"#utility.yul\":15153:15230   */\n    tag_395:\n        /* \"#utility.yul\":15190:15197   */\n      0x00\n        /* \"#utility.yul\":15219:15224   */\n      dup2\n        /* \"#utility.yul\":15208:15224   */\n      swap1\n      pop\n        /* \"#utility.yul\":15153:15230   */\n      swap2\n      swap1\n      pop\n      jump\t// out\n        /* \"#utility.yul\":15236:15322   */\n    tag_460:\n        /* \"#utility.yul\":15271:15278   */\n      0x00\n        /* \"#utility.yul\":15311:15315   */\n      0xff\n        /* \"#utility.yul\":15304:15309   */\n      dup3\n        /* \"#utility.yul\":15300:15316   */\n      and\n        /* \"#utility.yul\":15289:15316   */\n      swap1\n      pop\n        /* \"#utility.yul\":15236:15322   */\n      swap2\n      swap1\n      pop\n      jump\t// out\n        /* \"#utility.yul\":15328:15635   */\n    tag_275:\n        /* \"#utility.yul\":15396:15397   */\n      0x00\n        /* \"#utility.yul\":15406:15519   */\n    tag_463:\n        /* \"#utility.yul\":15420:15426   */\n      dup4\n        /* \"#utility.yul\":15417:15418   */\n      dup2\n        /* \"#utility.yul\":15414:15427   */\n      lt\n        /* \"#utility.yul\":15406:15519   */\n      iszero\n      tag_465\n      jumpi\n        /* \"#utility.yul\":15505:15506   */\n      dup1\n        /* \"#utility.yul\":15500:15503   */\n      dup3\n        /* \"#utility.yul\":15496:15507   */\n      add\n        /* \"#utility.yul\":15490:15508   */\n      mload\n        /* \"#utility.yul\":15486:15487   */\n      dup2\n        /* \"#utility.yul\":15481:15484   */\n      dup5\n        /* \"#utility.yul\":15477:15488   */\n      add\n        /* \"#utility.yul\":15470:15509   */\n      mstore\n        /* \"#utility.yul\":15442:15444   */\n      0x20\n        /* \"#utility.yul\":15439:15440   */\n      dup2\n        /* \"#utility.yul\":15435:15445   */\n      add\n        /* \"#utility.yul\":15430:15445   */\n      swap1\n      pop\n        /* \"#utility.yul\":15406:15519   */\n      jump(tag_463)\n    tag_465:\n        /* \"#utility.yul\":15537:15543   */\n      dup4\n        /* \"#utility.yul\":15534:15535   */\n      dup2\n        /* \"#utility.yul\":15531:15544   */\n      gt\n        /* \"#utility.yul\":15528:15629   */\n      iszero\n      tag_466\n      jumpi\n        /* \"#utility.yul\":15617:15618   */\n      0x00\n        /* \"#utility.yul\":15608:15614   */\n      dup5\n        /* \"#utility.yul\":15603:15606   */\n      dup5\n        /* \"#utility.yul\":15599:15615   */\n      add\n        /* \"#utility.yul\":15592:15619   */\n      mstore\n        /* \"#utility.yul\":15528:15629   */\n    tag_466:\n        /* \"#utility.yul\":15377:15635   */\n      pop\n        /* \"#utility.yul\":15328:15635   */\n      pop\n      pop\n      pop\n      jump\t// out\n        /* \"#utility.yul\":15641:15922   */\n    tag_429:\n        /* \"#utility.yul\":15724:15751   */\n      tag_468\n        /* \"#utility.yul\":15746:15750   */\n      dup3\n        /* \"#utility.yul\":15724:15751   */\n      tag_346\n      jump\t// in\n    tag_468:\n        /* \"#utility.yul\":15716:15722   */\n      dup2\n        /* \"#utility.yul\":15712:15752   */\n      add\n        /* \"#utility.yul\":15854:15860   */\n      dup2\n        /* \"#utility.yul\":15842:15852   */\n      dup2\n        /* \"#utility.yul\":15839:15861   */\n      lt\n        /* \"#utility.yul\":15818:15836   */\n      0xffffffffffffffff\n        /* \"#utility.yul\":15806:15816   */\n      dup3\n        /* \"#utility.yul\":15803:15837   */\n      gt\n        /* \"#utility.yul\":15800:15862   */\n      or\n        /* \"#utility.yul\":15797:15885   */\n      iszero\n      tag_469\n      jumpi\n        /* \"#utility.yul\":15865:15883   */\n      tag_470\n      tag_434\n      jump\t// in\n    tag_470:\n        /* \"#utility.yul\":15797:15885   */\n    tag_469:\n        /* \"#utility.yul\":15905:15915   */\n      dup1\n        /* \"#utility.yul\":15901:15903   */\n      0x40\n        /* \"#utility.yul\":15894:15916   */\n      mstore\n        /* \"#utility.yul\":15684:15922   */\n      pop\n        /* \"#utility.yul\":15641:15922   */\n      pop\n      pop\n      jump\t// out\n        /* \"#utility.yul\":15928:16108   */\n    tag_443:\n        /* \"#utility.yul\":15976:16053   */\n      0x4e487b7100000000000000000000000000000000000000000000000000000000\n        /* \"#utility.yul\":15973:15974   */\n      0x00\n        /* \"#utility.yul\":15966:16054   */\n      mstore\n        /* \"#utility.yul\":16073:16077   */\n      0x11\n        /* \"#utility.yul\":16070:16071   */\n      0x04\n        /* \"#utility.yul\":16063:16078   */\n      mstore\n        /* \"#utility.yul\":16097:16101   */\n      0x24\n        /* \"#utility.yul\":16094:16095   */\n      0x00\n        /* \"#utility.yul\":16087:16102   */\n      revert\n        /* \"#utility.yul\":16114:16294   */\n    tag_434:\n        /* \"#utility.yul\":16162:16239   */\n      0x4e487b7100000000000000000000000000000000000000000000000000000000\n        /* \"#utility.yul\":16159:16160   */\n      0x00\n        /* \"#utility.yul\":16152:16240   */\n      mstore\n        /* \"#utility.yul\":16259:16263   */\n      0x41\n        /* \"#utility.yul\":16256:16257   */\n      0x04\n        /* \"#utility.yul\":16249:16264   */\n      mstore\n        /* \"#utility.yul\":16283:16287   */\n      0x24\n        /* \"#utility.yul\":16280:16281   */\n      0x00\n        /* \"#utility.yul\":16273:16288   */\n      revert\n        /* \"#utility.yul\":16300:16417   */\n    tag_288:\n        /* \"#utility.yul\":16409:16410   */\n      0x00\n        /* \"#utility.yul\":16406:16407   */\n      dup1\n        /* \"#utility.yul\":16399:16411   */\n      revert\n        /* \"#utility.yul\":16423:16540   */\n    tag_273:\n        /* \"#utility.yul\":16532:16533   */\n      0x00\n        /* \"#utility.yul\":16529:16530   */\n      dup1\n        /* \"#utility.yul\":16522:16534   */\n      revert\n        /* \"#utility.yul\":16546:16663   */\n    tag_316:\n        /* \"#utility.yul\":16655:16656   */\n      0x00\n        /* \"#utility.yul\":16652:16653   */\n      dup1\n        /* \"#utility.yul\":16645:16657   */\n      revert\n        /* \"#utility.yul\":16669:16786   */\n    tag_304:\n        /* \"#utility.yul\":16778:16779   */\n      0x00\n        /* \"#utility.yul\":16775:16776   */\n      dup1\n        /* \"#utility.yul\":16768:16780   */\n      revert\n        /* \"#utility.yul\":16792:16894   */\n    tag_346:\n        /* \"#utility.yul\":16833:16839   */\n      0x00\n        /* \"#utility.yul\":16884:16886   */\n      0x1f\n        /* \"#utility.yul\":16880:16887   */\n      not\n        /* \"#utility.yul\":16875:16877   */\n      0x1f\n        /* \"#utility.yul\":16868:16873   */\n      dup4\n        /* \"#utility.yul\":16864:16878   */\n      add\n        /* \"#utility.yul\":16860:16888   */\n      and\n        /* \"#utility.yul\":16850:16888   */\n      swap1\n      pop\n        /* \"#utility.yul\":16792:16894   */\n      swap2\n      swap1\n      pop\n      jump\t// out\n        /* \"#utility.yul\":16900:17071   */\n    tag_351:\n        /* \"#utility.yul\":17040:17063   */\n      0x6f6e6c79206f6e7765722063616e207573652069740000000000000000000000\n        /* \"#utility.yul\":17036:17037   */\n      0x00\n        /* \"#utility.yul\":17028:17034   */\n      dup3\n        /* \"#utility.yul\":17024:17038   */\n      add\n        /* \"#utility.yul\":17017:17064   */\n      mstore\n        /* \"#utility.yul\":16900:17071   */\n      pop\n      jump\t// out\n        /* \"#utility.yul\":17077:17250   */\n    tag_356:\n        /* \"#utility.yul\":17217:17242   */\n      0x73616c65206973206e6f74207374617274656420796574000000000000000000\n        /* \"#utility.yul\":17213:17214   */\n      0x00\n        /* \"#utility.yul\":17205:17211   */\n      dup3\n        /* \"#utility.yul\":17201:17215   */\n      add\n        /* \"#utility.yul\":17194:17243   */\n      mstore\n        /* \"#utility.yul\":17077:17250   */\n      pop\n      jump\t// out\n        /* \"#utility.yul\":17256:17431   */\n    tag_361:\n        /* \"#utility.yul\":17396:17423   */\n      0x6974206973206120626c61636b6c697374206164647265737300000000000000\n        /* \"#utility.yul\":17392:17393   */\n      0x00\n        /* \"#utility.yul\":17384:17390   */\n      dup3\n        /* \"#utility.yul\":17380:17394   */\n      add\n        /* \"#utility.yul\":17373:17424   */\n      mstore\n        /* \"#utility.yul\":17256:17431   */\n      pop\n      jump\t// out\n        /* \"#utility.yul\":17437:17668   */\n    tag_366:\n        /* \"#utility.yul\":17577:17611   */\n      0x7765206f66666572206c696d6974656420616d6f756e74206f6620746f6b656e\n        /* \"#utility.yul\":17573:17574   */\n      0x00\n        /* \"#utility.yul\":17565:17571   */\n      dup3\n        /* \"#utility.yul\":17561:17575   */\n      add\n        /* \"#utility.yul\":17554:17612   */\n      mstore\n        /* \"#utility.yul\":17646:17660   */\n      0x7320696e2070726573616c650000000000000000000000000000000000000000\n        /* \"#utility.yul\":17641:17643   */\n      0x20\n        /* \"#utility.yul\":17633:17639   */\n      dup3\n        /* \"#utility.yul\":17629:17644   */\n      add\n        /* \"#utility.yul\":17622:17661   */\n      mstore\n        /* \"#utility.yul\":17437:17668   */\n      pop\n      jump\t// out\n        /* \"#utility.yul\":17674:17849   */\n    tag_371:\n        /* \"#utility.yul\":17814:17841   */\n      0x6d696e696d756d20707269636520697320317920657468657200000000000000\n        /* \"#utility.yul\":17810:17811   */\n      0x00\n        /* \"#utility.yul\":17802:17808   */\n      dup3\n        /* \"#utility.yul\":17798:17812   */\n      add\n        /* \"#utility.yul\":17791:17842   */\n      mstore\n        /* \"#utility.yul\":17674:17849   */\n      pop\n      jump\t// out\n        /* \"#utility.yul\":17855:18035   */\n    tag_376:\n        /* \"#utility.yul\":17995:18027   */\n      0x7a65726f20616464726573732063616e6e6f74206220616e206f776e65720000\n        /* \"#utility.yul\":17991:17992   */\n      0x00\n        /* \"#utility.yul\":17983:17989   */\n      dup3\n        /* \"#utility.yul\":17979:17993   */\n      add\n        /* \"#utility.yul\":17972:18028   */\n      mstore\n        /* \"#utility.yul\":17855:18035   */\n      pop\n      jump\t// out\n        /* \"#utility.yul\":18041:18275   */\n    tag_381:\n        /* \"#utility.yul\":18181:18215   */\n      0x626c636b6c697374206164647265737365732063616e6f6e6f742074616b6520\n        /* \"#utility.yul\":18177:18178   */\n      0x00\n        /* \"#utility.yul\":18169:18175   */\n      dup3\n        /* \"#utility.yul\":18165:18179   */\n      add\n        /* \"#utility.yul\":18158:18216   */\n      mstore\n        /* \"#utility.yul\":18250:18267   */\n      0x7061727420696e2070726573616c650000000000000000000000000000000000\n        /* \"#utility.yul\":18245:18247   */\n      0x20\n        /* \"#utility.yul\":18237:18243   */\n      dup3\n        /* \"#utility.yul\":18233:18248   */\n      add\n        /* \"#utility.yul\":18226:18268   */\n      mstore\n        /* \"#utility.yul\":18041:18275   */\n      pop\n      jump\t// out\n        /* \"#utility.yul\":18281:18462   */\n    tag_386:\n        /* \"#utility.yul\":18421:18454   */\n      0x73616c6520697320616c7265616479206e6f7420737461727465642079657400\n        /* \"#utility.yul\":18417:18418   */\n      0x00\n        /* \"#utility.yul\":18409:18415   */\n      dup3\n        /* \"#utility.yul\":18405:18419   */\n      add\n        /* \"#utility.yul\":18398:18455   */\n      mstore\n        /* \"#utility.yul\":18281:18462   */\n      pop\n      jump\t// out\n        /* \"#utility.yul\":18468:18644   */\n    tag_391:\n        /* \"#utility.yul\":18608:18636   */\n      0x7a65726f206164647265737320697320646973616c6c6f776564000000000000\n        /* \"#utility.yul\":18604:18605   */\n      0x00\n        /* \"#utility.yul\":18596:18602   */\n      dup3\n        /* \"#utility.yul\":18592:18606   */\n      add\n        /* \"#utility.yul\":18585:18637   */\n      mstore\n        /* \"#utility.yul\":18468:18644   */\n      pop\n      jump\t// out\n        /* \"#utility.yul\":18650:18772   */\n    tag_279:\n        /* \"#utility.yul\":18723:18747   */\n      tag_488\n        /* \"#utility.yul\":18741:18746   */\n      dup2\n        /* \"#utility.yul\":18723:18747   */\n      tag_333\n      jump\t// in\n    tag_488:\n        /* \"#utility.yul\":18716:18721   */\n      dup2\n        /* \"#utility.yul\":18713:18748   */\n      eq\n        /* \"#utility.yul\":18703:18766   */\n      tag_489\n      jumpi\n        /* \"#utility.yul\":18762:18763   */\n      0x00\n        /* \"#utility.yul\":18759:18760   */\n      dup1\n        /* \"#utility.yul\":18752:18764   */\n      revert\n        /* \"#utility.yul\":18703:18766   */\n    tag_489:\n        /* \"#utility.yul\":18650:18772   */\n      pop\n      jump\t// out\n        /* \"#utility.yul\":18778:18894   */\n    tag_283:\n        /* \"#utility.yul\":18848:18869   */\n      tag_491\n        /* \"#utility.yul\":18863:18868   */\n      dup2\n        /* \"#utility.yul\":18848:18869   */\n      tag_337\n      jump\t// in\n    tag_491:\n        /* \"#utility.yul\":18841:18846   */\n      dup2\n        /* \"#utility.yul\":18838:18870   */\n      eq\n        /* \"#utility.yul\":18828:18888   */\n      tag_492\n      jumpi\n        /* \"#utility.yul\":18884:18885   */\n      0x00\n        /* \"#utility.yul\":18881:18882   */\n      dup1\n        /* \"#utility.yul\":18874:18886   */\n      revert\n        /* \"#utility.yul\":18828:18888   */\n    tag_492:\n        /* \"#utility.yul\":18778:18894   */\n      pop\n      jump\t// out\n        /* \"#utility.yul\":18900:19022   */\n    tag_293:\n        /* \"#utility.yul\":18973:18997   */\n      tag_494\n        /* \"#utility.yul\":18991:18996   */\n      dup2\n        /* \"#utility.yul\":18973:18997   */\n      tag_395\n      jump\t// in\n    tag_494:\n        /* \"#utility.yul\":18966:18971   */\n      dup2\n        /* \"#utility.yul\":18963:18998   */\n      eq\n        /* \"#utility.yul\":18953:19016   */\n      tag_495\n      jumpi\n        /* \"#utility.yul\":19012:19013   */\n      0x00\n        /* \"#utility.yul\":19009:19010   */\n      dup1\n        /* \"#utility.yul\":19002:19014   */\n      revert\n        /* \"#utility.yul\":18953:19016   */\n    tag_495:\n        /* \"#utility.yul\":18900:19022   */\n      pop\n      jump\t// out\n        /* \"#utility.yul\":19028:19146   */\n    tag_300:\n        /* \"#utility.yul\":19099:19121   */\n      tag_497\n        /* \"#utility.yul\":19115:19120   */\n      dup2\n        /* \"#utility.yul\":19099:19121   */\n      tag_460\n      jump\t// in\n    tag_497:\n        /* \"#utility.yul\":19092:19097   */\n      dup2\n        /* \"#utility.yul\":19089:19122   */\n      eq\n        /* \"#utility.yul\":19079:19140   */\n      tag_498\n      jumpi\n        /* \"#utility.yul\":19136:19137   */\n      0x00\n        /* \"#utility.yul\":19133:19134   */\n      dup1\n        /* \"#utility.yul\":19126:19138   */\n      revert\n        /* \"#utility.yul\":19079:19140   */\n    tag_498:\n        /* \"#utility.yul\":19028:19146   */\n      pop\n      jump\t// out\n\n    auxdata: 0xa26469706673582212207f4200b742938cbf25a11aff2598c96b449bde82b8c1ce3ac6b974a8bd3acad764736f6c63430008070033\n}\n",
				"bytecode": {
					"linkReferences": {},
					"object": "60806040523480156200001157600080fd5b50604051620021923803806200219283398181016040528101906200003791906200015e565b42600081905550620d2f00426200004f919062000190565b6001819055506001600260006101000a81548160ff02191690831515021790555080600260016101000a81548173ffffffffffffffffffffffffffffffffffffffff021916908373ffffffffffffffffffffffffffffffffffffffff16021790555033600460006101000a81548173ffffffffffffffffffffffffffffffffffffffff021916908373ffffffffffffffffffffffffffffffffffffffff1602179055506a0422ca8b0a00a425000000600781905550600754600881905550600160058190555068056bc75e2d63100000600a819055506000600b60006101000a81548160ff0219169083151502179055505062000279565b60008151905062000158816200025f565b92915050565b6000602082840312156200017757620001766200025a565b5b6000620001878482850162000147565b91505092915050565b60006200019d8262000221565b9150620001aa8362000221565b9250827fffffffffffffffffffffffffffffffffffffffffffffffffffffffffffffffff03821115620001e257620001e16200022b565b5b828201905092915050565b6000620001fa8262000201565b9050919050565b600073ffffffffffffffffffffffffffffffffffffffff82169050919050565b6000819050919050565b7f4e487b7100000000000000000000000000000000000000000000000000000000600052601160045260246000fd5b600080fd5b6200026a81620001ed565b81146200027657600080fd5b50565b611f0980620002896000396000f3fe6080604052600436106101cd5760003560e01c806380efea55116100f7578063c2cba30611610095578063f0b4e8f711610064578063f0b4e8f714610641578063f28532921461067e578063fa08af88146106bb578063fc4a4a1e146106e4576101cd565b8063c2cba30614610595578063c43a7752146105c0578063e6be9516146105eb578063edbb7f7714610616576101cd565b8063b4a99a4e116100d1578063b4a99a4e146104fd578063b78f9de714610528578063bd998dc814610553578063c0497ca61461056a576101cd565b806380efea551461046557806389749adb146104a2578063914690ed146104d2576101cd565b806331627c261161016f57806369ea17711161013e57806369ea1771146103a95780636abfde00146103d257806370a08231146103fd57806380de983b1461043a576101cd565b806331627c26146102fd5780633336097814610328578063388981ad1461035357806347fa94e91461037e576101cd565b8063179945c3116101ab578063179945c3146102515780631b8e94a11461027c57806324f0bd09146102a75780632561eea8146102d2576101cd565b806311aed7b3146101d257806311b97bef146101fd578063128d0d0214610228575b600080fd5b3480156101de57600080fd5b506101e761070f565b6040516101f491906118b0565b60405180910390f35b34801561020957600080fd5b50610212610722565b60405161021f9190611a0d565b60405180910390f35b34801561023457600080fd5b5061024f600480360381019061024a919061158e565b6107c9565b005b34801561025d57600080fd5b50610266610984565b604051610273919061186c565b60405180910390f35b34801561028857600080fd5b506102916109aa565b60405161029e9190611a0d565b60405180910390f35b3480156102b357600080fd5b506102bc6109b0565b6040516102c99190611a0d565b60405180910390f35b3480156102de57600080fd5b506102e7610a5a565b6040516102f49190611a0d565b60405180910390f35b34801561030957600080fd5b50610312610a64565b60405161031f9190611a0d565b60405180910390f35b34801561033457600080fd5b5061033d610a6a565b60405161034a9190611a0d565b60405180910390f35b34801561035f57600080fd5b50610368610a70565b60405161037591906118cb565b60405180910390f35b34801561038a57600080fd5b50610393610b1c565b6040516103a09190611a0d565b60405180910390f35b3480156103b557600080fd5b506103d060048036038101906103cb9190611644565b610b26565b005b3480156103de57600080fd5b506103e7610bc0565b6040516103f49190611a0d565b60405180910390f35b34801561040957600080fd5b50610424600480360381019061041f919061158e565b610bc6565b6040516104319190611a0d565b60405180910390f35b34801561044657600080fd5b5061044f610c7a565b60405161045c9190611a0d565b60405180910390f35b34801561047157600080fd5b5061048c6004803603810190610487919061158e565b610c83565b6040516104999190611a0d565b60405180910390f35b6104bc60048036038101906104b79190611644565b610c9b565b6040516104c991906118b0565b60405180910390f35b3480156104de57600080fd5b506104e7610f99565b6040516104f49190611a0d565b60405180910390f35b34801561050957600080fd5b50610512610fa3565b60405161051f919061186c565b60405180910390f35b34801561053457600080fd5b5061053d610fc9565b60405161054a91906118b0565b60405180910390f35b34801561055f57600080fd5b50610568610fe0565b005b34801561057657600080fd5b5061057f6110dc565b60405161058c91906118cb565b60405180910390f35b3480156105a157600080fd5b506105aa611188565b6040516105b7919061186c565b60405180910390f35b3480156105cc57600080fd5b506105d56111ae565b6040516105e29190611a0d565b60405180910390f35b3480156105f757600080fd5b506106006111b8565b60405161060d9190611a0d565b60405180910390f35b34801561062257600080fd5b5061062b6111be565b6040516106389190611a0d565b60405180910390f35b34801561064d57600080fd5b506106686004803603810190610663919061158e565b6111c4565b60405161067591906118b0565b60405180910390f35b34801561068a57600080fd5b506106a560048036038101906106a0919061158e565b6111e4565b6040516106b291906118b0565b60405180910390f35b3480156106c757600080fd5b506106e260048036038101906106dd91906115bb565b6113c4565b005b3480156106f057600080fd5b506106f96114af565b6040516107069190611a0d565b60405180910390f35b600260009054906101000a900460ff1681565b6000600660009054906101000a900473ffffffffffffffffffffffffffffffffffffffff1673ffffffffffffffffffffffffffffffffffffffff166318160ddd6040518163ffffffff1660e01b815260040160206040518083038186803b15801561078c57600080fd5b505afa1580156107a0573d6000803e3d6000fd5b505050506040513d601f19601f820116820180604052508101906107c49190611671565b905090565b600460009054906101000a900473ffffffffffffffffffffffffffffffffffffffff1673ffffffffffffffffffffffffffffffffffffffff163373ffffffffffffffffffffffffffffffffffffffff1614610859576040517f08c379a0000000000000000000000000000000000000000000000000000000008152600401610850906118ed565b60405180910390fd5b600073ffffffffffffffffffffffffffffffffffffffff168173ffffffffffffffffffffffffffffffffffffffff1614156108c9576040517f08c379a00000000000000000000000000000000000000000000000000000000081526004016108c0906119ed565b60405180910390fd5b80600660006101000a81548173ffffffffffffffffffffffffffffffffffffffff021916908373ffffffffffffffffffffffffffffffffffffffff16021790555080600360006101000a81548173ffffffffffffffffffffffffffffffffffffffff021916908373ffffffffffffffffffffffffffffffffffffffff1602179055506001600260006101000a81548160ff0219169083151502179055506001600b60006101000a81548160ff02191690831515021790555050565b600260019054906101000a900473ffffffffffffffffffffffffffffffffffffffff1681565b60055481565b6000600660009054906101000a900473ffffffffffffffffffffffffffffffffffffffff1673ffffffffffffffffffffffffffffffffffffffff1663313ce5676040518163ffffffff1660e01b815260040160206040518083038186803b158015610a1a57600080fd5b505afa158015610a2e573d6000803e3d6000fd5b505050506040513d601f19601f82011682018060405250810190610a52919061169e565b60ff16905090565b6000600954905090565b60085481565b60015481565b6060600660009054906101000a900473ffffffffffffffffffffffffffffffffffffffff1673ffffffffffffffffffffffffffffffffffffffff166306fdde036040518163ffffffff1660e01b815260040160006040518083038186803b158015610ada57600080fd5b505afa158015610aee573d6000803e3d6000fd5b505050506040513d6000823e3d601f19601f82011682018060405250810190610b1791906115fb565b905090565b6000600154905090565b600460009054906101000a900473ffffffffffffffffffffffffffffffffffffffff1673ffffffffffffffffffffffffffffffffffffffff163373ffffffffffffffffffffffffffffffffffffffff1614610bb6576040517f08c379a0000000000000000000000000000000000000000000000000000000008152600401610bad906118ed565b60405180910390fd5b8060058190555050565b60075481565b6000600660009054906101000a900473ffffffffffffffffffffffffffffffffffffffff1673ffffffffffffffffffffffffffffffffffffffff166370a08231836040518263ffffffff1660e01b8152600401610c23919061186c565b60206040518083038186803b158015610c3b57600080fd5b505afa158015610c4f573d6000803e3d6000fd5b505050506040513d601f19601f82011682018060405250810190610c739190611671565b9050919050565b60008054905090565b600c6020528060005260406000206000915090505481565b600060011515600d60003373ffffffffffffffffffffffffffffffffffffffff1673ffffffffffffffffffffffffffffffffffffffff16815260200190815260200160002060009054906101000a900460ff1615151415610d31576040517f08c379a0000000000000000000000000000000000000000000000000000000008152600401610d28906119ad565b60405180910390fd5b6000544210158015610d4557506001544211155b610d84576040517f08c379a0000000000000000000000000000000000000000000000000000000008152600401610d7b9061190d565b60405180910390fd5b600554341015610dc9576040517f08c379a0000000000000000000000000000000000000000000000000000000008152600401610dc09061196d565b60405180910390fd5b600754821115610e0e576040517f08c379a0000000000000000000000000000000000000000000000000000000008152600401610e059061194d565b60405180910390fd5b6000600a5483610e1e9190611af0565b9050600260019054906101000a900473ffffffffffffffffffffffffffffffffffffffff1673ffffffffffffffffffffffffffffffffffffffff166108fc349081150290604051600060405180830381858888f19350505050158015610e88573d6000803e3d6000fd5b50600660009054906101000a900473ffffffffffffffffffffffffffffffffffffffff1673ffffffffffffffffffffffffffffffffffffffff166340c10f1933836040518363ffffffff1660e01b8152600401610ee6929190611887565b600060405180830381600087803b158015610f0057600080fd5b505af1158015610f14573d6000803e3d6000fd5b5050505080600c60003373ffffffffffffffffffffffffffffffffffffffff1673ffffffffffffffffffffffffffffffffffffffff16815260200190815260200160002081905550600160096000828254610f6f9190611a9a565b925050819055508060086000828254610f889190611b4a565b925050819055506001915050919050565b6000600854905090565b600460009054906101000a900473ffffffffffffffffffffffffffffffffffffffff1681565b6000600260009054906101000a900460ff16905090565b600460009054906101000a900473ffffffffffffffffffffffffffffffffffffffff1673ffffffffffffffffffffffffffffffffffffffff163373ffffffffffffffffffffffffffffffffffffffff1614611070576040517f08c379a0000000000000000000000000000000000000000000000000000000008152600401611067906118ed565b60405180910390fd5b600260009054906101000a900460ff166110bf576040517f08c379a00000000000000000000000000000000000000000000000000000000081526004016110b6906119cd565b60405180910390fd5b6000600260006101000a81548160ff021916908315150217905550565b6060600660009054906101000a900473ffffffffffffffffffffffffffffffffffffffff1673ffffffffffffffffffffffffffffffffffffffff166395d89b416040518163ffffffff1660e01b815260040160006040518083038186803b15801561114657600080fd5b505afa15801561115a573d6000803e3d6000fd5b505050506040513d6000823e3d601f19601f8201168201806040525081019061118391906115fb565b905090565b600360009054906101000a900473ffffffffffffffffffffffffffffffffffffffff1681565b6000600554905090565b600a5481565b60095481565b600d6020528060005260406000206000915054906101000a900460ff1681565b6000600460009054906101000a900473ffffffffffffffffffffffffffffffffffffffff1673ffffffffffffffffffffffffffffffffffffffff163373ffffffffffffffffffffffffffffffffffffffff1614611276576040517f08c379a000000000000000000000000000000000000000000000000000000000815260040161126d906118ed565b60405180910390fd5b600073ffffffffffffffffffffffffffffffffffffffff168273ffffffffffffffffffffffffffffffffffffffff1614156112e6576040517f08c379a00000000000000000000000000000000000000000000000000000000081526004016112dd9061198d565b60405180910390fd5b60011515600d60008473ffffffffffffffffffffffffffffffffffffffff1673ffffffffffffffffffffffffffffffffffffffff16815260200190815260200160002060009054906101000a900460ff161515141561137a576040517f08c379a00000000000000000000000000000000000000000000000000000000081526004016113719061192d565b60405180910390fd5b81600460006101000a81548173ffffffffffffffffffffffffffffffffffffffff021916908373ffffffffffffffffffffffffffffffffffffffff16021790555060019050919050565b600460009054906101000a900473ffffffffffffffffffffffffffffffffffffffff1673ffffffffffffffffffffffffffffffffffffffff163373ffffffffffffffffffffffffffffffffffffffff1614611454576040517f08c379a000000000000000000000000000000000000000000000000000000000815260040161144b906118ed565b60405180910390fd5b80600d60008473ffffffffffffffffffffffffffffffffffffffff1673ffffffffffffffffffffffffffffffffffffffff16815260200190815260200160002060006101000a81548160ff0219169083151502179055505050565b60005481565b60006114c86114c384611a4d565b611a28565b9050828152602081018484840111156114e4576114e3611c9a565b5b6114ef848285611bd3565b509392505050565b60008135905061150681611e77565b92915050565b60008135905061151b81611e8e565b92915050565b600082601f83011261153657611535611c95565b5b81516115468482602086016114b5565b91505092915050565b60008135905061155e81611ea5565b92915050565b60008151905061157381611ea5565b92915050565b60008151905061158881611ebc565b92915050565b6000602082840312156115a4576115a3611ca4565b5b60006115b2848285016114f7565b91505092915050565b600080604083850312156115d2576115d1611ca4565b5b60006115e0858286016114f7565b92505060206115f18582860161150c565b9150509250929050565b60006020828403121561161157611610611ca4565b5b600082015167ffffffffffffffff81111561162f5761162e611c9f565b5b61163b84828501611521565b91505092915050565b60006020828403121561165a57611659611ca4565b5b60006116688482850161154f565b91505092915050565b60006020828403121561168757611686611ca4565b5b600061169584828501611564565b91505092915050565b6000602082840312156116b4576116b3611ca4565b5b60006116c284828501611579565b91505092915050565b6116d481611b7e565b82525050565b6116e381611b90565b82525050565b60006116f482611a7e565b6116fe8185611a89565b935061170e818560208601611bd3565b61171781611ca9565b840191505092915050565b600061172f601583611a89565b915061173a82611cba565b602082019050919050565b6000611752601783611a89565b915061175d82611ce3565b602082019050919050565b6000611775601983611a89565b915061178082611d0c565b602082019050919050565b6000611798602c83611a89565b91506117a382611d35565b604082019050919050565b60006117bb601983611a89565b91506117c682611d84565b602082019050919050565b60006117de601e83611a89565b91506117e982611dad565b602082019050919050565b6000611801602f83611a89565b915061180c82611dd6565b604082019050919050565b6000611824601f83611a89565b915061182f82611e25565b602082019050919050565b6000611847601a83611a89565b915061185282611e4e565b602082019050919050565b61186681611bbc565b82525050565b600060208201905061188160008301846116cb565b92915050565b600060408201905061189c60008301856116cb565b6118a9602083018461185d565b9392505050565b60006020820190506118c560008301846116da565b92915050565b600060208201905081810360008301526118e581846116e9565b905092915050565b6000602082019050818103600083015261190681611722565b9050919050565b6000602082019050818103600083015261192681611745565b9050919050565b6000602082019050818103600083015261194681611768565b9050919050565b600060208201905081810360008301526119668161178b565b9050919050565b60006020820190508181036000830152611986816117ae565b9050919050565b600060208201905081810360008301526119a6816117d1565b9050919050565b600060208201905081810360008301526119c6816117f4565b9050919050565b600060208201905081810360008301526119e681611817565b9050919050565b60006020820190508181036000830152611a068161183a565b9050919050565b6000602082019050611a22600083018461185d565b92915050565b6000611a32611a43565b9050611a3e8282611c06565b919050565b6000604051905090565b600067ffffffffffffffff821115611a6857611a67611c66565b5b611a7182611ca9565b9050602081019050919050565b600081519050919050565b600082825260208201905092915050565b6000611aa582611bbc565b9150611ab083611bbc565b9250827fffffffffffffffffffffffffffffffffffffffffffffffffffffffffffffffff03821115611ae557611ae4611c37565b5b828201905092915050565b6000611afb82611bbc565b9150611b0683611bbc565b9250817fffffffffffffffffffffffffffffffffffffffffffffffffffffffffffffffff0483118215151615611b3f57611b3e611c37565b5b828202905092915050565b6000611b5582611bbc565b9150611b6083611bbc565b925082821015611b7357611b72611c37565b5b828203905092915050565b6000611b8982611b9c565b9050919050565b60008115159050919050565b600073ffffffffffffffffffffffffffffffffffffffff82169050919050565b6000819050919050565b600060ff82169050919050565b60005b83811015611bf1578082015181840152602081019050611bd6565b83811115611c00576000848401525b50505050565b611c0f82611ca9565b810181811067ffffffffffffffff82111715611c2e57611c2d611c66565b5b80604052505050565b7f4e487b7100000000000000000000000000000000000000000000000000000000600052601160045260246000fd5b7f4e487b7100000000000000000000000000000000000000000000000000000000600052604160045260246000fd5b600080fd5b600080fd5b600080fd5b600080fd5b6000601f19601f8301169050919050565b7f6f6e6c79206f6e7765722063616e207573652069740000000000000000000000600082015250565b7f73616c65206973206e6f74207374617274656420796574000000000000000000600082015250565b7f6974206973206120626c61636b6c697374206164647265737300000000000000600082015250565b7f7765206f66666572206c696d6974656420616d6f756e74206f6620746f6b656e60008201527f7320696e2070726573616c650000000000000000000000000000000000000000602082015250565b7f6d696e696d756d20707269636520697320317920657468657200000000000000600082015250565b7f7a65726f20616464726573732063616e6e6f74206220616e206f776e65720000600082015250565b7f626c636b6c697374206164647265737365732063616e6f6e6f742074616b652060008201527f7061727420696e2070726573616c650000000000000000000000000000000000602082015250565b7f73616c6520697320616c7265616479206e6f7420737461727465642079657400600082015250565b7f7a65726f206164647265737320697320646973616c6c6f776564000000000000600082015250565b611e8081611b7e565b8114611e8b57600080fd5b50565b611e9781611b90565b8114611ea257600080fd5b50565b611eae81611bbc565b8114611eb957600080fd5b50565b611ec581611bc6565b8114611ed057600080fd5b5056fea26469706673582212207f4200b742938cbf25a11aff2598c96b449bde82b8c1ce3ac6b974a8bd3acad764736f6c63430008070033",
					"opcodes": "PUSH1 0x80 PUSH1 0x40 MSTORE CALLVALUE DUP1 ISZERO PUSH3 0x11 JUMPI PUSH1 0x0 DUP1 REVERT JUMPDEST POP PUSH1 0x40 MLOAD PUSH3 0x2192 CODESIZE SUB DUP1 PUSH3 0x2192 DUP4 CODECOPY DUP2 DUP2 ADD PUSH1 0x40 MSTORE DUP2 ADD SWAP1 PUSH3 0x37 SWAP2 SWAP1 PUSH3 0x15E JUMP JUMPDEST TIMESTAMP PUSH1 0x0 DUP2 SWAP1 SSTORE POP PUSH3 0xD2F00 TIMESTAMP PUSH3 0x4F SWAP2 SWAP1 PUSH3 0x190 JUMP JUMPDEST PUSH1 0x1 DUP2 SWAP1 SSTORE POP PUSH1 0x1 PUSH1 0x2 PUSH1 0x0 PUSH2 0x100 EXP DUP2 SLOAD DUP2 PUSH1 0xFF MUL NOT AND SWAP1 DUP4 ISZERO ISZERO MUL OR SWAP1 SSTORE POP DUP1 PUSH1 0x2 PUSH1 0x1 PUSH2 0x100 EXP DUP2 SLOAD DUP2 PUSH20 0xFFFFFFFFFFFFFFFFFFFFFFFFFFFFFFFFFFFFFFFF MUL NOT AND SWAP1 DUP4 PUSH20 0xFFFFFFFFFFFFFFFFFFFFFFFFFFFFFFFFFFFFFFFF AND MUL OR SWAP1 SSTORE POP CALLER PUSH1 0x4 PUSH1 0x0 PUSH2 0x100 EXP DUP2 SLOAD DUP2 PUSH20 0xFFFFFFFFFFFFFFFFFFFFFFFFFFFFFFFFFFFFFFFF MUL NOT AND SWAP1 DUP4 PUSH20 0xFFFFFFFFFFFFFFFFFFFFFFFFFFFFFFFFFFFFFFFF AND MUL OR SWAP1 SSTORE POP PUSH11 0x422CA8B0A00A425000000 PUSH1 0x7 DUP2 SWAP1 SSTORE POP PUSH1 0x7 SLOAD PUSH1 0x8 DUP2 SWAP1 SSTORE POP PUSH1 0x1 PUSH1 0x5 DUP2 SWAP1 SSTORE POP PUSH9 0x56BC75E2D63100000 PUSH1 0xA DUP2 SWAP1 SSTORE POP PUSH1 0x0 PUSH1 0xB PUSH1 0x0 PUSH2 0x100 EXP DUP2 SLOAD DUP2 PUSH1 0xFF MUL NOT AND SWAP1 DUP4 ISZERO ISZERO MUL OR SWAP1 SSTORE POP POP PUSH3 0x279 JUMP JUMPDEST PUSH1 0x0 DUP2 MLOAD SWAP1 POP PUSH3 0x158 DUP2 PUSH3 0x25F JUMP JUMPDEST SWAP3 SWAP2 POP POP JUMP JUMPDEST PUSH1 0x0 PUSH1 0x20 DUP3 DUP5 SUB SLT ISZERO PUSH3 0x177 JUMPI PUSH3 0x176 PUSH3 0x25A JUMP JUMPDEST JUMPDEST PUSH1 0x0 PUSH3 0x187 DUP5 DUP3 DUP6 ADD PUSH3 0x147 JUMP JUMPDEST SWAP2 POP POP SWAP3 SWAP2 POP POP JUMP JUMPDEST PUSH1 0x0 PUSH3 0x19D DUP3 PUSH3 0x221 JUMP JUMPDEST SWAP2 POP PUSH3 0x1AA DUP4 PUSH3 0x221 JUMP JUMPDEST SWAP3 POP DUP3 PUSH32 0xFFFFFFFFFFFFFFFFFFFFFFFFFFFFFFFFFFFFFFFFFFFFFFFFFFFFFFFFFFFFFFFF SUB DUP3 GT ISZERO PUSH3 0x1E2 JUMPI PUSH3 0x1E1 PUSH3 0x22B JUMP JUMPDEST JUMPDEST DUP3 DUP3 ADD SWAP1 POP SWAP3 SWAP2 POP POP JUMP JUMPDEST PUSH1 0x0 PUSH3 0x1FA DUP3 PUSH3 0x201 JUMP JUMPDEST SWAP1 POP SWAP2 SWAP1 POP JUMP JUMPDEST PUSH1 0x0 PUSH20 0xFFFFFFFFFFFFFFFFFFFFFFFFFFFFFFFFFFFFFFFF DUP3 AND SWAP1 POP SWAP2 SWAP1 POP JUMP JUMPDEST PUSH1 0x0 DUP2 SWAP1 POP SWAP2 SWAP1 POP JUMP JUMPDEST PUSH32 0x4E487B7100000000000000000000000000000000000000000000000000000000 PUSH1 0x0 MSTORE PUSH1 0x11 PUSH1 0x4 MSTORE PUSH1 0x24 PUSH1 0x0 REVERT JUMPDEST PUSH1 0x0 DUP1 REVERT JUMPDEST PUSH3 0x26A DUP2 PUSH3 0x1ED JUMP JUMPDEST DUP2 EQ PUSH3 0x276 JUMPI PUSH1 0x0 DUP1 REVERT JUMPDEST POP JUMP JUMPDEST PUSH2 0x1F09 DUP1 PUSH3 0x289 PUSH1 0x0 CODECOPY PUSH1 0x0 RETURN INVALID PUSH1 0x80 PUSH1 0x40 MSTORE PUSH1 0x4 CALLDATASIZE LT PUSH2 0x1CD JUMPI PUSH1 0x0 CALLDATALOAD PUSH1 0xE0 SHR DUP1 PUSH4 0x80EFEA55 GT PUSH2 0xF7 JUMPI DUP1 PUSH4 0xC2CBA306 GT PUSH2 0x95 JUMPI DUP1 PUSH4 0xF0B4E8F7 GT PUSH2 0x64 JUMPI DUP1 PUSH4 0xF0B4E8F7 EQ PUSH2 0x641 JUMPI DUP1 PUSH4 0xF2853292 EQ PUSH2 0x67E JUMPI DUP1 PUSH4 0xFA08AF88 EQ PUSH2 0x6BB JUMPI DUP1 PUSH4 0xFC4A4A1E EQ PUSH2 0x6E4 JUMPI PUSH2 0x1CD JUMP JUMPDEST DUP1 PUSH4 0xC2CBA306 EQ PUSH2 0x595 JUMPI DUP1 PUSH4 0xC43A7752 EQ PUSH2 0x5C0 JUMPI DUP1 PUSH4 0xE6BE9516 EQ PUSH2 0x5EB JUMPI DUP1 PUSH4 0xEDBB7F77 EQ PUSH2 0x616 JUMPI PUSH2 0x1CD JUMP JUMPDEST DUP1 PUSH4 0xB4A99A4E GT PUSH2 0xD1 JUMPI DUP1 PUSH4 0xB4A99A4E EQ PUSH2 0x4FD JUMPI DUP1 PUSH4 0xB78F9DE7 EQ PUSH2 0x528 JUMPI DUP1 PUSH4 0xBD998DC8 EQ PUSH2 0x553 JUMPI DUP1 PUSH4 0xC0497CA6 EQ PUSH2 0x56A JUMPI PUSH2 0x1CD JUMP JUMPDEST DUP1 PUSH4 0x80EFEA55 EQ PUSH2 0x465 JUMPI DUP1 PUSH4 0x89749ADB EQ PUSH2 0x4A2 JUMPI DUP1 PUSH4 0x914690ED EQ PUSH2 0x4D2 JUMPI PUSH2 0x1CD JUMP JUMPDEST DUP1 PUSH4 0x31627C26 GT PUSH2 0x16F JUMPI DUP1 PUSH4 0x69EA1771 GT PUSH2 0x13E JUMPI DUP1 PUSH4 0x69EA1771 EQ PUSH2 0x3A9 JUMPI DUP1 PUSH4 0x6ABFDE00 EQ PUSH2 0x3D2 JUMPI DUP1 PUSH4 0x70A08231 EQ PUSH2 0x3FD JUMPI DUP1 PUSH4 0x80DE983B EQ PUSH2 0x43A JUMPI PUSH2 0x1CD JUMP JUMPDEST DUP1 PUSH4 0x31627C26 EQ PUSH2 0x2FD JUMPI DUP1 PUSH4 0x33360978 EQ PUSH2 0x328 JUMPI DUP1 PUSH4 0x388981AD EQ PUSH2 0x353 JUMPI DUP1 PUSH4 0x47FA94E9 EQ PUSH2 0x37E JUMPI PUSH2 0x1CD JUMP JUMPDEST DUP1 PUSH4 0x179945C3 GT PUSH2 0x1AB JUMPI DUP1 PUSH4 0x179945C3 EQ PUSH2 0x251 JUMPI DUP1 PUSH4 0x1B8E94A1 EQ PUSH2 0x27C JUMPI DUP1 PUSH4 0x24F0BD09 EQ PUSH2 0x2A7 JUMPI DUP1 PUSH4 0x2561EEA8 EQ PUSH2 0x2D2 JUMPI PUSH2 0x1CD JUMP JUMPDEST DUP1 PUSH4 0x11AED7B3 EQ PUSH2 0x1D2 JUMPI DUP1 PUSH4 0x11B97BEF EQ PUSH2 0x1FD JUMPI DUP1 PUSH4 0x128D0D02 EQ PUSH2 0x228 JUMPI JUMPDEST PUSH1 0x0 DUP1 REVERT JUMPDEST CALLVALUE DUP1 ISZERO PUSH2 0x1DE JUMPI PUSH1 0x0 DUP1 REVERT JUMPDEST POP PUSH2 0x1E7 PUSH2 0x70F JUMP JUMPDEST PUSH1 0x40 MLOAD PUSH2 0x1F4 SWAP2 SWAP1 PUSH2 0x18B0 JUMP JUMPDEST PUSH1 0x40 MLOAD DUP1 SWAP2 SUB SWAP1 RETURN JUMPDEST CALLVALUE DUP1 ISZERO PUSH2 0x209 JUMPI PUSH1 0x0 DUP1 REVERT JUMPDEST POP PUSH2 0x212 PUSH2 0x722 JUMP JUMPDEST PUSH1 0x40 MLOAD PUSH2 0x21F SWAP2 SWAP1 PUSH2 0x1A0D JUMP JUMPDEST PUSH1 0x40 MLOAD DUP1 SWAP2 SUB SWAP1 RETURN JUMPDEST CALLVALUE DUP1 ISZERO PUSH2 0x234 JUMPI PUSH1 0x0 DUP1 REVERT JUMPDEST POP PUSH2 0x24F PUSH1 0x4 DUP1 CALLDATASIZE SUB DUP2 ADD SWAP1 PUSH2 0x24A SWAP2 SWAP1 PUSH2 0x158E JUMP JUMPDEST PUSH2 0x7C9 JUMP JUMPDEST STOP JUMPDEST CALLVALUE DUP1 ISZERO PUSH2 0x25D JUMPI PUSH1 0x0 DUP1 REVERT JUMPDEST POP PUSH2 0x266 PUSH2 0x984 JUMP JUMPDEST PUSH1 0x40 MLOAD PUSH2 0x273 SWAP2 SWAP1 PUSH2 0x186C JUMP JUMPDEST PUSH1 0x40 MLOAD DUP1 SWAP2 SUB SWAP1 RETURN JUMPDEST CALLVALUE DUP1 ISZERO PUSH2 0x288 JUMPI PUSH1 0x0 DUP1 REVERT JUMPDEST POP PUSH2 0x291 PUSH2 0x9AA JUMP JUMPDEST PUSH1 0x40 MLOAD PUSH2 0x29E SWAP2 SWAP1 PUSH2 0x1A0D JUMP JUMPDEST PUSH1 0x40 MLOAD DUP1 SWAP2 SUB SWAP1 RETURN JUMPDEST CALLVALUE DUP1 ISZERO PUSH2 0x2B3 JUMPI PUSH1 0x0 DUP1 REVERT JUMPDEST POP PUSH2 0x2BC PUSH2 0x9B0 JUMP JUMPDEST PUSH1 0x40 MLOAD PUSH2 0x2C9 SWAP2 SWAP1 PUSH2 0x1A0D JUMP JUMPDEST PUSH1 0x40 MLOAD DUP1 SWAP2 SUB SWAP1 RETURN JUMPDEST CALLVALUE DUP1 ISZERO PUSH2 0x2DE JUMPI PUSH1 0x0 DUP1 REVERT JUMPDEST POP PUSH2 0x2E7 PUSH2 0xA5A JUMP JUMPDEST PUSH1 0x40 MLOAD PUSH2 0x2F4 SWAP2 SWAP1 PUSH2 0x1A0D JUMP JUMPDEST PUSH1 0x40 MLOAD DUP1 SWAP2 SUB SWAP1 RETURN JUMPDEST CALLVALUE DUP1 ISZERO PUSH2 0x309 JUMPI PUSH1 0x0 DUP1 REVERT JUMPDEST POP PUSH2 0x312 PUSH2 0xA64 JUMP JUMPDEST PUSH1 0x40 MLOAD PUSH2 0x31F SWAP2 SWAP1 PUSH2 0x1A0D JUMP JUMPDEST PUSH1 0x40 MLOAD DUP1 SWAP2 SUB SWAP1 RETURN JUMPDEST CALLVALUE DUP1 ISZERO PUSH2 0x334 JUMPI PUSH1 0x0 DUP1 REVERT JUMPDEST POP PUSH2 0x33D PUSH2 0xA6A JUMP JUMPDEST PUSH1 0x40 MLOAD PUSH2 0x34A SWAP2 SWAP1 PUSH2 0x1A0D JUMP JUMPDEST PUSH1 0x40 MLOAD DUP1 SWAP2 SUB SWAP1 RETURN JUMPDEST CALLVALUE DUP1 ISZERO PUSH2 0x35F JUMPI PUSH1 0x0 DUP1 REVERT JUMPDEST POP PUSH2 0x368 PUSH2 0xA70 JUMP JUMPDEST PUSH1 0x40 MLOAD PUSH2 0x375 SWAP2 SWAP1 PUSH2 0x18CB JUMP JUMPDEST PUSH1 0x40 MLOAD DUP1 SWAP2 SUB SWAP1 RETURN JUMPDEST CALLVALUE DUP1 ISZERO PUSH2 0x38A JUMPI PUSH1 0x0 DUP1 REVERT JUMPDEST POP PUSH2 0x393 PUSH2 0xB1C JUMP JUMPDEST PUSH1 0x40 MLOAD PUSH2 0x3A0 SWAP2 SWAP1 PUSH2 0x1A0D JUMP JUMPDEST PUSH1 0x40 MLOAD DUP1 SWAP2 SUB SWAP1 RETURN JUMPDEST CALLVALUE DUP1 ISZERO PUSH2 0x3B5 JUMPI PUSH1 0x0 DUP1 REVERT JUMPDEST POP PUSH2 0x3D0 PUSH1 0x4 DUP1 CALLDATASIZE SUB DUP2 ADD SWAP1 PUSH2 0x3CB SWAP2 SWAP1 PUSH2 0x1644 JUMP JUMPDEST PUSH2 0xB26 JUMP JUMPDEST STOP JUMPDEST CALLVALUE DUP1 ISZERO PUSH2 0x3DE JUMPI PUSH1 0x0 DUP1 REVERT JUMPDEST POP PUSH2 0x3E7 PUSH2 0xBC0 JUMP JUMPDEST PUSH1 0x40 MLOAD PUSH2 0x3F4 SWAP2 SWAP1 PUSH2 0x1A0D JUMP JUMPDEST PUSH1 0x40 MLOAD DUP1 SWAP2 SUB SWAP1 RETURN JUMPDEST CALLVALUE DUP1 ISZERO PUSH2 0x409 JUMPI PUSH1 0x0 DUP1 REVERT JUMPDEST POP PUSH2 0x424 PUSH1 0x4 DUP1 CALLDATASIZE SUB DUP2 ADD SWAP1 PUSH2 0x41F SWAP2 SWAP1 PUSH2 0x158E JUMP JUMPDEST PUSH2 0xBC6 JUMP JUMPDEST PUSH1 0x40 MLOAD PUSH2 0x431 SWAP2 SWAP1 PUSH2 0x1A0D JUMP JUMPDEST PUSH1 0x40 MLOAD DUP1 SWAP2 SUB SWAP1 RETURN JUMPDEST CALLVALUE DUP1 ISZERO PUSH2 0x446 JUMPI PUSH1 0x0 DUP1 REVERT JUMPDEST POP PUSH2 0x44F PUSH2 0xC7A JUMP JUMPDEST PUSH1 0x40 MLOAD PUSH2 0x45C SWAP2 SWAP1 PUSH2 0x1A0D JUMP JUMPDEST PUSH1 0x40 MLOAD DUP1 SWAP2 SUB SWAP1 RETURN JUMPDEST CALLVALUE DUP1 ISZERO PUSH2 0x471 JUMPI PUSH1 0x0 DUP1 REVERT JUMPDEST POP PUSH2 0x48C PUSH1 0x4 DUP1 CALLDATASIZE SUB DUP2 ADD SWAP1 PUSH2 0x487 SWAP2 SWAP1 PUSH2 0x158E JUMP JUMPDEST PUSH2 0xC83 JUMP JUMPDEST PUSH1 0x40 MLOAD PUSH2 0x499 SWAP2 SWAP1 PUSH2 0x1A0D JUMP JUMPDEST PUSH1 0x40 MLOAD DUP1 SWAP2 SUB SWAP1 RETURN JUMPDEST PUSH2 0x4BC PUSH1 0x4 DUP1 CALLDATASIZE SUB DUP2 ADD SWAP1 PUSH2 0x4B7 SWAP2 SWAP1 PUSH2 0x1644 JUMP JUMPDEST PUSH2 0xC9B JUMP JUMPDEST PUSH1 0x40 MLOAD PUSH2 0x4C9 SWAP2 SWAP1 PUSH2 0x18B0 JUMP JUMPDEST PUSH1 0x40 MLOAD DUP1 SWAP2 SUB SWAP1 RETURN JUMPDEST CALLVALUE DUP1 ISZERO PUSH2 0x4DE JUMPI PUSH1 0x0 DUP1 REVERT JUMPDEST POP PUSH2 0x4E7 PUSH2 0xF99 JUMP JUMPDEST PUSH1 0x40 MLOAD PUSH2 0x4F4 SWAP2 SWAP1 PUSH2 0x1A0D JUMP JUMPDEST PUSH1 0x40 MLOAD DUP1 SWAP2 SUB SWAP1 RETURN JUMPDEST CALLVALUE DUP1 ISZERO PUSH2 0x509 JUMPI PUSH1 0x0 DUP1 REVERT JUMPDEST POP PUSH2 0x512 PUSH2 0xFA3 JUMP JUMPDEST PUSH1 0x40 MLOAD PUSH2 0x51F SWAP2 SWAP1 PUSH2 0x186C JUMP JUMPDEST PUSH1 0x40 MLOAD DUP1 SWAP2 SUB SWAP1 RETURN JUMPDEST CALLVALUE DUP1 ISZERO PUSH2 0x534 JUMPI PUSH1 0x0 DUP1 REVERT JUMPDEST POP PUSH2 0x53D PUSH2 0xFC9 JUMP JUMPDEST PUSH1 0x40 MLOAD PUSH2 0x54A SWAP2 SWAP1 PUSH2 0x18B0 JUMP JUMPDEST PUSH1 0x40 MLOAD DUP1 SWAP2 SUB SWAP1 RETURN JUMPDEST CALLVALUE DUP1 ISZERO PUSH2 0x55F JUMPI PUSH1 0x0 DUP1 REVERT JUMPDEST POP PUSH2 0x568 PUSH2 0xFE0 JUMP JUMPDEST STOP JUMPDEST CALLVALUE DUP1 ISZERO PUSH2 0x576 JUMPI PUSH1 0x0 DUP1 REVERT JUMPDEST POP PUSH2 0x57F PUSH2 0x10DC JUMP JUMPDEST PUSH1 0x40 MLOAD PUSH2 0x58C SWAP2 SWAP1 PUSH2 0x18CB JUMP JUMPDEST PUSH1 0x40 MLOAD DUP1 SWAP2 SUB SWAP1 RETURN JUMPDEST CALLVALUE DUP1 ISZERO PUSH2 0x5A1 JUMPI PUSH1 0x0 DUP1 REVERT JUMPDEST POP PUSH2 0x5AA PUSH2 0x1188 JUMP JUMPDEST PUSH1 0x40 MLOAD PUSH2 0x5B7 SWAP2 SWAP1 PUSH2 0x186C JUMP JUMPDEST PUSH1 0x40 MLOAD DUP1 SWAP2 SUB SWAP1 RETURN JUMPDEST CALLVALUE DUP1 ISZERO PUSH2 0x5CC JUMPI PUSH1 0x0 DUP1 REVERT JUMPDEST POP PUSH2 0x5D5 PUSH2 0x11AE JUMP JUMPDEST PUSH1 0x40 MLOAD PUSH2 0x5E2 SWAP2 SWAP1 PUSH2 0x1A0D JUMP JUMPDEST PUSH1 0x40 MLOAD DUP1 SWAP2 SUB SWAP1 RETURN JUMPDEST CALLVALUE DUP1 ISZERO PUSH2 0x5F7 JUMPI PUSH1 0x0 DUP1 REVERT JUMPDEST POP PUSH2 0x600 PUSH2 0x11B8 JUMP JUMPDEST PUSH1 0x40 MLOAD PUSH2 0x60D SWAP2 SWAP1 PUSH2 0x1A0D JUMP JUMPDEST PUSH1 0x40 MLOAD DUP1 SWAP2 SUB SWAP1 RETURN JUMPDEST CALLVALUE DUP1 ISZERO PUSH2 0x622 JUMPI PUSH1 0x0 DUP1 REVERT JUMPDEST POP PUSH2 0x62B PUSH2 0x11BE JUMP JUMPDEST PUSH1 0x40 MLOAD PUSH2 0x638 SWAP2 SWAP1 PUSH2 0x1A0D JUMP JUMPDEST PUSH1 0x40 MLOAD DUP1 SWAP2 SUB SWAP1 RETURN JUMPDEST CALLVALUE DUP1 ISZERO PUSH2 0x64D JUMPI PUSH1 0x0 DUP1 REVERT JUMPDEST POP PUSH2 0x668 PUSH1 0x4 DUP1 CALLDATASIZE SUB DUP2 ADD SWAP1 PUSH2 0x663 SWAP2 SWAP1 PUSH2 0x158E JUMP JUMPDEST PUSH2 0x11C4 JUMP JUMPDEST PUSH1 0x40 MLOAD PUSH2 0x675 SWAP2 SWAP1 PUSH2 0x18B0 JUMP JUMPDEST PUSH1 0x40 MLOAD DUP1 SWAP2 SUB SWAP1 RETURN JUMPDEST CALLVALUE DUP1 ISZERO PUSH2 0x68A JUMPI PUSH1 0x0 DUP1 REVERT JUMPDEST POP PUSH2 0x6A5 PUSH1 0x4 DUP1 CALLDATASIZE SUB DUP2 ADD SWAP1 PUSH2 0x6A0 SWAP2 SWAP1 PUSH2 0x158E JUMP JUMPDEST PUSH2 0x11E4 JUMP JUMPDEST PUSH1 0x40 MLOAD PUSH2 0x6B2 SWAP2 SWAP1 PUSH2 0x18B0 JUMP JUMPDEST PUSH1 0x40 MLOAD DUP1 SWAP2 SUB SWAP1 RETURN JUMPDEST CALLVALUE DUP1 ISZERO PUSH2 0x6C7 JUMPI PUSH1 0x0 DUP1 REVERT JUMPDEST POP PUSH2 0x6E2 PUSH1 0x4 DUP1 CALLDATASIZE SUB DUP2 ADD SWAP1 PUSH2 0x6DD SWAP2 SWAP1 PUSH2 0x15BB JUMP JUMPDEST PUSH2 0x13C4 JUMP JUMPDEST STOP JUMPDEST CALLVALUE DUP1 ISZERO PUSH2 0x6F0 JUMPI PUSH1 0x0 DUP1 REVERT JUMPDEST POP PUSH2 0x6F9 PUSH2 0x14AF JUMP JUMPDEST PUSH1 0x40 MLOAD PUSH2 0x706 SWAP2 SWAP1 PUSH2 0x1A0D JUMP JUMPDEST PUSH1 0x40 MLOAD DUP1 SWAP2 SUB SWAP1 RETURN JUMPDEST PUSH1 0x2 PUSH1 0x0 SWAP1 SLOAD SWAP1 PUSH2 0x100 EXP SWAP1 DIV PUSH1 0xFF AND DUP2 JUMP JUMPDEST PUSH1 0x0 PUSH1 0x6 PUSH1 0x0 SWAP1 SLOAD SWAP1 PUSH2 0x100 EXP SWAP1 DIV PUSH20 0xFFFFFFFFFFFFFFFFFFFFFFFFFFFFFFFFFFFFFFFF AND PUSH20 0xFFFFFFFFFFFFFFFFFFFFFFFFFFFFFFFFFFFFFFFF AND PUSH4 0x18160DDD PUSH1 0x40 MLOAD DUP2 PUSH4 0xFFFFFFFF AND PUSH1 0xE0 SHL DUP2 MSTORE PUSH1 0x4 ADD PUSH1 0x20 PUSH1 0x40 MLOAD DUP1 DUP4 SUB DUP2 DUP7 DUP1 EXTCODESIZE ISZERO DUP1 ISZERO PUSH2 0x78C JUMPI PUSH1 0x0 DUP1 REVERT JUMPDEST POP GAS STATICCALL ISZERO DUP1 ISZERO PUSH2 0x7A0 JUMPI RETURNDATASIZE PUSH1 0x0 DUP1 RETURNDATACOPY RETURNDATASIZE PUSH1 0x0 REVERT JUMPDEST POP POP POP POP PUSH1 0x40 MLOAD RETURNDATASIZE PUSH1 0x1F NOT PUSH1 0x1F DUP3 ADD AND DUP3 ADD DUP1 PUSH1 0x40 MSTORE POP DUP2 ADD SWAP1 PUSH2 0x7C4 SWAP2 SWAP1 PUSH2 0x1671 JUMP JUMPDEST SWAP1 POP SWAP1 JUMP JUMPDEST PUSH1 0x4 PUSH1 0x0 SWAP1 SLOAD SWAP1 PUSH2 0x100 EXP SWAP1 DIV PUSH20 0xFFFFFFFFFFFFFFFFFFFFFFFFFFFFFFFFFFFFFFFF AND PUSH20 0xFFFFFFFFFFFFFFFFFFFFFFFFFFFFFFFFFFFFFFFF AND CALLER PUSH20 0xFFFFFFFFFFFFFFFFFFFFFFFFFFFFFFFFFFFFFFFF AND EQ PUSH2 0x859 JUMPI PUSH1 0x40 MLOAD PUSH32 0x8C379A000000000000000000000000000000000000000000000000000000000 DUP2 MSTORE PUSH1 0x4 ADD PUSH2 0x850 SWAP1 PUSH2 0x18ED JUMP JUMPDEST PUSH1 0x40 MLOAD DUP1 SWAP2 SUB SWAP1 REVERT JUMPDEST PUSH1 0x0 PUSH20 0xFFFFFFFFFFFFFFFFFFFFFFFFFFFFFFFFFFFFFFFF AND DUP2 PUSH20 0xFFFFFFFFFFFFFFFFFFFFFFFFFFFFFFFFFFFFFFFF AND EQ ISZERO PUSH2 0x8C9 JUMPI PUSH1 0x40 MLOAD PUSH32 0x8C379A000000000000000000000000000000000000000000000000000000000 DUP2 MSTORE PUSH1 0x4 ADD PUSH2 0x8C0 SWAP1 PUSH2 0x19ED JUMP JUMPDEST PUSH1 0x40 MLOAD DUP1 SWAP2 SUB SWAP1 REVERT JUMPDEST DUP1 PUSH1 0x6 PUSH1 0x0 PUSH2 0x100 EXP DUP2 SLOAD DUP2 PUSH20 0xFFFFFFFFFFFFFFFFFFFFFFFFFFFFFFFFFFFFFFFF MUL NOT AND SWAP1 DUP4 PUSH20 0xFFFFFFFFFFFFFFFFFFFFFFFFFFFFFFFFFFFFFFFF AND MUL OR SWAP1 SSTORE POP DUP1 PUSH1 0x3 PUSH1 0x0 PUSH2 0x100 EXP DUP2 SLOAD DUP2 PUSH20 0xFFFFFFFFFFFFFFFFFFFFFFFFFFFFFFFFFFFFFFFF MUL NOT AND SWAP1 DUP4 PUSH20 0xFFFFFFFFFFFFFFFFFFFFFFFFFFFFFFFFFFFFFFFF AND MUL OR SWAP1 SSTORE POP PUSH1 0x1 PUSH1 0x2 PUSH1 0x0 PUSH2 0x100 EXP DUP2 SLOAD DUP2 PUSH1 0xFF MUL NOT AND SWAP1 DUP4 ISZERO ISZERO MUL OR SWAP1 SSTORE POP PUSH1 0x1 PUSH1 0xB PUSH1 0x0 PUSH2 0x100 EXP DUP2 SLOAD DUP2 PUSH1 0xFF MUL NOT AND SWAP1 DUP4 ISZERO ISZERO MUL OR SWAP1 SSTORE POP POP JUMP JUMPDEST PUSH1 0x2 PUSH1 0x1 SWAP1 SLOAD SWAP1 PUSH2 0x100 EXP SWAP1 DIV PUSH20 0xFFFFFFFFFFFFFFFFFFFFFFFFFFFFFFFFFFFFFFFF AND DUP2 JUMP JUMPDEST PUSH1 0x5 SLOAD DUP2 JUMP JUMPDEST PUSH1 0x0 PUSH1 0x6 PUSH1 0x0 SWAP1 SLOAD SWAP1 PUSH2 0x100 EXP SWAP1 DIV PUSH20 0xFFFFFFFFFFFFFFFFFFFFFFFFFFFFFFFFFFFFFFFF AND PUSH20 0xFFFFFFFFFFFFFFFFFFFFFFFFFFFFFFFFFFFFFFFF AND PUSH4 0x313CE567 PUSH1 0x40 MLOAD DUP2 PUSH4 0xFFFFFFFF AND PUSH1 0xE0 SHL DUP2 MSTORE PUSH1 0x4 ADD PUSH1 0x20 PUSH1 0x40 MLOAD DUP1 DUP4 SUB DUP2 DUP7 DUP1 EXTCODESIZE ISZERO DUP1 ISZERO PUSH2 0xA1A JUMPI PUSH1 0x0 DUP1 REVERT JUMPDEST POP GAS STATICCALL ISZERO DUP1 ISZERO PUSH2 0xA2E JUMPI RETURNDATASIZE PUSH1 0x0 DUP1 RETURNDATACOPY RETURNDATASIZE PUSH1 0x0 REVERT JUMPDEST POP POP POP POP PUSH1 0x40 MLOAD RETURNDATASIZE PUSH1 0x1F NOT PUSH1 0x1F DUP3 ADD AND DUP3 ADD DUP1 PUSH1 0x40 MSTORE POP DUP2 ADD SWAP1 PUSH2 0xA52 SWAP2 SWAP1 PUSH2 0x169E JUMP JUMPDEST PUSH1 0xFF AND SWAP1 POP SWAP1 JUMP JUMPDEST PUSH1 0x0 PUSH1 0x9 SLOAD SWAP1 POP SWAP1 JUMP JUMPDEST PUSH1 0x8 SLOAD DUP2 JUMP JUMPDEST PUSH1 0x1 SLOAD DUP2 JUMP JUMPDEST PUSH1 0x60 PUSH1 0x6 PUSH1 0x0 SWAP1 SLOAD SWAP1 PUSH2 0x100 EXP SWAP1 DIV PUSH20 0xFFFFFFFFFFFFFFFFFFFFFFFFFFFFFFFFFFFFFFFF AND PUSH20 0xFFFFFFFFFFFFFFFFFFFFFFFFFFFFFFFFFFFFFFFF AND PUSH4 0x6FDDE03 PUSH1 0x40 MLOAD DUP2 PUSH4 0xFFFFFFFF AND PUSH1 0xE0 SHL DUP2 MSTORE PUSH1 0x4 ADD PUSH1 0x0 PUSH1 0x40 MLOAD DUP1 DUP4 SUB DUP2 DUP7 DUP1 EXTCODESIZE ISZERO DUP1 ISZERO PUSH2 0xADA JUMPI PUSH1 0x0 DUP1 REVERT JUMPDEST POP GAS STATICCALL ISZERO DUP1 ISZERO PUSH2 0xAEE JUMPI RETURNDATASIZE PUSH1 0x0 DUP1 RETURNDATACOPY RETURNDATASIZE PUSH1 0x0 REVERT JUMPDEST POP POP POP POP PUSH1 0x40 MLOAD RETURNDATASIZE PUSH1 0x0 DUP3 RETURNDATACOPY RETURNDATASIZE PUSH1 0x1F NOT PUSH1 0x1F DUP3 ADD AND DUP3 ADD DUP1 PUSH1 0x40 MSTORE POP DUP2 ADD SWAP1 PUSH2 0xB17 SWAP2 SWAP1 PUSH2 0x15FB JUMP JUMPDEST SWAP1 POP SWAP1 JUMP JUMPDEST PUSH1 0x0 PUSH1 0x1 SLOAD SWAP1 POP SWAP1 JUMP JUMPDEST PUSH1 0x4 PUSH1 0x0 SWAP1 SLOAD SWAP1 PUSH2 0x100 EXP SWAP1 DIV PUSH20 0xFFFFFFFFFFFFFFFFFFFFFFFFFFFFFFFFFFFFFFFF AND PUSH20 0xFFFFFFFFFFFFFFFFFFFFFFFFFFFFFFFFFFFFFFFF AND CALLER PUSH20 0xFFFFFFFFFFFFFFFFFFFFFFFFFFFFFFFFFFFFFFFF AND EQ PUSH2 0xBB6 JUMPI PUSH1 0x40 MLOAD PUSH32 0x8C379A000000000000000000000000000000000000000000000000000000000 DUP2 MSTORE PUSH1 0x4 ADD PUSH2 0xBAD SWAP1 PUSH2 0x18ED JUMP JUMPDEST PUSH1 0x40 MLOAD DUP1 SWAP2 SUB SWAP1 REVERT JUMPDEST DUP1 PUSH1 0x5 DUP2 SWAP1 SSTORE POP POP JUMP JUMPDEST PUSH1 0x7 SLOAD DUP2 JUMP JUMPDEST PUSH1 0x0 PUSH1 0x6 PUSH1 0x0 SWAP1 SLOAD SWAP1 PUSH2 0x100 EXP SWAP1 DIV PUSH20 0xFFFFFFFFFFFFFFFFFFFFFFFFFFFFFFFFFFFFFFFF AND PUSH20 0xFFFFFFFFFFFFFFFFFFFFFFFFFFFFFFFFFFFFFFFF AND PUSH4 0x70A08231 DUP4 PUSH1 0x40 MLOAD DUP3 PUSH4 0xFFFFFFFF AND PUSH1 0xE0 SHL DUP2 MSTORE PUSH1 0x4 ADD PUSH2 0xC23 SWAP2 SWAP1 PUSH2 0x186C JUMP JUMPDEST PUSH1 0x20 PUSH1 0x40 MLOAD DUP1 DUP4 SUB DUP2 DUP7 DUP1 EXTCODESIZE ISZERO DUP1 ISZERO PUSH2 0xC3B JUMPI PUSH1 0x0 DUP1 REVERT JUMPDEST POP GAS STATICCALL ISZERO DUP1 ISZERO PUSH2 0xC4F JUMPI RETURNDATASIZE PUSH1 0x0 DUP1 RETURNDATACOPY RETURNDATASIZE PUSH1 0x0 REVERT JUMPDEST POP POP POP POP PUSH1 0x40 MLOAD RETURNDATASIZE PUSH1 0x1F NOT PUSH1 0x1F DUP3 ADD AND DUP3 ADD DUP1 PUSH1 0x40 MSTORE POP DUP2 ADD SWAP1 PUSH2 0xC73 SWAP2 SWAP1 PUSH2 0x1671 JUMP JUMPDEST SWAP1 POP SWAP2 SWAP1 POP JUMP JUMPDEST PUSH1 0x0 DUP1 SLOAD SWAP1 POP SWAP1 JUMP JUMPDEST PUSH1 0xC PUSH1 0x20 MSTORE DUP1 PUSH1 0x0 MSTORE PUSH1 0x40 PUSH1 0x0 KECCAK256 PUSH1 0x0 SWAP2 POP SWAP1 POP SLOAD DUP2 JUMP JUMPDEST PUSH1 0x0 PUSH1 0x1 ISZERO ISZERO PUSH1 0xD PUSH1 0x0 CALLER PUSH20 0xFFFFFFFFFFFFFFFFFFFFFFFFFFFFFFFFFFFFFFFF AND PUSH20 0xFFFFFFFFFFFFFFFFFFFFFFFFFFFFFFFFFFFFFFFF AND DUP2 MSTORE PUSH1 0x20 ADD SWAP1 DUP2 MSTORE PUSH1 0x20 ADD PUSH1 0x0 KECCAK256 PUSH1 0x0 SWAP1 SLOAD SWAP1 PUSH2 0x100 EXP SWAP1 DIV PUSH1 0xFF AND ISZERO ISZERO EQ ISZERO PUSH2 0xD31 JUMPI PUSH1 0x40 MLOAD PUSH32 0x8C379A000000000000000000000000000000000000000000000000000000000 DUP2 MSTORE PUSH1 0x4 ADD PUSH2 0xD28 SWAP1 PUSH2 0x19AD JUMP JUMPDEST PUSH1 0x40 MLOAD DUP1 SWAP2 SUB SWAP1 REVERT JUMPDEST PUSH1 0x0 SLOAD TIMESTAMP LT ISZERO DUP1 ISZERO PUSH2 0xD45 JUMPI POP PUSH1 0x1 SLOAD TIMESTAMP GT ISZERO JUMPDEST PUSH2 0xD84 JUMPI PUSH1 0x40 MLOAD PUSH32 0x8C379A000000000000000000000000000000000000000000000000000000000 DUP2 MSTORE PUSH1 0x4 ADD PUSH2 0xD7B SWAP1 PUSH2 0x190D JUMP JUMPDEST PUSH1 0x40 MLOAD DUP1 SWAP2 SUB SWAP1 REVERT JUMPDEST PUSH1 0x5 SLOAD CALLVALUE LT ISZERO PUSH2 0xDC9 JUMPI PUSH1 0x40 MLOAD PUSH32 0x8C379A000000000000000000000000000000000000000000000000000000000 DUP2 MSTORE PUSH1 0x4 ADD PUSH2 0xDC0 SWAP1 PUSH2 0x196D JUMP JUMPDEST PUSH1 0x40 MLOAD DUP1 SWAP2 SUB SWAP1 REVERT JUMPDEST PUSH1 0x7 SLOAD DUP3 GT ISZERO PUSH2 0xE0E JUMPI PUSH1 0x40 MLOAD PUSH32 0x8C379A000000000000000000000000000000000000000000000000000000000 DUP2 MSTORE PUSH1 0x4 ADD PUSH2 0xE05 SWAP1 PUSH2 0x194D JUMP JUMPDEST PUSH1 0x40 MLOAD DUP1 SWAP2 SUB SWAP1 REVERT JUMPDEST PUSH1 0x0 PUSH1 0xA SLOAD DUP4 PUSH2 0xE1E SWAP2 SWAP1 PUSH2 0x1AF0 JUMP JUMPDEST SWAP1 POP PUSH1 0x2 PUSH1 0x1 SWAP1 SLOAD SWAP1 PUSH2 0x100 EXP SWAP1 DIV PUSH20 0xFFFFFFFFFFFFFFFFFFFFFFFFFFFFFFFFFFFFFFFF AND PUSH20 0xFFFFFFFFFFFFFFFFFFFFFFFFFFFFFFFFFFFFFFFF AND PUSH2 0x8FC CALLVALUE SWAP1 DUP2 ISZERO MUL SWAP1 PUSH1 0x40 MLOAD PUSH1 0x0 PUSH1 0x40 MLOAD DUP1 DUP4 SUB DUP2 DUP6 DUP9 DUP9 CALL SWAP4 POP POP POP POP ISZERO DUP1 ISZERO PUSH2 0xE88 JUMPI RETURNDATASIZE PUSH1 0x0 DUP1 RETURNDATACOPY RETURNDATASIZE PUSH1 0x0 REVERT JUMPDEST POP PUSH1 0x6 PUSH1 0x0 SWAP1 SLOAD SWAP1 PUSH2 0x100 EXP SWAP1 DIV PUSH20 0xFFFFFFFFFFFFFFFFFFFFFFFFFFFFFFFFFFFFFFFF AND PUSH20 0xFFFFFFFFFFFFFFFFFFFFFFFFFFFFFFFFFFFFFFFF AND PUSH4 0x40C10F19 CALLER DUP4 PUSH1 0x40 MLOAD DUP4 PUSH4 0xFFFFFFFF AND PUSH1 0xE0 SHL DUP2 MSTORE PUSH1 0x4 ADD PUSH2 0xEE6 SWAP3 SWAP2 SWAP1 PUSH2 0x1887 JUMP JUMPDEST PUSH1 0x0 PUSH1 0x40 MLOAD DUP1 DUP4 SUB DUP2 PUSH1 0x0 DUP8 DUP1 EXTCODESIZE ISZERO DUP1 ISZERO PUSH2 0xF00 JUMPI PUSH1 0x0 DUP1 REVERT JUMPDEST POP GAS CALL ISZERO DUP1 ISZERO PUSH2 0xF14 JUMPI RETURNDATASIZE PUSH1 0x0 DUP1 RETURNDATACOPY RETURNDATASIZE PUSH1 0x0 REVERT JUMPDEST POP POP POP POP DUP1 PUSH1 0xC PUSH1 0x0 CALLER PUSH20 0xFFFFFFFFFFFFFFFFFFFFFFFFFFFFFFFFFFFFFFFF AND PUSH20 0xFFFFFFFFFFFFFFFFFFFFFFFFFFFFFFFFFFFFFFFF AND DUP2 MSTORE PUSH1 0x20 ADD SWAP1 DUP2 MSTORE PUSH1 0x20 ADD PUSH1 0x0 KECCAK256 DUP2 SWAP1 SSTORE POP PUSH1 0x1 PUSH1 0x9 PUSH1 0x0 DUP3 DUP3 SLOAD PUSH2 0xF6F SWAP2 SWAP1 PUSH2 0x1A9A JUMP JUMPDEST SWAP3 POP POP DUP2 SWAP1 SSTORE POP DUP1 PUSH1 0x8 PUSH1 0x0 DUP3 DUP3 SLOAD PUSH2 0xF88 SWAP2 SWAP1 PUSH2 0x1B4A JUMP JUMPDEST SWAP3 POP POP DUP2 SWAP1 SSTORE POP PUSH1 0x1 SWAP2 POP POP SWAP2 SWAP1 POP JUMP JUMPDEST PUSH1 0x0 PUSH1 0x8 SLOAD SWAP1 POP SWAP1 JUMP JUMPDEST PUSH1 0x4 PUSH1 0x0 SWAP1 SLOAD SWAP1 PUSH2 0x100 EXP SWAP1 DIV PUSH20 0xFFFFFFFFFFFFFFFFFFFFFFFFFFFFFFFFFFFFFFFF AND DUP2 JUMP JUMPDEST PUSH1 0x0 PUSH1 0x2 PUSH1 0x0 SWAP1 SLOAD SWAP1 PUSH2 0x100 EXP SWAP1 DIV PUSH1 0xFF AND SWAP1 POP SWAP1 JUMP JUMPDEST PUSH1 0x4 PUSH1 0x0 SWAP1 SLOAD SWAP1 PUSH2 0x100 EXP SWAP1 DIV PUSH20 0xFFFFFFFFFFFFFFFFFFFFFFFFFFFFFFFFFFFFFFFF AND PUSH20 0xFFFFFFFFFFFFFFFFFFFFFFFFFFFFFFFFFFFFFFFF AND CALLER PUSH20 0xFFFFFFFFFFFFFFFFFFFFFFFFFFFFFFFFFFFFFFFF AND EQ PUSH2 0x1070 JUMPI PUSH1 0x40 MLOAD PUSH32 0x8C379A000000000000000000000000000000000000000000000000000000000 DUP2 MSTORE PUSH1 0x4 ADD PUSH2 0x1067 SWAP1 PUSH2 0x18ED JUMP JUMPDEST PUSH1 0x40 MLOAD DUP1 SWAP2 SUB SWAP1 REVERT JUMPDEST PUSH1 0x2 PUSH1 0x0 SWAP1 SLOAD SWAP1 PUSH2 0x100 EXP SWAP1 DIV PUSH1 0xFF AND PUSH2 0x10BF JUMPI PUSH1 0x40 MLOAD PUSH32 0x8C379A000000000000000000000000000000000000000000000000000000000 DUP2 MSTORE PUSH1 0x4 ADD PUSH2 0x10B6 SWAP1 PUSH2 0x19CD JUMP JUMPDEST PUSH1 0x40 MLOAD DUP1 SWAP2 SUB SWAP1 REVERT JUMPDEST PUSH1 0x0 PUSH1 0x2 PUSH1 0x0 PUSH2 0x100 EXP DUP2 SLOAD DUP2 PUSH1 0xFF MUL NOT AND SWAP1 DUP4 ISZERO ISZERO MUL OR SWAP1 SSTORE POP JUMP JUMPDEST PUSH1 0x60 PUSH1 0x6 PUSH1 0x0 SWAP1 SLOAD SWAP1 PUSH2 0x100 EXP SWAP1 DIV PUSH20 0xFFFFFFFFFFFFFFFFFFFFFFFFFFFFFFFFFFFFFFFF AND PUSH20 0xFFFFFFFFFFFFFFFFFFFFFFFFFFFFFFFFFFFFFFFF AND PUSH4 0x95D89B41 PUSH1 0x40 MLOAD DUP2 PUSH4 0xFFFFFFFF AND PUSH1 0xE0 SHL DUP2 MSTORE PUSH1 0x4 ADD PUSH1 0x0 PUSH1 0x40 MLOAD DUP1 DUP4 SUB DUP2 DUP7 DUP1 EXTCODESIZE ISZERO DUP1 ISZERO PUSH2 0x1146 JUMPI PUSH1 0x0 DUP1 REVERT JUMPDEST POP GAS STATICCALL ISZERO DUP1 ISZERO PUSH2 0x115A JUMPI RETURNDATASIZE PUSH1 0x0 DUP1 RETURNDATACOPY RETURNDATASIZE PUSH1 0x0 REVERT JUMPDEST POP POP POP POP PUSH1 0x40 MLOAD RETURNDATASIZE PUSH1 0x0 DUP3 RETURNDATACOPY RETURNDATASIZE PUSH1 0x1F NOT PUSH1 0x1F DUP3 ADD AND DUP3 ADD DUP1 PUSH1 0x40 MSTORE POP DUP2 ADD SWAP1 PUSH2 0x1183 SWAP2 SWAP1 PUSH2 0x15FB JUMP JUMPDEST SWAP1 POP SWAP1 JUMP JUMPDEST PUSH1 0x3 PUSH1 0x0 SWAP1 SLOAD SWAP1 PUSH2 0x100 EXP SWAP1 DIV PUSH20 0xFFFFFFFFFFFFFFFFFFFFFFFFFFFFFFFFFFFFFFFF AND DUP2 JUMP JUMPDEST PUSH1 0x0 PUSH1 0x5 SLOAD SWAP1 POP SWAP1 JUMP JUMPDEST PUSH1 0xA SLOAD DUP2 JUMP JUMPDEST PUSH1 0x9 SLOAD DUP2 JUMP JUMPDEST PUSH1 0xD PUSH1 0x20 MSTORE DUP1 PUSH1 0x0 MSTORE PUSH1 0x40 PUSH1 0x0 KECCAK256 PUSH1 0x0 SWAP2 POP SLOAD SWAP1 PUSH2 0x100 EXP SWAP1 DIV PUSH1 0xFF AND DUP2 JUMP JUMPDEST PUSH1 0x0 PUSH1 0x4 PUSH1 0x0 SWAP1 SLOAD SWAP1 PUSH2 0x100 EXP SWAP1 DIV PUSH20 0xFFFFFFFFFFFFFFFFFFFFFFFFFFFFFFFFFFFFFFFF AND PUSH20 0xFFFFFFFFFFFFFFFFFFFFFFFFFFFFFFFFFFFFFFFF AND CALLER PUSH20 0xFFFFFFFFFFFFFFFFFFFFFFFFFFFFFFFFFFFFFFFF AND EQ PUSH2 0x1276 JUMPI PUSH1 0x40 MLOAD PUSH32 0x8C379A000000000000000000000000000000000000000000000000000000000 DUP2 MSTORE PUSH1 0x4 ADD PUSH2 0x126D SWAP1 PUSH2 0x18ED JUMP JUMPDEST PUSH1 0x40 MLOAD DUP1 SWAP2 SUB SWAP1 REVERT JUMPDEST PUSH1 0x0 PUSH20 0xFFFFFFFFFFFFFFFFFFFFFFFFFFFFFFFFFFFFFFFF AND DUP3 PUSH20 0xFFFFFFFFFFFFFFFFFFFFFFFFFFFFFFFFFFFFFFFF AND EQ ISZERO PUSH2 0x12E6 JUMPI PUSH1 0x40 MLOAD PUSH32 0x8C379A000000000000000000000000000000000000000000000000000000000 DUP2 MSTORE PUSH1 0x4 ADD PUSH2 0x12DD SWAP1 PUSH2 0x198D JUMP JUMPDEST PUSH1 0x40 MLOAD DUP1 SWAP2 SUB SWAP1 REVERT JUMPDEST PUSH1 0x1 ISZERO ISZERO PUSH1 0xD PUSH1 0x0 DUP5 PUSH20 0xFFFFFFFFFFFFFFFFFFFFFFFFFFFFFFFFFFFFFFFF AND PUSH20 0xFFFFFFFFFFFFFFFFFFFFFFFFFFFFFFFFFFFFFFFF AND DUP2 MSTORE PUSH1 0x20 ADD SWAP1 DUP2 MSTORE PUSH1 0x20 ADD PUSH1 0x0 KECCAK256 PUSH1 0x0 SWAP1 SLOAD SWAP1 PUSH2 0x100 EXP SWAP1 DIV PUSH1 0xFF AND ISZERO ISZERO EQ ISZERO PUSH2 0x137A JUMPI PUSH1 0x40 MLOAD PUSH32 0x8C379A000000000000000000000000000000000000000000000000000000000 DUP2 MSTORE PUSH1 0x4 ADD PUSH2 0x1371 SWAP1 PUSH2 0x192D JUMP JUMPDEST PUSH1 0x40 MLOAD DUP1 SWAP2 SUB SWAP1 REVERT JUMPDEST DUP2 PUSH1 0x4 PUSH1 0x0 PUSH2 0x100 EXP DUP2 SLOAD DUP2 PUSH20 0xFFFFFFFFFFFFFFFFFFFFFFFFFFFFFFFFFFFFFFFF MUL NOT AND SWAP1 DUP4 PUSH20 0xFFFFFFFFFFFFFFFFFFFFFFFFFFFFFFFFFFFFFFFF AND MUL OR SWAP1 SSTORE POP PUSH1 0x1 SWAP1 POP SWAP2 SWAP1 POP JUMP JUMPDEST PUSH1 0x4 PUSH1 0x0 SWAP1 SLOAD SWAP1 PUSH2 0x100 EXP SWAP1 DIV PUSH20 0xFFFFFFFFFFFFFFFFFFFFFFFFFFFFFFFFFFFFFFFF AND PUSH20 0xFFFFFFFFFFFFFFFFFFFFFFFFFFFFFFFFFFFFFFFF AND CALLER PUSH20 0xFFFFFFFFFFFFFFFFFFFFFFFFFFFFFFFFFFFFFFFF AND EQ PUSH2 0x1454 JUMPI PUSH1 0x40 MLOAD PUSH32 0x8C379A000000000000000000000000000000000000000000000000000000000 DUP2 MSTORE PUSH1 0x4 ADD PUSH2 0x144B SWAP1 PUSH2 0x18ED JUMP JUMPDEST PUSH1 0x40 MLOAD DUP1 SWAP2 SUB SWAP1 REVERT JUMPDEST DUP1 PUSH1 0xD PUSH1 0x0 DUP5 PUSH20 0xFFFFFFFFFFFFFFFFFFFFFFFFFFFFFFFFFFFFFFFF AND PUSH20 0xFFFFFFFFFFFFFFFFFFFFFFFFFFFFFFFFFFFFFFFF AND DUP2 MSTORE PUSH1 0x20 ADD SWAP1 DUP2 MSTORE PUSH1 0x20 ADD PUSH1 0x0 KECCAK256 PUSH1 0x0 PUSH2 0x100 EXP DUP2 SLOAD DUP2 PUSH1 0xFF MUL NOT AND SWAP1 DUP4 ISZERO ISZERO MUL OR SWAP1 SSTORE POP POP POP JUMP JUMPDEST PUSH1 0x0 SLOAD DUP2 JUMP JUMPDEST PUSH1 0x0 PUSH2 0x14C8 PUSH2 0x14C3 DUP5 PUSH2 0x1A4D JUMP JUMPDEST PUSH2 0x1A28 JUMP JUMPDEST SWAP1 POP DUP3 DUP2 MSTORE PUSH1 0x20 DUP2 ADD DUP5 DUP5 DUP5 ADD GT ISZERO PUSH2 0x14E4 JUMPI PUSH2 0x14E3 PUSH2 0x1C9A JUMP JUMPDEST JUMPDEST PUSH2 0x14EF DUP5 DUP3 DUP6 PUSH2 0x1BD3 JUMP JUMPDEST POP SWAP4 SWAP3 POP POP POP JUMP JUMPDEST PUSH1 0x0 DUP2 CALLDATALOAD SWAP1 POP PUSH2 0x1506 DUP2 PUSH2 0x1E77 JUMP JUMPDEST SWAP3 SWAP2 POP POP JUMP JUMPDEST PUSH1 0x0 DUP2 CALLDATALOAD SWAP1 POP PUSH2 0x151B DUP2 PUSH2 0x1E8E JUMP JUMPDEST SWAP3 SWAP2 POP POP JUMP JUMPDEST PUSH1 0x0 DUP3 PUSH1 0x1F DUP4 ADD SLT PUSH2 0x1536 JUMPI PUSH2 0x1535 PUSH2 0x1C95 JUMP JUMPDEST JUMPDEST DUP2 MLOAD PUSH2 0x1546 DUP5 DUP3 PUSH1 0x20 DUP7 ADD PUSH2 0x14B5 JUMP JUMPDEST SWAP2 POP POP SWAP3 SWAP2 POP POP JUMP JUMPDEST PUSH1 0x0 DUP2 CALLDATALOAD SWAP1 POP PUSH2 0x155E DUP2 PUSH2 0x1EA5 JUMP JUMPDEST SWAP3 SWAP2 POP POP JUMP JUMPDEST PUSH1 0x0 DUP2 MLOAD SWAP1 POP PUSH2 0x1573 DUP2 PUSH2 0x1EA5 JUMP JUMPDEST SWAP3 SWAP2 POP POP JUMP JUMPDEST PUSH1 0x0 DUP2 MLOAD SWAP1 POP PUSH2 0x1588 DUP2 PUSH2 0x1EBC JUMP JUMPDEST SWAP3 SWAP2 POP POP JUMP JUMPDEST PUSH1 0x0 PUSH1 0x20 DUP3 DUP5 SUB SLT ISZERO PUSH2 0x15A4 JUMPI PUSH2 0x15A3 PUSH2 0x1CA4 JUMP JUMPDEST JUMPDEST PUSH1 0x0 PUSH2 0x15B2 DUP5 DUP3 DUP6 ADD PUSH2 0x14F7 JUMP JUMPDEST SWAP2 POP POP SWAP3 SWAP2 POP POP JUMP JUMPDEST PUSH1 0x0 DUP1 PUSH1 0x40 DUP4 DUP6 SUB SLT ISZERO PUSH2 0x15D2 JUMPI PUSH2 0x15D1 PUSH2 0x1CA4 JUMP JUMPDEST JUMPDEST PUSH1 0x0 PUSH2 0x15E0 DUP6 DUP3 DUP7 ADD PUSH2 0x14F7 JUMP JUMPDEST SWAP3 POP POP PUSH1 0x20 PUSH2 0x15F1 DUP6 DUP3 DUP7 ADD PUSH2 0x150C JUMP JUMPDEST SWAP2 POP POP SWAP3 POP SWAP3 SWAP1 POP JUMP JUMPDEST PUSH1 0x0 PUSH1 0x20 DUP3 DUP5 SUB SLT ISZERO PUSH2 0x1611 JUMPI PUSH2 0x1610 PUSH2 0x1CA4 JUMP JUMPDEST JUMPDEST PUSH1 0x0 DUP3 ADD MLOAD PUSH8 0xFFFFFFFFFFFFFFFF DUP2 GT ISZERO PUSH2 0x162F JUMPI PUSH2 0x162E PUSH2 0x1C9F JUMP JUMPDEST JUMPDEST PUSH2 0x163B DUP5 DUP3 DUP6 ADD PUSH2 0x1521 JUMP JUMPDEST SWAP2 POP POP SWAP3 SWAP2 POP POP JUMP JUMPDEST PUSH1 0x0 PUSH1 0x20 DUP3 DUP5 SUB SLT ISZERO PUSH2 0x165A JUMPI PUSH2 0x1659 PUSH2 0x1CA4 JUMP JUMPDEST JUMPDEST PUSH1 0x0 PUSH2 0x1668 DUP5 DUP3 DUP6 ADD PUSH2 0x154F JUMP JUMPDEST SWAP2 POP POP SWAP3 SWAP2 POP POP JUMP JUMPDEST PUSH1 0x0 PUSH1 0x20 DUP3 DUP5 SUB SLT ISZERO PUSH2 0x1687 JUMPI PUSH2 0x1686 PUSH2 0x1CA4 JUMP JUMPDEST JUMPDEST PUSH1 0x0 PUSH2 0x1695 DUP5 DUP3 DUP6 ADD PUSH2 0x1564 JUMP JUMPDEST SWAP2 POP POP SWAP3 SWAP2 POP POP JUMP JUMPDEST PUSH1 0x0 PUSH1 0x20 DUP3 DUP5 SUB SLT ISZERO PUSH2 0x16B4 JUMPI PUSH2 0x16B3 PUSH2 0x1CA4 JUMP JUMPDEST JUMPDEST PUSH1 0x0 PUSH2 0x16C2 DUP5 DUP3 DUP6 ADD PUSH2 0x1579 JUMP JUMPDEST SWAP2 POP POP SWAP3 SWAP2 POP POP JUMP JUMPDEST PUSH2 0x16D4 DUP2 PUSH2 0x1B7E JUMP JUMPDEST DUP3 MSTORE POP POP JUMP JUMPDEST PUSH2 0x16E3 DUP2 PUSH2 0x1B90 JUMP JUMPDEST DUP3 MSTORE POP POP JUMP JUMPDEST PUSH1 0x0 PUSH2 0x16F4 DUP3 PUSH2 0x1A7E JUMP JUMPDEST PUSH2 0x16FE DUP2 DUP6 PUSH2 0x1A89 JUMP JUMPDEST SWAP4 POP PUSH2 0x170E DUP2 DUP6 PUSH1 0x20 DUP7 ADD PUSH2 0x1BD3 JUMP JUMPDEST PUSH2 0x1717 DUP2 PUSH2 0x1CA9 JUMP JUMPDEST DUP5 ADD SWAP2 POP POP SWAP3 SWAP2 POP POP JUMP JUMPDEST PUSH1 0x0 PUSH2 0x172F PUSH1 0x15 DUP4 PUSH2 0x1A89 JUMP JUMPDEST SWAP2 POP PUSH2 0x173A DUP3 PUSH2 0x1CBA JUMP JUMPDEST PUSH1 0x20 DUP3 ADD SWAP1 POP SWAP2 SWAP1 POP JUMP JUMPDEST PUSH1 0x0 PUSH2 0x1752 PUSH1 0x17 DUP4 PUSH2 0x1A89 JUMP JUMPDEST SWAP2 POP PUSH2 0x175D DUP3 PUSH2 0x1CE3 JUMP JUMPDEST PUSH1 0x20 DUP3 ADD SWAP1 POP SWAP2 SWAP1 POP JUMP JUMPDEST PUSH1 0x0 PUSH2 0x1775 PUSH1 0x19 DUP4 PUSH2 0x1A89 JUMP JUMPDEST SWAP2 POP PUSH2 0x1780 DUP3 PUSH2 0x1D0C JUMP JUMPDEST PUSH1 0x20 DUP3 ADD SWAP1 POP SWAP2 SWAP1 POP JUMP JUMPDEST PUSH1 0x0 PUSH2 0x1798 PUSH1 0x2C DUP4 PUSH2 0x1A89 JUMP JUMPDEST SWAP2 POP PUSH2 0x17A3 DUP3 PUSH2 0x1D35 JUMP JUMPDEST PUSH1 0x40 DUP3 ADD SWAP1 POP SWAP2 SWAP1 POP JUMP JUMPDEST PUSH1 0x0 PUSH2 0x17BB PUSH1 0x19 DUP4 PUSH2 0x1A89 JUMP JUMPDEST SWAP2 POP PUSH2 0x17C6 DUP3 PUSH2 0x1D84 JUMP JUMPDEST PUSH1 0x20 DUP3 ADD SWAP1 POP SWAP2 SWAP1 POP JUMP JUMPDEST PUSH1 0x0 PUSH2 0x17DE PUSH1 0x1E DUP4 PUSH2 0x1A89 JUMP JUMPDEST SWAP2 POP PUSH2 0x17E9 DUP3 PUSH2 0x1DAD JUMP JUMPDEST PUSH1 0x20 DUP3 ADD SWAP1 POP SWAP2 SWAP1 POP JUMP JUMPDEST PUSH1 0x0 PUSH2 0x1801 PUSH1 0x2F DUP4 PUSH2 0x1A89 JUMP JUMPDEST SWAP2 POP PUSH2 0x180C DUP3 PUSH2 0x1DD6 JUMP JUMPDEST PUSH1 0x40 DUP3 ADD SWAP1 POP SWAP2 SWAP1 POP JUMP JUMPDEST PUSH1 0x0 PUSH2 0x1824 PUSH1 0x1F DUP4 PUSH2 0x1A89 JUMP JUMPDEST SWAP2 POP PUSH2 0x182F DUP3 PUSH2 0x1E25 JUMP JUMPDEST PUSH1 0x20 DUP3 ADD SWAP1 POP SWAP2 SWAP1 POP JUMP JUMPDEST PUSH1 0x0 PUSH2 0x1847 PUSH1 0x1A DUP4 PUSH2 0x1A89 JUMP JUMPDEST SWAP2 POP PUSH2 0x1852 DUP3 PUSH2 0x1E4E JUMP JUMPDEST PUSH1 0x20 DUP3 ADD SWAP1 POP SWAP2 SWAP1 POP JUMP JUMPDEST PUSH2 0x1866 DUP2 PUSH2 0x1BBC JUMP JUMPDEST DUP3 MSTORE POP POP JUMP JUMPDEST PUSH1 0x0 PUSH1 0x20 DUP3 ADD SWAP1 POP PUSH2 0x1881 PUSH1 0x0 DUP4 ADD DUP5 PUSH2 0x16CB JUMP JUMPDEST SWAP3 SWAP2 POP POP JUMP JUMPDEST PUSH1 0x0 PUSH1 0x40 DUP3 ADD SWAP1 POP PUSH2 0x189C PUSH1 0x0 DUP4 ADD DUP6 PUSH2 0x16CB JUMP JUMPDEST PUSH2 0x18A9 PUSH1 0x20 DUP4 ADD DUP5 PUSH2 0x185D JUMP JUMPDEST SWAP4 SWAP3 POP POP POP JUMP JUMPDEST PUSH1 0x0 PUSH1 0x20 DUP3 ADD SWAP1 POP PUSH2 0x18C5 PUSH1 0x0 DUP4 ADD DUP5 PUSH2 0x16DA JUMP JUMPDEST SWAP3 SWAP2 POP POP JUMP JUMPDEST PUSH1 0x0 PUSH1 0x20 DUP3 ADD SWAP1 POP DUP2 DUP2 SUB PUSH1 0x0 DUP4 ADD MSTORE PUSH2 0x18E5 DUP2 DUP5 PUSH2 0x16E9 JUMP JUMPDEST SWAP1 POP SWAP3 SWAP2 POP POP JUMP JUMPDEST PUSH1 0x0 PUSH1 0x20 DUP3 ADD SWAP1 POP DUP2 DUP2 SUB PUSH1 0x0 DUP4 ADD MSTORE PUSH2 0x1906 DUP2 PUSH2 0x1722 JUMP JUMPDEST SWAP1 POP SWAP2 SWAP1 POP JUMP JUMPDEST PUSH1 0x0 PUSH1 0x20 DUP3 ADD SWAP1 POP DUP2 DUP2 SUB PUSH1 0x0 DUP4 ADD MSTORE PUSH2 0x1926 DUP2 PUSH2 0x1745 JUMP JUMPDEST SWAP1 POP SWAP2 SWAP1 POP JUMP JUMPDEST PUSH1 0x0 PUSH1 0x20 DUP3 ADD SWAP1 POP DUP2 DUP2 SUB PUSH1 0x0 DUP4 ADD MSTORE PUSH2 0x1946 DUP2 PUSH2 0x1768 JUMP JUMPDEST SWAP1 POP SWAP2 SWAP1 POP JUMP JUMPDEST PUSH1 0x0 PUSH1 0x20 DUP3 ADD SWAP1 POP DUP2 DUP2 SUB PUSH1 0x0 DUP4 ADD MSTORE PUSH2 0x1966 DUP2 PUSH2 0x178B JUMP JUMPDEST SWAP1 POP SWAP2 SWAP1 POP JUMP JUMPDEST PUSH1 0x0 PUSH1 0x20 DUP3 ADD SWAP1 POP DUP2 DUP2 SUB PUSH1 0x0 DUP4 ADD MSTORE PUSH2 0x1986 DUP2 PUSH2 0x17AE JUMP JUMPDEST SWAP1 POP SWAP2 SWAP1 POP JUMP JUMPDEST PUSH1 0x0 PUSH1 0x20 DUP3 ADD SWAP1 POP DUP2 DUP2 SUB PUSH1 0x0 DUP4 ADD MSTORE PUSH2 0x19A6 DUP2 PUSH2 0x17D1 JUMP JUMPDEST SWAP1 POP SWAP2 SWAP1 POP JUMP JUMPDEST PUSH1 0x0 PUSH1 0x20 DUP3 ADD SWAP1 POP DUP2 DUP2 SUB PUSH1 0x0 DUP4 ADD MSTORE PUSH2 0x19C6 DUP2 PUSH2 0x17F4 JUMP JUMPDEST SWAP1 POP SWAP2 SWAP1 POP JUMP JUMPDEST PUSH1 0x0 PUSH1 0x20 DUP3 ADD SWAP1 POP DUP2 DUP2 SUB PUSH1 0x0 DUP4 ADD MSTORE PUSH2 0x19E6 DUP2 PUSH2 0x1817 JUMP JUMPDEST SWAP1 POP SWAP2 SWAP1 POP JUMP JUMPDEST PUSH1 0x0 PUSH1 0x20 DUP3 ADD SWAP1 POP DUP2 DUP2 SUB PUSH1 0x0 DUP4 ADD MSTORE PUSH2 0x1A06 DUP2 PUSH2 0x183A JUMP JUMPDEST SWAP1 POP SWAP2 SWAP1 POP JUMP JUMPDEST PUSH1 0x0 PUSH1 0x20 DUP3 ADD SWAP1 POP PUSH2 0x1A22 PUSH1 0x0 DUP4 ADD DUP5 PUSH2 0x185D JUMP JUMPDEST SWAP3 SWAP2 POP POP JUMP JUMPDEST PUSH1 0x0 PUSH2 0x1A32 PUSH2 0x1A43 JUMP JUMPDEST SWAP1 POP PUSH2 0x1A3E DUP3 DUP3 PUSH2 0x1C06 JUMP JUMPDEST SWAP2 SWAP1 POP JUMP JUMPDEST PUSH1 0x0 PUSH1 0x40 MLOAD SWAP1 POP SWAP1 JUMP JUMPDEST PUSH1 0x0 PUSH8 0xFFFFFFFFFFFFFFFF DUP3 GT ISZERO PUSH2 0x1A68 JUMPI PUSH2 0x1A67 PUSH2 0x1C66 JUMP JUMPDEST JUMPDEST PUSH2 0x1A71 DUP3 PUSH2 0x1CA9 JUMP JUMPDEST SWAP1 POP PUSH1 0x20 DUP2 ADD SWAP1 POP SWAP2 SWAP1 POP JUMP JUMPDEST PUSH1 0x0 DUP2 MLOAD SWAP1 POP SWAP2 SWAP1 POP JUMP JUMPDEST PUSH1 0x0 DUP3 DUP3 MSTORE PUSH1 0x20 DUP3 ADD SWAP1 POP SWAP3 SWAP2 POP POP JUMP JUMPDEST PUSH1 0x0 PUSH2 0x1AA5 DUP3 PUSH2 0x1BBC JUMP JUMPDEST SWAP2 POP PUSH2 0x1AB0 DUP4 PUSH2 0x1BBC JUMP JUMPDEST SWAP3 POP DUP3 PUSH32 0xFFFFFFFFFFFFFFFFFFFFFFFFFFFFFFFFFFFFFFFFFFFFFFFFFFFFFFFFFFFFFFFF SUB DUP3 GT ISZERO PUSH2 0x1AE5 JUMPI PUSH2 0x1AE4 PUSH2 0x1C37 JUMP JUMPDEST JUMPDEST DUP3 DUP3 ADD SWAP1 POP SWAP3 SWAP2 POP POP JUMP JUMPDEST PUSH1 0x0 PUSH2 0x1AFB DUP3 PUSH2 0x1BBC JUMP JUMPDEST SWAP2 POP PUSH2 0x1B06 DUP4 PUSH2 0x1BBC JUMP JUMPDEST SWAP3 POP DUP2 PUSH32 0xFFFFFFFFFFFFFFFFFFFFFFFFFFFFFFFFFFFFFFFFFFFFFFFFFFFFFFFFFFFFFFFF DIV DUP4 GT DUP3 ISZERO ISZERO AND ISZERO PUSH2 0x1B3F JUMPI PUSH2 0x1B3E PUSH2 0x1C37 JUMP JUMPDEST JUMPDEST DUP3 DUP3 MUL SWAP1 POP SWAP3 SWAP2 POP POP JUMP JUMPDEST PUSH1 0x0 PUSH2 0x1B55 DUP3 PUSH2 0x1BBC JUMP JUMPDEST SWAP2 POP PUSH2 0x1B60 DUP4 PUSH2 0x1BBC JUMP JUMPDEST SWAP3 POP DUP3 DUP3 LT ISZERO PUSH2 0x1B73 JUMPI PUSH2 0x1B72 PUSH2 0x1C37 JUMP JUMPDEST JUMPDEST DUP3 DUP3 SUB SWAP1 POP SWAP3 SWAP2 POP POP JUMP JUMPDEST PUSH1 0x0 PUSH2 0x1B89 DUP3 PUSH2 0x1B9C JUMP JUMPDEST SWAP1 POP SWAP2 SWAP1 POP JUMP JUMPDEST PUSH1 0x0 DUP2 ISZERO ISZERO SWAP1 POP SWAP2 SWAP1 POP JUMP JUMPDEST PUSH1 0x0 PUSH20 0xFFFFFFFFFFFFFFFFFFFFFFFFFFFFFFFFFFFFFFFF DUP3 AND SWAP1 POP SWAP2 SWAP1 POP JUMP JUMPDEST PUSH1 0x0 DUP2 SWAP1 POP SWAP2 SWAP1 POP JUMP JUMPDEST PUSH1 0x0 PUSH1 0xFF DUP3 AND SWAP1 POP SWAP2 SWAP1 POP JUMP JUMPDEST PUSH1 0x0 JUMPDEST DUP4 DUP2 LT ISZERO PUSH2 0x1BF1 JUMPI DUP1 DUP3 ADD MLOAD DUP2 DUP5 ADD MSTORE PUSH1 0x20 DUP2 ADD SWAP1 POP PUSH2 0x1BD6 JUMP JUMPDEST DUP4 DUP2 GT ISZERO PUSH2 0x1C00 JUMPI PUSH1 0x0 DUP5 DUP5 ADD MSTORE JUMPDEST POP POP POP POP JUMP JUMPDEST PUSH2 0x1C0F DUP3 PUSH2 0x1CA9 JUMP JUMPDEST DUP2 ADD DUP2 DUP2 LT PUSH8 0xFFFFFFFFFFFFFFFF DUP3 GT OR ISZERO PUSH2 0x1C2E JUMPI PUSH2 0x1C2D PUSH2 0x1C66 JUMP JUMPDEST JUMPDEST DUP1 PUSH1 0x40 MSTORE POP POP POP JUMP JUMPDEST PUSH32 0x4E487B7100000000000000000000000000000000000000000000000000000000 PUSH1 0x0 MSTORE PUSH1 0x11 PUSH1 0x4 MSTORE PUSH1 0x24 PUSH1 0x0 REVERT JUMPDEST PUSH32 0x4E487B7100000000000000000000000000000000000000000000000000000000 PUSH1 0x0 MSTORE PUSH1 0x41 PUSH1 0x4 MSTORE PUSH1 0x24 PUSH1 0x0 REVERT JUMPDEST PUSH1 0x0 DUP1 REVERT JUMPDEST PUSH1 0x0 DUP1 REVERT JUMPDEST PUSH1 0x0 DUP1 REVERT JUMPDEST PUSH1 0x0 DUP1 REVERT JUMPDEST PUSH1 0x0 PUSH1 0x1F NOT PUSH1 0x1F DUP4 ADD AND SWAP1 POP SWAP2 SWAP1 POP JUMP JUMPDEST PUSH32 0x6F6E6C79206F6E7765722063616E207573652069740000000000000000000000 PUSH1 0x0 DUP3 ADD MSTORE POP JUMP JUMPDEST PUSH32 0x73616C65206973206E6F74207374617274656420796574000000000000000000 PUSH1 0x0 DUP3 ADD MSTORE POP JUMP JUMPDEST PUSH32 0x6974206973206120626C61636B6C697374206164647265737300000000000000 PUSH1 0x0 DUP3 ADD MSTORE POP JUMP JUMPDEST PUSH32 0x7765206F66666572206C696D6974656420616D6F756E74206F6620746F6B656E PUSH1 0x0 DUP3 ADD MSTORE PUSH32 0x7320696E2070726573616C650000000000000000000000000000000000000000 PUSH1 0x20 DUP3 ADD MSTORE POP JUMP JUMPDEST PUSH32 0x6D696E696D756D20707269636520697320317920657468657200000000000000 PUSH1 0x0 DUP3 ADD MSTORE POP JUMP JUMPDEST PUSH32 0x7A65726F20616464726573732063616E6E6F74206220616E206F776E65720000 PUSH1 0x0 DUP3 ADD MSTORE POP JUMP JUMPDEST PUSH32 0x626C636B6C697374206164647265737365732063616E6F6E6F742074616B6520 PUSH1 0x0 DUP3 ADD MSTORE PUSH32 0x7061727420696E2070726573616C650000000000000000000000000000000000 PUSH1 0x20 DUP3 ADD MSTORE POP JUMP JUMPDEST PUSH32 0x73616C6520697320616C7265616479206E6F7420737461727465642079657400 PUSH1 0x0 DUP3 ADD MSTORE POP JUMP JUMPDEST PUSH32 0x7A65726F206164647265737320697320646973616C6C6F776564000000000000 PUSH1 0x0 DUP3 ADD MSTORE POP JUMP JUMPDEST PUSH2 0x1E80 DUP2 PUSH2 0x1B7E JUMP JUMPDEST DUP2 EQ PUSH2 0x1E8B JUMPI PUSH1 0x0 DUP1 REVERT JUMPDEST POP JUMP JUMPDEST PUSH2 0x1E97 DUP2 PUSH2 0x1B90 JUMP JUMPDEST DUP2 EQ PUSH2 0x1EA2 JUMPI PUSH1 0x0 DUP1 REVERT JUMPDEST POP JUMP JUMPDEST PUSH2 0x1EAE DUP2 PUSH2 0x1BBC JUMP JUMPDEST DUP2 EQ PUSH2 0x1EB9 JUMPI PUSH1 0x0 DUP1 REVERT JUMPDEST POP JUMP JUMPDEST PUSH2 0x1EC5 DUP2 PUSH2 0x1BC6 JUMP JUMPDEST DUP2 EQ PUSH2 0x1ED0 JUMPI PUSH1 0x0 DUP1 REVERT JUMPDEST POP JUMP INVALID LOG2 PUSH5 0x6970667358 0x22 SLT KECCAK256 PUSH32 0x4200B742938CBF25A11AFF2598C96B449BDE82B8C1CE3AC6B974A8BD3ACAD764 PUSH20 0x6F6C634300080700330000000000000000000000 "
				},
				"gasEstimates": {
					"creation": {
						"codeDepositCost": "1589000",
						"executionCost": "infinite",
						"totalCost": "infinite"
					},
					"external": {
						"Amount_Rate()": "2518",
						"BlackList_Addresses(address)": "2889",
						"BuyTokens(uint256)": "infinite",
						"ChangeOwner(address)": "29462",
						"CheckingRemainingPresaleTokens()": "2527",
						"CloseSale()": "28823",
						"EndTime()": "2497",
						"GetEndingTime()": "2549",
						"GetStartTimeofPresale()": "2548",
						"GetSymbol()": "infinite",
						"GetTokenName()": "infinite",
						"MaxTokensToSell()": "2496",
						"OverAllTotalSupply()": "infinite",
						"Owner()": "2559",
						"Owners_Wallet()": "2610",
						"PresaleHolders(address)": "2860",
						"Rate()": "2497",
						"RemainingTokensToSell()": "2475",
						"Sale()": "2546",
						"SetUpBlackListAddress(address,bool)": "27249",
						"Setup_Address(address)": "99822",
						"StartTime()": "2539",
						"TokenAddress()": "2559",
						"balanceOf(address)": "infinite",
						"decimalss()": "infinite",
						"getPriceOFPresaleToken()": "2504",
						"isSale_Open()": "2518",
						"numberOfPresaleHolders()": "2549",
						"numberOfPresaleTokensHolder()": "2540",
						"updateRate(uint256)": "24735"
					}
				},
				"methodIdentifiers": {
					"Amount_Rate()": "e6be9516",
					"BlackList_Addresses(address)": "f0b4e8f7",
					"BuyTokens(uint256)": "89749adb",
					"ChangeOwner(address)": "f2853292",
					"CheckingRemainingPresaleTokens()": "914690ed",
					"CloseSale()": "bd998dc8",
					"EndTime()": "33360978",
					"GetEndingTime()": "47fa94e9",
					"GetStartTimeofPresale()": "80de983b",
					"GetSymbol()": "c0497ca6",
					"GetTokenName()": "388981ad",
					"MaxTokensToSell()": "6abfde00",
					"OverAllTotalSupply()": "11b97bef",
					"Owner()": "b4a99a4e",
					"Owners_Wallet()": "179945c3",
					"PresaleHolders(address)": "80efea55",
					"Rate()": "1b8e94a1",
					"RemainingTokensToSell()": "31627c26",
					"Sale()": "b78f9de7",
					"SetUpBlackListAddress(address,bool)": "fa08af88",
					"Setup_Address(address)": "128d0d02",
					"StartTime()": "fc4a4a1e",
					"TokenAddress()": "c2cba306",
					"balanceOf(address)": "70a08231",
					"decimalss()": "24f0bd09",
					"getPriceOFPresaleToken()": "c43a7752",
					"isSale_Open()": "11aed7b3",
					"numberOfPresaleHolders()": "2561eea8",
					"numberOfPresaleTokensHolder()": "edbb7f77",
					"updateRate(uint256)": "69ea1771"
				}
			},
			"storageLayout": {
				"storage": [
					{
						"astId": 83,
						"contract": "contracts/ICO_Contract.sol:ICO_Contract",
						"label": "StartTime",
						"offset": 0,
						"slot": "0",
						"type": "t_uint256"
					},
					{
						"astId": 85,
						"contract": "contracts/ICO_Contract.sol:ICO_Contract",
						"label": "EndTime",
						"offset": 0,
						"slot": "1",
						"type": "t_uint256"
					},
					{
						"astId": 87,
						"contract": "contracts/ICO_Contract.sol:ICO_Contract",
						"label": "isSale_Open",
						"offset": 0,
						"slot": "2",
						"type": "t_bool"
					},
					{
						"astId": 89,
						"contract": "contracts/ICO_Contract.sol:ICO_Contract",
						"label": "Owners_Wallet",
						"offset": 1,
						"slot": "2",
						"type": "t_address"
					},
					{
						"astId": 91,
						"contract": "contracts/ICO_Contract.sol:ICO_Contract",
						"label": "TokenAddress",
						"offset": 0,
						"slot": "3",
						"type": "t_address"
					},
					{
						"astId": 93,
						"contract": "contracts/ICO_Contract.sol:ICO_Contract",
						"label": "Owner",
						"offset": 0,
						"slot": "4",
						"type": "t_address"
					},
					{
						"astId": 95,
						"contract": "contracts/ICO_Contract.sol:ICO_Contract",
						"label": "Rate",
						"offset": 0,
						"slot": "5",
						"type": "t_uint256"
					},
					{
						"astId": 98,
						"contract": "contracts/ICO_Contract.sol:ICO_Contract",
						"label": "Token",
						"offset": 0,
						"slot": "6",
						"type": "t_contract(I_ICO_Token)81"
					},
					{
						"astId": 100,
						"contract": "contracts/ICO_Contract.sol:ICO_Contract",
						"label": "MaxTokensToSell",
						"offset": 0,
						"slot": "7",
						"type": "t_uint256"
					},
					{
						"astId": 102,
						"contract": "contracts/ICO_Contract.sol:ICO_Contract",
						"label": "RemainingTokensToSell",
						"offset": 0,
						"slot": "8",
						"type": "t_uint256"
					},
					{
						"astId": 104,
						"contract": "contracts/ICO_Contract.sol:ICO_Contract",
						"label": "numberOfPresaleTokensHolder",
						"offset": 0,
						"slot": "9",
						"type": "t_uint256"
					},
					{
						"astId": 106,
						"contract": "contracts/ICO_Contract.sol:ICO_Contract",
						"label": "Amount_Rate",
						"offset": 0,
						"slot": "10",
						"type": "t_uint256"
					},
					{
						"astId": 108,
						"contract": "contracts/ICO_Contract.sol:ICO_Contract",
						"label": "isSetup",
						"offset": 0,
						"slot": "11",
						"type": "t_bool"
					},
					{
						"astId": 112,
						"contract": "contracts/ICO_Contract.sol:ICO_Contract",
						"label": "PresaleHolders",
						"offset": 0,
						"slot": "12",
						"type": "t_mapping(t_address,t_uint256)"
					},
					{
						"astId": 116,
						"contract": "contracts/ICO_Contract.sol:ICO_Contract",
						"label": "BlackList_Addresses",
						"offset": 0,
						"slot": "13",
						"type": "t_mapping(t_address,t_bool)"
					}
				],
				"types": {
					"t_address": {
						"encoding": "inplace",
						"label": "address",
						"numberOfBytes": "20"
					},
					"t_bool": {
						"encoding": "inplace",
						"label": "bool",
						"numberOfBytes": "1"
					},
					"t_contract(I_ICO_Token)81": {
						"encoding": "inplace",
						"label": "contract I_ICO_Token",
						"numberOfBytes": "20"
					},
					"t_mapping(t_address,t_bool)": {
						"encoding": "mapping",
						"key": "t_address",
						"label": "mapping(address => bool)",
						"numberOfBytes": "32",
						"value": "t_bool"
					},
					"t_mapping(t_address,t_uint256)": {
						"encoding": "mapping",
						"key": "t_address",
						"label": "mapping(address => uint256)",
						"numberOfBytes": "32",
						"value": "t_uint256"
					},
					"t_uint256": {
						"encoding": "inplace",
						"label": "uint256",
						"numberOfBytes": "32"
					}
				}
			},
			"userdoc": {
				"kind": "user",
				"methods": {},
				"version": 1
			}
		}
	}
}