{
  "contractName": "ICO_Contract",
  "abi": [
    {
      "inputs": [
        {
          "internalType": "address",
          "name": "_Owners_Wallet",
          "type": "address"
        }
      ],
      "stateMutability": "nonpayable",
      "type": "constructor"
    },
    {
      "inputs": [],
      "name": "Amount_Rate",
      "outputs": [
        {
          "internalType": "uint256",
          "name": "",
          "type": "uint256"
        }
      ],
      "stateMutability": "view",
      "type": "function"
    },
    {
      "inputs": [
        {
          "internalType": "address",
          "name": "",
          "type": "address"
        }
      ],
      "name": "BlackList_Addresses",
      "outputs": [
        {
          "internalType": "bool",
          "name": "",
          "type": "bool"
        }
      ],
      "stateMutability": "view",
      "type": "function"
    },
    {
      "inputs": [],
      "name": "EndTime",
      "outputs": [
        {
          "internalType": "uint256",
          "name": "",
          "type": "uint256"
        }
      ],
      "stateMutability": "view",
      "type": "function"
    },
    {
      "inputs": [],
      "name": "MaxTokensToSell",
      "outputs": [
        {
          "internalType": "uint256",
          "name": "",
          "type": "uint256"
        }
      ],
      "stateMutability": "view",
      "type": "function"
    },
    {
      "inputs": [],
      "name": "Owner",
      "outputs": [
        {
          "internalType": "address",
          "name": "",
          "type": "address"
        }
      ],
      "stateMutability": "view",
      "type": "function"
    },
    {
      "inputs": [],
      "name": "Owners_Wallet",
      "outputs": [
        {
          "internalType": "address",
          "name": "",
          "type": "address"
        }
      ],
      "stateMutability": "view",
      "type": "function"
    },
    {
      "inputs": [
        {
          "internalType": "address",
          "name": "",
          "type": "address"
        }
      ],
      "name": "PresaleHolders",
      "outputs": [
        {
          "internalType": "uint256",
          "name": "",
          "type": "uint256"
        }
      ],
      "stateMutability": "view",
      "type": "function"
    },
    {
      "inputs": [],
      "name": "Rate",
      "outputs": [
        {
          "internalType": "uint256",
          "name": "",
          "type": "uint256"
        }
      ],
      "stateMutability": "view",
      "type": "function"
    },
    {
      "inputs": [],
      "name": "RemainingTokensToSell",
      "outputs": [
        {
          "internalType": "uint256",
          "name": "",
          "type": "uint256"
        }
      ],
      "stateMutability": "view",
      "type": "function"
    },
    {
      "inputs": [],
      "name": "StartTime",
      "outputs": [
        {
          "internalType": "uint256",
          "name": "",
          "type": "uint256"
        }
      ],
      "stateMutability": "view",
      "type": "function"
    },
    {
      "inputs": [],
      "name": "TokenAddress",
      "outputs": [
        {
          "internalType": "address",
          "name": "",
          "type": "address"
        }
      ],
      "stateMutability": "view",
      "type": "function"
    },
    {
      "inputs": [],
      "name": "isSale_Open",
      "outputs": [
        {
          "internalType": "bool",
          "name": "",
          "type": "bool"
        }
      ],
      "stateMutability": "view",
      "type": "function"
    },
    {
      "inputs": [],
      "name": "numberOfPresaleTokensHolder",
      "outputs": [
        {
          "internalType": "uint256",
          "name": "",
          "type": "uint256"
        }
      ],
      "stateMutability": "view",
      "type": "function"
    },
    {
      "inputs": [
        {
          "internalType": "address",
          "name": "_Contract_Address",
          "type": "address"
        }
      ],
      "name": "Setup_Address",
      "outputs": [],
      "stateMutability": "nonpayable",
      "type": "function"
    },
    {
      "inputs": [],
      "name": "CloseSale",
      "outputs": [],
      "stateMutability": "nonpayable",
      "type": "function"
    },
    {
      "inputs": [
        {
          "internalType": "address",
          "name": "BAddress",
          "type": "address"
        },
        {
          "internalType": "bool",
          "name": "flag",
          "type": "bool"
        }
      ],
      "name": "SetUpBlackListAddress",
      "outputs": [],
      "stateMutability": "nonpayable",
      "type": "function"
    },
    {
      "inputs": [
        {
          "internalType": "uint256",
          "name": "Amount",
          "type": "uint256"
        }
      ],
      "name": "BuyTokens",
      "outputs": [
        {
          "internalType": "bool",
          "name": "",
          "type": "bool"
        }
      ],
      "stateMutability": "payable",
      "type": "function"
    },
    {
      "inputs": [],
      "name": "CheckingRemainingPresaleTokens",
      "outputs": [
        {
          "internalType": "uint256",
          "name": "",
          "type": "uint256"
        }
      ],
      "stateMutability": "view",
      "type": "function"
    },
    {
      "inputs": [
        {
          "internalType": "uint256",
          "name": "_Rate",
          "type": "uint256"
        }
      ],
      "name": "updateRate",
      "outputs": [],
      "stateMutability": "nonpayable",
      "type": "function"
    },
    {
      "inputs": [
        {
          "internalType": "address",
          "name": "NewOwner",
          "type": "address"
        }
      ],
      "name": "ChangeOwner",
      "outputs": [
        {
          "internalType": "bool",
          "name": "",
          "type": "bool"
        }
      ],
      "stateMutability": "nonpayable",
      "type": "function"
    },
    {
      "inputs": [],
      "name": "GetTokenName",
      "outputs": [
        {
          "internalType": "string",
          "name": "",
          "type": "string"
        }
      ],
      "stateMutability": "view",
      "type": "function"
    },
    {
      "inputs": [],
      "name": "GetSymbol",
      "outputs": [
        {
          "internalType": "string",
          "name": "",
          "type": "string"
        }
      ],
      "stateMutability": "view",
      "type": "function"
    },
    {
      "inputs": [],
      "name": "decimalss",
      "outputs": [
        {
          "internalType": "uint256",
          "name": "",
          "type": "uint256"
        }
      ],
      "stateMutability": "view",
      "type": "function"
    },
    {
      "inputs": [],
      "name": "OverAllTotalSupply",
      "outputs": [
        {
          "internalType": "uint256",
          "name": "",
          "type": "uint256"
        }
      ],
      "stateMutability": "view",
      "type": "function"
    },
    {
      "inputs": [
        {
          "internalType": "address",
          "name": "account",
          "type": "address"
        }
      ],
      "name": "balanceOf",
      "outputs": [
        {
          "internalType": "uint256",
          "name": "",
          "type": "uint256"
        }
      ],
      "stateMutability": "view",
      "type": "function"
    },
    {
      "inputs": [],
      "name": "getPriceOFPresaleToken",
      "outputs": [
        {
          "internalType": "uint256",
          "name": "",
          "type": "uint256"
        }
      ],
      "stateMutability": "view",
      "type": "function"
    },
    {
      "inputs": [],
      "name": "GetStartTimeofPresale",
      "outputs": [
        {
          "internalType": "uint256",
          "name": "",
          "type": "uint256"
        }
      ],
      "stateMutability": "view",
      "type": "function"
    },
    {
      "inputs": [],
      "name": "numberOfPresaleHolders",
      "outputs": [
        {
          "internalType": "uint256",
          "name": "",
          "type": "uint256"
        }
      ],
      "stateMutability": "view",
      "type": "function"
    },
    {
      "inputs": [],
      "name": "Sale",
      "outputs": [
        {
          "internalType": "bool",
          "name": "",
          "type": "bool"
        }
      ],
      "stateMutability": "view",
      "type": "function"
    },
    {
      "inputs": [],
      "name": "GetEndingTime",
      "outputs": [
        {
          "internalType": "uint256",
          "name": "",
          "type": "uint256"
        }
      ],
      "stateMutability": "view",
      "type": "function"
    }
  ],
  "bytecode": "0x60806040523480156200001157600080fd5b506040516200218a3803806200218a833981810160405281019062000037919062000156565b42600081905550620d2f00426200004f919062000188565b6001819055506001600260006101000a81548160ff02191690831515021790555080600260016101000a81548173ffffffffffffffffffffffffffffffffffffffff021916908373ffffffffffffffffffffffffffffffffffffffff16021790555033600460006101000a81548173ffffffffffffffffffffffffffffffffffffffff021916908373ffffffffffffffffffffffffffffffffffffffff1602179055506a0422ca8b0a00a42500000060078190555060075460088190555060016005819055506064600a819055506000600b60006101000a81548160ff0219169083151502179055505062000271565b600081519050620001508162000257565b92915050565b6000602082840312156200016f576200016e62000252565b5b60006200017f848285016200013f565b91505092915050565b6000620001958262000219565b9150620001a28362000219565b9250827fffffffffffffffffffffffffffffffffffffffffffffffffffffffffffffffff03821115620001da57620001d962000223565b5b828201905092915050565b6000620001f282620001f9565b9050919050565b600073ffffffffffffffffffffffffffffffffffffffff82169050919050565b6000819050919050565b7f4e487b7100000000000000000000000000000000000000000000000000000000600052601160045260246000fd5b600080fd5b6200026281620001e5565b81146200026e57600080fd5b50565b611f0980620002816000396000f3fe6080604052600436106101cd5760003560e01c806380efea55116100f7578063c2cba30611610095578063f0b4e8f711610064578063f0b4e8f714610641578063f28532921461067e578063fa08af88146106bb578063fc4a4a1e146106e4576101cd565b8063c2cba30614610595578063c43a7752146105c0578063e6be9516146105eb578063edbb7f7714610616576101cd565b8063b4a99a4e116100d1578063b4a99a4e146104fd578063b78f9de714610528578063bd998dc814610553578063c0497ca61461056a576101cd565b806380efea551461046557806389749adb146104a2578063914690ed146104d2576101cd565b806331627c261161016f57806369ea17711161013e57806369ea1771146103a95780636abfde00146103d257806370a08231146103fd57806380de983b1461043a576101cd565b806331627c26146102fd5780633336097814610328578063388981ad1461035357806347fa94e91461037e576101cd565b8063179945c3116101ab578063179945c3146102515780631b8e94a11461027c57806324f0bd09146102a75780632561eea8146102d2576101cd565b806311aed7b3146101d257806311b97bef146101fd578063128d0d0214610228575b600080fd5b3480156101de57600080fd5b506101e761070f565b6040516101f491906118b0565b60405180910390f35b34801561020957600080fd5b50610212610722565b60405161021f9190611a0d565b60405180910390f35b34801561023457600080fd5b5061024f600480360381019061024a919061158e565b6107c9565b005b34801561025d57600080fd5b50610266610984565b604051610273919061186c565b60405180910390f35b34801561028857600080fd5b506102916109aa565b60405161029e9190611a0d565b60405180910390f35b3480156102b357600080fd5b506102bc6109b0565b6040516102c99190611a0d565b60405180910390f35b3480156102de57600080fd5b506102e7610a5a565b6040516102f49190611a0d565b60405180910390f35b34801561030957600080fd5b50610312610a64565b60405161031f9190611a0d565b60405180910390f35b34801561033457600080fd5b5061033d610a6a565b60405161034a9190611a0d565b60405180910390f35b34801561035f57600080fd5b50610368610a70565b60405161037591906118cb565b60405180910390f35b34801561038a57600080fd5b50610393610b1c565b6040516103a09190611a0d565b60405180910390f35b3480156103b557600080fd5b506103d060048036038101906103cb9190611644565b610b26565b005b3480156103de57600080fd5b506103e7610bc0565b6040516103f49190611a0d565b60405180910390f35b34801561040957600080fd5b50610424600480360381019061041f919061158e565b610bc6565b6040516104319190611a0d565b60405180910390f35b34801561044657600080fd5b5061044f610c7a565b60405161045c9190611a0d565b60405180910390f35b34801561047157600080fd5b5061048c6004803603810190610487919061158e565b610c83565b6040516104999190611a0d565b60405180910390f35b6104bc60048036038101906104b79190611644565b610c9b565b6040516104c991906118b0565b60405180910390f35b3480156104de57600080fd5b506104e7610f99565b6040516104f49190611a0d565b60405180910390f35b34801561050957600080fd5b50610512610fa3565b60405161051f919061186c565b60405180910390f35b34801561053457600080fd5b5061053d610fc9565b60405161054a91906118b0565b60405180910390f35b34801561055f57600080fd5b50610568610fe0565b005b34801561057657600080fd5b5061057f6110dc565b60405161058c91906118cb565b60405180910390f35b3480156105a157600080fd5b506105aa611188565b6040516105b7919061186c565b60405180910390f35b3480156105cc57600080fd5b506105d56111ae565b6040516105e29190611a0d565b60405180910390f35b3480156105f757600080fd5b506106006111b8565b60405161060d9190611a0d565b60405180910390f35b34801561062257600080fd5b5061062b6111be565b6040516106389190611a0d565b60405180910390f35b34801561064d57600080fd5b506106686004803603810190610663919061158e565b6111c4565b60405161067591906118b0565b60405180910390f35b34801561068a57600080fd5b506106a560048036038101906106a0919061158e565b6111e4565b6040516106b291906118b0565b60405180910390f35b3480156106c757600080fd5b506106e260048036038101906106dd91906115bb565b6113c4565b005b3480156106f057600080fd5b506106f96114af565b6040516107069190611a0d565b60405180910390f35b600260009054906101000a900460ff1681565b6000600660009054906101000a900473ffffffffffffffffffffffffffffffffffffffff1673ffffffffffffffffffffffffffffffffffffffff166318160ddd6040518163ffffffff1660e01b815260040160206040518083038186803b15801561078c57600080fd5b505afa1580156107a0573d6000803e3d6000fd5b505050506040513d601f19601f820116820180604052508101906107c49190611671565b905090565b600460009054906101000a900473ffffffffffffffffffffffffffffffffffffffff1673ffffffffffffffffffffffffffffffffffffffff163373ffffffffffffffffffffffffffffffffffffffff1614610859576040517f08c379a0000000000000000000000000000000000000000000000000000000008152600401610850906118ed565b60405180910390fd5b600073ffffffffffffffffffffffffffffffffffffffff168173ffffffffffffffffffffffffffffffffffffffff1614156108c9576040517f08c379a00000000000000000000000000000000000000000000000000000000081526004016108c0906119ed565b60405180910390fd5b80600660006101000a81548173ffffffffffffffffffffffffffffffffffffffff021916908373ffffffffffffffffffffffffffffffffffffffff16021790555080600360006101000a81548173ffffffffffffffffffffffffffffffffffffffff021916908373ffffffffffffffffffffffffffffffffffffffff1602179055506001600260006101000a81548160ff0219169083151502179055506001600b60006101000a81548160ff02191690831515021790555050565b600260019054906101000a900473ffffffffffffffffffffffffffffffffffffffff1681565b60055481565b6000600660009054906101000a900473ffffffffffffffffffffffffffffffffffffffff1673ffffffffffffffffffffffffffffffffffffffff1663313ce5676040518163ffffffff1660e01b815260040160206040518083038186803b158015610a1a57600080fd5b505afa158015610a2e573d6000803e3d6000fd5b505050506040513d601f19601f82011682018060405250810190610a52919061169e565b60ff16905090565b6000600954905090565b60085481565b60015481565b6060600660009054906101000a900473ffffffffffffffffffffffffffffffffffffffff1673ffffffffffffffffffffffffffffffffffffffff166306fdde036040518163ffffffff1660e01b815260040160006040518083038186803b158015610ada57600080fd5b505afa158015610aee573d6000803e3d6000fd5b505050506040513d6000823e3d601f19601f82011682018060405250810190610b1791906115fb565b905090565b6000600154905090565b600460009054906101000a900473ffffffffffffffffffffffffffffffffffffffff1673ffffffffffffffffffffffffffffffffffffffff163373ffffffffffffffffffffffffffffffffffffffff1614610bb6576040517f08c379a0000000000000000000000000000000000000000000000000000000008152600401610bad906118ed565b60405180910390fd5b8060058190555050565b60075481565b6000600660009054906101000a900473ffffffffffffffffffffffffffffffffffffffff1673ffffffffffffffffffffffffffffffffffffffff166370a08231836040518263ffffffff1660e01b8152600401610c23919061186c565b60206040518083038186803b158015610c3b57600080fd5b505afa158015610c4f573d6000803e3d6000fd5b505050506040513d601f19601f82011682018060405250810190610c739190611671565b9050919050565b60008054905090565b600c6020528060005260406000206000915090505481565b600060011515600d60003373ffffffffffffffffffffffffffffffffffffffff1673ffffffffffffffffffffffffffffffffffffffff16815260200190815260200160002060009054906101000a900460ff1615151415610d31576040517f08c379a0000000000000000000000000000000000000000000000000000000008152600401610d28906119ad565b60405180910390fd5b6000544210158015610d4557506001544211155b610d84576040517f08c379a0000000000000000000000000000000000000000000000000000000008152600401610d7b9061190d565b60405180910390fd5b600554341015610dc9576040517f08c379a0000000000000000000000000000000000000000000000000000000008152600401610dc09061196d565b60405180910390fd5b600754821115610e0e576040517f08c379a0000000000000000000000000000000000000000000000000000000008152600401610e059061194d565b60405180910390fd5b6000600a5483610e1e9190611af0565b9050600260019054906101000a900473ffffffffffffffffffffffffffffffffffffffff1673ffffffffffffffffffffffffffffffffffffffff166108fc349081150290604051600060405180830381858888f19350505050158015610e88573d6000803e3d6000fd5b50600660009054906101000a900473ffffffffffffffffffffffffffffffffffffffff1673ffffffffffffffffffffffffffffffffffffffff166340c10f1933836040518363ffffffff1660e01b8152600401610ee6929190611887565b600060405180830381600087803b158015610f0057600080fd5b505af1158015610f14573d6000803e3d6000fd5b5050505080600c60003373ffffffffffffffffffffffffffffffffffffffff1673ffffffffffffffffffffffffffffffffffffffff16815260200190815260200160002081905550600160096000828254610f6f9190611a9a565b925050819055508060086000828254610f889190611b4a565b925050819055506001915050919050565b6000600854905090565b600460009054906101000a900473ffffffffffffffffffffffffffffffffffffffff1681565b6000600260009054906101000a900460ff16905090565b600460009054906101000a900473ffffffffffffffffffffffffffffffffffffffff1673ffffffffffffffffffffffffffffffffffffffff163373ffffffffffffffffffffffffffffffffffffffff1614611070576040517f08c379a0000000000000000000000000000000000000000000000000000000008152600401611067906118ed565b60405180910390fd5b600260009054906101000a900460ff166110bf576040517f08c379a00000000000000000000000000000000000000000000000000000000081526004016110b6906119cd565b60405180910390fd5b6000600260006101000a81548160ff021916908315150217905550565b6060600660009054906101000a900473ffffffffffffffffffffffffffffffffffffffff1673ffffffffffffffffffffffffffffffffffffffff166395d89b416040518163ffffffff1660e01b815260040160006040518083038186803b15801561114657600080fd5b505afa15801561115a573d6000803e3d6000fd5b505050506040513d6000823e3d601f19601f8201168201806040525081019061118391906115fb565b905090565b600360009054906101000a900473ffffffffffffffffffffffffffffffffffffffff1681565b6000600554905090565b600a5481565b60095481565b600d6020528060005260406000206000915054906101000a900460ff1681565b6000600460009054906101000a900473ffffffffffffffffffffffffffffffffffffffff1673ffffffffffffffffffffffffffffffffffffffff163373ffffffffffffffffffffffffffffffffffffffff1614611276576040517f08c379a000000000000000000000000000000000000000000000000000000000815260040161126d906118ed565b60405180910390fd5b600073ffffffffffffffffffffffffffffffffffffffff168273ffffffffffffffffffffffffffffffffffffffff1614156112e6576040517f08c379a00000000000000000000000000000000000000000000000000000000081526004016112dd9061198d565b60405180910390fd5b60011515600d60008473ffffffffffffffffffffffffffffffffffffffff1673ffffffffffffffffffffffffffffffffffffffff16815260200190815260200160002060009054906101000a900460ff161515141561137a576040517f08c379a00000000000000000000000000000000000000000000000000000000081526004016113719061192d565b60405180910390fd5b81600460006101000a81548173ffffffffffffffffffffffffffffffffffffffff021916908373ffffffffffffffffffffffffffffffffffffffff16021790555060019050919050565b600460009054906101000a900473ffffffffffffffffffffffffffffffffffffffff1673ffffffffffffffffffffffffffffffffffffffff163373ffffffffffffffffffffffffffffffffffffffff1614611454576040517f08c379a000000000000000000000000000000000000000000000000000000000815260040161144b906118ed565b60405180910390fd5b80600d60008473ffffffffffffffffffffffffffffffffffffffff1673ffffffffffffffffffffffffffffffffffffffff16815260200190815260200160002060006101000a81548160ff0219169083151502179055505050565b60005481565b60006114c86114c384611a4d565b611a28565b9050828152602081018484840111156114e4576114e3611c9a565b5b6114ef848285611bd3565b509392505050565b60008135905061150681611e77565b92915050565b60008135905061151b81611e8e565b92915050565b600082601f83011261153657611535611c95565b5b81516115468482602086016114b5565b91505092915050565b60008135905061155e81611ea5565b92915050565b60008151905061157381611ea5565b92915050565b60008151905061158881611ebc565b92915050565b6000602082840312156115a4576115a3611ca4565b5b60006115b2848285016114f7565b91505092915050565b600080604083850312156115d2576115d1611ca4565b5b60006115e0858286016114f7565b92505060206115f18582860161150c565b9150509250929050565b60006020828403121561161157611610611ca4565b5b600082015167ffffffffffffffff81111561162f5761162e611c9f565b5b61163b84828501611521565b91505092915050565b60006020828403121561165a57611659611ca4565b5b60006116688482850161154f565b91505092915050565b60006020828403121561168757611686611ca4565b5b600061169584828501611564565b91505092915050565b6000602082840312156116b4576116b3611ca4565b5b60006116c284828501611579565b91505092915050565b6116d481611b7e565b82525050565b6116e381611b90565b82525050565b60006116f482611a7e565b6116fe8185611a89565b935061170e818560208601611bd3565b61171781611ca9565b840191505092915050565b600061172f601583611a89565b915061173a82611cba565b602082019050919050565b6000611752601783611a89565b915061175d82611ce3565b602082019050919050565b6000611775601983611a89565b915061178082611d0c565b602082019050919050565b6000611798602c83611a89565b91506117a382611d35565b604082019050919050565b60006117bb601983611a89565b91506117c682611d84565b602082019050919050565b60006117de601e83611a89565b91506117e982611dad565b602082019050919050565b6000611801602f83611a89565b915061180c82611dd6565b604082019050919050565b6000611824601f83611a89565b915061182f82611e25565b602082019050919050565b6000611847601a83611a89565b915061185282611e4e565b602082019050919050565b61186681611bbc565b82525050565b600060208201905061188160008301846116cb565b92915050565b600060408201905061189c60008301856116cb565b6118a9602083018461185d565b9392505050565b60006020820190506118c560008301846116da565b92915050565b600060208201905081810360008301526118e581846116e9565b905092915050565b6000602082019050818103600083015261190681611722565b9050919050565b6000602082019050818103600083015261192681611745565b9050919050565b6000602082019050818103600083015261194681611768565b9050919050565b600060208201905081810360008301526119668161178b565b9050919050565b60006020820190508181036000830152611986816117ae565b9050919050565b600060208201905081810360008301526119a6816117d1565b9050919050565b600060208201905081810360008301526119c6816117f4565b9050919050565b600060208201905081810360008301526119e681611817565b9050919050565b60006020820190508181036000830152611a068161183a565b9050919050565b6000602082019050611a22600083018461185d565b92915050565b6000611a32611a43565b9050611a3e8282611c06565b919050565b6000604051905090565b600067ffffffffffffffff821115611a6857611a67611c66565b5b611a7182611ca9565b9050602081019050919050565b600081519050919050565b600082825260208201905092915050565b6000611aa582611bbc565b9150611ab083611bbc565b9250827fffffffffffffffffffffffffffffffffffffffffffffffffffffffffffffffff03821115611ae557611ae4611c37565b5b828201905092915050565b6000611afb82611bbc565b9150611b0683611bbc565b9250817fffffffffffffffffffffffffffffffffffffffffffffffffffffffffffffffff0483118215151615611b3f57611b3e611c37565b5b828202905092915050565b6000611b5582611bbc565b9150611b6083611bbc565b925082821015611b7357611b72611c37565b5b828203905092915050565b6000611b8982611b9c565b9050919050565b60008115159050919050565b600073ffffffffffffffffffffffffffffffffffffffff82169050919050565b6000819050919050565b600060ff82169050919050565b60005b83811015611bf1578082015181840152602081019050611bd6565b83811115611c00576000848401525b50505050565b611c0f82611ca9565b810181811067ffffffffffffffff82111715611c2e57611c2d611c66565b5b80604052505050565b7f4e487b7100000000000000000000000000000000000000000000000000000000600052601160045260246000fd5b7f4e487b7100000000000000000000000000000000000000000000000000000000600052604160045260246000fd5b600080fd5b600080fd5b600080fd5b600080fd5b6000601f19601f8301169050919050565b7f6f6e6c79206f6e7765722063616e207573652069740000000000000000000000600082015250565b7f73616c65206973206e6f74207374617274656420796574000000000000000000600082015250565b7f6974206973206120626c61636b6c697374206164647265737300000000000000600082015250565b7f7765206f66666572206c696d6974656420616d6f756e74206f6620746f6b656e60008201527f7320696e2070726573616c650000000000000000000000000000000000000000602082015250565b7f6d696e696d756d20707269636520697320317920657468657200000000000000600082015250565b7f7a65726f20616464726573732063616e6e6f74206220616e206f776e65720000600082015250565b7f626c636b6c697374206164647265737365732063616e6f6e6f742074616b652060008201527f7061727420696e2070726573616c650000000000000000000000000000000000602082015250565b7f73616c6520697320616c7265616479206e6f7420737461727465642079657400600082015250565b7f7a65726f206164647265737320697320646973616c6c6f776564000000000000600082015250565b611e8081611b7e565b8114611e8b57600080fd5b50565b611e9781611b90565b8114611ea257600080fd5b50565b611eae81611bbc565b8114611eb957600080fd5b50565b611ec581611bc6565b8114611ed057600080fd5b5056fea2646970667358221220c26c5593ce20dd4ae624040647f54a416f8202d6286a8eb0d5dfc20deb9eceea64736f6c63430008070033",
  "immutableReferences": {},
  "source": "// SPDX-License-Identifier: MIT\npragma solidity ^ 0.8.0;\n\ninterface I_ICO_Token{\n     function totalSupply() external view returns (uint256);\n    function balanceOf(address account) external view returns (uint256);\n    function transfer(address recipient, uint256 amount) external returns (bool);\n    function allowance(address owner, address spender) external view returns (uint256);\n    function approve(address spender, uint256 amount) external returns (bool);\n    function transferFrom(address sender, address recipient, uint256 amount) external returns (bool);\n    function mint(address account, uint256 amount) external;\n    function burn(address account, uint256 amount) external; \n    function name() external view returns (string memory);\n    function symbol() external view returns (string memory);\n    function decimals() external view returns (uint8);\n}\n\ncontract ICO_Contract{\n    \n    uint public StartTime;\n    uint public EndTime;\n    bool public isSale_Open;\n    address public Owners_Wallet;\n    address public TokenAddress;\n    address public Owner;\n    uint public Rate;\n    I_ICO_Token Token;\n    uint public MaxTokensToSell;\n    uint public RemainingTokensToSell;\n    uint public numberOfPresaleTokensHolder;\n    uint public Amount_Rate;                   //1000 tokens for 1 ether\n    bool isSetup;\n\n    mapping(address => uint) public PresaleHolders;\n    mapping(address => bool) public BlackList_Addresses;\n\n\n\n    constructor(address _Owners_Wallet){\n        StartTime = block.timestamp;\n        EndTime =  block.timestamp + 10 days;\n        isSale_Open = true;\n        Owners_Wallet = _Owners_Wallet;\n        Owner = msg.sender;\n        MaxTokensToSell = 5000000000000000000000000;\n        RemainingTokensToSell = MaxTokensToSell;\n        Rate = 1 wei;\n        Amount_Rate = 100;\n        isSetup = false;\n\n    }\n\n    function Setup_Address(address _Contract_Address)public onlyOwner{\n    require(_Contract_Address!=address(0),\"zero address is disallowed\");\n  //  require(isSetup != true,\"Already setup\");\n    Token = I_ICO_Token(_Contract_Address);\n    TokenAddress = _Contract_Address;\n    isSale_Open = true;\n    isSetup = true;\n    }\n\n    modifier onlyOwner(){\n    require(msg.sender == Owner,\"only onwer can use it\");\n    _;}\n\n\n    function CloseSale() public onlyOwner{\n        require(isSale_Open,\"sale is already not started yet\");\n        isSale_Open = false;\n    }\n\n    function SetUpBlackListAddress(address BAddress,bool flag)public onlyOwner{\n        BlackList_Addresses[BAddress] = flag;\n    }\n    \n    \n    function BuyTokens(uint Amount)public payable returns(bool){ //give amount in wei\n     require(BlackList_Addresses[msg.sender]!=true,\"blcklist addresses canonot take part in presale\");\n     require(block.timestamp >= StartTime && block.timestamp <= EndTime,\"sale is not started yet\");\n     require(msg.value >= Rate,\"minimum price is 1y ether\");\n     require(Amount <= MaxTokensToSell,\"we offer limited amount of tokens in presale\");\n\n     uint Tokens_you_got = (Amount * Amount_Rate) ;   \n     payable(Owners_Wallet).transfer(msg.value);\n     Token.mint(msg.sender,Tokens_you_got);\n     PresaleHolders[msg.sender]=Tokens_you_got;\n     numberOfPresaleTokensHolder+=1;\n     RemainingTokensToSell-=Tokens_you_got;\n     return true;\n     \n    }\n\n    function CheckingRemainingPresaleTokens()public view returns(uint){\n     return RemainingTokensToSell;\n    }\n\n    function updateRate(uint _Rate) public onlyOwner{\n        Rate = _Rate;\n    }\n \n    function ChangeOwner(address NewOwner)public onlyOwner returns(bool){\n    require(NewOwner!=address(0),\"zero address cannot b an owner\");\n    require(BlackList_Addresses[NewOwner]!=true,\"it is a blacklist address\");\n    Owner = NewOwner;\n    return true;\n    }\n    function GetTokenName() public view returns(string memory){\n      return Token.name();\n    }\n     function GetSymbol() public view returns(string memory){\n      return Token.symbol();\n    }\n     function decimalss() public view returns(uint){\n      return Token.decimals();\n    }\n    function OverAllTotalSupply() public view returns(uint){\n     return Token.totalSupply();\n      \n    }\n    \n     function balanceOf(address account) public view returns(uint256) {\n        return Token.balanceOf(account);\n    }\n    function getPriceOFPresaleToken() public view returns(uint){\n      return Rate;\n    }\n    function GetStartTimeofPresale() public view returns(uint){\n      return StartTime;\n    }\n    function numberOfPresaleHolders()public view returns(uint){\n      return numberOfPresaleTokensHolder;\n    }\n    function Sale()public view returns(bool){\n      return isSale_Open;\n    }\n    function GetEndingTime()public view returns(uint){\n      return EndTime;\n    }\n\n\n}",
  "sourcePath": "C:\\Users\\Al Madina\\Desktop\\ico-dapp00\\DAPP\\contracts\\ICO_Contract.sol",
  "compiler": {
    "name": "solc",
    "version": "0.8.7+commit.e28d00a7.Emscripten.clang"
  },
  "schemaVersion": "3.4.7",
  "updatedAt": "2022-06-28T07:43:40.539Z",
  "devdoc": {
    "kind": "dev",
    "methods": {},
    "version": 1
  },
  "userdoc": {
    "kind": "user",
    "methods": {},
    "version": 1
  }
}